:020000040800F2
:100000005822012441030008594C000809480008FF
:10001000E14A00089108000851540008000000005F
:100020000000000000000000000000000151000876
:100030002113000800000000F14D000831510008B4
:100040005F0300085F0300085F0300085F03000808
:100050005F0300085F0300085F0300085F030008F8
:100060005F0300085F0300085F0300085F030008E8
:100070005F0300085F0300085F0300085F030008D8
:100080005F0300085F0300085F030008F115000824
:100090001116000801160008211600085F03000869
:1000A0005F0300085F0300085F0300085F030008A8
:1000B0005F0300085F0300085F0300085F03000898
:1000C0005F0300085F0300085F0300085F03000888
:1000D0005F0300085F0300085F0300085F03000878
:1000E0005F0300085F030008000000005F030008D2
:1000F0005F0300085F0300085F0300085F03000858
:100100005F0300085F0300085F0300085F03000847
:100110005F0300085F0300085F0300080153000845
:100120005F0300085F0300085F0300085F03000827
:100130005F0300085F0300085F0300085F03000817
:1001400000000000000000000000000000000000AF
:100150005F0300085F0300085F0300085F030008F7
:100160005F0300085F0300085F0300085F030008E7
:100170005F0300085F0300085F0300080000000041
:100180005F0300085F0300085F0300085F030008C7
:100190005F0300085F0300085F0300085F030008B7
:1001A0005F0300085F0300085F0300085F030008A7
:1001B0005F0300085F0300085F0300085F03000897
:1001C0005F0300085F0300085F0300085F03000887
:1001D0005F0300085F0300085F0300085F03000877
:1001E0005F0300085F0300085F0300085F03000867
:1001F0005F0300085F0300085F0300085F03000857
:100200005F0300085F0300085F0300085F03000846
:100210005F0300085F0300085F0300085F03000836
:100220005F0300085F0300085F0300080000000090
:100230005F0300085F030008000000005F03000880
:100240005F0300085F0300085F0300085F03000806
:100250005F0300085F0300085F0300085F030008F6
:100260005F0300085F0300085F0300085F030008E6
:100270005F0300085F0300085F0300080000000040
:100280005F0300085F0300085F0300080000000030
:10029000000000005F03000800F002F800F040F8E2
:1002A0000AA090E8000C82448344AAF10107DA45D1
:1002B00001D100F035F8AFF2090EBAE80F0013F0E3
:1002C000010F18BFFB1A43F00103184770770000B5
:1002D00090770000103A24BF78C878C1FAD8520746
:1002E00024BF30C830C144BF04680C6070470000B0
:1002F0000023002400250026103A28BF78C1FBD82F
:10030000520728BF30C148BF0B6070471FB507F0C8
:1003100047FA9DE8030000F0CBF91FBD10B510BDF2
:1003200000F032FA1146FFF7F1FF05F005FA00F090
:1003300050FA03B4FFF7F2FF03BC00F081FA0000AB
:100340000A4880470A4880470A480047FEE7FEE718
:10035000FEE7FEE7FEE7FEE7FEE7FEE7FEE7FEE775
:1003600005480649064A074B70470000D1150008AA
:10037000115200089902000858D200245822012482
:10038000581201245812012470B5064600F074F981
:10039000056806F10B0020F00704B4429CBF002062
:1003A00070BD2B466A68BAB11068A04210D304F140
:1003B000080188423CBF5068586007D35168101943
:1003C00041601168091B016058601460101D70BD08
:1003D00013465268002AE7D12146284600F054F916
:1003E0000028DED170BD70B50446051F00F044F949
:1003F0000068002C14BF446870BD002C18BFAC42CC
:100400003CBF20466468F8D301680A18AA4218BFA6
:10041000456003D12A6805461144016028684119E6
:10042000A1421CBF6C6070BD6168696021680844AE
:10043000286070BD53EA020C00F069802DE9F04B92
:100440004FF00006002B1FBFB3FA83F503FA05F443
:1004500024FA05F65E4012BF1643B2FA82F502FA9C
:1004600005F4C5F120051EBF22FA05FC44EA0C0480
:10047000203556EA044C4FEA144418BF641C4FF070
:1004800000084FF00009904271EB030C39D30029AA
:1004900019BFB1FA81F701FA07F6B0FA80F700FA4E
:1004A00007F6C7F120071EBF20FA07FC46EA0C0634
:1004B0002037B6FBF4FCA7EB0507103F07F01F0B36
:1004C000CBF120062CFA06F60CFA0BFB44BFB34620
:1004D0000026202FA4BF5E464FF0000B5BEA060CFF
:1004E00008BF4FF0010B19EB0B0948EB0608ABFBFB
:1004F000027C06FB02CC0BFB03CCC01B71EB0C0196
:10050000C1E70B46024641464846BDE8F08B13B5AD
:10051000084318BF4FF0FF300146AFF30080BDE83D
:100520001C407047032A40F2308010F0030C00F0AA
:10053000158011F8013BBCF1020F624498BF11F81D
:1005400001CB00F8013B38BF11F8013BA2F10402D6
:1005500098BF00F801CB38BF00F8013B11F003034E
:1005600000F02580083AC0F0088051F8043B083AB2
:1005700051F804CBA0E80810F5E7121D5CBF51F854
:10058000043B40F8043BAFF30080D20724BF11F8CE
:10059000013B11F801CB48BF11F8012B24BF00F833
:1005A000013B00F801CB48BF00F8012B704710B5A4
:1005B000203AC0F00B80B1E81850A0E81850B1E81C
:1005C0001850A0E81850203ABFF4F5AF5FEA027C5B
:1005D00024BFB1E81850A0E8185044BF18C918C08B
:1005E000BDE810405FEA827C24BF51F8043B40F82C
:1005F000043B08BF7047D20728BF31F8023B48BF11
:1006000011F8012B28BF20F8023B48BF00F8012B4E
:10061000704702F0FF0343EA032242EA024200F07D
:1006200002B84FF0000200B51346944696462039B2
:1006300022BFA0E80C50A0E80C50B1F12001BFF49B
:10064000F7AF090728BFA0E80C5048BF0CC05DF801
:1006500004EB890028BF40F8042B08BF704748BF4F
:1006600020F8022B11F0804F18BF00F8012B7047C3
:100670007047704770470000004870473000002402
:10068000704770477047704738B504460A460020E7
:100690006946AFF30080002808BF38BD02460099C4
:1006A000204600F04FF8012038BD012000F064B86A
:1006B000F8B5AFF30080054600200C46102000BFBF
:1006C0000646A819A0420DD9324669460020AFF36C
:1006D0000080070008BF00F04FF80098A04218BF44
:1006E0000546C419FFF7C8FF05600746F01D20F056
:1006F00007004619284600F00AF8B44208BFF8BDC2
:10070000A21B31463868BDE8F84000F01BB8002154
:100710000160C0E9011070471020704710B500F06B
:100720000DF8006810BD10B5044600F007F804602D
:1007300010BD0000004870472800002400487047A2
:1007400028000024034640688C46002818BF8842D1
:100750003CBF03464068F8D318681844884207D065
:100760000CF1030020F00700001D411A521A014647
:10077000081D0A60FFF737BE10B500F039F8BDE874
:10078000104000F02FB870477546FFF7D3FFAE4614
:1007900005006946534620F00700854618B020B58D
:1007A000FFF7DEFDBDE820404FF000064FF00007E8
:1007B0004FF000084FF0000BAC46ACE8C009ACE8C5
:1007C000C009ACE8C009ACE8C00921F007018D46BA
:1007D000704710B50446AFF300802046BDE81040D6
:1007E000FFF7A7BD002801D000F02AB8704700002D
:1007F00010B5012805D0002103A000F027F8012042
:1008000010BD09A1F8E7000053494752544D454D2A
:100810003A204F7574206F662068656170206D65A1
:100820006D6F7279000000003A2048656170206D9C
:10083000656D6F727920636F727275707465640094
:1008400001491820ABBEFEE72600020070B5054640
:100850000C460A2000E06D1C00F011F835B1287834
:100860000028F8D102E0641C00F009F814B12078E7
:100870000028F8D1BDE870400A20AFF3008008B529
:1008800069468DF800000320ABBE08BD00000000E3
:10089000FEE700000000000000F036F8012004F040
:1008A00067FFF9E70000000010B5B0B047F6B001EF
:1008B00001A8C0F60001BC22FFF779FE44F2E8442B
:1008C000C2F20044206808B130B010BD4FF4C870C7
:1008D00000F06AFC02202B9001A800F0FDF92060D6
:1008E00030B010BD0000000080B544F2E840C2F214
:1008F00000400068002808BF80BD9FED020A00F09C
:10090000FFFA80BD0000004580B544F2E840C2F225
:1009100000400068002808BF80BDFFF7E5FF00F039
:100920008BF880BD0000000044F6702144F6582C7E
:100930000020C2F20041C2F2004C002303E000BFDD
:100940000133062B09D0CA5C002AF9D05CF82320B9
:10095000002A18BFC2E90B00F2E770470000000050
:1009600080B52DED068BB0EE609AB0EE408A00F0B7
:10097000CBFAB0EE40AAB0EE490A00F03DF800F024
:10098000C3FA30EE4A0A9FED0E1AB4EE410AF1EEB8
:1009900010FA04DD9FED0D1A30EE010A0AE09FED1A
:1009A000091AB4EE410AF1EE10FA03DA9FED061AC5
:1009B00030EE010A30EE080ABDEC068B80BD00BFA8
:1009C00000003443000034C30000B4430000B4C34B
:1009D000002818BF00290CD001394FF0FF3200BFAA
:1009E00000EB020C013211F8013F072A8CF80130AC
:1009F000F6D17047000000009FED021A20EE010AB8
:100A0000704700BFACFF333D44F2D021C2F2004139
:100A100088420CD044F2703244F27421C2F2004297
:100A2000C2F20041904218BF00210846704744F2CC
:100A30001820C2F2004070472DE9F04F81B02DED33
:100A4000028BFFF771FF44F2A81944F2E64AC2F2A2
:100A50000049C2F2004A4FF00008D9F80C000130FA
:100A6000C9F80C0089F829809AF80000002800F0E5
:100A7000E78040F238174FF0000BC2F2004706E063
:100A80009AF800000BF1010B834580F0D98057F8EC
:100A90002B40002CF4D0D4F8C0010028F0D0204620
:100AA00004F0FAFA04F13406304600F0FDF8054689
:100AB00010B194F8D701B8B194ED6E0A94F83800EB
:100AC000B1EE401A0128E08E41FE000A40062CD506
:100AD0003088402829D194F83A00012807D1D4F869
:100AE000A80190ED008A13E0B4F8D40171E094F805
:100AF0003C0094ED098A012804D1B0EE480AFFF7C2
:100B00002FFF03E0B0EE600AFFF776FFF0EE400A39
:100B100094F83900B1EE480A012804F1400000FEC3
:100B2000080A04F0B5F8F0EE400AE08E000726D57A
:100B3000308810F0480F22D094F83D0010F00A0FD2
:100B400005D0D4F8B40190ED000A70EE800A94F854
:100B50003B00012802D1D4F8AC0101E004F11000FF
:100B600090ED000A94F83900B1EE401A012804F122
:100B7000B80001FE000A04F08BF8F0EE400A94F889
:100B80003D00C00705D0D4F8B00190ED000A70EE2A
:100B9000800AE08EC00712D0B4F9140000EE100AEB
:100BA00094F83900012804F59870B8EEC00AB1EE47
:100BB000401A01FE000A04F06BF8F0EE400ABDEEA8
:100BC000E00A002D10EE100AA4F8D40118BF84F832
:100BD000D78194F8C421052A3FF652AF44F6582134
:100BE000C2F2004151F8221000293FF449AF94F8B5
:100BF000C561BC4601F12C03050A7700013703F8F3
:100C00001650D855D4F8B851C9F84450A9F848003E
:100C100089F82720DA1989F82860674694F8C7010F
:100C2000002803EB460008BFA0F80080896AC9F8D5
:100C30004C100078117841EA0020A9F850001FE715
:100C400044F6702444F6582AC2F2004401250026D6
:100C5000C2F2004A03E000BF0136062E1DD009EBA8
:100C6000060787F85280A05D0028F5D099F8290082
:100C700005FA06F1084389F829005AF826000028E9
:100C8000EAD000F071F90028E6D009EB860087F879
:100C90005250816D01318165DEE7BDEC028B01B000
:100CA000BDE8F08F0000000068B141884A0602D517
:100CB0000288402A05D00A0707D5008810F0480F9F
:100CC00003D0012070470020704701F001007047F9
:100CD000012180F8C7117047F0B589B0E8B1054629
:100CE00044F67620C2F20040007820B903F090FD6F
:100CF000002800F0B38044F2E647C2F2004738789B
:100D00000C2815D344F2A8100025C2F20040416817
:100D10000131416004218176E3E044F2A81000250E
:100D2000C2F2004041680131416002218176D8E081
:100D30004FF4EC70FFF728FB002800F09A804FF486
:100D4000EC710446FFF76DFC95F8A000294684F885
:100D5000C601D5F894006063D5F89800A063D5F873
:100D60009C00E06304F5987004F1400604F020F85C
:100D700004F1B80005F12C0104F01AF805F158014E
:100D8000304604F015F8D5F88400C4F8A801D5F869
:100D90008800C4F8AC01D5F88C00C4F8B001D5F8CF
:100DA0009000C4F8B401D5F8A4000390D5F8A800C9
:100DB0000490D5F8AC000590D5F8B0000690D5F8B1
:100DC000B4000790D5F8B800089003A9204603F0B6
:100DD0008BFE002858D000208DF8180041F22930F1
:100DE000C0F60000CDE9070403A800F0DDFD0028EF
:100DF000C4F8C00156D0204604F04EF902200090FD
:100E000040F6E960C0F60000CDE90104684600F054
:100E10005FFA0028C4F8C80152D02046FFF758FFF7
:100E200038782546411C397040F23811C2F2004131
:100E300041F8204044F2A810C2F20040016801319C
:100E4000016000218176DDE904120161426194F8BC
:100E5000C41194F8C5210176427642E044F2A8100C
:100E60000025C2F2004041680131416003218176D2
:100E700037E044F2A8100025C2F200404168013179
:100E80004160052181762CE02046FFF7ACFA44F260
:100E9000A8100025C2F200404168013141600621DE
:100EA00081761EE02046FFF79EFA44F2A810002546
:100EB000C2F200404168013141600721817610E0B3
:100EC000D4F8C0010025C0E92E552046FFF78BFA63
:100ED00044F2A810C2F2004041680131416008218B
:100EE0008176284609B0F0BD002808BF7047D0F8C9
:100EF000C01100291CBF002180F8C71170470000F5
:100F000080ED6E0A7047000080B52DED028B9FEDDD
:100F1000098AF0EE480A06F09CFB30EE081AB5EE9E
:100F2000400AF1EE10FAB8BFB0EE410ABDEC028BF8
:100F300080BD00BF0000B44300EE100AB1EE081AF5
:100F400000EBE03181EAE03080B2B8EEC00A092857
:100F500020EE010A9FED021A38BFB0EE410A704739
:100F60000000000000000000F0B589B000283ED06D
:100F7000076804464FF00006D7B3A06A0296CDE991
:100F80000006082003903846FFF73EFD0546384628
:100F9000CDE90466CDE90666089601F051F950B333
:100FA0002646694656F82C0B324600F0D1FF002841
:100FB00043D0002D5ED0A8690130A8610098039944
:100FC000069AA862E9622A6300F0C6F8BCEEC00A7D
:100FD000012085ED0D0A314668642068D0F89C0038
:100FE000A86405F14C00FFF7F3FC002600E00026A2
:100FF000304609B0F0BD002D3ED0E8690130E8610F
:10100000A8690130A86100980399069AA862E9626C
:101010002A6300F0A1F8BCEEC00A032085ED0D0A9A
:10102000686454F82C0B2146D0F89C00A86405F1A4
:101030004C00FFF7CDFC0026DAE7FDB1686901300E
:10104000686100980399069AA862E9622A6300F031
:1010500083F8BCEEC00A002085ED0D0A31466864B5
:101060002068D0F89C00A86405F14C00FFF7B0FCA4
:101070000126BDE70026BBE70026B9E70126B7E752
:1010800001A1085C704700BF0001020304050607C8
:10109000080C101418203040C0F3034001A1085C74
:1010A000704700BF0001020304050607080C101476
:1010B000182030400000000081B040F2A000C2F2D1
:1010C0000040017809B101B0704741F2040C0122DF
:1010D000CEF2000C0270DCF80020009240F2940284
:1010E000009BC2F2004211688B4206D240F2980186
:1010F000C2F200410B6801330B60DCF80010116094
:101100000021017001B0704780B52DED028B82B0D7
:1011100041F20401CEF200010968019101990268CF
:10112000891A00EE101A40F28801C2F2004191EDD6
:10113000001AB8EE400AB8EE411A0199016080EE3B
:10114000018AFFF7B9FFB0EE480A02B0BDEC028B8E
:1011500080BD00000000000080B500F069F840F29A
:10116000AC0040F2B001C2F20040C2F200414FF4C4
:101170007A729FED0B2A0068098800FB021040F28A
:10118000B401C2F2004100EE100A098801EE101A03
:10119000B8EE400AB8EE411A01EE020A80BD00BF67
:1011A0006F12833A0000000080B54EF6FC51CEF27B
:1011B00000010A6842F080720A6041F200014CF6B8
:1011C0005562CEF20001CCF2AC52C1F8B02F002231
:1011D0004A600B6843F001030B6044F24021C0F207
:1011E0000F01484340F28801C2F20041086044F612
:1011F000D351C1F26201A0FB01134DF68361C4F229
:101200001B31A0FB010140F28C00C2F200409B099F
:101210000360880C40F29001C2F20041086040F285
:101220009800C2F200400260FFF746FF80BD000058
:1012300070B582B041F20400CEF200000068019067
:10124000FFF73AFF40F298004FF0FF31C2F2004042
:10125000002500230068019CE0FB014540F2880066
:10126000C2F200402946066820463246FFF7E2F8FF
:10127000A0FB062301FB06310023A41A40F28C02D6
:101280008D4140F2AC01C2F20042C2F20041166848
:101290000860204629463246FFF7CCF881B240F27A
:1012A000B002C2F2004271430023108040F290026B
:1012B000C2F20042601A65F100011268FFF7BAF845
:1012C00040F2B401C2F20041088002B070BD0000DB
:1012D00010B504461020FFF757F800210160816027
:1012E0002188D4E90123C360002908BF642142603A
:1012F00044F2E5426388C2F200420180002B147878
:1013000018BF19460181611C117040F2B801C2F288
:10131000004141F8240010BD0188018170470000A0
:1013200070470000000000002DE9F04F81B02DED66
:10133000068B002800F02981044690F8B4000628A6
:1013400007D894F8B500002840F01F81082084F8E1
:10135000B400D4F8BC5045B9204600F075FD002813
:1013600000F01881054603F097FE002D00F00D8176
:1013700044F2A816C2F20046B0680130B060D5F859
:10138000C80108B1FFF7C8FF05F5E670FFF7BCFE1E
:10139000B5F802B085ED740AA5F800B0B0EE408A49
:1013A000B4F86D009FED7E9A00BA4FEA104AA5F896
:1013B00002A000EE10AAB8EE400A20EE09AA85EDC0
:1013C00001AAB4F86F00B4F8711002BA4FEA1249DA
:1013D0000ABA4FEA1248CFBAC0BAFFF7ADFDB5F965
:1013E00014009FED702A9FED703AA5F8089001EE69
:1013F000100A85ED030A95F8D611B8EEC11A21EE50
:10140000021A02EE107AB8EEC22A02EE031ABDEEFC
:10141000C11A11EE100AA88294F87300A87559B188
:10142000AAEB0B014EF20002B1F5805FCFF6FF721E
:1014300039DD4FF0FF333DE095ED0C1A40F201121B
:101440003AEE411AA5F8D621A5F800A0002185EDB5
:10145000040AD4F8B020E9629FED572AC5E9061ABC
:10146000C5F820A028EE022A85ED091A85ED0AAA02
:10147000F261A6F820A0A6F82290A6F8248086F8AB
:10148000260095F8C40186F8270095F8C50186F86E
:101490002800F162316386ED0D2A86ED0E0AF163B4
:1014A00086ED101A71E002F58052914206DA0123AE
:1014B0004FF400521144EA6A1A44EA620A460029CB
:1014C00048BF4A4201EE101A95ED042A9FED383AC2
:1014D000022A22EE032A9FED373AB8EEC11A9FED99
:1014E000334AB5EE408A00EE032A21EE091A81EE56
:1014F000083A38BFB0EE443AB0EE425AF1EE10FA74
:10150000D8BFB0EE443A022AB5EE400A38BFB0EE7A
:10151000445A95ED0A0AEA69F1EE10FA31EE000A32
:1015200095ED0C4A05FE022A0A4485ED042A2B6A31
:1015300030EE441AD31AC5E9063285ED091A0122A4
:1015400085ED0A0A9FED1C0A85F8D721D4F8B02052
:10155000F26128EE000AA6F820A0A6F82290A6F8CC
:10156000248086F8260095F8C40186F8270095F8AF
:10157000C50186F82800F162336386ED0D0A86ED19
:101580000E2A86ED0F3A86ED101ABDEC068B01B0DF
:10159000BDE8F08F0025002D7FF4EAAEF5E700BF2F
:1015A000ACFF333DD0CCCC3D6666663F000000000A
:1015B0006666263F3333B33E00007A4400000000E5
:1015C000EFF3108072B600BFFEE7000000000000DD
:1015D00044F60C00C5F60200016841F0020101600A
:1015E00050F8081C8904FBD570470000000000007B
:1015F00080B544F2D020C2F2004000F02DFE80BD44
:1016000080B544F2D020C2F2004000F025FE80BD3B
:1016100080B544F27030C2F2004000F01DFE80BD83
:1016200080B544F27030C2F2004000F015FE80BD7B
:1016300070B588B000220792CDE90522CDE90322DA
:1016400004460092CDE9012200280D4618BF226809
:10165000104600F071F906460120002C18BF002D3D
:1016600001D108B070BDD4F8B01029B3D4F800C0CF
:101670006B79DCF8380098424FF00100F1D9002274
:101680000491CDE9002302226946CDE9022040F20F
:10169000FF700590604600F093FC80B1002E4FF083
:1016A0000100DED031690131316170642168D1F807
:1016B0009C10B164697912E0002008B070BD6879AF
:1016C000002E00F101014FF000006971C9D0F268ED
:1016D0000132F26070642268D2F89C20B2647170AA
:1016E00008B070BD0000000010B5082A28BF08220D
:1016F00092B10139C2F1000C4FF0FF3200EB020E43
:1017000001320CEB020311F8014F01338EF8014056
:10171000F4D1511CC9B200E00021072988BF10BDD7
:101720000844083901380022013100F8012FFBD3A9
:1017300010BD00000000000070B582B0044608B182
:10174000206800E0002000F0F7F82CB10646207970
:1017500028B1002002B070BD012002B070BD206829
:101760000221022201230125009500F06DFC60B9E1
:10177000206801F0BDF840B920681121002200F076
:10178000ABFB78B1206801F0CFF84FF00100AEB1AB
:10179000B1680131B16070642168D1F89C10B16406
:1017A00002B070BD01214FF00000217136B13170DF
:1017B00061797170716801317160ECE702B070BDE0
:1017C0002DE9F04F9BB08B46044600F0B5F8054676
:1017D0002046594600F05CFC00285ED005F1540814
:1017E0000DF144090DF1040A22E000BF0126D5B134
:1017F00011981499A863E963FFF7AEFCBCEEC00A28
:10180000002085ED100A514668643A46D4F89C00E1
:10181000A8644046FFF768FF2020002E18BF242050
:101820002958013129502046594600F031FCA0B317
:10183000204659464A46534600F036FC38BB2046FF
:10184000494600F02DF81499064600F055F9002E8F
:101850000746CBD02FB9304600F09EF8002808BFCD
:101860000827402F28BF402786F8B4702FB106F113
:101870006D0051463A46FEF755FED6F8B8100029DD
:10188000B4D0304688470026002DB1D1CBE725B132
:1018900001206864D4F89C00A8641BB0BDE8F08FF8
:1018A00070B5044600284FF0000030D00D4671B3EB
:1018B000686868B92E680020B0EBD62F08D12046A2
:1018C00000F052F820B150F82600002818BF70BD73
:1018D00044F2E440C2F200400178C9B1017844F218
:1018E0006812C2F20042012998BF012104E000BF42
:1018F000013902F104020BD010680028F8D0036807
:10190000A342F5D12B68D0F8B060B342F0D170BDDE
:10191000002070BD0000000040F208020021C2F269
:10192000004200BF5358834204D008311029F9D136
:10193000002070475018704744F2D021C2F2004195
:1019400088420CD044F2703244F27421C2F2004258
:10195000C2F20041904218BF00210846704744F28D
:101960001820C2F20040704744F2D021C2F2004178
:1019700088420CD044F2703242F26811C2F2004246
:10198000C2F20041904218BF00210846704740F261
:101990006810C2F200407047C069A0F50010B0FAAC
:1019A00080F04009704700002DE9F04F81B0A0B1F0
:1019B000046806469CB12046FFF7AEFF88B1824618
:1019C0002046FFF7D1FF44F2E449C2F2004999F8FA
:1019D00000100F2907D900278AE0002788E0002798
:1019E00086E0002784E08046B568002D18BFB8F176
:1019F000000F50D1B1B144F26810C2F2004003E0D0
:101A0000013900F104000DD0002DF9D00268002A40
:101A1000F6D01368A342F3D1D2F8B020AA42EFD196
:101A2000002765E0C020FEF7AFFC4FF0000BE0B3ED
:101A3000C0210746FEF7F5FD317B3C607068786099
:101A4000C7F808B00029C7F80CB04FF0080218BF5B
:101A50000121C7E909B03069C7F8B8007069C7F853
:101A6000BC0038460B05C7E9042BBB614B05C7E931
:101A7000073BC7F8B05087F8B51087F86C2000F026
:101A8000A3F838465146FFF7D3FD80B13846FEF73C
:101A9000AAFC00272CE00020B0EBD52FAAD158F8E3
:101AA00025000028A6D0002722E0002720E050468D
:101AB000FFF742FE20B13846FEF795FC002717E0FD
:101AC000D7F8B000002818BFB8F1000F05D00021EA
:101AD000B1EBD02F08BF48F8207099F80000411CE6
:101AE00089F8001044F26811C2F2004141F82070F8
:101AF000384601B0BDE8F08FB0B50C46B1F5803F77
:101B0000054605D32046FFF7C7FA08B1C0B2B0BDFD
:101B1000082C01D8E0B2B0BD1DB12846FFF73CFF4C
:101B2000B0B104F00F00FFF7ABFA0028EED1A4F13A
:101B30000C004FEAB00100200D29E7D8012202FA7B
:101B400001F142F22F22114218BF2046C0B2B0BDAF
:101B50000820C0B2B0BD0000B0B588B30446481E2E
:101B6000C0B20D463F2888BFB0BD204600F02CF81B
:101B70002046FFF711FF2946002808BF0821082D3D
:101B800098BF2946D0B1302901D9402116E020293B
:101B900001D9302112E0182901D920210EE01429A1
:101BA00001D918210AE0102901D9142106E00C29D5
:101BB00001D9102102E0082988BF0C2184F86C109B
:101BC000B0BD000000000000B0B50446FFF7E4FE21
:101BD000054684F8B50010B90020C4E90600206865
:101BE000FFF7AAFE002808BFB0BD8570E169016358
:101BF000B0BD0000000000002DE9F04F82B0016888
:101C0000C76BD0E90DA2D1F884304FF6FC74A34322
:101C100043EA8A03C1F88430D1F88430019223F476
:101C20007F0343EA0243C1F8843002EB0A03D1F890
:101C300088406FF38F0444EA8304C1F88840D1F8E8
:101C40008840009724F4FE0444EA0744C1F8884021
:101C500003EB4704D1F8A0306FF38F0343EA84030A
:101C6000C1F8A030D1F8A050D0F840B025F4FE055E
:101C700045EA0B45C1F8A050D0F84480D1F8B050E7
:101C80006FF38F0508FB0B4408FB0BF845EA84054E
:101C9000C1F8B050D1F8B060856C26F4FE0646EA73
:101CA0000546C1F8B060D0F84C9009FB0547D1F863
:101CB000AC406FF38F0409FB05F944EA8704C1F8CF
:101CC000AC40D0E9144606FB0472D1F8F0706FF313
:101CD0008F0747EA8207C1F8F070D1F8F030876DBE
:101CE00023F47C1343EA0743C1F8F03002EB4702C8
:101CF000D1F8C0306FF38F0343EA8202C1F8C020ED
:101D0000D1F8C020C36D22F47C1242EA0342C1F82C
:101D1000C0204AF60042D1F8C0C0D0F860E0C4F25A
:101D20000002019D02EB8A022CF07C5C06FB04FAA7
:101D3000009C4CEA0E6C02EB8505C1F8C0C005EBB7
:101D4000C406846E06EB8801056701EB890C6343CA
:101D50000CEB8A05C266C0E91E1C0EFB04F105EB04
:101D6000C70707EB8303C0F884704DF2FC37466762
:101D700003EB8101C4F20007B942C0F88050C0F8FB
:101D80008830C0F890100AD9D0F89C1041F020019A
:101D9000C0F89C10032180F8981001210CE0D0F8C5
:101DA00090108A4207D2002142F8041BD0F89030EC
:101DB0009A42F9D300E00021084602B0BDE8F08F56
:101DC000F0B5D1F804C0D1F810E0BCF1000FD1F8A3
:101DD00008C006D00C684EEA0C05254345F0804C3F
:101DE00004E00D684CEA0E0444EA854C856ED0F898
:101DF0008470D1E907466B438D6944EA0660D1F8E7
:101E000014E0CC68054307EB830045EA0E0647F86B
:101E100023C046EA04434360CB68002B08BFF0BDF3
:101E200047F61C2C083001320023C0F6000C00BF1E
:101E3000D71857F8017CC750CF6804331CF80770D7
:101E4000BB42F5D3F0BD000010B54FF0000C48B315
:101E500044F2E641C2F200410A781AB30A7840F22D
:101E60003813C2F20043012A98BF012204E000BFE8
:101E7000013A03F1040317D0D3F800C0BCF1000FFE
:101E8000F6D0DCF8C0110029F2D081420AD0D1F896
:101E900000E00468A645EBD1D1F8B010D0F8B0400E
:101EA000A142E5D1604610BD4FF0000C604610BD68
:101EB000B0B5044600F080FE40F218010546C2F2BB
:101EC0000041621C097818BF0C4400BF00F074FE8A
:101ED000401BA042FAD3B0BD90F89830013B012BD3
:101EE0000BD80068836D0B420CD0836D0B408B4286
:101EF0000CD1C36D43F0020309E000F19C01012005
:101F0000022221E0C36D43F0010300E00323C36517
:101F10008B0504D5D0F8E0301343C0F8E0304B0512
:101F200004D5D0F8E4301A43C0F8E4204FF6FF722D
:101F3000436DC3F6CF720A401A4342658A0F4AF6D0
:101F400014010020C4F200010B681A430A607047B4
:101F5000B0B5044690F8980002281AD12068D0F84D
:101F6000C03013F07C5F19D0D0F8C4309B021AD473
:101F7000D0F8C400C0F3044520462B46FFF720FFED
:101F800020680121A940C0F8D0100020C4F89410A6
:101F9000B0BDD4F89C0040F0080008E0D4F89C00E4
:101FA00040F0200003E0D4F89C0040F40070C4F836
:101FB0009C000120B0BD0000704700000000000040
:101FC00080B590F89820013A012A0AD80A68002AB8
:101FD000CA680ED00B69072A43EA427E16D18B6984
:101FE00019E0D0F89C1041F00201C0F89C100120CB
:101FF00080BD072A18D10A69D1F81CC012048B6968
:1020000042EA0C221A4342F0605217E0D1F808C0AD
:102010004B6943EA8C73006F496800EBC10240F8DA
:1020200031E00020536080BD8B68D1F810C09B0761
:1020300043EAC2624B6942EA0C421A434968C06EE5
:1020400040F82120002080BD90F898C0BCF1010F1D
:102050000DD19200006842EA0111DDF800C041EAAA
:10206000430141EA0C01C0F8801000207047D0F80D
:102070009C1041F00401C0F89C1001207047000042
:1020800070470000000000007047000000000000E2
:10209000B422402908BFA4220068805800F07F00C5
:1020A000704700000000000070B590F89850022DB5
:1020B00011D1402914D10468D4F8A05015F4FE0FB2
:1020C0002BD0D4F8A4506D062CD0D4F8A450ED0138
:1020D00030D4002531E0D0F89C1041F0080125E013
:1020E00041290FD10468D4F8B05015F4FE0F14D074
:1020F000D4F8B4506D0615D0D4F8B450ED0126D400
:10210000002527E0056D8D4207D900F17C04D0F849
:1021100054E04FF0000C0D4626E0D0F89C1041F042
:10212000200103E0D0F89C1041F48071C0F89C10AD
:10213000012070BDD4F8A050ED0FD4F8A440C4F332
:10214000052404EB050E00F17404456C0BE0D4F893
:10215000B050ED0FD4F8B440C4F3052404EB050EE1
:1021600000F17804C56CF44605FB0EF6246854F8BB
:10217000265015F08045556054F826E02EF0604555
:1021800008BFCEF38A4504EB860E156054F826503E
:1021900005F00055956054F8264004F000441461A1
:1021A000BEF80440D461BEF8064014F00F04D460B9
:1021B000DEF8044004F480145461DEF8044004F4B2
:1021C000001494619EF8074004F07F041462DEF866
:1021D00004404FEAD47454620ED00EF1080547F65D
:1021E0001C2E0024C0F6000E2E5D1E550134D6684C
:1021F0001EF80660B442F7D3402904D10068C0F845
:10220000A8C0002070BD412904D10068C0F8B8C042
:10221000002070BD1F2907D80068012202FA01F1D1
:10222000C0F89810002070BD006801F01F01012265
:1022300002FA01F1C0F89C10002070BD00000000FF
:102240000068D0F8C40000F03F00704700000000B4
:1022500070470000000000002DE9F04F87B00446F1
:102260004AF61000C4F2000001684AF61400C4F2F5
:1022700000000268206802EA010A056DD0F8549057
:10228000076DD0F85480036D0293436D0193036D85
:102290000693436D0593036D0493436D0393436D60
:1022A000066D06EA030B5FEACB530BD54FF4807142
:1022B00001654AF610010020C4F2000108602046C2
:1022C000FFF7C6FF05EA09064AF610095FEA4B5018
:1022D000C4F200094FEA8A750ED52068D0F8DC10E8
:1022E000D0F8E42011404FF4806202650020C9F864
:1022F0000000204600F070FB08EA070806F470466C
:1023000055B12068002101650AF00300C9F80000FA
:1023100020462946FFF750FEDDE9011000EA0107DB
:1023200008F00F0546B12068314606650020C9F85F
:102330000000204600F058FB07F0F00645B1206889
:10234000294605650020C9F80000204600F0B8FACB
:1023500046B12068314606650020C9F800002046D5
:1023600000F0BAFA5FEA0B5000F1BF805FEA8B50D1
:1023700000F1C9805FEA0B3000F1D8805FEACB3012
:1023800009D520684FF4803101650020C9F80000AC
:10239000204600F01DFB5FEA4B30DDE9031000EA48
:1023A000010509D520684FF4802101650020C9F896
:1023B0000000204600F008FB5FEA8B30DDE90510E5
:1023C00000EA010005F060710CD522684FF400337B
:1023D00013650022C9F80020D4F89C2042F0800246
:1023E000C4F89C2000F0715539B1206801650020C7
:1023F000C9F800002046FFF747FE4DB1206805658B
:102400000020C9F80000D4F89C002843C4F89C00C0
:102410002068A9F5016188425ED1606881688907FA
:102420005AD0016A426A036A476A114003EA070206
:1024300002F03005D0F82080D0F82490026A04928F
:1024400011F00F01D0F824B0026A0692426A059298
:10245000466AD0F820A003D00162204600F0A8FA16
:1024600008EA09072DB1606829460562204600F098
:10247000A7FA06EA0A0007F4C0754006049800EAC5
:102480000B060AD560684023C16BC26B090C02F0D1
:102490003F020362204600F08FFADDE9051000EAF2
:1024A000010706F4FC462DB1606829460562204606
:1024B00000F07AFA07F4F02036B161680E62D4F8C1
:1024C0009C103143C4F89C1030B161680862D4F8A4
:1024D0009C100843C4F89C00D4F89C0010B120461E
:1024E000FFF7CEFD07B0BDE8F08F20684FF4006124
:1024F00001650020C9F80000204600F079FA5FEA83
:102500008B507FF537AF2068D0F8D810D0F8E02096
:1025100011404FF4007202650020C9F80000204607
:1025200000F05EFA5FEA0B307FF528AF20684FF4C9
:10253000002101650020C9F80000204600F0BCF928
:102540005FEACB303FF51DAF25E70000000000003B
:102550002DE9F04130B34AF200080446C4F2000805
:102560000068404502D108F58070606094F89800DA
:1025700028B9002084F89900204600F0F5F820687A
:10258000816921F01001816100F016FB054600BF52
:1025900020688169090708D500F00EFB401B0B2855
:1025A000F6D312E00120BDE8F081816941F001011C
:1025B000816100F001FB054620688169C90710D1DF
:1025C00000F0FAFA401B0B28F6D3D4F89C0040F038
:1025D0000100C4F89C00032084F898000120BDE8A5
:1025E000F081816941F002018161217C826922F0E0
:1025F0004002012918BF40328261617C826922F465
:102600008042012908BF02F580428261A17C826973
:1026100022F48052012918BF02F58052826181693B
:1026200021F44073D4E902120B438361836923F0E0
:10263000A4038361036923F010030361AAB1022A92
:102640000FD0012A03D1826942F004020CE08369B1
:10265000032A43F080038361036943F0100202619F
:1026600003D1826942F020028261D4E90552E36914
:10267000561E6FF0FF02276A02EB0323013F43EA75
:102680004663B1F5407F47EA030740F20003CFF607
:10269000FF7303EB054647EA0601C16110D1D4E997
:1026A0000B65D4E90917013F02EB06226FF00F0614
:1026B0003A4306EB05173A4303EB01411143C1606E
:1026C000216E29B1626ED0F8C0301A43C0F8C02024
:1026D000E26DCA4247F66C11C0F6000109D0D0F88D
:1026E000C820A36E22F0070251F823301A43C0F825
:1026F000C820226C4AB1D0F8BC20636C22F00702DB
:1027000051F823301A43C0F8BC20A26C52B1D0F863
:10271000BC20E36C22F0700251F8233042EA03122D
:10272000C0F8BC20226D52B1D0F8BC20636D22F4F9
:10273000E06251F8231042EA0121C0F8BC10404584
:1027400004D16068816821F0030181600020C4F831
:102750009400C4F89C00012084F898002046FFF7FC
:102760004BFABDE8F0810000B0B5B8B0044602A84D
:10277000C0210025CDE93655CDE934553395FDF717
:1027800050FF4AF200412068C4F2000188423FD065
:102790004AF20001C4F20001884240F08A80002021
:1027A00003904FF4004002904FF080501E9002A81A
:1027B00000F046FB08B1FEF703FF40F2A40144F22B
:1027C000E040C2F20041C5F602000A68002A02F1A8
:1027D00001020A6008D1C16841F48071C160C1681A
:1027E00001F48071019101990168152441F00801FB
:1027F0000160006840F2004100F008000190C5F659
:10280000020101980320339001F50060132535E0A3
:102810004FF4004002904FF080501E9002A80395A4
:1028200000F00EFB08B1FEF7CBFE40F2A40144F22B
:10283000E040C2F20041C5F602000A68002A02F137
:1028400001020A6008D1C16841F48071C160C168A9
:1028500001F48071019101990168162441F002018F
:1028600001600068142500F00200019001984FF407
:102870004050339040F20040C5F6020002213491EE
:1028800000213591032136910921379133A900F0B8
:10289000B3F805210022284600F09AFA284600F0F5
:1028A00093FA05210022204600F092FA204600F01B
:1028B0008BFA38B0B0BD0000704700000000000087
:1028C000C90708BF704780B54021FEF779FFBDE812
:1028D0008040704700000000C90658BF704780B5AF
:1028E0004121FEF76DFFBDE8804070470000000009
:1028F00090F8981001290CD1022180F898100168F5
:102900008A6922F001028A610021C0F89C10084601
:102910007047D0F89C1041F00401C0F89C100120D1
:10292000704700000000000090F89810022928D19C
:1029300001688A6942F001028A618A69D20706D178
:10294000342200BF013A24D08B69DB07FAD08A69B0
:1029500022F010028A618A69120706D5342200BF6C
:10296000013A16D08B691B07FAD48A6942F0020239
:102970008A610021C0F89410012280F8982008464E
:102980007047D0F89C1041F00801C0F89C1001205D
:102990007047D0F89C1041F00101C0F89C10032151
:1029A00080F8981001207047704700000000000078
:1029B00070470000000000007047000000000000A9
:1029C0007047000000000000704700000000000099
:1029D0007047000000000000704700000000000089
:1029E0007047000000000000704700000000000079
:1029F00070470000000000002DE9F04F83B00C6824
:102A0000002C00F0C68000F1264242F2004702F19D
:102A1000FF72C5F602074FEAB22201920A22B842BB
:102A200008BF0922002500274FF0010A009209E0A3
:102A30000C68043734FA0AF20AF1010A05F10205BA
:102A400000F0A780AAF10109012202FA09FE14EAA6
:102A50000E08EDD0D1F804B00BF00304A4F1010C82
:102A6000BCF1010F11D803228668AA40CB6826EA80
:102A70000202AB401A438260CBF30013426822EAA1
:102A80000E0203FA09F31A434260032C1ED00323FB
:102A9000C268AB40022C22EA03028B6803FA05F3FA
:102AA00042EA0302C26011D16FF0030207F01C0674
:102AB00002EA59020F23024403FA06F4D2F820C0B6
:102AC0000B692CEA0404B340234313620323026816
:102AD000AB404E689A4306F00303AB4016F4403F08
:102AE00042EA03020260A3D044F2F44340F2084EEB
:102AF000C5F60203C5F6000E1A6842F002021A601B
:102B00001A6807F00C0302F002020292029A29F0FE
:102B10000302019C009E092C38BF26460F2452F860
:102B20000EC09C402CEA040406FA03F34FF0B04CAC
:102B3000234342F80E30DCF800204B6842EA0806D6
:102B4000DC0258BF22EA08069C02CCF8006040F282
:102B5000040CC5F6000CDCF8002042EA080658BF59
:102B600022EA08069C03CCF80060DCF8802042EAE8
:102B7000080658BF22EA0806DB03CCF88060DCF8C0
:102B80007C2042EA080658BF22EA0806CCF87C609E
:102B90004EE703B0BDE8F08F002A08BF0904816149
:102BA000704700000000000041F20000C5F6004040
:102BB0000068000C704700004CF67C20C2F2004018
:102BC000006870470000000040F218004CF67C21BD
:102BD000C2F20040C2F2004100780A681044086066
:102BE000704700000000000080B5032000F000F9ED
:102BF00000F0C2FF44F2184147F6DC13C5F60201AB
:102C0000C0F600030A68096801F00F01C2F303224D
:102C1000595C9A5C01F01F0102F01F02D04040F2A3
:102C20000402C2F2004220FA01F1116040F20001F8
:102C3000C2F2004108600F2000F00AF800281CBF13
:102C4000012080BD00F0A8F8002080BD0000000039
:102C5000B0B58AB00F2842D804463720002221465A
:102C6000002500F0B5F8372000F0AEF840F21C0067
:102C7000C2F20040046044F2E840C5F60200016878
:102C800041F020010160006801A900F020000290DD
:102C9000029802A800F008FF079C002C18BF01242E
:102CA00000F056FF4DF68361A040C4F21B3141F2A3
:102CB0000042A0FB010144F29840C2F200404FF0F4
:102CC000FF33C4F20002026003EB9141C0E9011539
:102CD00040F2E731C0E9031501F03AFC10B10120E0
:102CE0000AB0B0BD44F29840C2F2004001F064FC6A
:102CF0000AB0B0BD0000000010B54EF6A05E4178ED
:102D0000CEF2000E90F800C04EF8081CDEF800105D
:102D100021F00101CEF8001041684EF8041C017B3F
:102D2000C37A827A447B1B0643EA0171837B41EAC2
:102D3000C241C27B41EA8441447A41EA4341007A7C
:102D400041EA024141EA042141EA400040EA0C0024
:102D5000CEF8000010BD00004EF62450CEF2000068
:102D6000BFF35F8F016821F48031016000210167AA
:102D700070470000000000004EF6245140F00100B2
:102D8000CEF200010867086840F480300860BFF3A5
:102D90004F8FBFF36F8F704780B582B044F2F4401D
:102DA0000022C5F60200016841F0020101600068DE
:102DB0000F2100F00200019001986FF0010000F077
:102DC00007F802B080BD000080B502F045FB80BD71
:102DD00070B514460D46064602F04EFB29462246C3
:102DE00001F03EFF0146304602F04EFB70BD000090
:102DF00080B502F065FB80BDB0B544F60C05C5F6A4
:102E0000020529684907296805D401F00701081A55
:102E100018BF0120B0BD21F0070108432860FFF76B
:102E2000CBFE044655F8080C800407D4FFF7C4FE17
:102E3000001BB0F57A7FF5D90120B0BD0020B0BDF0
:102E40002DE9F04381B00446C07844F22C490007D4
:102E5000C5F6020901D400252EE0A06E4FEA3050DD
:102E600003280DD80025DFE800F0020E1714D9F86A
:102E70000000002540F40030C9F8000055B913E007
:102E800001253DB910E004F10800022101F0E4FF42
:102E900005464DB1A84611E004F12800022102F0D8
:102EA0006BF80546002DF5D1D9F82400A16E20F469
:102EB00040100843C9F824004FF000086078C007AC
:102EC00030D0A06D042807D8DFE800F00A131C03F7
:102ED0000300FDB1A84625E00125002DFAD119E037
:102EE000D9F8000040F40030C9F80000002DF1D1FD
:102EF00010E004F10800002101F0AEFF0546002DAE
:102F0000E8D107E004F12800002102F035F8054679
:102F1000002DDFD1D9F82400A16D20F0070008436F
:102F2000C9F824006078800732D5E06D4FEAB01010
:102F3000042807D8DFE800F00A131C030300FDB1E2
:102F4000A84625E00125002DFAD119E0D9F80000A6
:102F500040F40030C9F80000002DF1D110E004F178
:102F60000800002101F078FF0546002DE8D107E0B8
:102F700004F12800002101F0FFFF0546002DDFD1FC
:102F8000D9F82400E16D20F4E0700843C9F824006A
:102F90006078400734D5D4F8A8004FEA7050042870
:102FA00007D8DFE800F00A131C030300FDB1A846B0
:102FB00026E00125002DFAD119E0D9F8000040F4EF
:102FC0000030C9F80000002DF1D110E004F1080034
:102FD000002101F041FF0546002DE8D107E004F192
:102FE0002800002101F0C8FF0546002DDFD1D9F8E7
:102FF0002C00D4F8A81020F460000843C9F82C0075
:103000006078000734D5D4F8AC004FEA306004286B
:1030100007D8DFE800F00A131C030300FDB1A8463F
:1030200026E00125002DFAD119E0D9F8000040F47E
:103030000030C9F80000002DF1D110E004F10800C3
:10304000002101F009FF0546002DE8D107E004F159
:103050002800002101F090FF0546002DDFD1D9F8AE
:103060002C00D4F8AC1020F0E0600843C9F82C0024
:10307000E078800728D5E06C4FEA3010032806D8A6
:10308000DFE800F002091202B5B1A8461CE00125F4
:10309000002DFAD110E0D9F8000040F40030C9F852
:1030A0000000002DF1D107E004F10800022101F039
:1030B000D3FE0546002DE8D1D9F82000E16C20F0C0
:1030C00030000843C9F820006078C00632D5206E71
:1030D0004FEA3030042807D8DFE800F00A131C0359
:1030E0000300FDB1A84625E00125002DFAD119E025
:1030F000D9F8000040F40030C9F80000002DF1D1EB
:1031000010E004F10800002101F0A6FE0546002DA4
:10311000E8D107E004F12800002101F02DFF054669
:10312000002DDFD1D9F82400216E20F4E0400843BF
:10313000C9F824006078800626D5606E4FEA3040DA
:10314000052807D8DFE800F0030A100303039DB148
:10315000A84619E00125002DFAD10DE004F1080080
:10316000012101F079FE04E004F12800012101F0C1
:1031700003FF0546002DEBD1D9F82400616E20F441
:10318000E0200843C9F824006078400628D5D4F828
:10319000B0004FEA3070052807D8DFE800F0030AD6
:1031A000100303039DB1A8461AE00125002DFAD1B2
:1031B0000DE004F10800012101F04EFE04E004F1ED
:1031C0002800012101F0D8FE0546002DEBD1D9F8E9
:1031D0002C00D4F8B01020F0E0400843C9F82C00CF
:1031E0006078000620D5206FD8B1B0F1005F12D012
:1031F000B0F1805F25D1D9F8000040F40030C9F863
:10320000000085B9D9F82400216F20F04050084310
:10321000C9F8240008E004F10800012101F01CFEB7
:103220000546002DEED0A846E078C0072AD0A06C55
:1032300003280AD8DFE800F0020D1602D5B1A8462F
:1032400020E00125002DEED1DCE70125002DF6D18F
:1032500010E0D9F8000040F40030C9F80000002D5B
:10326000EDD107E004F10800022101F0F5FD05466B
:10327000002DE4D1D9F82000A16C20F00300084310
:10328000C9F82000A078400642D5D9F8D40340F40C
:103290008070C9F8D403FFF78FFC0646D9F8D40331
:1032A000C00505D4FFF788FC801B6528F6D30325ED
:1032B0006DBBD9F84410D4F8B400414011F4407FFC
:1032C00011D0D9F84410D9F8442042F48032C9F81A
:1032D0004420D9F8442021F4407122F48032C9F806
:1032E0004420C9F84410B0F5807F0FD1FFF764FC8B
:1032F000064641F2893700BFD9F84400800705D45B
:10330000FFF75AFC801BB842F6D3032585B1A846C7
:103310002078C00742D0E06F4FEAF000052823D89C
:10332000DFE800F003262C0303037DB3A84635E055
:103330004FF6CF73D4F8B40059F81C2CC0F2FF0339
:1033400000F4407122F47C5203EA1013B1F5407F7F
:1033500008BF1A436FF31F3049F81C2CD9F84410EA
:103360000843C9F84400D3E70125002DDED10DE064
:1033700004F10800012101F06FFD04E004F12800D0
:10338000012101F0F9FD0546002DCFD1D9F8280023
:10339000E16F20F038000843C9F828002078800742
:1033A00024D5A06F052807D8DFE800F0030A100332
:1033B00003039DB1A84619E00125002DFAD10DE0C7
:1033C00004F10800012101F047FD04E004F12800A8
:1033D000012101F0D1FD0546002DEBD1D9F82800DF
:1033E000A16F20F007000843C9F8280020784007A3
:1033F00026D5D4F89400052807D8DFE800F0030AA2
:10340000100303039DB1A8461AE00125002DFAD14F
:103410000DE004F10800012101F01EFD04E004F1BB
:103420002800012101F0A8FD0546002DEBD1D9F8B7
:103430002C00D4F8941020F007000843C9F82C00A1
:103440002078800628D5D4F890004FEA30700528FF
:1034500007D8DFE800F0030A100303039DB1A84674
:103460001AE00125002DFAD10DE004F10800002139
:1034700001F0F2FC04E004F12800022101F07CFDDF
:103480000546002DEBD1D9F82800D4F8901020F093
:10349000E0400843C9F828002078400628D5D4F831
:1034A0009C004FEAB020052807D8DFE800F0030AA7
:1034B000100303039DB1A8461AE00125002DFAD19F
:1034C0000DE004F10800002101F0C6FC04E004F165
:1034D0002800022101F050FD0546002DEBD1D9F85E
:1034E0002C00D4F89C1020F4E0500843C9F82C00BC
:1034F0002078000628D5D4F8A0004FEA70300528BF
:1035000007D8DFE800F0030A100303039DB1A846C3
:103510001AE00125002DFAD10DE004F10800002188
:1035200001F09AFC04E004F12800022101F024FDDE
:103530000546002DEBD1D9F82C00D4F8A01020F4CA
:1035400060400843C9F82C002078000716D5D4F84D
:103550008400B0F5805F08D104F12800022101F059
:103560000BFD002818BF4FF00108D9F82800D4F847
:10357000841020F440500843C9F828002078C00681
:1035800016D5D4F89800B0F5807F08D104F1280052
:10359000022101F0F1FC002818BF4FF00108D9F812
:1035A0002C00D4F8981020F440700843C9F82C007F
:1035B000A078000722D5D4F8A400B0F5003F1AD0B7
:1035C000B0F5803F11D0C8BB04F10800002101F024
:1035D00043FC05468DB9D9F82C00D4F8A41020F48A
:1035E00040300843C9F82C0008E004F1280002210B
:1035F00001F0C2FC0546002DEDD0A846A07840079A
:1036000029D5D4F88800B0F5401F21D0B0F5001FAF
:1036100018D0B0F5801F40F0BF80D9F8000040F40A
:103620000030C9F80000ADB9D9F82800D4F88810E6
:1036300020F440100843C9F828000CE00125002DB3
:10364000DBD1C8E704F12800012101F095FC054613
:10365000002DE9D0A846A078C00720D0206DB0F595
:10366000803F10D0B8B9D9F8000040F40030C9F854
:1036700000009DB9D9F82000216D20F48030084366
:10368000C9F820000BE004F10800022101F0E4FB7E
:1036900005461DB9EEE70125002DEBD0A846E078E0
:1036A000800608D504F12800022101F065FC0028FD
:1036B00018BF4FF00108D4E900108A037BD5D4F875
:1036C00080206FF0010303EB3223022B0AD34FEA71
:1036D00032233BB1012B64D1D9F8003043F40033DD
:1036E000C9F80030002D5FD0CA0267D4CA006FD479
:1036F0008A0279D44A0000F18280B1F1FF3F40F3A1
:103700008F80090200F19780C00707D004F10800FC
:10371000002101F0A1FB002818BF05462079800791
:1037200007D504F10800012101F096FB002818BF1D
:1037300005462079400707D504F10800022101F071
:103740008BFB002818BF05462079000707D504F138
:103750002800002101F010FC002818BF0546207940
:10376000C00607D504F12800012101F005FC00285E
:1037700018BF05462079800607D504F128000221EC
:1037800001F0FAFB002818BF0125002D18BF012504
:10379000284601B0BDE8F0830125002D7FF45AAF23
:1037A00042E70125002D9FD1D9F8283023F440733A
:1037B0001A43C9F828204546CA0297D5D9F82420CB
:1037C000636F22F000421A43C9F82420CA008FD543
:1037D00059F81C2CD4F8B83022F480421A4349F826
:1037E0001C2C8A027FF586AFD9F82420E36E22F0E4
:1037F00080721A43C9F824204A007FF57EAF59F839
:103800001C2C22F4004249F81C2CD4F8BC2059F896
:103810001C3C1A4349F81C2CB1F1FF3F3FF771AF34
:10382000D9F82020636D22F040521A43C9F82020B5
:1038300009027FF569AFD9F82810D4F88C2021F45B
:1038400040011143C9F82810C0077FF45FAF65E756
:103850002DE9F04381B0002800F0F48042F2000826
:103860000446C5F200288946D8F8000000F00F0091
:1038700088420ED2D8F8000020F00F0040EA09007C
:10388000C8F80000D8F8000000F00F00484540F0EC
:10389000D980206844F218474107C5F602070AD5C7
:1038A00021693A6802F07002914204D93A6822F024
:1038B00070021143396001070AD561697A6802F024
:1038C0007002914204D97A6822F070021143796043
:1038D000C1060AD5A1697A6802F4E062914204D96E
:1038E0007A6822F4E0621143796081060AD5E169C1
:1038F000BA6802F07002914204D9BA6822F07002EC
:103900001143B96081070AD5E1683A6802F00F02F5
:10391000914204D93A6822F00F0211433960C0077E
:103920007ED1206881070AD5E1683A6802F00F026B
:10393000914204D23A6822F00F0211433960D8F85C
:10394000001001F00F0149450DD9D8F8001021F001
:103950000F0141EA0901C8F80010D8F8001001F081
:103960000F0149456ED141070AD521693A6802F035
:103970007002914204D23A6822F070021143396019
:1039800001070AD561697A6802F07002914204D297
:103990007A6822F0700211437960C1060AD5A169E4
:1039A0007A6802F4E062914204D27A6822F4E0621A
:1039B0001143796080060AD5E069B96801F07001A9
:1039C000884204D2B96821F070010843B86000F061
:1039D000D3F8396847F6DC12C0F600023B68C1F341
:1039E000032103F00F03515CD25C01F01F01C840BA
:1039F00002F01F0140F2040220FA01F1C2F200427B
:103A0000116040F2000140F21C02C2F20041C2F219
:103A1000004208601068FFF71BF901B0BDE8F083B1
:103A2000386820F47061D4E90102012841EA0201FA
:103A300039600BD003282BD002282ED157F8181C40
:103A4000890307D4012001B0BDE8F08357F8181CA2
:103A5000C905F7D557F8081C21F00701084347F8B6
:103A6000080CFFF7A9F8064641F2883557F8080C0C
:103A7000616800F03800B0EBC10F3FF452AFFFF7C0
:103A80009BF8801BA842F1D9032001B0BDE8F08368
:103A900057F8181C8901D5D5DCE757F8181C4907D9
:103AA000D0D5D7E7000000003F22026044F2184260
:103AB000C5F6020252F8083C03F00703436013689E
:103AC00003F470638360136803F00F03C36013682B
:103AD00003F070030361536803F07003436153689C
:103AE00003F4E0638361926802F07002C26142F203
:103AF0000000C5F20020006800F00F000860704769
:103B000080B500F039F844F2184147F6DC13C5F6E9
:103B10000201C0F600030A68096801F00F01C2F350
:103B20000322595C9A5C02F01F0220FA02F201F0B3
:103B30001F0040F2040122FA00F0C2F200410860C6
:103B400040F20001C2F200410A6080BD00000000A6
:103B500080B5FFF7D5FF44F21C4147F6DC12C5F6ED
:103B60000201C0F600020968C1F30211515C01F0C4
:103B70001F01C84080BD000044F20041C5F60201AB
:103B80000869C0F3C20003280FD002282AD070BBF6
:103B90000868800649F20000C0F2D03058BF704774
:103BA0000968C1F3C101C84070478A6A886AC0F3D6
:103BB000051CC86ABCF1000F4B6B1DD0C3F3CC03CE
:103BC00000F00100584302F00302022A00EE100A3E
:103BD000B8EE400A12D0A2B90868800614D49FED4E
:103BE000261A1EE047F64000C0F27D10704740F6EE
:103BF0000010C0F23D007047002070479FED1D1A75
:103C00000FE09FED1B1A0CE0086849F20002C0F2B9
:103C1000D032C0F3C10022FA00F001EE100AB8EE73
:103C2000411A086B9FED153A6FF35F2002EE100A00
:103C3000086BC0F34620B8EE422A013000EE032A9A
:103C400000EE10CAB7EE003AB8EE400A81EE000A64
:103C500032EE031A20EE010A01EE100AB8EE411A04
:103C600080EE010ABCEEC00A10EE100A704700BFD9
:103C70000024744A20BCBE4B0024744C0000003960
:103C80002DE9F04381B0F8B18046007844F2004954
:103C9000C007C5F602095AD0D9F8100000F0380163
:103CA000D9F82800102905D018290FD100F00300F9
:103CB00002280BD1D9F80000800344D5D8F80400BD
:103CC000002840D101272FE0012718E3D8F804404D
:103CD0002CB1B4F5A02F0DD0B4F5803F10D0D9F899
:103CE000000020F48030C9F80000D9F8000020F46A
:103CF000802009E0D9F8000040F48020C9F80000D5
:103D0000D9F8000040F48030C9F80000FEF754FFF5
:103D10000546A4B1D9F80000800314D4FEF74CFF87
:103D2000401B6428F6D903270020002800F0E78212
:103D30000DE000BFFEF740FF401B6428F3D8D9F820
:103D400000008003F6D40120002800F0D88298F803
:103D50000000800740F18480D9F8100010F038018D
:103D6000D9F828001CD0182908BF5FEA807017D046
:103D7000D8F80C00D9F80010002847D021F019011C
:103D80000843C9F80000FEF717FF0546D9F8000000
:103D900040072AD4FEF710FF401B0228F6D91EE088
:103DA000D9F80000400704D5D8F80C00002800F02E
:103DB0009681D9F80000D8F80C1020F019000843BB
:103DC000C9F80000FEF7F8FE054600BFD9F800006C
:103DD00040070AD4FEF7F0FE401B0228F6D903275D
:103DE0000024002C00F08B823AE0FEF7DDFE41F269
:103DF0000301884223D8D8F81000D9F804104028CD
:103E000021F47C3124D141F4003023E021F0010081
:103E1000C9F80000FEF7D0FE05460126D9F80000DB
:103E200010F0040086EA900417D0FEF7C5FE401B90
:103E30000328F3D30327002C00F0618210E0D9F8A7
:103E40000400D8F8101020F0FE4040EA016001E0C4
:103E500041EA0030C9F804000124002C00F04F8230
:103E600098F80000C00674D5D9F8100000F03801A9
:103E7000D9F82800082905D018291CD100F0030022
:103E8000012818D1D9F80000C00503D5D8F81C00C6
:103E9000802859D1FEF788FE41F20301884222D8DA
:103EA000D8F82000D9F80410202821F0F84142D198
:103EB00041F0804041E0D8F81C000028D9F800000B
:103EC00020D040F08000C9F80000FEF775FE0546DE
:103ED000D9F80000C005DDD4FEF76EFE401B0228B5
:103EE000F6D9032731E0D9F80C00D8F8201020F0DB
:103EF0007C50012440EA0160C9F80C00002C00F05D
:103F0000FE8126E020F08000C9F80000FEF754FE94
:103F100005460126D9F8000010F4807086EA1024C6
:103F20000ED0FEF749FE401B0328F3D30327002CD5
:103F300000F0E5810DE041EA8060C9F80400012449
:103F4000002C00F0DC8104E001270024002C00F0AC
:103F5000D68198F8000000071CD498F8000080066D
:103F600031D498F80000400745D4D8F82440002CFC
:103F700000F09180D9F8100000F03800182840F0C7
:103F80008C80012CD9F82810D9F8300040F0A98095
:103F90000127B4E1D8F814000028D9F874003ED005
:103FA00040F00100C9F87400FEF706FE054600BFA8
:103FB000D9F874008007D0D4FEF7FEFD401B02281C
:103FC000F6D903279BE1D8F818000028D9F800009B
:103FD0004DD040F48050C9F80000FEF7EDFD0546D5
:103FE000D9F800008004BCD4FEF7E6FD401B02288F
:103FF000F6D9032783E1D9F8000440F48070C9F8AA
:104000000004FEF7D9FD0546D9F80004C0051AD40E
:10401000FEF7D2FD401B6428F6D903276FE120F09C
:104020000100C9F87400FEF7C7FD0546032700BF6D
:10403000D9F8740080077FF590AFFEF7BDFD401BF7
:104040000228F5D95BE1D8F808402CB1052C00F026
:104050008280012C00F08580D9F8700020F00100EA
:10406000C9F87000D9F8700020F004007DE020F459
:104070008050C9F80000FEF79FFD0546032700BFEA
:10408000D9F8000080047FF56CAFFEF795FD401B6A
:104090000228F5D933E1002731E1D9F8000020F0FA
:1040A0008070C9F80000FEF787FD022C05464FF02E
:1040B000030709D1D9F80000800178D5FEF77CFD0F
:1040C000401B0228F6D91AE1D9F80000800140F11E
:1040D000E780FEF771FD401B0228F5D90FE10127AB
:1040E0007EE601F00302D8F828309A4240F0DA80E8
:1040F000C1F30511D8F82C20914240F0D780014639
:10410000D8F830206FF35F21013A914240F0D0801F
:10411000C0F34622D8F8341001398A4240F0CA80F0
:10412000C0F30642D8F8381001398A4240F0C48002
:10413000C0F30660D8F83C100139884240F0BE80D8
:10414000D9F83400D8F84810C0F3CC00814240F0D0
:10415000B7800027D3E0D9F8700040F00400C9F818
:104160007000D9F8700040F00100C9F87000FEF747
:1041700023FD002C054641F288344FF0030711D08F
:10418000D9F8700080073FF5F0AEFEF715FD401B33
:10419000A042F5D9B3E000BFFEF70EFD401BA042E0
:1041A00000F2AD80D9F870008007F5D4DDE608F1A3
:1041B0002807D9F8280040F2F33188438ECF08430E
:1041C000591E40EA02104FF47E426FF35F21C9F896
:1041D000280002EB47204FF4FE0280B2D8F83C30B2
:1041E0000844D8F8381002EB01414FF0FE4201F4C8
:1041F000FE0102EB0362084402F0FE410844C9F8E4
:104200003000D9F82C004FF6F87120F00100C9F801
:104210002C00D9F83400D8F84820884340EAC2007E
:10422000C9F83400D9F82C00D8F8401020F00C0060
:104230000843C9F82C00D9F82C00D8F8441020F015
:1042400002000843C9F82C00D9F82C0040F4803053
:10425000C9F82C00D9F82C0040F40030C9F82C0023
:10426000D9F82C0040F48020C9F82C00D9F82C0093
:1042700040F00100C9F82C00D9F8000040F080702F
:10428000C9F80000FEF798FC04460327D9F800009F
:10429000800109D4FEF790FC001B0228F6D92EE01D
:1042A00000272CE001272AE0002728E0012726E04C
:1042B000012724E0012722E0012720E001271EE05A
:1042C000D9F82C0020F00100C9F82C00FEF774FC8E
:1042D0000546FEF771FCA842FBD0D9F834004FF632
:1042E000F871D8F848208843002740EAC200C9F88E
:1042F0003400D9F82C0040F00100C9F82C00F8B2C5
:1043000001B0BDE8F08300002DE9F041002800F085
:10431000BC80044643F60006C4F2000643F20007E0
:10432000256843F60048B542C4F20107C4F200080C
:104330004FF00000A06204D0454518BFBD4240F0D8
:10434000A080204600F0D0FEB54218BFBD4240F02C
:104350008B80102800F2998094F8810028B9002001
:1043600084F88000204600F093F8022084F8810051
:104370002068D4F818E00268BEF1806F22F00102D4
:10438000026087680FD162682AB1B2F5800F0AD146
:10439000A36B23B13AB9A26BB2F1805F03D102687B
:1043A00042F480520260636807F4F81713F4800C3B
:1043B00008D0E668072E05D30668256D26F48076BA
:1043C0002E4302E0066826F480760660E669A56A58
:1043D00047EA0607E66B47EA050747EA0607D4E916
:1043E0000285D4E9042145EA07058560656B43EA47
:1043F0000E07666A47EA0507A56B47EA060747EA1C
:10440000050742EA0702276A41EA0201E26C41EA33
:104410000701A76C41EA0201A26D41EA080141EAE5
:10442000070141EA0201C1604BB98168012262F3D0
:10443000CC2181608168022262F34A218160016D92
:10444000BCF1000F21F00101016505D0C168626D6A
:1044500021F000411143C1600020C4F88400012113
:1044600084F88110BDE8F081454518BF08280CD8B4
:10447000B54218BFBD423FF46CAF45453FF469AF4C
:104480006AE7E0680F287FF65CAF0120BDE8F081A5
:10449000B0B5B8B0044602A8C0210025CDE9365514
:1044A000CDE934553395FCF7BCF843F200012068A0
:1044B000C4F20101884201D038B0B0BD4FF4805041
:1044C000029002A803951A95FEF7BAFC08B1FDF711
:1044D00077F844F2E040C5F60200016941F48051EA
:1044E0000161016901F4805101910199016841F074
:1044F00001010160006833A900F0010001900198FA
:10450000E0203390022034900020CDE935000520D2
:1045100037900020C5F60200FEF76EFA38B0B0BD45
:1045200040F20442C5F60002136823EA0000084383
:10453000106070470000000070470000000000009D
:1045400070470000000000007047000000000000FD
:1045500060B310B5044690F83D0028B9002084F8F7
:104560003C00204600F024F8022084F83D0020683A
:10457000211D00F0CDFE012084F8480084F83E00A3
:1045800084F83F0084F8400084F8410084F8420039
:1045900084F8430084F8440084F8450084F8460019
:1045A00084F8470084F83D00002010BD01207047CA
:1045B000704700000000000090F83D1001291BD159
:1045C000022180F83D10016841F2FF70C4F2000042
:1045D0008142C86840F00100C8600FDC40F2FF7003
:1045E000C4F20000814217DCB1F1804F2BD040F2C1
:1045F0000040C4F2000024E00120704740F2FF3088
:10460000C4F20100814212DC41F60000C4F2000055
:10461000814218D0002012E040F60000C4F20000F1
:10462000814210D040F60040C4F2000009E044F29C
:104630000000C4F20100814205D040F20040C4F203
:10464000010081420BD107228868C0F201020240BA
:104650000020062A18BFB2F5803F00D170470868D5
:1046600040F00100086000207047000000000000DA
:104670007047000000000000F0B581B004460068FB
:10468000C768066906EA0705A90727D4680756D44C
:1046900028076CD4E80600F18280E80706D020687D
:1046A0006FF001010161204600F09EF817F08007CD
:1046B00018BF16F4025006D020686FF40251016151
:1046C0002046FFF73DFF002F18BF16F4807011D170
:1046D000680618D4A8061FD401B0F0BD6FF002011F
:1046E000016101212177806980071ED02046FFF7F4
:1046F000BFFF20E020686FF4807101612046FFF762
:104700001BFF6806E6D520686FF040010161204676
:1047100000F076F8A806DFD520686FF0200101616F
:104720002046FFF711FF01B0F0BD204600F054F81D
:10473000204600F055F8002020776807A8D52068AB
:104740006FF00401016102212177806910F4407F3C
:1047500003D02046FFF78CFF05E0204600F03CF830
:10476000204600F03DF800202077280792D52068E9
:104770006FF00801016104212177C069800703D02F
:104780002046FFF775FF05E0204600F025F820469B
:1047900000F026F800202077E8067FF57EAF20683D
:1047A0006FF01001016108212177C06910F4407F8A
:1047B00003D02046FFF75CFF05E0204600F00CF830
:1047C000204600F00DF800202077E8077FF467AF5F
:1047D0006CE70000000000007047000000000000CF
:1047E000704700000000000080B541F20041006801
:1047F000C4F20001884218BF80BDFEF7E5F980BD14
:104800007047000000000000FEE70000000000000C
:1048100070B544F6582547F6EC160024C2F2004560
:10482000C0F6000655F8240040B906EBC40156F85E
:104830003400496800F040FC45F8240055F8240095
:1048400048B10134062CEDD144F676210120C2F2A4
:104850000041087070BD44F2A8100121C2F200406E
:104860008176002070BD000010B584B00024CDE931
:104870000244CDE90044FEF76FFA0120ADF80000D4
:1048800048F21F70029040F20110039068460194B4
:10489000FEF732FA0420FEF76FFA04B010BD0000F4
:1048A00080B544F2D0204AF20001C2F20040022258
:1048B00000F12407C4F2000101600021C0E90211E7
:1048C0004FF0010CA0F810C081740523436104234C
:1048D00083614FF00F0EC0E907E387E80450C0E999
:1048E0000C3108221823C0E90E2103641223C0E909
:1048F0001132C0E91331C0E91531C1652022C0E988
:1049000018218366FDF724FE002808BF80BDFCF750
:1049100057FE80BD0000000080B544F270304AF2BE
:104920000041C2F20040022200F12407C4F200015B
:1049300001600021C0E902114FF0010CA0F810C085
:10494000817405234361042383614FF00F0EC0E996
:1049500007E387E8045003634FF4A0624263082230
:10496000C0E90E21182303641223C165C0E9113286
:10497000C0E91331C0E9153120228366C0E918214E
:10498000FDF7E6FD002808BF80BDFCF719FE80BDDD
:1049900080B540F6990047F6B812C0F60000C0F6A0
:1049A0000002002100F028FF40F29C01C2F2004109
:1049B000086080BD000000002DE9F04186B044F29F
:1049C000E0400026C5F602000596CDE90366CDE974
:1049D00001660168002441F0800101600168C5F6AC
:1049E000020401F0800100910099016841F0040186
:1049F0000160016804F5006501F00401009100996F
:104A0000016841F0010101600168002201F001012B
:104A100000910099016841F00201016001680727D7
:104A200001F0020100910099016841F00801016064
:104A30000068072100F00800009000982846FEF763
:104A4000ABF81021002220464FF01008FEF7A4F822
:104A500001970127CDE90276049601AE284631463A
:104A6000FDF7CAFF02203146CDE903002046CDE91B
:104A70000187FDF7C1FF4FF080600021FFF750FD77
:104A800006B0BDE8F081000010B544F2104443F2D6
:104A90000000C2F20044C4F20100032120604FF480
:104AA000800060600020A060C4E9031060614FF0E6
:104AB0008061C4E90610C4E90800C4E90A004FF0A7
:104AC0008040606304F138002421FBF7AAFD2046F2
:104AD000FFF71AFC002808BF10BDFCF771FD10BDE0
:104AE000FEE7000000000000F0B50022002818BF1B
:104AF000002901D11046F0BD4C680022A4F1010C40
:104B0000BCF1070FF6D80B68002BF3D090F8C62144
:104B1000561E022E0ED25FFA8CF2032A1BD844F2E4
:104B2000D0244FF0040EC2F20044A34208BF4FF05D
:104B3000010E1BE0032A40F07F805FFA8CF244F202
:104B4000D027C2F20047032A41D8B3EB070E18BFA3
:104B50004FF0030E43E044F2D026A4F1050CC2F25C
:104B60000046B3EB060E18BF4FF0030E5FFA8EF44B
:104B700044F65825C2F2004502F201228A6055F837
:104B80002450002D58D044F2E641C2F200410D7885
:104B9000002D53D0097840F23815C2F200450129A2
:104BA00098BF012104E000BF013905F1040545D09B
:104BB0002E68002EF8D0D6F8C061002EF4D03768E9
:104BC0009F42F1D1D6F8B0609642EDD134E04FF07B
:104BD000050EA4F1050CBB4208BF4FF0020E5FFAB0
:104BE0008EF444F65825C2F2004502F205228A608E
:104BF00055F8245005B344F2E641C2F200410D7865
:104C0000E5B1097840F23815C2F20045012998BF94
:104C1000012103E0013905F104050FD02E68002EB3
:104C2000F8D0D6F8C061002EF4D037689F42F1D199
:104C3000D6F8B0609642EDD10020F0BD44F6702168
:104C40000122C2F200410A5580F8C5C180F8C4E1D2
:104C50001046F0BD00000000FEE70000000000006C
:104C600000F007004FF0FF3C80F00703042B28BF43
:104C70000423033838BF00200CFA03F399430CFADD
:104C800000F301FA00F022EA030108437047000034
:104C900010B52DED048B49F28061B0EE608AB0EE64
:104CA000409A04464069C0F29801084202D020466A
:104CB00000F0DEFC04F16000FCF726FA38EE491A39
:104CC00094ED043A84ED0B9A84ED178AB0EEC12A74
:104CD00084ED190A84ED0D1AB4EE432AF1EE10FAB0
:104CE00053DD94ED0E2A94ED013A31EE422A94ED13
:104CF000024A21EE033A207D94ED005A24EE022A66
:104D0000400621EE051A20EE033A84ED101A82EED9
:104D1000000A84ED133A84ED120A02D5204600F011
:104D2000EBFC607D000602D5204600F0D9FB207D1B
:104D3000000702D5204600F01BFCA07D400702D5ED
:104D4000204600F0FDFB207DC00702D0204600F089
:104D500023FC94ED110A94ED122A94ED131A31EE0E
:104D6000000A94ED101A607D84ED110A30EE011AEC
:104D7000C00631EE020A84ED140A02D5204600F086
:104D800047FC204600F05CFC02E00020C4E9130070
:104D9000E06A206394ED140A84ED150AD4E9120147
:104DA000A065606BC4E90E01BDEC048B10BD000072
:104DB00080B50A684B6902604A6842608A6882600E
:104DC000CA68C2600A69C0E904238A698261CA6943
:104DD000C2610A6A02624A6A4262896A816260301A
:104DE000FCF792F980BD0000000000000000000008
:104DF000EFF30980BFF36F8F154B1A681EF0100F89
:104E000008BF20ED108A20E9F04F10602DE909005D
:104E10004FF0500072B680F31188BFF34F8FBFF38D
:104E20006F8F62B601F06CFD4FF0000080F31188C7
:104E3000BDE8090019680868B0E8F04F1EF0100FCF
:104E400008BFB0EC108A80F30988BFF36F8F7047FA
:104E5000E045002400000000F0B581B044F22C478A
:104E6000C5F6020757F8042C02F00302032A02D108
:104E7000012001B0F0BD054657F82C0C0C4620F07F
:104E8000806047F82C0CFDF797FE064657F82C0C6F
:104E9000000105D5FDF790FE801B0228F6D964E0DD
:104EA00057F8040CEE6895E80E0020F47C30012CD5
:104EB00040EA0130A2F101016FF35F214FF47E421D
:104EC00002EB432247F8040C92B24FF0FE4302EB90
:104ED00001004FF4FE012A6901EB064101F4FE01D5
:104EE00003EB0262084402F0FE410844F8603868AF
:104EF000696920F0C00040EA010038603868A9699B
:104F000020F0200040EA0100386038684FF6F87160
:104F100020F0100038603869EA6920EA01004FF497
:104F2000001140EAC2003861386808BF4FF48011B0
:104F300040F01000002C386008BF4FF400213868A2
:104F40000843386057F82C0C40F0806047F82C0C70
:104F5000FDF732FE044600BF57F82C0C000107D4C1
:104F6000FDF72AFE001B0328F6D3032001B0F0BD95
:104F7000002001B0F0BD0000F0B581B044F22C4734
:104F8000C5F6020757F8042C02F00302032A02D1E7
:104F9000012001B0F0BD054657F82C0C0C4620F05E
:104FA000805047F82C0CFDF707FE064657F82C0CEE
:104FB000800005D5FDF700FE801B0228F6D964E0CD
:104FC00057F8040CEE6895E80E0020F07C70012C78
:104FD00040EA0150A2F101016FF35F214FF47E42DC
:104FE00002EB432247F8040C92B24FF0FE4302EB6F
:104FF00001004FF4FE012A6901EB064101F4FE01B4
:1050000003EB0262084402F0FE410844786138680C
:10501000696920F4406040EA010038603868A96995
:1050200020F4007040EA0100386038684FF6F871EB
:1050300020F480703860B869EA6920EA01004FF016
:10504000807140EAC200B861386808BF4FF40001BF
:1050500040F48070002C386008BF4FF4800138683D
:105060000843386057F82C0C40F0805047F82C0C5F
:10507000FDF7A2FD044600BF57F82C0C800007D4B2
:10508000FDF79AFD001B0328F6D3032001B0F0BD05
:10509000002001B0F0BD000050B1D0F8C0110029CF
:1050A00008BF704741F22932C0F60002C1E92E2044
:1050B000704700000000000010B586B0CDE9000187
:1050C000002002908DF80C00CDE904006846FCF742
:1050D0006BFC044618B108212046FCF73DFD204634
:1050E00006B010BD00000000C16B0122C06808308E
:1050F00002EB5111C0084843704700000000000057
:10510000074B19680868B0E8F04F80F30988BFF3CF
:105110006F8F4FF0000080F31188704700BF00BF11
:10512000E04500240000000080B500F0C1F980BD1A
:1051300080B54EF21000CEF20000006802F028F8B0
:10514000012808BF80BD01F097FC80BD0000000071
:1051500070B59CB044F6180409A84C21C5F60204A9
:10516000FBF75FFA02200025CDE90755CDE905558B
:10517000CDE90355CDE90155FDF73EFE40F22C4047
:105180000095C5F60000016821F00101016000688A
:1051900000F001000090206840F44040206020684A
:1051A00000F440400090009820688004FCD5012065
:1051B00009904FF480300A9002201490CDE912003B
:1051C00040240825CDE91540CDE917500C20199051
:1051D00009A80026CDE91A66FEF752FD98B93F20CE
:1051E000019003200221CDE902064FF4806006946D
:1051F000CDE9070401A8CDE90454FEF729FB0028F6
:1052000004BF1CB070BDFCF7DBF90000000000001B
:105210004EF6885042F2000CCEF20000C5F2002C8F
:10522000016841F470010160DCF8000000F00F003B
:10523000062806D8DCF80000072161F30300CCF84B
:10524000000044F200404EF67F52C5F60200CEF652
:10525000F622016841F0010101600021016103684B
:105260001A400260DCF80020120706D5DCF80020A6
:10527000072363F30302CCF8002040F2002281618F
:10528000C161C0F20222016282620022C0F2FF12FA
:10529000C26240F28022C0F2011202634163826363
:1052A000C16302644164026822F48022026041F218
:1052B00000020166C5F600421268B1EB527F05D1CB
:1052C00048F208110122C5F200110A60D0F8D4108A
:1052D000C90448BF7047D0F8D41043F2D20241F459
:1052E0008051C0F8D41044F20001C5F200210A60D8
:1052F000D0F8D41021F48051C0F8D41070470000C9
:1053000080B544F29840C2F20040FFF7B5F980BD85
:1053100010B540F6FF32C4F20002904202680FDC82
:10532000B0F1804F1DD040F20043C4F20003984218
:1053300017D040F60003C4F20003984211D014E0E5
:1053400040F60043C4F2000398420AD040F2004302
:10535000C4F20103984204D00023C4F2010398422E
:1053600003D122F070024B681A434FF6FF7343F6E5
:10537000FF7CC4F20003C4F2010C984210DD6045CA
:105380001ADD44F20003C4F2010398422CD044F623
:105390000003C4F20103984226D044F2004312E015
:1053A00040F2FF73C4F20003984211DCB0F1804F69
:1053B0001AD040F2004313E00023C4F201039842E4
:1053C00012D040F20043C4F2010398420CD00FE027
:1053D00040F60003C4F20003984205D040F60043B3
:1053E000C4F20003984203D122F44072CB681A43FE
:1053F000D1F814E060450B688C68C46283620EDDEE
:1054000044F20003C4F20103984213D044F60003AF
:10541000C4F2010398420DD044F2004306E0002399
:10542000C4F20103984205D040F20043C4F20103E4
:10543000984201D109690163016841F004010160EA
:105440000121416122F0800141EA0E01016010BD9D
:10545000FEE7000000000000002848BF704700F091
:105460001F01012202FA01F14EF200124009CEF2B0
:10547000000242F8201070474EF60C50CEF20000A9
:105480000068C0F3022070474EF6145300F00F027C
:10549000CEF20003B0F1FF3F1A4400F16043C8BFF1
:1054A00003F564420801107070470000000000001E
:1054B0004EF61F500021CEF2000001707047000030
:1054C0004EF60C514FF6FF03CEF200010A681A4067
:1054D00060F30A2242F0806040F0FD70086070477F
:1054E00090ED0D0A90ED111A20EE011AB5EE401A5A
:1054F000F1EE10FA14DDB0EEC00A90ED081AB4EE29
:10550000410AF1EE10FAD8BF704790ED072A31EE4C
:10551000023AB4EE430AF1EE10FA02DD0021C16452
:10552000704732EE400A31EE000A90ED131A80EE19
:10553000020A20EE010A80ED130A70470000000005
:1055400090ED120A90ED191A90ED0A2A20EE010A48
:1055500090ED163A31EE021A22EE032A80EE010A8D
:1055600082EE011A30EE010A80ED120A7047000047
:1055700090ED0B0A90ED0C1A31EE400A90ED021AF4
:1055800021EE000A90ED191A80EE010A80ED120A50
:10559000704700000000000090ED100A90ED111A15
:1055A00031EE000A90ED122A90ED033A30EE020A35
:1055B000B0EEC02A90ED130A31EE000AB4EE432A91
:1055C000F1EE10FA0ADD90ED0D2A21EE021AB5EE89
:1055D000401AF1EE10FA01DD0021C16490ED061AC7
:1055E000B4EE410AF1EE10FA03DD0021C16480ED52
:1055F000111AB1EE411AB4EE410AF1EE10FAA8BF49
:1056000070470021C16480ED111A7047000000004E
:1056100090ED140A90ED191A90ED092A20EE010A76
:1056200090ED153A31EE021A22EE032A80EE010ABD
:1056300082EE011A30EE010A80ED140A7047000074
:1056400090ED030A90ED141AB4EE401AF1EE10FA40
:10565000C8BF80ED140AB1EE400A90ED141AB4EE02
:10566000401AF1EE10FAB8BF80ED140A704700003E
:1056700090ED030A90ED141A9FED1C2AB0EEC11AAA
:1056800020EE020AB4EE401AF1EE10FA2DDB90ED96
:10569000170A9FED172AB0EEC01AB4EE421AF1EEC7
:1056A00010FA22DB90ED0B1A30EE411A81EE000A5F
:1056B0009FED101AB0EEC00AB4EE410AF1EE10FAF6
:1056C00005DDD0E91A12013142F1000201E00021AA
:1056D000002240F2F513CB1A72F10003C0E91A124E
:1056E00038BF7047012180F8701070476F12833AFD
:1056F00017B7D1383333733F90ED0D0A90ED0E1A82
:1057000030EE010A90ED012AB6EE001BB7EEC22A78
:10571000B7EEC00A20EE010B90ED191AB7EEC11AD0
:1057200020EE020B20EE010BB7EEC00B80ED130A4A
:105730007047000000000000FFF796F8FDF754FAEC
:10574000FFF706FDFFF738F9FFF7AAF8FFF7E4F8CF
:10575000FFF79AF9FBF7A8F800F01AF8FFF718F925
:1057600000F02EF8FBF7D0F80120FCF7A1FBF9E7D9
:10577000EFF3058100291CBF6FF00500704720B1D1
:1057800080B500F0D9FF002080BD002070470000E8
:10579000EFF3058000281CBF6FF00500704740F252
:1057A000A800C2F20040016800291CBF4FF0FF3082
:1057B00070470121016000207047000000000000D8
:1057C00010B5EFF3058000281CBF6FF0050010BD79
:1057D00040F2A804C2F200442068012807D1FFF774
:1057E000A3FC0220206001F02BF8002010BD4FF038
:1057F000FF3010BD0000000070B584B08E46002858
:105800004FF000010391EFF3058146D0002944D108
:10581000FAB19369002B08BF1823382B16D81179D9
:10582000C90713D1556994684FEA950C002D08BF3C
:105830004FF0800C1168FCB1D6685C2E1BD3D5B13B
:105840001569C5B10024012555B91BE0002004B03D
:1058500070BD0124002118234FF0800C00258DB16C
:10586000946812690294CDE900326246734601F0F1
:105870004BFC039011E00CB9D4689CB100250024C6
:10588000002DEDD14CB11FFA8CF2009303AB0193C4
:10589000734601F005FC012802D1039804B070BDE5
:1058A0000020E6E71469B4FA84F46409D6E700003E
:1058B000F0B581B04DF2482244F2E056C2F2004207
:1058C000C2F2004604460D4617683268101D00F00B
:1058D0008FFD601C0AD14DB13068011D4DF22020B2
:1058E000C2F2004000F0ECFD01B0F0BD3068E419F8
:1058F00044600AD344F2F050C2F2004000683168BC
:10590000043100F0BDFD01B0F0BD44F2E850C2F238
:10591000004000683168043100F0B2FD4DF2AC1077
:10592000C2F2004001688C4238BF046001B0F0BD93
:1059300070B5044600F0E0FD4CF6802044F2E055DE
:10594000C2F20040C2F200454DF214260168C2F2D4
:10595000004601310160296841B1306860B92868AA
:10596000E16AC06A884298BF2C6005E02C6000683C
:10597000012801D100F0D4F94CF68C20C2F200408D
:1059800001680131016061644CF69021C2F200416E
:10599000E06A0A68904288BF086000EB800044F229
:1059A000F851C2F2004101EB8000211D00F088FD9A
:1059B00000F0CEFD306880B12868E16AC06A884294
:1059C00028BF70BD4EF604504FF08051CEF200005B
:1059D0000160BFF34F8FBFF36F8F70BD00000000F9
:1059E00070B582B000F088FD4DF24C26C2F2004640
:1059F000306850BB4DF24C14C2F20044204600F017
:105A00002FFD4DF26015C2F20045284600F028FD3A
:105A100044F2E45044F2EC42C2F2004044F28C53AF
:105A2000C2F20042C2F20043046044F2F450C2F2F7
:105A30000040102105600A200025009501F038F88B
:105A4000306010B103A100F03FFE00F081FD02B014
:105A500070BD00BF546D72510000000000000000D6
:105A6000F0B581B04CF68425C2F200452868E0B15B
:105A70004DF234264CF68027C2F20046C2F20047AF
:105A800000F03AFDF068C468201D00F0B1FC3868F1
:105A90000138386028680138286000F059FD204638
:105AA00000F05AF828680028EAD101B0F0BD0000E3
:105AB00080B5026C002A08BF80BDD0E902C3134440
:105AC000C360634501D30368C360C36808461946D1
:105AD000FAF728FD80BD000070B5866B0446036CA4
