:020000040800F2
:10000000B84E01244103000831110108B10601086E
:10001000390E0108991200088174010800000000DF
:10002000000000000000000000000000D1200108D6
:100030006941000800000000611701085121010812
:100040005F0300085F0300085F0300085F03000808
:100050005F0300085F0300085F0300085F030008F8
:100060005F0300085F0300085F03000841200008E9
:1000700051200008612000085F0300085F030008AA
:100080005F0300085F0300085F0300088948000859
:10009000A948000899480008B94800085F0300080B
:1000A0005F0300085F0300085F0300085F030008A8
:1000B0005F0300085F0300085F0300085F03000898
:1000C0005F0300085F0300085F0300085F03000888
:1000D0005F030008393701085F0300085F03000869
:1000E0005F0300085F030008000000005F030008D2
:1000F0005F0300085F0300085F0300085F03000858
:100100005F0300085F0300085F0300085F03000847
:100110005F0300085F0300085F030008E92301088C
:100120005F0300085F0300085F0300085F03000827
:100130005F0300085F0300085F0300085F03000817
:1001400000000000000000000000000000000000AF
:100150005F0300085F0300085F03000849370108D8
:100160005F0300085F0300085F0300085F030008E7
:100170005F0300085F0300085F0300080000000041
:100180005F0300085F0300085F0300085F030008C7
:100190005F0300085F0300085F0300085F030008B7
:1001A0005F0300085F0300085F0300085F030008A7
:1001B0005F0300085F0300085F0300085F03000897
:1001C0005F0300085F0300085F0300085F03000887
:1001D0005F030008A91101085F0300085F0300081E
:1001E0005F0300085F0300085F0300085F03000867
:1001F0005F0300085F0300085F0300085F03000857
:100200005F0300085F0300085F0300085F03000846
:100210005F0300085F0300085F0300085F03000836
:100220005F0300085F0300085F0300080000000090
:100230005F0300085F030008000000005F03000880
:100240005F0300085F0300085F0300085F03000806
:100250005F0300085F0300085F0300085F030008F6
:100260005F0300085F0300085F0300085F030008E6
:100270005F0300085F0300085F0300080000000040
:100280005F0300085F0300085F0300080000000030
:10029000000000005F03000800F002F800F040F8E2
:1002A0000AA090E8000C82448344AAF10107DA45D1
:1002B00001D100F035F8AFF2090EBAE80F0013F0E3
:1002C000010F18BFFB1A43F00103184704C30100D4
:1002D00024C30100103A24BF78C878C1FAD8520765
:1002E00024BF30C830C144BF04680C6070470000B0
:1002F0000023002400250026103A28BF78C1FBD82F
:10030000520728BF30C148BF0B6070471FB51BF0B4
:10031000A2FD9DE8030000F0EDF91FBD10B510BD72
:1003200000F054FA1146FFF7F1FF17F049FB00F017
:1003300072FA03B4FFF7F2FF03BC00F0A3FA000067
:100340000A4880470A4880470A480047FEE7FEE718
:10035000FEE7FEE7FEE7FEE7FEE7FEE7FEE7FEE775
:1003600005480649064A074B7047000061480008E7
:100370005922010899020008B8FE0024B84E012451
:10038000B83E0124B83E012470B5064600F096F947
:10039000056806F10B0020F00704B4429CBF002062
:1003A00070BD2B466A68BAB11068A04210D304F140
:1003B000080188423CBF5068586007D35168101943
:1003C00041601168091B016058601460101D70BD08
:1003D00013465268002AE7D12146284600F076F9F4
:1003E0000028DED170BD70B50446051F00F066F927
:1003F0000068002C14BF446870BD002C18BFAC42CC
:100400003CBF20466468F8D301680A18AA4218BFA6
:10041000456003D12A6805461144016028684119E6
:10042000A1421CBF6C6070BD6168696021680844AE
:10043000286070BD53EA020C00F069802DE9F04B92
:100440004FF00006002B1FBFB3FA83F503FA05F443
:1004500024FA05F65E4012BF1643B2FA82F502FA9C
:1004600005F4C5F120051EBF22FA05FC44EA0C0480
:10047000203556EA044C4FEA144418BF641C4FF070
:1004800000084FF00009904271EB030C39D30029AA
:1004900019BFB1FA81F701FA07F6B0FA80F700FA4E
:1004A00007F6C7F120071EBF20FA07FC46EA0C0634
:1004B0002037B6FBF4FCA7EB0507103F07F01F0B36
:1004C000CBF120062CFA06F60CFA0BFB44BFB34620
:1004D0000026202FA4BF5E464FF0000B5BEA060CFF
:1004E00008BF4FF0010B19EB0B0948EB0608ABFBFB
:1004F000027C06FB02CC0BFB03CCC01B71EB0C0196
:10050000C1E70B46024641464846BDE8F08B13B5AD
:10051000084318BF4FF0FF300146AFF30080BDE83D
:100520001C407047032A40F2308010F0030C00F0AA
:10053000158011F8013BBCF1020F624498BF11F81D
:1005400001CB00F8013B38BF11F8013BA2F10402D6
:1005500098BF00F801CB38BF00F8013B11F003034E
:1005600000F02580083AC0F0088051F8043B083AB2
:1005700051F804CBA0E80810F5E7121D5CBF51F854
:10058000043B40F8043BAFF30080D20724BF11F8CE
:10059000013B11F801CB48BF11F8012B24BF00F833
:1005A000013B00F801CB48BF00F8012B704710B5A4
:1005B000203AC0F00B80B1E81850A0E81850B1E81C
:1005C0001850A0E81850203ABFF4F5AF5FEA027C5B
:1005D00024BFB1E81850A0E8185044BF18C918C08B
:1005E000BDE810405FEA827C24BF51F8043B40F82C
:1005F000043B08BF7047D20728BF31F8023B48BF11
:1006000011F8012B28BF20F8023B48BF00F8012B4E
:10061000704702F0FF0343EA032242EA024200F07D
:1006200024B84FF000020429C0F0128010F0030C2F
:1006300000F01B80CCF1040CBCF1020F18BF00F8D5
:10064000012BA8BF20F8022BA1EB0C0100F00DB884
:100650005FEAC17C24BF00F8012B00F8012B48BFE2
:1006600000F8012B70474FF0000200B51346944686
:100670009646203922BFA0E80C50A0E80C50B1F1FA
:100680002001BFF4F7AF090728BFA0E80C5048BF0E
:100690000CC05DF804EB890028BF40F8042B08BFAC
:1006A000704748BF20F8022B11F0804F18BF00F8A8
:1006B000012B704770477047704700000048704733
:1006C00028010024704770477047704738B50446CA
:1006D0000A4600206946AFF30080002808BF38BDF5
:1006E00002460099204600F04FF8012038BD012055
:1006F00000F064B8F8B5AFF30080054600200C4662
:10070000102000BF0646A819A0420DD932466946FE
:100710000020AFF30080070008BF00F04FF80098FA
:10072000A04218BF0546C419FFF7C8FF0560074679
:10073000F01D20F007004619284600F00AF8B442E0
:1007400008BFF8BDA21B31463868BDE8F84000F08C
:100750001BB800210160C0E90110704710207047EC
:1007600010B500F00DF8006810BD10B5044600F09B
:1007700007F8046010BD0000004870472001002405
:100780000048704720010024034640688C4600283A
:1007900018BF88423CBF03464068F8D31868184425
:1007A000884207D00CF1030020F00700001D411A19
:1007B000521A0146081D0A60FFF715BE10B500F079
:1007C00039F8BDE8104000F02FB870477546FFF7C4
:1007D000D3FFAE4605006946534620F00700854624
:1007E00018B020B5FFF7BCFDBDE820404FF0000673
:1007F0004FF000074FF000084FF0000BAC46ACE89C
:10080000C009ACE8C009ACE8C009ACE8C00921F0F7
:1008100007018D46704710B50446AFF300802046AF
:10082000BDE81040FFF785BD002801D000F02AB8D0
:100830007047000010B5012805D0002103A000F08A
:1008400027F8012010BD09A1F8E7000053494752DD
:10085000544D454D3A204F7574206F662068656190
:1008600070206D656D6F7279000000003A20486558
:100870006170206D656D6F727920636F7272757033
:100880007465640001491820ABBEFEE72600020033
:1008900070B505460C460A2000E06D1C00F011F80A
:1008A00035B128780028F8D102E0641C00F009F87E
:1008B00014B120780028F8D1BDE870400A20AFF3C9
:1008C000008008B569468DF800000320ABBE08BD66
:1008D00084B08DED021ACDED010A8DED000A9DED7B
:1008E000000A9FED271AB4EE410AF1EE10FA0ADB76
:1008F000FFE79DED000A9FED231AB4EE410AF1EEE9
:1009000010FA04DDFFE700208DF80F0033E09DEDC5
:10091000010A9FED1B1AB4EE410AF1EE10FA0ADB50
:10092000FFE79DED010A9FED171AB4EE410AF1EEC3
:1009300010FA04DDFFE700208DF80F001BE09DEDAD
:10094000020A9FED0F1AB4EE410AF1EE10FA0ADB2B
:10095000FFE79DED020A9FED0B1AB4EE410AF1EE9E
:1009600010FA04DDFFE700208DF80F0003E00120FE
:100970008DF80F00FFE79DF80F0004B0704700BF2F
:10098000000034C30000344380B58CB08DED0B1AE9
:10099000CDED0A0A8DED090A089007919DED090A2F
:1009A0009FED202A20EE020A8DED060A9DED060A33
:1009B0009DED0A1A01EE020A8DED050A9DED060A6B
:1009C0001AF03EFF8DED010A9DED050A1AF038FF81
:1009D0009DED011A9FED142A8DED022A20EE020AE8
:1009E0009FED122A8DED032A01EE020A089880ED90
:1009F000000A9DED060A1BF023F88DED040A9DED1B
:100A0000050A1BF01DF89DED023A9DED032A9DEDB0
:100A1000041A20EE030A01EE020A079880ED000A8C
:100A20000CB080BD35FA8E3C000091430000B44309
:100A300080B592B08DED101ACDED0F0A8DED0E0A36
:100A40000D908DF833100D9820B9FFE700208DF838
:100A50004700B7E00E980B900F980A909DED0B1A87
:100A60009DED0A0A20EE000A01EE010A8DED090A49
:100A70009DED090A1BF0ACF88DED080A9DED080A02
:100A80009FED521AB4EE410AF1EE10FA0ADCFFE7CC
:100A90009DED080A9FED4E1AB4EE410AF1EE10FAF0
:100AA00004DAFFE700208DF847008BE09DED090A8E
:100AB0009FED481A30EE010A9FED471A30EE010A09
:100AC0009FED461A80EE010A8DED070A9DED070A9B
:100AD000B7EE001AB4EE410AF1EE10FA04DDFFE7BA
:100AE0004FF07E500790FFE79DED070ABFEE001A1A
:100AF000B4EE410AF1EE10FA05DAFFE70020CBF67A
:100B000080700790FFE79DF8330038B9FFE79DED4F
:100B1000070A1AF0B3FC8DED060A08E09DED070AFE
:100B20001AF0ACFCB1EE400A8DED060AFFE79DED30
:100B30000A0ADDED0B0A1AF02DFD8DED030A9DED7D
:100B4000060A1AF07DFF9FED261A8DED011A20EEA0
:100B5000010A8DED020A9DED060A1AF071FE9DED67
:100B6000012AB0EE401A9DED020ADFED1E0A41EEA9
:100B7000020A1AF00FFDB0EE401A9DED030A30EEA6
:100B8000410A8DED050A9DED050A9FED171A8DEDC1
:100B9000041A20EE010A00F09BF89DED041A0D984E
:100BA00080ED000A9DED060A20EE010A00F090F8A3
:100BB0000D9880ED010A0D990020886001208DF8C4
:100BC0004700FFE79DF8470012B080BDA480224493
:100BD000E1FA8B420020FDC70042A4C700E84B4861
:100BE000000091430000B443E12E65420000000084
:100BF00080B5ECB04BF68471C0F601013DA80190C0
:100C0000BC220492FFF7D3FC019802F049FC014694
:100C100046F21C70C2F2004002900160006802F0CF
:100C2000EBFD029800689FED280A8DED030ADFEDC9
:100C3000270A02F085FD0298DDED030A0068B0EE98
:100C4000600A02F095FD049A4CF24001C0F60101E1
:100C50000EA80590FFF7ABFC059800F005FF0146D4
:100C600046F22070C2F200400160006800F0F4FE1D
:100C70000020069004F098FD014606980D910D990C
:100C8000079104218DF8201001218DF82110ADF875
:100C900022004FF4FA71ADF8241014218DF82610BB
:100CA00040F2DC51ADF828100021C3F6B4510B918D
:100CB0008DF8300007A804F037FE46F22471C2F226
:100CC000004108606CB080BD00002042CDCCCC3D1E
:100CD00080B582B08DED010A9DED010ADFED170AA6
:100CE0001AF056FE8DED000A9DED000A9FED141AD4
:100CF000B4EE410AF1EE10FA09DDFFE79DED000ABE
:100D00009FED101A30EE010A8DED000AFFE79DED10
:100D1000000A9FED0D1AB4EE410AF1EE10FA09DA5D
:100D2000FFE79DED000A9FED051A30EE010A8DEDFB
:100D3000000AFFE79DED000A02B080BD0000B44349
:100D4000000034430000B4C3000034C300000000BE
:100D500081B0009046F21C70C2F200400068F0B111
:100D6000FFE746F21C70C2F20040006890F8FE01F6
:100D7000A8B1FFE746F21C70C2F20040006890ED97
:100D8000031A46F21870C2F2004090ED000A9FED7F
:100D9000202A01EE020A009880ED000AFFE746F2E1
:100DA0002070C2F20040006800B3FFE746F22070F6
:100DB000C2F20040006890F8D601B8B1FFE746F2F1
:100DC0002070C2F20040006890ED090AB3EE031AE9
:100DD00080EE010A9FED0F1A30EE010A009890EDA7
:100DE000001A30EE410A80ED010AFFE746F2247056
:100DF000C2F20040006848B1FFE746F22470C2F238
:100E000000400068C06800998860FFE701B0704743
:100E1000E12E65C20000344380B586B005A900917B
:100E200081ED001A41ED010A01ED020A46F21C7043
:100E3000C2F20040006811ED021A46F21871C2F2C7
:100E4000004191ED000A30EE410A02F0C5FC009924
:100E500046F22070C2F20040006811ED021A11ED56
:100E6000010A9FED182A30EE020A30EE010AB3EEB5
:100E7000031A20EE010A00F077FF009890ED000AB7
:100E80009FED111A80EE010ABDEEC00A10EE100AA5
:100E9000ADF80A0046F22470C2F2004001900068EA
:100EA000BDF90A1004F048FE019800684FF4FA7189
:100EB00004F052FE01980068142104F02DFE06B0E3
:100EC00080BD00BF000034C30000B43D000000003E
:100ED00080B582B00190FFE700F006F8012016F01F
:100EE0005FFEF9E70000000080B594B00DA80990FE
:100EF00046F69C40C2F200400068C07B8DF84F006F
:100F000041F25860C2F200400A90FFF721FF0A99AF
:100F100008684A688B6841F21461C2F200418B6034
:100F20004A6008609DF84F0081F83A0041F2546031
:100F3000C2F20040007801460B9150B1FFE70B98D8
:100F4000012800F0AC80FFE70B98022800F0D78062
:100F500097E146F21C70C2F200400068002800F0E1
:100F60009D80FFE746F21C70C2F20040006890F8D6
:100F7000FE01002800F09280FFE746F22070C2F2E6
:100F800000400068002800F08980FFE746F22070EA
:100F9000C2F20040006890F8D60100287ED0FFE73A
:100FA00046F21770C2F200400078F8B9FFE746F247
:100FB0001C70C2F20040006890ED030A9FEDB51A64
:100FC00020EE010A46F21870C2F2004080ED000ADD
:100FD00046F22070C2F20040006800F0ADFE46F21A
:100FE0001771C2F20041012008704AE141F25860D5
:100FF000C2F200400590FFF7ABFE05980168426819
:10100000836845F69870C2F20040089083604260A1
:10101000016090ED000AD0ED010A90ED021A45F64C
:10102000A470C2F20040069045F6A871C2F20041D9
:101030000791FFF7A9FC069A07990898136841F2EF
:101040001462C2F200425362096891620168426808
:10105000836847F2B060C2F2004083604260016082
:1010600090ED000AD0ED010A90ED021AFFF7D4FED0
:1010700046F21C70C2F20040006802F0E5F902F08E
:101080002FFF47F2AC60C2F2004080ED000A41F24F
:101090005461C2F2004101200870FFE7F1E045F61B
:1010A0009870C2F2004001684268836847F2B060FD
:1010B000C2F2004083604260016090ED000AD0ED12
:1010C000010A90ED021AFFF7A7FE02F009FF47F2AE
:1010D000AC60C2F2004090ED001A30EE410AB7EE6B
:1010E000001AB4EE410AF1EE10FA07DBFFE741F215
:1010F0005461C2F2004102200870FFE7C1E09DF890
:101100004F0001280FD1FFE745F69871C2F2004168
:1011100008684A688B6847F2B061C2F200418B6090
:101120004A60086094E09DF84F00022840F08F80EC
:10113000FFE7099845F6A471C2F2004191ED000A5B
:101140009FED521A30EE010A80ED030A45F6A871B0
:10115000C2F2004191ED000A9FED4D1A30EE010AF6
:1011600080ED040A002103911291109941F214625A
:10117000C2F200420492D1621199116390ED031AF8
:1011800090ED040A20EE000A01EE010A1AF020FD9B
:1011900009980399049A82ED0D0A90ED030AD0EDA7
:1011A000040A90ED051A0DA8FFF742FC04998DF88A
:1011B00033000D980E9A0F9B0B62CA6188619DF8EF
:1011C000330081F838009DF8330058B1FFE70998E3
:1011D00090ED000AD0ED010A90ED021AFFF778FBBE
:1011E000029002E000200290FFE702988DF83200A2
:1011F0009DF8320041F21461C2F2004181F83900D9
:101200009DF83300D0B1FFE79DF83200B0B1FFE7A1
:101210000D9847F2B061C2F2004108600E98486034
:1012200045F69870C2F200408068886041F214610F
:10123000C2F20041888F0130888707E041F21461D3
:10124000C2F20041C88F0130C887FFE7FFE7FFE720
:1012500047F2B060C2F20040019090ED000AD0ED7C
:10126000010A90ED021AFFF7D7FD019908684A6854
:101270008B6841F21461C2F200414B610A61C8609F
:10128000FFE701F049FF14B080BD00BF0000FAC3C2
:1012900000004843E12E6542FFE7FEE70000000042
:1012A00084B08DF80F000291ADF806209DF80F0074
:1012B0000146009123281DD80099DFE801F01213A0
:1012C0001415161B1B1B1B1B1B1B1B1B1B1B1B1B80
:1012D0001B1B1B1B1B1B1B1B1B1B1B1B1B1B171865
:1012E000191A08E007E006E005E004E003E002E088
:1012F00001E000E0FFE7002004B0704700000000BC
:10130000002070470000000080B582B045F6142030
:10131000C2F20040009040F61461C2F20041002287
:10132000019212F0C1FD009840F21461C2F2004136
:1013300012F09AFD019A009840F60001C3F20401F0
:1013400012F0B2FD009840F20001C3F2040112F065
:101350008BFD019802B080BD80B584B003900291EE
:1013600003980299096815F00FFE039945F61420B9
:10137000C2F20040019012F077FD019812F018FDC2
:10138000002004B080BD000083B0029001918DF870
:10139000032000208DF802009DF9020003B0704781
:1013A00080B586B00490ADF80E1000208DF80D00C9
:1013B00045F61420C2F20040D0F8BC020290029818
:1013C000D0F8140220B1FFE701208DF8170013E0D8
:1013D0000499BDF80E2045F61420C2F20040019099
:1013E00012F062FD019812F06BFE8DF80D009DF871
:1013F0000D008DF81700FFE79DF8170006B080BDBF
:1014000080B504F0B9FB00F0BBFC80BD000000001B
:1014100080B582B001900FF0CFFCFFE7012016F0FD
:10142000BFFBFBE70000000081B000200090FFE759
:101430000098052821D8FFE7009947F2A460C2F27E
:101440000040405CA0B1FFE7009947F28C60C2F217
:10145000004050F8210058B1FFE7009947F28C6036
:10146000C2F2004050F8211000200863C862FFE774
:10147000FFE7009801300090DAE701B07047000004
:1014800080B586B08DED050ACDED040A9DED050A07
:1014900000F09EFC8DED030A9DED040A00F098FC1F
:1014A0008DED020A9DED020A9DED031A30EE410A10
:1014B0008DED010A9DED010A9FED161AB4EE410A69
:1014C000F1EE10FA09DDFFE79DED010A9FED141A18
:1014D00030EE010A8DED010A13E09DED010A9FED4A
:1014E0000E1AB4EE410AF1EE10FA09DAFFE79DEDAB
:1014F000010A9FED0A1A30EE010A8DED010AFFE79D
:10150000FFE79DED050A9DED011A30EE010A06B0D8
:1015100080BD00BF00003443000034C30000B4436A
:101520000000B4C30000000083B002900191029853
:1015300018B1FFE7019808B9FFE715E000208DF822
:101540000300FFE79DF8030007280DD8FFE7019887
:101550009DF80320805C02998854FFE79DF8030002
:1015600001308DF80300EDE703B070470000000084
:1015700082B00090009845F65861C2F2004188425E
:1015800006D1FFE745F65C10C2F20040019010E082
:10159000009845F6F861C2F20041884206D1FFE7A3
:1015A00045F6B810C2F20040019002E00020019020
:1015B000FFE7019802B0704780B582B00190FFE765
:1015C00000F006F804F068F9012016F0E9FAF7E7F0
:1015D00080B58AB0FFF728FF45F69C01C2F20041B2
:1015E000C8680130C860002081F829000790FFE733
:1015F000079846F21671C2F200410978884280F0DD
:101600009381FFE7079941F27C70C2F2004050F8E5
:1016100021000690069828B1FFE70698D0F8C0018F
:1016200008B9FFE77CE1069810F09EFA069834307E
:101630000590069840300490069803900698B0F8FC
:10164000D401ADF82200059800F0CAF98DF8250004
:101650009DF8250038B1FFE7069890F8D7010028DB
:1016600000F0E180FFE70498D0F878010190059838
:101670000079012807D1FFE79DED010AB1EE400A8C
:101680008DED010AFFE7059840884006002839D50E
:10169000FFE705980088402834D1FFE70598807956
:1016A000012806D1FFE70498D0F86801006802908D
:1016B00012E00398406A02900598007A01280AD146
:1016C000FFE7039890ED090ADDED010AFFF7D8FE68
:1016D0008DED010AFFE7FFE705984079012807D162
:1016E000FFE79DED020AB1EE400A8DED020AFFE729
:1016F00004989DED020ADDED010A0FF025FF8DED46
:10170000010AFFE705984088000700283ED5FFE75B
:101710000598008810F0480F38D0FFE70598407A08
:1017200010F00A0F0CD0FFE70498D0F8740190ED88
:10173000001A9DED010A30EE010A8DED010AFFE766
:101740000598C079012806D1FFE70498D0F86C010C
:101750000068029003E0039800690290FFE7059893
:101760004079012807D1FFE79DED020AB1EE400A5A
:101770008DED020AFFE7049878309DED020ADDED59
:10178000010A0FF0E1FE8DED010AFFE70598407AAE
:10179000C00760B1FFE70498D0F8700190ED001A1F
:1017A0009DED010A30EE010A8DED010AFFE7059873
:1017B0004088C00700B3FFE70398B0F9140000EEBB
:1017C000100AB8EEC00A8DED020A0598407901288A
:1017D00007D1FFE79DED020AB1EE400A8DED020A46
:1017E000FFE70498F0309DED020ADDED010A0FF0ED
:1017F000ABFE8DED010AFFE79DED010ABDEEC00ACB
:1018000010EE100AADF82200BDF822000699A1F8EA
:10181000D4019DF8250028B1FFE70699002081F842
:10182000D701FFE7FFE7069890F8C4018DF827007D
:10183000069890F8C5018DF826009DF82700052828
:101840000ADCFFE79DF8271047F28C60C2F20040E7
:1018500050F8210008B9FFE762E09DF823009DF8E9
:10186000272047F28C61C2F2004151F822209DF8F6
:10187000263002EB430282F82C00BDF822009DF8CE
:10188000272051F822109DF8262001EB420181F813
:101890002D000498D0F8780145F69C01C2F2004171
:1018A0004864BDF82200A1F848009DF8270081F89F
:1018B00027009DF8260081F82800069890F8C701B7
:1018C00078B9FFE79DF8271047F28C60C2F200401C
:1018D00050F821009DF8261000EB4101002088857A
:1018E000FFE79DF8271047F28C60C2F2004050F8E5
:1018F00021108A6A45F69C01C2F20041CA649DF833
:10190000272050F822009DF8262000EB420090F896
:101910002C2090F82D0040EA0220A1F85000FFE7AB
:1019200007980130079063E600200790FFE70798CB
:10193000052851D8FFE7079945F69C00C2F2004000
:101940000144002081F85200079947F2A460C2F2D6
:101950000040405C70B1FFE70799012000FA01F2F6
:1019600045F69C01C2F2004191F82900104381F82C
:101970002900FFE7079947F2A460C2F20040405CEB
:1019800028B3FFE7079947F28C60C2F2004050F895
:101990002100E0B1FFE7079947F28C60C2F20040F6
:1019A00050F8210000F068FA80B1FFE7079945F68A
:1019B0009C00C2F200404218012182F8521007999F
:1019C00000EB8101886D01308865FFE7FFE7FFE7E5
:1019D000079801300790AAE70AB080BD0000000018
:1019E00082B00090009820B9FFE700208DF8070032
:1019F0002BE0009840884006002809D5FFE70098B2
:101A00000088402804D1FFE701208DF807001CE082
:101A100000984088000700280AD5FFE70098008852
:101A200010F0480F04D0FFE701208DF807000CE00C
:101A300000984088C00720B1FFE701208DF807001B
:101A400003E000208DF80700FFE79DF8070002B0D3
:101A5000704700000000000081B000900099012054
:101A600081F8C70101B0704780B58EB00C900C981A
:101A700060B9FFE745F69C01C2F2004148680130B9
:101A800048600220887600200D902CE147F2AA6081
:101A9000C2F20040007880B9FFE70EF00DFE60B999
:101AA000FFE745F69C01C2F20041486801304860FA
:101AB0000320887600200D9015E146F21670C2F2E0
:101AC000004000780C280CDBFFE745F69C01C2F2D1
:101AD00000414868013048600420887600200D905D
:101AE00001E14FF4EC70FEF74FFC0590059860B9EA
:101AF000FFE745F69C01C2F20041486801304860AA
:101B00000520887600200D90EDE005984FF4EC71EB
:101B1000FEF7A9FD0C9890F8A000059981F8C60180
:101B200005990C9BD3F89400D3F89820D3F89C30F7
:101B3000CB638A634863059800F598700C990FF0A1
:101B4000D3FD0598B8300C992C310FF0CDFD0598D8
:101B500040300C9958310FF0C7FD0C98D0F8840034
:101B60000599C1F8A8010C98D0F888000599C1F82A
:101B7000AC010C98D0F88C000599C1F8B0010C9814
:101B8000D0F890000599C1F8B401DDF830E0DEF836
:101B9000A400DEF8A810DEF8AC20DEF8B030DEF8E5
:101BA000B4C0DEF8B8E0CDF82CE0CDF828C0099339
:101BB000089207910690059806A90FF041F978B9A7
:101BC000FFE70598FEF70FFC45F69C01C2F20041C5
:101BD0004868013048600620887600200D9082E039
:101BE00000208DF8240044F27110C0F600000A9025
:101BF00005980B9006A803F01BFA0599C1F8C001DF
:101C00000598D0F8C00178B9FFE70598FEF7EBFB1F
:101C100045F69C01C2F20041486801304860072047
:101C2000887600200D905EE005980FF09DFF022061
:101C3000ADF808000020ADF80A0041F6F140C0F60A
:101C4000000003900598049002A802F041FA05995B
:101C5000C1F8C8010598D0F8C801D8B9FFE70598C0
:101C6000D0F8C01100200190C1F8B8000599D1F852
:101C7000C011C1F8BC000598FEF7B5FB019845F608
:101C80009C02C2F2004251680131516008219176F4
:101C90000D9028E00598FFF7DFFE059846F21673D1
:101CA000C2F200431A78511C197041F27C71C2F2E1
:101CB000004141F8220045F69C01C2F2004108684B
:101CC000013008600020887607980861089848610C
:101CD000059890F8C4010876059890F8C5014876F3
:101CE00005980D90FFE70D980EB080BD0000000034
:101CF00083B0029002980190019828B1FFE7019803
:101D0000D0F8C00108B9FFE712E00199002081F87E
:101D1000C7010198D0F8C001016845F65862C2F2C7
:101D200000420220914208BF0120ADF80200FFE707
:101D300003B070470000000081B00090009808B91F
:101D4000FFE70FE00099C8690862009900208861E8
:101D5000009890ED090A90ED0C1A30EE010A80ED22
:101D60000C0AFFE701B0704782B001908DED000AC8
:101D700000980199C1F8B80102B070470000000056
:101D800080B5E2B04CF2B811C0F6010133A8019061
:101D9000BC220292FEF70BFC0198FFF765FE029A47
:101DA00040F2AC11C2F2004108604CF2FC01C0F6F6
:101DB000010104A80390FEF7FAFB0398FFF754FE15
:101DC00040F2B011C2F20041086062B080BD000074
:101DD00080B582B08DED010A9DED010ADFED0D0A9F
:101DE00019F0D6FD8DED010A9DED010AB5EE400A10
:101DF000F1EE10FA09DAFFE79DED010A9FED051AF1
:101E000030EE010A8DED010AFFE79DED010A02B0F7
:101E100080BD00BF0000B44384B003A90191ADF8B8
:101E20000A00BDF90A00012804DBFFE7BDF90A003A
:101E3000009004E0BDF90A0040420090FFE70098DE
:101E4000082803DCFFE7002003900DE00198BDF9AE
:101E50000A1000EE101AB8EEC00AB1EE081A20EE11
:101E6000010A80ED000AFFE7019890ED000A04B036
:101E7000704700000000000080B58CB00A900A98FE
:101E800020B1FFE70A98006820B9FFE700208DF82D
:101E90002F00A4E00A98806A01900020029003902D
:101EA00008210491059006900790089009900A98DF
:101EB0000068FFF75DFB00900A98006807F0E8FDF6
:101EC00078BBFFE7009840B3FFE70099C86901308D
:101ED000C861009988690130886101980099886219
:101EE00004980099C86207980099086301F0D4FF2C
:101EF0000098BCEEC00A80ED0D0A009903204864EA
:101F00000A980068D0F89C000099886400984C30CA
:101F10000A992C31FFF708FBFFE700208DF82F000E
:101F20005DE00A9A52F82C0B01A907F06DFB58B33B
:101F3000FFE7009820B3FFE70099886901308861C6
:101F400001980099886204980099C86207980099DE
:101F5000086301F0A1FF0098BCEEC00A80ED0D0AF5
:101F60000099012048640A980068D0F89C00009904
:101F7000886400984C300A992C31FFF7D5FAFFE7B6
:101F800000208DF82F002AE0009820B3FFE7009989
:101F90004869013048610198009988620498009965
:101FA000C86207980099086301F076FF0098BCEEBC
:101FB000C00A80ED0D0A0099002048640A98006864
:101FC000D0F89C000099886400984C300A992C3114
:101FD000FFF7AAFAFFE701208DF82F00FFE79DF831
:101FE0002F000CB080BD000082B000900098102837
:101FF00004D3FFE700208DF8070008E000994CF2B9
:102000006040C0F60100405C8DF80700FFE79DF8D6
:10201000070002B07047000082B00190BDF80600D2
:1020200000F00F008DF803009DF803104CF2704093
:10203000C0F60100405C02B07047000000000000E4
:1020400080B545F6E050C2F2004005F021F980BDB0
:1020500080B545F6F040C2F2004005F019F980BDA8
:1020600080B545F66850C2F2004005F011F980BD18
:1020700083B002900298016801201022C4F202028B
:102080009142009000F0A380FFE7029801680120D0
:102090002822C4F202029142009000F09880FFE7EB
:1020A0000298016801204022C4F20202914200908D
:1020B00000F08D80FFE70298016801205822C4F2E9
:1020C00002029142009000F08280FFE702980168CE
:1020D00001207022C4F202029142009077D0FFE703
:1020E0000298016801208822C4F202029142009005
:1020F0006DD0FFE7029801680120A022C4F202021D
:102100009142009063D0FFE7029801680120B82255
:10211000C4F202029142009059D0FFE70298016890
:10212000012040F21042C4F20202914200904ED0CF
:10213000FFE702980168012040F22842C4F202023F
:102140009142009043D0FFE702980168012040F2DD
:102150004042C4F202029142009038D0FFE7029858
:102160000168012040F25842C4F2020291420090FC
:102170002DD0FFE702980168012040F27042C4F2BE
:1021800002029142009022D0FFE7029801680120EC
:1021900040F28842C4F202029142009017D0FFE759
:1021A00002980168012040F2A042C4F2020291426A
:1021B00000900CD0FFE7029800684FF64831CBF64C
:1021C000FD710844B0FA80F040090090FFE70098E4
:1021D000C00740B3FFE70298007810384AF6AB21F9
:1021E000CAF6AA21A0FB011000090190019800F095
:1021F00007014CF29040C0F60100405C0299C865AE
:102200000198042807D3FFE702990868042262F3C3
:102210000900886506E00299086840F2FF329043A1
:102220008865FFE705E00299086820F0FF008865EF
:10223000FFE70298806D03B07047000000000000C7
:1022400084B003900398006801900398016801200E
:1022500045F20842C5F60202914200904ED0FFE7D7
:1022600003980168012045F21C42C5F60202914222
:10227000009043D0FFE703980168012045F2304207
:10228000C5F602029142009038D0FFE7039801683A
:10229000012045F24442C5F60202914200902DD041
:1022A000FFE703980168012045F25842C5F6020293
:1022B0009142009022D0FFE703980168012045F287
:1022C0006C42C5F602029142009017D0FFE70398D6
:1022D0000168012045F28042C5F602029142009059
:1022E0000CD0FFE7039800684AF66C31CAF2FD7122
:1022F0000844B0FA80F040090090FFE70098C0075A
:1023000010B3FFE70398007808384CF6CD41CCF6BF
:10231000CC41A0FB011000090290029945F6000093
:10232000C5F6020000EB810003990866039945F6A3
:102330008000C5F602004866029800F01F010120E7
:1023400088400399886635E00398007810384AF68B
:10235000AB21CAF6AA21A0FB011000090290019846
:1023600040F2B841C4F2020188420CD8FFE701985C
:1023700040F21041C4F20201884204D3FFE7029800
:1023800008300290FFE7029940F60000C4F2020014
:1023900000EB810003990866039940F68000C4F2BF
:1023A00002004866029800F01F010120884003994E
:1023B0008866FFE704B0704783B002900298007906
:1023C00001900198002800F08A80FFE70198082812
:1023D00000F28580FFE702980168012045F208427B
:1023E000C5F60202914200904ED0FFE702980168C4
:1023F000012045F21C42C5F602029142009043D0F2
:10240000FFE702980168012045F23042C5F602025A
:102410009142009038D0FFE702980168012045F210
:102420004442C5F60202914200902DD0FFE7029887
:102430000168012045F25842C5F60202914200901F
:1024400022D0FFE702980168012045F26C42C5F6F0
:1024500002029142009017D0FFE702980168012024
:1024600045F28042C5F60202914200900CD0FFE78F
:10247000029800684AF66C31CAF2FD710844B0FA5D
:1024800080F040090090FFE70098C00780B1FFE7A7
:10249000019945F6FC00C5F6020000EB81000299A7
:1024A000C866029945F64010C5F6020008670FE0BD
:1024B000019940F6FC00C4F2020000EB8100029991
:1024C000C866029940F64010C4F202000867FFE7B0
:1024D0000198411E0120884002994867FFE703B038
:1024E000704700000000000085B0049000208DF8C7
:1024F0000F000498806918BBFFE70498806A029077
:1025000003281BD80299DFE801F0020D0218049895
:1025100090F82F00C00720B1FFE701208DF80F00D1
:10252000FFE70CE00498C06AB0F1C07F04D1FFE778
:1025300001208DF80F00FFE701E000E0FFE747E032
:1025400004988069B0F5005F26D1FFE70498806A9F
:10255000019003281ED80199DFE801F0020602115C
:1025600001208DF80F0016E0049890F82F00C007A6
:1025700020B1FFE701208DF80F00FFE70BE0049882
:10258000C06AB0F1C07F04D1FFE701208DF80F00D1
:10259000FFE700E0FFE71AE00498806A0090032854
:1025A00004D3FFE70098032804D00EE001208DF843
:1025B0000F000BE0049890F82F00C00720B1FFE750
:1025C00001208DF80F00FFE700E0FFE7FFE7FFE7DE
:1025D0009DF80F0005B0704789B0089007910692EA
:1025E00005930898806D04900898806D0390089872
:1025F000016801201022C4F202029142029000F010
:102600000381FFE70898016801202822C4F2020232
:102610009142029000F0F880FFE7089801680120DD
:102620004022C4F202029142029000F0ED80FFE7E6
:102630000898016801205822C4F2020291420290D7
:1026400000F0E280FFE70898016801207022C4F2E0
:1026500002029142029000F0D780FFE708980168DB
:1026600001208822C4F202029142029000F0CC8044
:10267000FFE7089801680120A022C4F202029142FB
:10268000029000F0C180FFE7089801680120B8229D
:10269000C4F202029142029000F0B680FFE708986F
:1026A0000168012040F21042C4F2020291420290FD
:1026B00000F0AA80FFE708980168012040F2284254
:1026C000C4F202029142029000F09E80FFE7089857
:1026D0000168012040F24042C4F20202914202909D
:1026E00000F09280FFE708980168012040F258420C
:1026F000C4F202029142029000F08680FFE708983F
:102700000168012040F27042C4F20202914202903C
:102710007AD0FFE708980168012040F28842C4F2AD
:102720000202914202906FD0FFE7089801680120F1
:1027300040F2A042C4F202029142029064D0FFE74C
:1027400008980168012040F2B842C4F202029142A6
:10275000029059D0FFE708980168012045F208422D
:10276000C5F60202914202904ED0FFE70898016838
:10277000012045F21C42C5F602029142029043D06C
:10278000FFE708980168012045F23042C5F60202D1
:102790009142029038D0FFE708980168012045F285
:1027A0004442C5F60202914202902DD0FFE70898FC
:1027B0000168012045F25842C5F60202914202909A
:1027C00022D0FFE708980168012045F26C42C5F667
:1027D00002029142029017D0FFE708980168012099
:1027E00045F28042C5F60202914202900CD0FFE70A
:1027F000089800684AF66C31CAF2FD710844B0FAD4
:1028000080F040090290FFE70298C00770B1FFE72F
:102810000898416E806E48600898C06E28B1FFE746
:102820000898016F406F4860FFE7FFE7089801686C
:1028300001201022C4F202029142019000F0A38014
:10284000FFE70898016801202822C4F202029142A1
:10285000019000F09880FFE708980168012040226D
:10286000C4F202029142019000F08D80FFE70898C7
:10287000016801205822C4F202029142019000F046
:102880008280FFE70898016801207022C4F20202EA
:102890009142019077D0FFE70898016801208822D3
:1028A000C4F20202914201906DD0FFE708980168DE
:1028B0000120A022C4F202029142019063D0FFE7FE
:1028C000089801680120B822C4F2020291420190E6
:1028D00059D0FFE708980168012040F21042C4F285
:1028E0000202914201904ED0FFE708980168012052
:1028F00040F22842C4F202029142019043D0FFE725
:1029000008980168012040F24042C4F2020291425C
:10291000019038D0FFE708980168012040F2584242
:10292000C4F20202914201902DD0FFE7089801689D
:10293000012040F27042C4F202029142019022D082
:10294000FFE708980168012040F28842C4F20202C1
:102950009142019017D0FFE708980168012040F2EA
:10296000A042C4F20202914201900CD0FFE7089805
:1029700000684FF64831CBF6FD710844B0FA80F09C
:1029800040090190FFE70198C00750B3FFE708989E
:10299000C06D00F01F013F208840049988600898AE
:1029A0000168086820F48020086005980899096883
:1029B000486008988068402809D1FFE70698089980
:1029C00009688860079808990968C86008E007984E
:1029D000089909688860069808990968C860FFE73F
:1029E00082E008980168012045F20842C5F602021B
:1029F000914200904ED0FFE708980168012045F20F
:102A00001C42C5F602029142009043D0FFE70898AD
:102A10000168012045F23042C5F602029142009061
:102A200038D0FFE708980168012045F24442C5F616
:102A30000202914200902DD0FFE708980168012022
:102A400045F25842C5F602029142009022D0FFE7BB
:102A500008980168012045F26C42C5F602029142D5
:102A6000009017D0FFE708980168012045F28042E6
:102A7000C5F60202914200900CD0FFE7089800686A
:102A80004AF66C31CAF2FD710844B0FA80F0400990
:102A90000090FFE70098C00720B3FFE70898C06DDB
:102AA00000F01F01012088400399486005980899AB
:102AB0000968486008988068402809D1FFE70698AF
:102AC000089909688860079808990968C86008E04B
:102AD0000798089909688860069808990968C86085
:102AE000FFE700E0FFE7FFE709B0704700000000E4
:102AF00080B586B08DED050ACDED040A9DED050A81
:102B000000F0A6FE8DED030A9DED040A00F0A0FE84
:102B10008DED020A9DED020A9DED031A30EE410A89
:102B20008DED010A9DED010A9FED161AB4EE410AE2
:102B3000F1EE10FA09DDFFE79DED010A9FED141A91
:102B400030EE010A8DED010A13E09DED010A9FEDC3
:102B50000E1AB4EE410AF1EE10FA09DAFFE79DED24
:102B6000010A9FED0A1A30EE010A8DED010AFFE716
:102B7000FFE79DED050A9DED011A30EE010A06B052
:102B800080BD00BF00003443000034C30000B443E4
:102B90000000B4C30000000080B594B013901398F7
:102BA00008B9FFE706E213983030129013984030CE
:102BB000119013981090139890F8FE0170B9FFE7E8
:102BC000139890ED732ADFEDDE1AB0EE610AF0EE95
:102BD000610AB0EE611A00F07FFEEBE11198D0F8C7
:102BE00078010F9012980079012807D1FFE79DED39
:102BF0000F0AB1EE400A8DED0F0AFFE79DED0F0AB7
:102C00009FEDD01A20EE010A8DED0E0A9DED0E0A01
:102C1000DFEDCD0A18F0BCFE8DED0E0A9DED0E0A1B
:102C2000B5EE400AF1EE10FA09DAFFE79DED0E0A63
:102C30009FEDC51A30EE010A8DED0E0AFFE79DEDFE
:102C40000E0A9FEDDE1A20EE010A8DED0F0A129892
:102C5000007A01285AD1FFE7109890ED030A9FED02
:102C6000D71A20EE010A8DED0D0A1298407901283D
:102C700007D1FFE79DED0D0AB1EE400A8DED0D0A7B
:102C8000FFE79DED0D0ADDED0F0AFFF731FF8DED3A
:102C90000F0A9DED0F0A9FEDC81A20EE010A8DED77
:102CA0000E0A9DED0E0A139890ED741AB1EE411ABA
:102CB000B4EE410AF1EE10FA08DCFFE7139890ED4C
:102CC000740AB1EE400A8DED030A1AE09DED0E0A7A
:102CD000139890ED741AB4EE410AF1EE10FA06DB87
:102CE000FFE7139890ED740A8DED020A04E09DED64
:102CF0000E0A8DED020AFFE79DED020A8DED030A33
:102D0000FFE79DED030A8DED0E0AFFE71398D0F85B
:102D1000F80104909DED040AB5EE400AF1EE10FAB8
:102D20000ADDFFE79DED040A9FEDA51AB4EE410A06
:102D3000F1EE10FA06DDFFE741F26F20C3F68320C3
:102D40000490FFE7139890F8EC01A0B9FFE7109802
:102D5000C0681399C1F8E401109890ED080A9FED3E
:102D6000961A20EE010A139880ED7A0A1399012031
:102D700081F8EC01FFE71398D0F8E4010C90139868
:102D8000D0F8E8010B901398D0F8DC010790139865
:102D9000D0F8E00106909DED070AB5EE400AF1EE8D
:102DA00010FA07DAFFE79DED070AB1EE400A8DED54
:102DB000070AFFE79DED060AB5EE400AF1EE10FAAC
:102DC00007DAFFE79DED060AB1EE400A8DED060A2F
:102DD000FFE79DED060A9FED7B1AB4EE410AF1EE86
:102DE00010FA06DAFFE743F2BD70C3F28650069090
:102DF000FFE79DED0E0A9DED0C1A30EE410A8DEDB8
:102E00000A0A9DED0A2ABFEE001AB7EE000AB5EED7
:102E1000402AF1EE10FA20FE010A8DED080A9DED20
:102E20000A0AB5EE400AF1EE10FA05DBFFE79DED68
:102E30000A0A8DED010A06E09DED0A0AB1EE400A8C
:102E40008DED010AFFE79DED010A8DED090A9DED6B
:102E50000B0A20EE000A9DED061A31EE011A80EEF3
:102E6000010A8DED050A9DED090A9DED051AB4EEE6
:102E7000410AF1EE10FA0FDCFFE79DED080A9DED27
:102E8000061A20EE011A9DED042A9DED0B0A01EEB3
:102E9000420A8DED0B0A0EE09DED080A9DED061A23
:102EA00020EE011A9DED042A9DED0B0A01EE020AA7
:102EB0008DED0B0AFFE79DED0B0A9DED071AB4EEB1
:102EC000410AF1EE10FA03DDFFE707980B9013E0DB
:102ED0009DED0B0A9DED071AB1EE411AB4EE410AC1
:102EE000F1EE10FA07DAFFE79DED070AB1EE400AAE
:102EF0008DED0B0AFFE7FFE79DED0B1A9DED042A10
:102F00009DED0C0A01EE020A8DED0C0A9DED080AFA
:102F1000B5EE400AF1EE10FA0ADDFFE79DED0C0A6E
:102F20009DED0E1AB4EE410AF1EE10FA18DCFFE73F
:102F30009DED080AB5EE400AF1EE10FA15DA05E04B
:102F40000000000035FA8E3CDB0FC9409DED0C0AF5
:102F50009DED0E1AB4EE410AF1EE10FA05DAFFE724
:102F60000E980C9000200B90FFE70C981399C1F875
:102F7000E4010B981399C1F8E80113989DED0C0A30
:102F8000DDED0B0A9FED101A00F086FC1198D0F8C9
:102F9000780145F60C11C2F20041C8629DED0B0AA2
:102FA0009FED061A20EE010ABDEEC00A10EE100ACF
:102FB0000886FFE714B080BD35FA8E3CE12E6542ED
:102FC000CDCCCC3DBD3786350000000000000000B0
:102FD00082B00090009820B9FFE700208DF807002C
:102FE0002DE0009840884006002809D5FFE70098AA
:102FF0000088402804D1FFE701208DF807001EE07B
:1030000000984088000700280AD5FFE7009800884C
:1030100010F0480F04D0FFE701208DF807000EE004
:103020000098408840F2E931084204D0FFE70120CF
:103030008DF8070003E000208DF80700FFE79DF8FA
:10304000070002B07047000086B08DED050ACDED97
:10305000040A8DED031A8DF80B009DED030A9DED1A
:10306000041A30EE410A8DED010A049800909DED9E
:10307000050A9DED041AB4EE410AF1EE10FA03DAE6
:10308000FFE704980590FFE79DED050A9DED031A03
:10309000B4EE410AF1EE10FA03DDFFE70398059064
:1030A000FFE79DED050A9DED001A30EE410A9DF8FF
:1030B0000B1001208840013801EE100AB8EEC11A49
:1030C00020EE010A9DED011A80EE010ABCEEC00A55
:1030D00010EE100A06B0704781B00090009808B951
:1030E000FFE716E00099D1F8D401C1F8DC0100989F
:1030F00090ED750A30EE000A80ED780A0099002004
:10310000C1F8E4010099C1F8E801009981F8EC01E7
:10311000FFE701B07047000080B58EB004A80290B0
:1031200045F60C11C2F20041C8680130C8600020A9
:103130000D90FFE70D9841F2AC71C2F200410978A1
:10314000884280F07D81FFE70D9941F2B070C2F2B4
:10315000004050F821000C900C9828B1FFE70C9823
:10316000D0F8C00108B9FFE766E10C9830300B9049
:103170000C9840300A900C9809900B98FFF728FFA4
:103180008DF80F000C9890F8C60110BBFFE70C9863
:1031900090F8C50178B9FFE70C98D0F8C0114FF04E
:1031A000FF30C1F82F00C8620C98D0F8C011FD2084
:1031B00081F8330003E00C98FFF7EEFCFFE70C9872
:1031C000D0F8C00100F0B0FC0C99002081F8FF019C
:1031D00032E10A98D0F87801089000200690059016
:1031E00004909DF80F0038B1FFE70C9890F8FF01AC
:1031F000002800F0D680FFE70B980079012808D15D
:10320000FFE7029890ED040AB1EE400A80ED040A4F
:10321000FFE70B984088400600282FD5FFE70B9862
:10322000008840282AD1FFE70B988079012806D131
:10323000FFE70A98D0F868010068079003E0099852
:10324000806A0790FFE70B984079012808D1FFE7D3
:10325000029890ED030AB1EE400A80ED030AFFE701
:1032600002990A9891ED030AD1ED040A0EF06CF967
:10327000029880ED020A06980890FFE70B984088B4
:103280000007002844D5FFE70B98008810F0480F8E
:103290003ED0FFE70B98407A10F00A0F0DD0FFE701
:1032A00002980A99D1F8741191ED001A90ED040A70
:1032B00030EE010A80ED040AFFE70B98C07901287F
:1032C00006D1FFE70A98D0F86C010068079003E088
:1032D0000998006A0790FFE70B984079012808D108
:1032E000FFE7029890ED030AB1EE400A80ED030A71
:1032F000FFE702990A98783091ED030AD1ED040AAC
:103300000EF022F9029880ED010A05980890FFE777
:103310000B98407AC00768B1FFE702980A99D1F884
:10332000701191ED001A90ED040A30EE010A80ED63
:10333000040AFFE70B98408840F2E93108421FD0A9
:10334000FFE70998806907900B984079012808D118
:10335000FFE7029890ED030AB1EE400A80ED030A00
:10336000FFE702990A98F03091ED030AD1ED040AC3
:103370000EF0EAF8029880ED000A04980890FFE742
:1033800002980A99D1F8782145F60C11C2F2004151
:10339000CA6290ED040ABDEEC00A10EE100A08865B
:1033A000FFE70C9890F8C50178B9FFE70C98D0F8C2
:1033B000C0114FF0FF30C1F82F00C8620C98D0F850
:1033C000C011FD2081F8330027E00C9890F8C60169
:1033D00001460191012804D0FFE70198022809D095
:1033E0000FE002990C9891ED020AD1ED010A00F06C
:1033F0000BFB11E002990C9891ED010A00F054FBCF
:103400000AE002990C9891ED020AD1ED010A91EDC2
:10341000001A00F041FAFFE7FFE70C98D0F8C0016E
:1034200000F082FB9DF80F0028B1FFE70C99002007
:1034300081F8FF01FFE7FFE70D9801300D9079E675
:103440000EB080BD0000000080B582B001900198F0
:1034500028B1FFE70198D0F8C00108B9FFE71DE0E7
:103460000198D0F8C00100900199012081F8C501B0
:1034700000994FF0FF30C1F82F00C8620099FC207E
:1034800081F83300009800F04FFB00990020C1F84C
:103490002F00C862019800F0B7FBFFE702B080BDC3
:1034A00010B58EB00C900C9860B9FFE745F60C1182
:1034B000C2F20041486801304860012008740020D1
:1034C0000D9024E141F2AC70C2F20040007808286F
:1034D0000CDBFFE745F60C11C2F2004148680130F1
:1034E00048600220087400200D9010E14FF4007035
:1034F000FCF74AFF0590059860B9FFE745F60C1107
:10350000C2F200414868013048600320087400207E
:103510000D90FCE005984FF40071FDF7A4F80C98AD
:1035200090F8A000059981F8C40105990C9BD3F887
:103530009400D3F89820D3F89C308B634A630863D7
:1035400005990020019081F8C601059981F8C5010F
:10355000059800F598700C990EF0C6F80598B830EB
:103560000C992C310EF0C0F8059840300C99583168
:103570000EF0BAF80C98D0F884000599C1F8A801AB
:103580000C98D0F888000599C1F8AC010C98D0F8D7
:103590008C000599C1F8B0010C98D0F890000599FD
:1035A000C1F8B401059800F077FB0598FFF794FD8A
:1035B00001980C9CD4F8A410D4F8A820D4F8AC300E
:1035C000D4F8B0C0D4F8B4E0D4F8B8400B94CDF837
:1035D00028E0CDF824C00893079206918DF82400C6
:1035E00044F24150C0F600000A9005980B9045F651
:1035F0000C11C2F200410420087406A801F018FD65
:103600000599C1F8C0010598D0F8C00178B9FFE765
:103610000598FCF7E8FE45F60C11C2F20041486837
:10362000013048600520087400200D906FE0059877
:10363000D0F8C01144F24150C0F60000C1F8B80003
:103640000598D0F8C011C1F8BC000598D0F8C001A9
:10365000082101F069FD002004900390029043F2DC
:103660001970C0F600000390059804900320ADF88F
:10367000080002A800F02CFD0599C1F8F00105989A
:10368000D0F8F001D8B9FFE70598D0F8C0110020B4
:103690000090C1F8B8000599D1F8C011C1F8BC007C
:1036A0000598FCF7A0FE009845F60C12C2F2004205
:1036B000516801315160062111740D9027E0059881
:1036C000FFF7C2FE059800F09FFA059841F2AC732F
:1036D000C2F200431A78511C197041F2B071C2F263
:1036E000004141F8220045F60C11C2F20041086881
:1036F0000130086000200874079888820898488282
:10370000059890F8C601487405980D90FFE70D984C
:103710000EB010BD0000000082B001900198009032
:10372000009828B1FFE70098D0F8C00108B9FFE77A
:1037300004E00099002081F8C501FFE702B070475E
:1037400083B002908DED010ACDED000A029808B910
:10375000FFE708E001980299C1F8C80100980299B2
:10376000C1F8CC01FFE703B0704700000000000083
:1037700083B002908DED010ACDED000A029808B9E0
:10378000FFE726E09DED010AB5EE400AF1EE10FAE2
:1037900007DAFFE79DED010AB1EE400A8DED010A5F
:1037A000FFE79DED000AB5EE400AF1EE10FA07DAE8
:1037B000FFE79DED000AB1EE400A8DED000AFFE73C
:1037C00001980299C1F8DC0100980299C1F8E00162
:1037D000FFE703B07047000082B001908DED000A52
:1037E000019808B9FFE704E000980199C1F8B80111
:1037F000FFE702B07047000080B584B003900398E3
:1038000028B1FFE70398D0F8C00108B9FFE71BE033
:103810000398D0F8C001029003990020019081F82C
:10382000C50102994FF0FF30C1F82F00C86202991C
:10383000FD2081F83300029800F076F90198029992
:10384000C1F82F00C862FFE704B080BD000000008F
:1038500080B582B08DED010A9DED010ADFED0D0A04
:1038600018F096F88DED000A9DED000AB5EE400ABD
:10387000F1EE10FA09DAFFE79DED000A9FED051A57
:1038800030EE010A8DED000AFFE79DED000A02B05F
:1038900080BD00BF0000B44380B586B005908DEDBB
:1038A000040ACDED030A8DED021A059800F5E470C7
:1038B000019005989DED040ADDED030A9DED021AC5
:1038C0000199D1ED001A91ED012A00F005F806B03A
:1038D00080BD00000000000080B590B00AA90391EF
:1038E000014603980F9180ED040AC0ED030A80EDB4
:1038F000021AC0ED011A80ED002A0F9901F5E4715A
:1039000009910F99D1F8C011089190ED040A099816
:1039100090ED021AF1EE410A1020FFF795FB0146E7
:103920000398ADF81E1090ED030A099890ED031A64
:10393000F1EE410A0C200490FFF786FB0399024642
:103940000498ADF81C2091ED010ADFED2D0ACDEDB4
:10395000010A9FED2C1A8DED021AFFF775FBDDEDC4
:10396000010A9DED021A039902460498ADF81A2047
:1039700091ED000AFFF768FB039902460498ADF841
:10398000182091ED020A099991ED041AF1EE410A0D
:10399000FFF75AFBADF816009DF81F00089981F853
:1039A0002C00BDF81E00089981F82D00BDF81C0000
:1039B0000009089981F82E00BDF81C109DF81B0025
:1039C00040EA0110089981F82F00BDF81A00089903
:1039D00081F83000BDF818000009089981F831001D
:1039E000BDF818109DF8170040EA0110089981F8F9
:1039F0003200BDF81600089981F8330010B080BD80
:103A0000000000000000FA4380B588B007908DEDFB
:103A1000060ACDED050A079800F5E47004900798B2
:103A2000D0F8C00103909DED060A049890ED021AAB
:103A3000F1EE410A10200190FFF706FB01460198C4
:103A4000ADF80A109DED050A049991ED031AF1EE07
:103A5000410AFFF7F9FAADF808009DF80B00039949
:103A600081F82C00BDF80A00039981F82D009DF81B
:103A70000900039981F82E00BDF80800039981F828
:103A80002F000399002081F83000039981F831005C
:103A9000039981F832000399FC2081F8330008B0C3
:103AA00080BD00000000000080B586B004A9009130
:103AB00001460098059180ED000A059901F5E47131
:103AC00003910599D1F8C011029190ED000A039875
:103AD00090ED031AF1EE410A1020FFF7B5FAADF8A8
:103AE00006009DF80700029981F82C00BDF8060039
:103AF000029981F82D000299002081F82E00029988
:103B000081F82F00029981F83000029981F8310084
:103B1000029981F832000299FC2081F8330006B046
:103B200080BD00000000000080B58CB00A900A98AB
:103B300020B1FFE70A98006820B9FFE700208DF860
:103B40002F005AE00A98806A0190002002900390AA
:103B500008210491059006900790089009900A9A10
:103B600052F82C0B01A905F04FFD68B1FFE745F6AF
:103B70000C11C2F20041C86B0130C863002081F80B
:103B800034008DF82F0038E045F60C12C2F20042E6
:103B90000092906B01309063012082F834000A9902
:103BA000896A51860A9991F82C1082F840100A9976
:103BB00091F82D1082F841100A9991F82E1082F890
:103BC00042100A9991F82F1082F843100A9991F83F
:103BD000301082F844100A9991F8311082F845109B
:103BE0000A9991F8321082F846100A9991F8331028
:103BF00082F847108DF82F00FFE79DF82F000CB0DA
:103C000080BD00000000000080B584B003900398E0
:103C100028B1FFE70398D0F8C00108B9FFE739E001
:103C20000398D0F8C00102900298806A019002992E
:103C300040F2FF7088620198029981F82C00019887
:103C4000C0F30220029981F82D000299552081F8D5
:103C50002E0002990A2081F82F00039890F8C601DF
:103C60000130029981F8300002990020009081F81B
:103C70003100029981F83200029981F833000298EC
:103C8000FFF752FF00980199029A91620299086326
:103C9000C862FFE704B080BD83B00290029800F5CF
:103CA000E470019001994FF07E50086001994CF644
:103CB000CD40C3F64C604860029890F8C4010438C7
:103CC00001460091032844D80099DFE801F0021270
:103CD000223201990020C4F2481088600199002026
:103CE000C4F2F010C86001990020C4F220100861ED
:103CF0003FE001990020C4F248108860019900203B
:103D0000C4F2F010C86001990020C4F220100861CC
:103D10002FE001990020C4F248108860019900202A
:103D2000C4F2F010C86001990020C4F220100861AC
:103D30001FE001990020C4F248108860019900201A
:103D4000C4F2A010C86001990020C4F220100861DC
:103D50000FE001990020C4F248108860019900200A
:103D6000C4F2F010C86001990020C4F2201008616C
:103D7000FFE703B07047000086B0ADF816008DED88
:103D8000040ACDED030A8DF80B109DED030A9DED9D
:103D9000041A30EE410A8DED010A04980090BDF836
:103DA000160000EE100AB8EE400A9DED011A20EE52
:103DB000010A9DF80B1001208840013801EE100A1D
:103DC000B8EEC11A80EE010A9DED001A30EE010A2C
:103DD00006B070470000000081B040F2B410C2F29B
:103DE0000040007870BBFFE740F2B411C2F200411E
:103DF0000120087041F20400CEF20000006800903B
:103E0000009840F29811C2F200410968884208D235
:103E1000FFE740F29C11C2F20041086801300860DF
:103E2000FFE741F20400CEF20000006840F2981172
:103E3000C2F20041086040F2B411C2F20041002019
:103E40000870FFE701B0704780B584B0039041F27D
:103E50000400CEF2000000680290029803990968FD
:103E6000401A00EE100AB8EE400A40F28410C2F286
:103E7000004090ED001AB8EE411A80EE010A8DED77
:103E8000010A029803990860FFF7A6FF9DED010A59
:103E900004B080BD0000000080B582B000F098F84A
:103EA00040F2E810C2F20040016883884FF47A7251
:103EB00001FB023100EE101AB8EE400AC08801EE94
:103EC000100AB8EEC11A9FED052A01EE020A8DED27
:103ED000010A9DED010A02B080BD00BF6F12833A56
:103EE00080B582B000F074F840F2E810C2F20040F1
:103EF00090ED000AB8EE400A818801EE101AB8EE83
:103F0000C11A9FED092A01EE020AC08801EE100ACB
:103F1000B8EEC11A9FED052A01EE020A8DED010AE5
:103F20009DED010A02B080BD6F12833ABD37863520
:103F300080B582B001904EF6FC51CEF200010868C7
:103F400040F08070086041F6B071CEF200014CF68E
:103F50005560CCF2AC50086041F20401CEF2000191
:103F60000020086041F20002CEF20002116841F028
:103F700001011160019944F24022C0F20F024A434C
:103F800040F28411C2F200410A600A6844F6D35339
:103F9000C1F26203A2FB0332920940F28813C2F21B
:103FA00000431A6009684DF68362C4F21B32A1FB1C
:103FB0000221890C40F28C12C2F20042116040F2E0
:103FC0009C11C2F200410860FFF706FF02B080BDFD
:103FD000B0B586B041F20400CEF200000068059052
:103FE000FFF7FAFE40F29C10C2F20040016805980B
:103FF000002302934FF0FF3C1A46E1FB0C0240F213
:104000009011C2F2004100914A6008600868496856
:1040100040F28414C2F200442268FCF70BFA029BBF
:1040200002468C46009940F2B810C2F20040C0F837
:1040300004C00260D1F800C04968D0F800E04268CE
:104040002468AEFB04E502FB0452BCEB0E0C61EBF2
:10405000020240F2C011C2F200410391C1F800C057
:104060004A60006840F2E812C2F200420492106016
:104070000868496840F28812C2F200420192126850
:10408000FCF7D8F9DDF804C0029B049A01460398B6
:104090009180016840689288DCF800C002FB0CF255
:1040A0008A1A60F1000040F2C811C2F200410A60B1
:1040B00048600868496840F28C12C2F200421268F7
:1040C000FCF7B8F90499C88006B0B0BD0000000044
:1040D00080B584B003901020FCF756F90290029945
:1040E0000020C86088604860086003988068029972
:1040F000C8600398008818B9FFE76420019003E0C6
:10410000039800880190FFE70198029908800398BE
:104110004068029948600398408820B9FFE70298F8
:104120000088009003E0039840880090FFE7009823
:1041300002990881029846F21573C2F200431A7878
:10414000511C197041F26461C2F2004141F8220031
:10415000029804B080BD000081B0009000990888EA
:10416000088101B0704700007047000000000000A7
:1041700080B58EB00D900D9808B9FFE7D1E10D988C
:1041800090F8B40006280CD8FFE70D9890F8B50019
:1041900028B9FFE70D99082081F8B40000E0C0E1DC
:1041A000FFE70D986D300C900D98D0F8BC000B9087
:1041B0000B9860B9FFE70D9801F0CAFF0B900B98C0
:1041C00020B1FFE70B980DF0CFFCFFE7FFE70B985E
:1041D00008B9FFE7A5E145F69C01C2F200418868F5
:1041E000013088600B980A900B98D0F8C80130B164
:1041F000FFE70B98D0F8C801FFF7AEFFFFE70B9879
:1042000000F5E670FFF720FE0B9880ED740A0A991E
:10421000488808800C980178407840EA01200A9983
:1042200048800A98418800EE101AB8EE400A9FEDC7
:10423000BE1A20EE010A80ED010A0C988178C07840
:1042400040EA0120ADF822000C980179407940EA5B
:104250000120ADF82000BDF92200FDF7DDFD8DED58
:10426000070ABDF822000A99088107980A99C860D0
:104270000A99B1F9140000EE100AB8EEC01ABDF99F
:10428000200000EE100AB8EEC00A9FEDA82A20EE2A
:10429000020A9FEDA72A01EE020ABDEEC00A10EE47
:1042A000100A88820C9880790A9988750B9890F882
:1042B000D601002859D1FFE70A9948880880079855
:1042C0000A9908610A990020C8620A9A5188D16146
:1042D0000A9AD16911620A9988610A9A51689162B1
:1042E0000A9991ED0A0A91ED0C1A30EE410A81ED1E
:1042F000090A0B9A012182F8D6110B9A82F8D7117C
:104300000D99D1F8B02045F69C01C2F2004104910C
:10431000CA610A9A52880A84BDF822204A84BDF8EC
:1043200020208A840A9A927D81F826200B9A92F89E
:10433000C42181F827200B9A92F8C52181F8282002
:10434000C8620A9A92690A630B9A92ED740A9FED09
:104350007B1A20EE010A81ED0D0A0A9A12698A631E
:10436000C8630A98406A0864DBE00A9948880988AB
:10437000401A09900998B0F5805F09DDFFE70998B8
:10438000A0F5005009900A99C86A0138C8620EE089
:10439000099810F5805F09DAFFE7099800F50050E9
:1043A00009900A99C86A0130C862FFE7FFE70B98D5
:1043B00090ED740AB5EE400AF1EE10FA23DDFFE746
:1043C0000998012803DBFFE70998039003E00998A7
:1043D00040420390FFE70398012803DCFFE7002039
:1043E00006900FE09DED090AB8EEC00A9FED4E1A47
:1043F00020EE010A0B9890ED741A80EE010A8DED03
:10440000060AFFE702E000200690FFE70A9890ED19
:10441000041A9DED070A9FED472A20EE020A9FED40
:10442000462A01EE020A80ED040A9DED070AB5EE68
:10443000400AF1EE10FA13D1FFE70998012803DBD7
:10444000FFE70998029003E0099840420290FFE7D5
:104450000298012804DCFFE70A9900200861FFE7C1
:104460009DED090AB8EEC00A9FED2F1A20EE010A51
:104470008DED050A099A0A99C8691044C8610A991C
:10448000C8690A6A801A88619DED051A0A9890ED3C
:104490000A0A30EE010A80ED0A0A0A9890ED0A0A2B
:1044A00090ED0C1A30EE410A80ED090A0B990120BB
:1044B00081F8D7010D98D0F8B00045F69C01C2F202
:1044C00000410191C8610A9840880884BDF8220023
:1044D0004884BDF8200088840A98807D81F82600F1
:1044E0000B9890F8C40181F827000B9890F8C5014B
:1044F00081F828000998C8620A98806908630B98B7
:1045000090ED740A9FED0D1A20EE010A81ED0D0A5F
:104510000A98006988630698C8630A98406A086424
:10452000FFE70EB080BD00BFACFF333D6666663F5F
:10453000D0CCCC3D3333B33E6666263F00007A4490
:1045400080B590B00F900F9808B9FFE76CE10F9815
:1045500090F8B40006280CD8FFE70F9890F8B50043
:1045600028B9FFE70F99082081F8B40000E05BE16B
:10457000FFE70F986D300E900F98D0F8BC000D90AB
:104580000D9808B9FFE74FE145F60C11C2F2004162
:104590008868013088600D980C900D9800F5E470E3
:1045A0000B900D98D0F8F00130B1FFE70D98D0F8DE
:1045B000F001FFF7D1FDFFE70D9800F5FA70FFF766
:1045C00043FC0D9880ED7E0A0E98007800F00F00F5
:1045D0000C9908720E98007800090C9948720E9890
:1045E0004178807840EA0120ADF82A000E99C87819
:1045F0000979000140EA1110ADF828000E98017900
:10460000407901F00F0140EA0120ADF82600BDF825
:104610002A000C990880BDF828000C994880BDF844
:1046200026000C9988800C99C8680861BDF82A009A
:104630000B99D1ED020AB1EE600A1021FFF79CFB45
:104640008DED080ABDF828000B99D1ED030AB1EEF3
:10465000600A0C210391FFF78FFB03998DED070A88
:10466000BDF826000B9AD2ED040AB1EE600AFFF7FE
:1046700083FB8DED060A08980C99C86007980C9981
:1046800048610C98806905909DED051A9DED060A1C
:104690009FED662A20EE020A9FED652A01EE020ACE
:1046A0000C9880ED060A0E9880790C9988710E9806
:1046B000C0790C99C8719DED080A9FED5E1A20EE35
:1046C000010A0C9880ED070A9DED070A20EE010A09
:1046D0008DED040A0C9890ED081A9DED040A9FEDEB
:1046E000562A20EE020A9FED552A01EE020A80EDBD
:1046F000080A0D9890F8FE01D8BBFFE708980C99BE
:1047000008619DED070A9FED4B1A20EE010A0C98F7
:1047100080ED080A0C99002048620C99C8698862EB
:104720000C98C0690D99C1F8B8010D99012081F864
:10473000FE010D9981F8FF01BDF82A0045F60C1124
:10474000C2F200410291C882BDF828000883BDF87A
:10475000260048830C9880790877089808620798A3
:1047600048620C98806A88620F98D0F8B00048823E
:104770005AE09DED080A0C9890ED041A30EE410ABB
:104780009FED2F1AB4EE410AF1EE10FA05DDFFE7B6
:104790000C99486A0138486214E09DED080A0C98AB
:1047A00090ED041A30EE410A9FED261AB4EE410A4C
:1047B000F1EE10FA05DAFFE70C99486A0130486219
:1047C000FFE7FFE70C9890ED070A90ED092A90EDBE
:1047D0000B1AB8EEC22A9FED1C3A02EE030A30EE25
:1047E000410A80ED0A0A0D99012081F8FF01BDF808
:1047F0002A0045F60C11C2F200410191C882BDF8B1
:1048000028000883BDF8260048830C988079087733
:1048100008980862079848620C98806A88620F9826
:10482000D0F8B0004882FFE710B080BD6666663FF2
:10483000D0CCCC3DE12E65423333B33E6666263F95
:10484000DB0F4940DB0F49C00000B443000000000B
:1048500081B0EFF3108072B60090FFE7FEE7000032
:1048600044F60C01C5F60201086840F00200086039
:10487000FFE744F60400C5F6020000688004002843
:1048800001D4FFE7F5E7704780B545F65860C2F2FE
:10489000004005F00DF980BD80B545F65860C2F2C4
:1048A000004005F005F980BD80B545F6F860C2F21C
:1048B000004005F0FDF880BD80B545F6F860C2F215
:1048C000004005F0F5F880BD80B58AB008908DF8FD
:1048D0001F10089820B1FFE70898006818B9FFE793
:1048E0000020099027E10898006800F025FB069059
:1048F000069818B9FFE7002009901CE108980068A5
:1049000000F066FB04909DF81F00002867D0FFE7C9
:1049100046F21470C2F200400078202803DBFFE763
:104920000020099007E108988068A0B1FFE7089887
:1049300081680020B0EBD12F0DD1FFE7049850B172
:10494000FFE704980899896850F8210018B1FFE73B
:1049500000200990EFE000208DF80F00FFE79DF8A0
:104960000F0046F21471C2F200410978884235DA2C
:10497000FFE70898806850B3FFE79DF80F1045F2F5
:10498000D870C2F2004050F8210000B3FFE79DF854
:104990000F1045F2D870C2F2004050F821000068B4
:1049A00008990968884212D1FFE79DF80F1045F277
:1049B000D870C2F2004050F82100D0F8B000089939
:1049C0008968884203D1FFE700200990B3E0FFE740
:1049D0009DF80F0001308DF80F00C0E7FFE7C02001
:1049E000FBF7D2FC0590059818B9FFE70020099065
:1049F000A1E00598C021FBF736FE089840680599AC
:104A000048600599002088600599C860059A0821CA
:104A10001161059948610899097B002918BF012196
:104A20000905059A91610899097B002918BF0121A0
:104A30004905059AD1610599086205994862089867
:104A400000680599086008984068059988629DF893
:104A50001F0020B1FFE708988068029002E0002064
:104A60000290FFE702980599C1F8B0000898007B12
:104A7000002818BF0120059981F8B5009DF81F0096
:104A800020B1FFE708980069019002E00020019042
:104A9000FFE701980599C1F8B8009DF81F0020B103
:104AA000FFE708984069009002E000200090FFE7CF
:104AB00000980599C1F8BC000599082081F86C00A0
:104AC000059800F0ADFB069800F086F830B1FFE7DE
:104AD0000598FBF788FC002009902CE09DF81F004A
:104AE00030B3FFE70598D0F8B00090B1FFE7059824
:104AF000D0F8B0100020B0EBD12F0AD1FFE7049816
:104B000038B1FFE705980499D0F8B02041F82200A9
:104B1000FFE7059846F21473C2F200431A78511C5D
:104B2000197045F2D871C2F2004141F82200FFE746
:104B300005980990FFE709980AB080BD00000000C1
:104B400080B582B0019001980021FFF7BDFE02B050
:104B500080BD00000000000084B0039002918DF839
:104B600007209DF80700092803D3FFE708200090DD
:104B700003E09DF807000090FFE700988DF805001E
:104B800000208DF80600FFE79DF806009DF805104F
:104B900088420DDAFFE702989DF80620805C0399B1
:104BA0008854FFE79DF8060001308DF80600EBE71A
:104BB000FFE79DF8060007280CD8FFE703999DF84A
:104BC000062000208854FFE79DF8060001308DF88C
:104BD0000600EEE704B0704780B586B004900498F4
:104BE00018B9FFE70020029003E0049800680290E3
:104BF000FFE7029800F0C8F90390049820B9FFE796
:104C000001208DF817007EE00498007920B1FFE7BD
:104C100000208DF8170076E00498006869460123AB
:104C20000B600021022204F05FFDA8B1FFE70398AA
:104C300070B1FFE70399886801308860039901200B
:104C4000486404980068D0F89C0003998864FFE7E2
:104C500001208DF8170056E00498006805F018FD53
:104C6000A8B1FFE7039870B1FFE7039988680130A6
:104C7000886003990120486404980068D0F89C007B
:104C800003998864FFE701208DF817003BE0049842
:104C900000681121002204F037FCC8B1FFE7049836
:104CA000006805F01DFD039870B1FFE7039988685F
:104CB0000130886003990120486404980068D0F8A6
:104CC0009C0003998864FFE701208DF817001AE023
:104CD000049901200871039888B1FFE70399012026
:104CE00008700399486801304860039900204864BF
:104CF00004980068D0F89C0003998864FFE70020BE
:104D00008DF81700FFE79DF8170006B080BD000082
:104D100080B5A0B01F901E911F9800F035F901904A
:104D2000FFE71F981E9904F01BFD002800F08B8000
:104D3000FFE71F981E9914AA04AB04F02DFD68B17B
:104D4000FFE7019848B1FFE70199012048641F98E7
:104D5000D0F89C0001998864FFE774E01F9814A9BB
:104D600000F076F803900398179900F06DF98DF82C
:104D70000B0000208DF80A000398A8B3FFE79DF808
:104D80000B0048B9FFE7039800F046F920B9FFE7A8
:104D900008208DF80B00FFE79DF80B00412804DB8D
:104DA000FFE740208DF80B00FFE79DF80B0003990B
:104DB00081F8B4009DF80B0040B1FFE703986D3017
:104DC0009DF80B2004A9FBF7ADFBFFE70398D0F893
:104DD000B80040B1FFE70398D0F8B8108847012029
:104DE0008DF80A00FFE7FFE7019858B3FFE7149832
:104DF0000199886317980199C863FFF74DF80198E6
:104E0000BCEEC00A80ED100A0199002048641F988A
:104E1000D0F89C0001998864019854309DF80B20CB
:104E200004A9FFF799FE9DF80A0028B1FFE7019950
:104E3000086A0130086204E00199486A013048625A
:104E4000FFE7FFE76DE720B080BD00000000000035
:104E500080B586B004900391049818B1FFE70398D9
:104E600018B9FFE70020059061E003984068E8B9B1
:104E7000FFE7039801680020B0EBD12F16D1FFE7C0
:104E8000049800F0A5F80290029870B1FFE702982C
:104E90000399096850F8210038B1FFE70298039997
:104EA000096850F82100059041E0FFE700200190DB
:104EB000FFE7019846F21471C2F200410978884276
:104EC00032D2FFE7019945F2D870C2F2004050F8A3
:104ED000210008B9FFE723E00498019A45F2D87150
:104EE000C2F2004151F822100968884217D1FFE749
:104EF00003980068019A45F2D871C2F2004151F856
:104F00002210D1F8B010884209D1FFE7019945F28B
:104F1000D870C2F2004050F82100059007E0FFE78A
:104F2000019801300190C4E700200590FFE7059843
:104F300006B080BD0000000083B00190002000900A
:104F4000FFE70098012819D8FFE7009940F2FC001C
:104F5000C2F2004050F831000199884209D1FFE7C0
:104F6000009940F2FC00C2F2004000EBC100029048
:104F700007E0FFE7009801300090E2E70020029090
:104F8000FFE7029803B0704782B00090009845F6A2
:104F90005861C2F20041884206D1FFE745F65C1035
:104FA000C2F20040019010E0009845F6F861C2F2AC
:104FB0000041884206D1FFE745F6B810C2F2004032
:104FC000019002E000200190FFE7019802B07047D5
:104FD00082B00090009845F65861C2F200418842C4
:104FE00006D1FFE741F2D870C2F20040019010E014
:104FF000009845F6F861C2F20041884206D1FFE709
:1050000043F2D870C2F20040019002E0002001900B
:10501000FFE7019802B0704781B000900098C06926
:10502000A0F50010B0FA80F0400901B07047000010
:1050300080B582B0019001980121FFF745FC02B0D4
:1050400080BD00000000000080B586B00490039190
:10505000BDF80E0090B1FFE70398FCF7DDFF8DF877
:1050600007009DF8070018B9FFE7039828B9FFE784
:105070009DF807008DF8170052E0FFE70398082815
:1050800004D8FFE703988DF8170049E0049848B169
:10509000FFE70498FFF7C0FF20B9FFE708208DF86D
:1050A00017003DE0039800F00F0002900298FCF713
:1050B0009BFF8DF807009DF8070028B1FFE79DF8DA
:1050C00007008DF817002BE003980C38014600917B
:1050D000342821D80099DFE801F01B1F1F1F1B1F78
:1050E0001F1F1B1F1F1F1B1F1F1F1F1F1F1F1B1FDC
:1050F0001F1F1F1F1F1F1F1F1F1F1F1F1F1F1B1FC4
:105100001F1F1F1F1F1F1F1F1F1F1F1F1F1F1B00D2
:1051100003988DF8170003E000208DF81700FFE7D3
:105120009DF8170006B080BD80B582B001908DF863
:105130000310019808B9FFE76FE09DF8030028B15C
:10514000FFE79DF80300412801DBFFE765E00198D8
:1051500000F066F80198FFF75FFF8DF802009DF8F8
:10516000020048B9FFE79DF80300092804D3FFE7D0
:1051700008208DF80300FFE79DF80200002846D0C4
:10518000FFE79DF80300312804D3FFE740208DF8A6
:1051900003003BE09DF80300212804D3FFE7302003
:1051A0008DF8030031E09DF80300192804D3FFE7D0
:1051B00020208DF8030027E09DF80300152804D374
:1051C000FFE718208DF803001DE09DF8030011286B
:1051D00004D3FFE714208DF8030013E09DF80300CB
:1051E0000D2804D3FFE710208DF8030009E09DF897
:1051F0000300092804D3FFE70C208DF80300FFE724
:10520000FFE7FFE7FFE7FFE7FFE7FFE7FFE79DF8BF
:105210000300019981F86C00FFE702B080BD000037
:1052200080B582B001900198FFF7F6FE019981F8F0
:10523000B500019890F8B50030B9FFE7019900205A
:1052400088610199C861FFE701980068FFF79CFE3B
:105250000090009850B1FFE7019890F8B5000099D0
:1052600088700198C06900990863FFE702B080BDAB
:1052700084B002900298406B009002980068D0F8C9
:1052800084004FF6FC718843009940EA810002993E
:105290000968C1F8840002980068D0F8840020F4FE
:1052A0007F00029A1168926B40EA0240C1F88400C4
:1052B0000298816B00980844009002980068D0F82A
:1052C00088006FF38F00009940EA81000299096815
:1052D000C1F8880002980068D0F8880020F4FE0029
:1052E000029A1168D26B40EA0240C1F88800029825
:1052F000C16B009800EB4100009002980068D0F864
:10530000A0006FF38F00009940EA810002990968BC
:10531000C1F8A00002980068D0F8A00020F4FE00B8
:10532000029A1168126C40EA0240C1F8A00002998A
:10533000086C496C009A00FB0120009002980068FC
:10534000D0F8B0006FF38F00009940EA8100029915
:105350000968C1F8B00002980068D0F8B00020F4E5
:10536000FE00029A1168926C40EA0240C1F8B00057
:105370000299886CC96C009A00FB01200090029889
:105380000068D0F8AC006FF38F00009940EA81000C
:1053900002990968C1F8AC000299086D496D009A3C
:1053A00000FB0120009002980068D0F8F0006FF335
:1053B0008F00009940EA810002990968C1F8F00065
:1053C00002980068D0F8F00020F47C10029A11686E
:1053D000926D40EA0240C1F8F0000298816D009899
:1053E00000EB4100009002980068D0F8C0006FF315
:1053F0008F00009940EA810002990968C1F8C00055
:1054000002980068D0F8C00020F47C10029A11685D
:10541000D26D40EA0240C1F8C00002980068D0F89E
:10542000C00020F07C50029A1168126E40EA0260BF
:10543000C1F8C00002994A6B4AF60040C4F200006D
:1054400000EB8200C86602998A6BC86E00EB82008E
:1054500008670299CA6B086F00EBC200486702999F
:105460000A6C4B6C486F5A4300EB820088670299C4
:105470008A6CCB6C886F5A4300EB8200C867029934
:105480000A6D4B6DC86F5A4300EB8200C1F8800073
:1054900002998A6DD1F8800000EBC200C1F8840047
:1054A0000299CA6D8B6ED1F884005A4300EB8200DA
:1054B000C1F8880002990A6E8B6ED1F888005A43B1
:1054C00000EB8200C1F890000298D0F890004DF2F5
:1054D000FD31C4F2000188420FD3FFE70299D1F8F1
:1054E0009C0040F02000C1F89C000299032081F844
:1054F000980001208DF80F0017E00298C06E01900F
:10550000FFE701980299D1F89010884208D2FFE78E
:10551000019900200860FFE7019804300190F0E74E
:10552000FFE700208DF80F00FFE79DF80F0004B0A3
:10553000704700000000000088B0079006910592B7
:1055400004930698406848B9FFE7069801688268A6
:105550000069104340EA8140039009E00698016821
:10556000826800691043084340F080400390FFE7E1
:105570000698D0F820C0C16842698369C06940EAD2
:105580000C601843104340EA014002900798826E75
:10559000D0F884000499514300EB810001900398F6
:1055A00001990860019804300190029801990860FF
:1055B00001980430019000200090FFE700980699C0
:1055C000CA684CF28041C0F60101895C88420DD264
:1055D000FFE7059800994058019908600198043048
:1055E0000190FFE7009804300090E7E708B07047AB
:1055F00080B592B010908DF83F1000208DF8040017
:105600009DF83F00FE2807D0FFE7109820B1FFE784
:105610001098407B20B9FFE700208DF847000AE092
:1056200010989DF83F100DF1050201AB00F0ECFA67
:105630008DF84700FFE79DF8470012B080BD0000DD
:1056400080B584B084460798DDF818E08DF80DC069
:105650008DF80C1002928DF80730ADF80400069812
:1056600068B1FFE7BDF804009DF8071006318842D5
:1056700005DBFFE79DF807003B2804D3FFE7002088
:10568000ADF80E003CE09DF8070002308DF80200F6
:105690000699FF200870069948709DF80D0006993C
:1056A00088709DF802000699C8709DF80C00069954
:1056B000087100208DF80300FFE79DF803009DF8B6
:1056C000071088420EDAFFE702989DF80310405C4D
:1056D000069A11444871FFE79DF8030001308DF8E8
:1056E0000300EAE7069800F00FF8069A9DF8071005
:1056F000114448719DF807000630ADF80E00FFE731
:10570000BDF80E0004B080BD83B002900020ADF85B
:1057100004000298C0788DF8070002208DF803007D
:10572000FFE79DF803009DF807100331C9B28842D6
:1057300010DAFFE702989DF80310415CBDF8040001
:105740000844ADF80400FFE79DF8030001308DF830
:105750000300E6E79DF8040080F0FF0003B0704707
:1057600084B0039002910192ADF80230039870B1B9
:10577000FFE70398007B012809D1FFE79DF80300AC
:1057800002990870BDF802000199087008E09DF8C0
:10579000030001990870BDF8020002990870FFE744
:1057A00004B070470000000080B588B0069041F258
:1057B000E460C2F200400590069850B9FFE741F25C
:1057C0007870C2F20040007818B1FFE705980790A2
:1057D0005FE005989421FAF746FF069840B1FFE78D
:1057E0000698006820B1FFE706980068049005E07D
:1057F00046F2EC50C2F200400490FFE7049805998D
:105800000860069840B1FFE70698406820B1FFE7BE
:1058100006984068039002E002200390FFE7039897
:1058200005994860069840B1FFE70698806820B166
:10583000FFE706988068029002E002200290FFE7EE
:10584000029805998860069820B1FFE70698007BCA
:10585000019002E000200190FFE70198059908738C
:10586000069820B1FFE70698407B009002E00120F7
:105870000090FFE700980599487305990020C873C8
:1058800041F27871C2F2004101200870059807903A
:10589000FFE7079808B080BD80B584B000208DF880
:1058A0000F00FFE79DF80F0045F65801C2F20041D6
:1058B0000978884233DAFFE79DF80F1045F65C005F
:1058C000C2F2004050F821000290029808B9FFE7A8
:1058D0001FE0029890F8280060B9FFE70298B0F93D
:1058E0001C1090F82030EC460022CCF8002000F08C
:1058F000A7F80DE00298B0F91C10C28B90F8203088
:10590000B0F822C0EE46CEF800C000F099F8FFE7EC
:10591000FFE79DF80F0001308DF80F00C2E704B0DB
:1059200080BD00000000000080B584B002900298A5
:1059300068B1FFE702980079FE2808D0FFE745F636
:105940005800C2F200400078102803D3FFE700207F
:1059500003906FE02C20FAF717FD0190019818B919
:10596000FFE70020039065E001982C21FAF77BFE09
:1059700002980068019948600198406830B9FFE7D3
:105980000020FFF711FF01994860FFE702980079B6
:1059900001990870029840790199487001984078FF
:1059A00020B9FFE7019901204870FFE70298C088FD
:1059B00001998883029800890199C8830298807AA6
:1059C000019981F820000298808901994884029801
:1059D00090ED040AB5EE400AF1EE10FA06D0FFE7AA
:1059E000029890ED040A8DED000A04E09FED130A81
:1059F0008DED000AFFE79DED000A019880ED090A90
:105A00000298007D019981F829000199012081F80F
:105A10002800019845F65803C2F200431A78511C39
:105A2000197045F65C01C2F2004141F8220001986C
:105A30000390FFE7039804B080BD00BF0000B43DB1
:105A400080B588B084460A98CDF818C0ADF8161015
:105A5000ADF814208DF81330ADF81000069820B181
:105A6000FFE70698406820B9FFE701208DF81F0086
:105A70004CE0069890F82900012806D1FFE7BDF810
:105A800016004042ADF81600FFE7BDF91600B0F170
:105A9000FF3F0CDCFFE7BDF816004042ADF8060002
:105AA000BDF8060040F40040ADF8060004E0BDF883
:105AB0001600ADF80600FFE79DF813008DF8090009
:105AC000069840680DF109020092511C0232BDF89F
:105AD0000630FFF745FE009A06984068D11C043254
