:020000040800F2
:10000000804B01246103000891970008E98F0008E4
:10001000B9950008B90E000861D200080000000080
:1000200000000000000000000000000071A10008B6
:100030008121000800000000219B0008E9A40008BD
:100040007F0300087F0300087F0300087F03000888
:100050007F0300087F0300087F0300087F03000878
:100060007F0300087F0300087F0300089119000840
:100070007F0300087F0300087F0300087F03000858
:100080007F0300087F0300087F0300085124000855
:100090007124000861240008812400087F030008FF
:1000A0007F0300087F0300087F0300087F03000828
:1000B0007F0300087F0300087F0300087F03000818
:1000C0007F0300087F0300087F0300087F03000808
:1000D0007F030008C1B200087F0300087F03000807
:1000E0007F0300087F030008000000007F03000872
:1000F0007F0300087F0300087F0300087F030008D8
:100100007F0300087F0300087F0300087F030008C7
:100110007F0300087F0300087F030008B9A60008DA
:100120007F0300087F0300087F0300087F030008A7
:100130007F0300087F0300087F0300087F03000897
:1001400000000000000000000000000000000000AF
:100150007F0300087F0300087F030008D1B2000876
:100160007F0300087F0300087F0300087F03000867
:100170007F0300087F0300087F03000800000000E1
:100180007F0300087F0300087F0300087F03000847
:100190007F0300087F0300087F0300087F03000837
:1001A0007F0300087F0300087F0300087F03000827
:1001B0007F0300087F0300087F0300087F03000817
:1001C0007F0300087F0300087F0300087F03000807
:1001D0007F030008C99700087F0300087F03000819
:1001E0007F0300087F0300087F0300087F030008E7
:1001F0007F0300087F0300087F0300087F030008D7
:100200007F0300087F0300087F0300087F030008C6
:100210007F0300087F0300087F0300087F030008B6
:100220007F0300087F0300087F0300080000000030
:100230007F0300087F030008000000007F03000820
:100240007F0300087F0300087F0300087F03000886
:100250007F0300087F0300087F0300087F03000876
:100260007F0300087F0300087F0300087F03000866
:100270007F0300087F0300087F03000800000000E0
:100280007F0300087F0300087F03000800000000D0
:10029000000000007F03000800F002F800F050F8B2
:1002A0000AA090E8000C82448344AAF10107DA45D1
:1002B00001D100F045F8AFF2090EBAE80F0013F0D3
:1002C000010F18BFFB1A43F0010318475404010043
:1002D000740401000A4410F8014B14F00F0508BF24
:1002E00010F8015B240908BF10F8014B6D1E05D002
:1002F00010F8013B6D1E01F8013BF9D1641E03D0DB
:10030000641E01F8015BFBD19142E4D37047000009
:100310000023002400250026103A28BF78C1FBD80E
:10032000520728BF30C148BF0B6070471FB50FF0A0
:1003300043FF9DE8030000F0EDF91FBD10B510BDAF
:1003400000F054FA1146FFF7F1FF0DF025F900F027
:1003500072FA03B4FFF7F2FF03BC00F0A3FA000047
:100360000A4880470A4880470A480047FEE7FEE7F8
:10037000FEE7FEE7FEE7FEE7FEE7FEE7FEE7FEE755
:1003800005480649064A074B70470000312400081B
:10039000C9A500089902000880FB0024804B0124B5
:1003A000803B0124803B012470B5064600F096F99D
:1003B000056806F10B0020F00704B4429CBF002042
:1003C00070BD2B466A68BAB11068A04210D304F120
:1003D000080188423CBF5068586007D35168101923
:1003E00041601168091B016058601460101D70BDE8
:1003F00013465268002AE7D12146284600F076F9D4
:100400000028DED170BD70B50446051F00F066F906
:100410000068002C14BF446870BD002C18BFAC42AB
:100420003CBF20466468F8D301680A18AA4218BF86
:10043000456003D12A6805461144016028684119C6
:10044000A1421CBF6C6070BD61686960216808448E
:10045000286070BD53EA020C00F069802DE9F04B72
:100460004FF00006002B1FBFB3FA83F503FA05F423
:1004700024FA05F65E4012BF1643B2FA82F502FA7C
:1004800005F4C5F120051EBF22FA05FC44EA0C0460
:10049000203556EA044C4FEA144418BF641C4FF050
:1004A00000084FF00009904271EB030C39D300298A
:1004B00019BFB1FA81F701FA07F6B0FA80F700FA2E
:1004C00007F6C7F120071EBF20FA07FC46EA0C0614
:1004D0002037B6FBF4FCA7EB0507103F07F01F0B16
:1004E000CBF120062CFA06F60CFA0BFB44BFB34600
:1004F0000026202FA4BF5E464FF0000B5BEA060CDF
:1005000008BF4FF0010B19EB0B0948EB0608ABFBDA
:10051000027C06FB02CC0BFB03CCC01B71EB0C0175
:10052000C1E70B46024641464846BDE8F08B13B58D
:10053000084318BF4FF0FF300146AFF30080BDE81D
:100540001C407047032A40F2308010F0030C00F08A
:10055000158011F8013BBCF1020F624498BF11F8FD
:1005600001CB00F8013B38BF11F8013BA2F10402B6
:1005700098BF00F801CB38BF00F8013B11F003032E
:1005800000F02580083AC0F0088051F8043B083A92
:1005900051F804CBA0E80810F5E7121D5CBF51F834
:1005A000043B40F8043BAFF30080D20724BF11F8AE
:1005B000013B11F801CB48BF11F8012B24BF00F813
:1005C000013B00F801CB48BF00F8012B704710B584
:1005D000203AC0F00B80B1E81850A0E81850B1E8FC
:1005E0001850A0E81850203ABFF4F5AF5FEA027C3B
:1005F00024BFB1E81850A0E8185044BF18C918C06B
:10060000BDE810405FEA827C24BF51F8043B40F80B
:10061000043B08BF7047D20728BF31F8023B48BFF0
:1006200011F8012B28BF20F8023B48BF00F8012B2E
:10063000704702F0FF0343EA032242EA024200F05D
:1006400024B84FF000020429C0F0128010F0030C0F
:1006500000F01B80CCF1040CBCF1020F18BF00F8B5
:10066000012BA8BF20F8022BA1EB0C0100F00DB864
:100670005FEAC17C24BF00F8012B00F8012B48BFC2
:1006800000F8012B70474FF0000200B51346944666
:100690009646203922BFA0E80C50A0E80C50B1F1DA
:1006A0002001BFF4F7AF090728BFA0E80C5048BFEE
:1006B0000CC05DF804EB890028BF40F8042B08BF8C
:1006C000704748BF20F8022B11F0804F18BF00F888
:1006D000012B704770477047704700000048704713
:1006E00038010024704770477047704738B504469A
:1006F0000A4600206946AFF30080002808BF38BDD5
:1007000002460099204600F04FF8012038BD012034
:1007100000F064B8F8B5AFF30080054600200C4641
:10072000102000BF0646A819A0420DD932466946DE
:100730000020AFF30080070008BF00F04FF80098DA
:10074000A04218BF0546C419FFF7C8FF0560074659
:10075000F01D20F007004619284600F00AF8B442C0
:1007600008BFF8BDA21B31463868BDE8F84000F06C
:100770001BB800210160C0E90110704710207047CC
:1007800010B500F00DF8006810BD10B5044600F07B
:1007900007F8046010BD00000048704730010024D5
:1007A0000048704730010024034640688C4600280A
:1007B00018BF88423CBF03464068F8D31868184405
:1007C000884207D00CF1030020F00700001D411AF9
:1007D000521A0146081D0A60FFF715BE10B500F059
:1007E00039F8BDE8104000F02FB870477546FFF7A4
:1007F000D3FFAE4605006946534620F00700854604
:1008000018B020B5FFF7BCFDBDE820404FF0000652
:100810004FF000074FF000084FF0000BAC46ACE87B
:10082000C009ACE8C009ACE8C009ACE8C00921F0D7
:1008300007018D46704710B50446AFF3008020468F
:10084000BDE81040FFF785BD002801D000F02AB8B0
:100850007047000010B5012805D0002103A000F06A
:1008600027F8012010BD09A1F8E7000053494752BD
:10087000544D454D3A204F7574206F662068656170
:1008800070206D656D6F7279000000003A20486538
:100890006170206D656D6F727920636F7272757013
:1008A0007465640001491820ABBEFEE72600020013
:1008B00070B505460C460A2000E06D1C00F011F8EA
:1008C00035B128780028F8D102E0641C00F009F85E
:1008D00014B120780028F8D1BDE870400A20AFF3A9
:1008E000008008B569468DF800000320ABBE08BD46
:1008F0002DE9F04186B04FF00003ADF81430CDE99A
:100900000333ADF808300193009329B30C46154624
:1009100040F080008DF80C0000F066F841F200070E
:100920000821C5F602070022384604F06DFFE846AC
:10093000AA1C03A8414600F0A7FA06460821012296
:10094000384604F061FF46B908F1020120462A4604
:10095000FFF7F8FD002600E00426304606B0BDE8AB
:10096000F08100000000000010B582B00C460021AC
:100970008DF807100DF107010122FFF7B9FF9DF86F
:100980000710091B18BF0521002808BF084602B040
:1009900010BD000000000000B0B582B000F07F0084
:1009A0008DF806008DF807100020ADF8040000F067
:1009B0001BF841F200040821C5F60204002220467B
:1009C00004F022FF0DF1060001A9022200F05CFAFA
:1009D000054608210122204604F016FF284602B0F1
:1009E000B0BD00000000000010B541F20004082175
:1009F000C5F602040122204604F006FF1021012260
:100A0000204604F001FF10BD80B57C200021FFF7D7
:100A1000C3FF00B180BD052004F082F87D200421D1
:100A2000FFF7BAFF0028F5D1052004F079F840203F
:100A3000A821FFF7B1FF0028ECD1012004F070F8E5
:100A400041200121FFF7A8FF0028E3D1012004F095
:100A500067F87C200021FFF787FF0028DAD17D208E
:100A60000421FFF781FF0028D4D14020A821FFF7FF
:100A70007BFF002818BF80BD41200121FFF774FFD4
:100A800080BD00000000000080B51120002100F0B2
:100A900077F800B180BD1E2004F042F80F2000213D
:100AA00000F06EF80028F5D1012004F039F810208C
:100AB000072100F065F80028ECD1012004F030F89F
:100AC0000F20002100F044F8002818BF80BD10203E
:100AD000072100F03DF880BD2DE9F04186B04FF0D0
:100AE00000038DF81430CDE903338DF808300193FD
:100AF000009329B30C46154640F080008DF80C0099
:100B0000FFF772FF41F200071021C5F6020700222D
:100B1000384604F079FEE8466A1C03A8414600F016
:100B2000B3F9064610210122384604F06DFE46B99D
:100B300008F1010120462A46FFF704FD002600E0E7
:100B40000426304606B0BDE8F08100000000000039
:100B500010B582B00C4600218DF807100DF1070189
:100B60000122FFF7B9FF9DF80710091B18BF0521E7
:100B7000002808BF084602B010BD000000000000B9
:100B8000B0B582B000F07F008DF806008DF8071038
:100B90000020ADF80400FFF727FF41F20004102108
:100BA000C5F602040022204604F02EFE0DF10600D8
:100BB00001A9022200F068F9054610210122204611
:100BC00004F022FE284602B0B0BD00000000000084
:100BD000B0B582B000208DF807008DF80600FFF751
:100BE00003FF0A2003F09CFF0DF107040DF1060539
:100BF0002046294600F0CCF8012003F091FF204662
:100C0000294600F0C5F8B0BB9DF807001E282FD17B
:100C10009DF806000F282DD17E20B621FFF7BCFEDF
:100C200048BB322003F07CFF1420B621FFF7A8FF59
:100C300008BB322003F074FF0DF107000DF106012F
:100C400000F0A6F8B8B99DF807001E281AD19DF843
:100C500006000F2818D1FFF7D7FE60B9FFF714FF81
:100C600048B945F26870C2F2004000F031F802E085
:100C7000022000E0032040F22011C2F2004108707F
:100C800002B0B0BD0220F6E70320F4E70000000048
:100C900010B582B004460020ADF8040000903CB1CD
:100CA000694612200622FFF723FE20B102B010BDD4
:100CB000042002B010BDBDF800002080DDF8020065
:100CC000C4F80200002002B010BD000000000000C7
:100CD00010B538B10446283004F1290100F058F865
:100CE00010B110BD042010BD2046FFF7D1FF002831
:100CF000F7D1A01D00F074F8002818BF10BDB4F99A
:100D00000000B4F90420B4F902109FED1F2A00EE90
:100D1000100A03EE102A01EE101AB4F90600B4F915
:100D20000A10B8EEC00AB8EEC11A04EE101AB8EEF6
:100D3000C33A20EE020A84ED030A21EE020A23EEF2
:100D4000021A02EE100AB4F9080084ED040AB8EEA3
:100D5000C44A9FED0E3A00EE100AB8EEC22A84EDA6
:100D6000051A04F12400B8EEC00A22EE031A84ED3D
:100D7000061A20EE030A84ED070A24EE030A84ED26
:100D8000080A00F04DF810BD0F5CEB3A58A08B3A02
:100D9000B0B5044600284FF0040007D00D4629B135
:100DA000002001222146FFF7A3FD00B1B0BD0020C5
:100DB00001222946FFF790FE002818BFB0BD45F27A
:100DC00064712078C2F20041087045F29471C2F259
:100DD0000041287808700020B0BD0000000000002D
:100DE00010B582B004460020ADF8040000903CB17C
:100DF000694602200622FFF76FFE20B102B010BD47
:100E0000042002B010BDBDF800002080DDF8020013
:100E1000C4F80200002002B010BD00000000000075
:100E200010B582B0044600284FF00000ADF806006F
:100E300008D00DF1060122200222FFF759FD20B152
:100E400002B010BD042002B010BD9DF806004FF6A0
:100E500000029DF80710CFF6FF72C000B4EE001A32
:100E6000B3EE072A40EA51110020B0EB912F18BFD2
:100E7000114300EE101AB8EEC00A00EE012A84ED0C
:100E8000002A02B010BD000080B582B094460A4628
:100E9000014646F2C020C2F200406423009363463C
:100EA00007F022F920B1FFF79FFD012002B080BDBD
:100EB000002002B080BD0000FEE70000000000003E
:100EC0000020704700000000002070470000000074
:100ED00010B545F6C00440F6F051C2F20044C2F22B
:100EE0000041002220460AF0D3FB40F2F051204698
:100EF000C2F200410AF0BCFB40F600010022C3F23E
:100F0000040120460AF0C4FB40F200012046C3F26F
:100F100004010AF0ADFB002010BD0000000000003D
:100F2000B0B5096804460BF0BFFF45F6C005214681
:100F3000C2F2004528460AF09BFB28460AF074FBE3
:100F40000020B0BD0000000000207047000000003D
:100F500010B545F6C002C2F20042D2F8BC22D2F867
:100F60001422002A1CBF012010BD45F6C0040A4609
:100F7000C2F20044014620460AF08AFB20460AF0ED
:100F800027FC10BD0000000008F0DEFA00F020F998
:100F900001200CF0BDFBF9E780B530EE600A00F0EF
:100FA00023F880BD0000000041F2686040F220128A
:100FB000C2F20040C2F200420021C0E900111378E1
:100FC000437240F2F8031278C2F20043B2FA82F29E
:100FD0005860520902721A701972C3E903115961FB
:100FE00070470000000000009FED111AB4EE410AA6
:100FF000F1EE10FA09DD9FED0F2A00BF30EE020A74
:10100000B4EE410AF1EE10FAF8DC9FED0B1AB4EEE3
:10101000410AF1EE10FAA8BF70479FED082A00BF01
:1010200030EE020AB4EE410AF1EE10FAF8DB704736
:10103000000034430000B4C3000034C30000B443D4
:10104000B0B545F26874C2F200442046FFF740FE96
:1010500041F26865C2F20045687238B140F2F801A9
:101060000020C2F2004128720870B0BD94ED081A49
:101070009FED090A21EE002A95ED000A9FED073A3F
:101080000120287202EE030A85ED011AFFF7ACFF7A
:1010900085ED000AB0BD00BF6F12833AE12E6542B4
:1010A0002DE9F041EAB040F2F4213BACC0F6010179
:1010B000BC222046FFF78BFA00208DF884012046E1
:1010C0004FF00408CDF8948100F072FA46F2C44162
:1010D0000126C2F2004165968DF8846108602046C1
:1010E00000F066FA46F2CC410327C2F20041659750
:1010F0008DF884610860204600F05AFA46F2C0413B
:101100000225C2F2004165958DF8846108604FF0B8
:1011100080404690204600F04BFA46F2C8410CACA5
:10112000C2F20041BC22086040F2B031C0F60101B9
:101130002046FFF74CFA2046CDF8D88000F038FA68
:1011400046F2D4413696C2F200410860204600F0D3
:101150002FFA46F2DC413697C2F200410860204681
:1011600000F026FA46F2D0413695C2F200410860FE
:10117000204600F01DFA46F2D841C2F20041086054
:1011800040F2C820C0F60100016801914168029157
:1011900081680391C16804910169059141690691D3
:1011A00081690791C1690891016A0991416A0A91AF
:1011B000806A0B9041F2F05001A9C2F2004008F0A1
:1011C00093FCFFF7F1FE6AB0BDE8F081000000007B
:1011D00080B5FFF735FF9FED040AF0EE400AB0EE50
:1011E000401A08F0E5FF80BD00000000000000008C
:1011F00047F27C3147F2643C0020C2F20041C2F267
:10120000004C002303E000BF0133062B09D0CA5C69
:10121000002AF9D05CF82320002A18BFC2E90B008D
:10122000F2E770470000000080B52DED068BB0EEB0
:10123000609AB0EE408A00F0D3FAB0EE40AAB0EE69
:10124000490A00F03DF800F0CBFA30EE4A0A9FED73
:101250000E1AB4EE410AF1EE10FA04DD9FED0D1AFC
:1012600030EE010A0AE09FED091AB4EE410AF1EEF0
:1012700010FA03DA9FED061A30EE010A30EE080A82
:10128000BDEC068B80BD00BF00003443000034C3BA
:101290000000B4430000B4C3002818BF00290CD0DC
:1012A00001394FF0FF3200BF00EB020C013211F8A0
:1012B000013F072A8CF80130F6D17047000000008A
:1012C0009FED021A20EE010A704700BFACFF333DCC
:1012D00045F61441C2F2004188420CD045F6B442B2
:1012E00045F66401C2F20042C2F20041904218BFCA
:1012F00000210846704745F60800C2F200407047DA
:1013000000F006F801200CF003FAF9E700000000F5
:101310002DE9F04F81B02DED028BFFF769FF45F20B
:10132000987946F2BE4AC2F20049C2F2004A4FF032
:101330000008D9F80C000130C9F80C0089F82980A0
:101340009AF80000002800F0E78041F2F4674FF0BF
:10135000000BC2F2004706E09AF800000BF1010B07
:10136000834580F0D98057F82B40002CF4D0D4F876
:10137000C0010028F0D0204608F026FD04F1340614
:10138000304600F0FDF8054610B194F8D701B8B129
:1013900094ED6E0A94F83800B1EE401A0128E08E00
:1013A00041FE000A40062CD53088402829D194F807
:1013B0003A00012807D1D4F8A80190ED008A13E083
:1013C000B4F8D40171E094F83C0094ED098A012846
:1013D00004D1B0EE480AFFF727FF03E0B0EE600A41
:1013E000FFF76EFFF0EE400A94F83900B1EE480ABC
:1013F000012804F1400000FE080A08F0E5FAF0EECA
:10140000400AE08E000726D5308810F0480F22D021
:1014100094F83D0010F00A0F05D0D4F8B40190ED17
:10142000000A70EE800A94F83B00012802D1D4F83B
:10143000AC0101E004F1100090ED000A94F83900CD
:10144000B1EE401A012804F1B80001FE000A08F0CC
:10145000BBFAF0EE400A94F83D00C00705D0D4F87E
:10146000B00190ED000A70EE800AE08EC00712D045
:10147000B4F9140000EE100A94F83900012804F5BC
:101480009870B8EEC00AB1EE401A01FE000A08F0EA
:101490009BFAF0EE400ABDEEE00A002D10EE100AB5
:1014A000A4F8D40118BF84F8D78194F8C421052A80
:1014B0003FF652AF47F26431C2F2004151F82210B8
:1014C00000293FF449AF94F8C561BC4601F12C03F3
:1014D000050A7700013703F81650D855D4F8B851EB
:1014E000C9F84450A9F8480089F82720DA1989F882
:1014F0002860674694F8C701002803EB460008BF40
:10150000A0F80080896AC9F84C100078117841EA87
:101510000020A9F850001FE747F27C3447F2643AF4
:10152000C2F2004401250026C2F2004A03E000BFD7
:101530000136062E1DD009EB060787F85280A05D04
:101540000028F5D099F8290005FA06F1084389F832
:1015500029005AF826000028EAD000F071F9002886
:10156000E6D009EB860087F85250816D0131816524
:10157000DEE7BDEC028B01B0BDE8F08F000000009B
:1015800068B141884A0602D50288402A05D00A0778
:1015900007D5008810F0480F03D0012070470020C5
:1015A000704701F001007047012180F8C7117047B2
:1015B000F0B589B0E8B1054647F28230C2F200408A
:1015C000007820B907F014FD002800F0B38046F23F
:1015D000BE47C2F2004738780C2815D345F2987000
:1015E0000025C2F20040416801314160042181764A
:1015F000E3E045F298700025C2F2004041680131F5
:10160000416002218176D8E04FF4EC70FEF7CCFE09
:10161000002800F09A804FF4EC710446FFF733F88D
:1016200095F8A000294684F8C601D5F894006063B7
:10163000D5F89800A063D5F89C00E06304F5987095
:1016400004F1400608F050FA04F1B80005F12C014D
:1016500008F04AFA05F15801304608F045FAD5F885
:101660008400C4F8A801D5F88800C4F8AC01D5F806
:101670008C00C4F8B001D5F89000C4F8B401D5F8D6
:10168000A4000390D5F8A8000490D5F8AC0005900C
:10169000D5F8B0000690D5F8B4000790D5F8B8009A
:1016A000089003A9204607F0BBFF002858D000206F
:1016B0008DF8180042F28910C0F60000CDE9070449
:1016C00003A801F0A1F80028C4F8C00156D02046B4
:1016D00008F07AFB0220009041F2C170C0F60000D1
:1016E000CDE90104684600F023FD0028C4F8C801D4
:1016F00052D02046FFF758FF38782546411C3970F4
:1017000041F2F461C2F2004141F8204045F2987084
:10171000C2F2004001680131016000218176DDE9FB
:1017200004120161426194F8C41194F8C521017654
:10173000427642E045F298700025C2F200404168CE
:10174000013141600321817637E045F29870002530
:10175000C2F20040416801314160052181762CE0F0
:101760002046FEF750FE45F298700025C2F2004078
:10177000416801314160062181761EE02046FEF776
:1017800042FE45F298700025C2F2004041680131E6
:1017900041600721817610E0D4F8C0010025C0E93E
:1017A0002E552046FEF72FFE45F29870C2F20040FB
:1017B00041680131416008218176284609B0F0BDB9
:1017C000002808BF7047D0F8C01100291CBF0021B5
:1017D00080F8C7117047000080ED6E0A7047000066
:1017E00080B52DED028B9FED098AF0EE480A0EF0D0
:1017F00015FC30EE081AB5EE400AF1EE10FAB8BF4B
:10180000B0EE410ABDEC028B80BD00BF0000B443C6
:1018100000EE100AB1EE081A00EBE03181EAE03088
:1018200080B2B8EEC00A092820EE010A9FED021A24
:1018300038BFB0EE410A7047000000000000000011
:10184000F0B589B000283ED0076804464FF0000686
:10185000D7B3A06A0296CDE9000608200390384667
:10186000FFF736FD05463846CDE90466CDE9066644
:10187000089603F01DFB50B32646694656F82C0B1C
:10188000324603F09DF9002843D0002D5ED0A869B0
:101890000130A86100980399069AA862E9622A6358
:1018A00000F0CEFBBCEEC00A012085ED0D0A3146EA
:1018B00068642068D0F89C00A86405F14C00FFF72C
:1018C000EBFC002600E00026304609B0F0BD002DFC
:1018D0003ED0E8690130E861A8690130A86100984C
:1018E0000399069AA862E9622A6300F0A9FBBCEE9C
:1018F000C00A032085ED0D0A686454F82C0B2146BC
:10190000D0F89C00A86405F14C00FFF7C5FC002648
:10191000DAE7FDB168690130686100980399069AB9
:10192000A862E9622A6300F08BFBBCEEC00A0020CB
:1019300085ED0D0A314668642068D0F89C00A864E3
:1019400005F14C00FFF7A8FC0126BDE70026BBE728
:101950000026B9E70126B7E701A1085C704700BF80
:101960000001020304050607080C1014182030407B
:10197000C0F3034001A1085C704700BF00010203EF
:1019800004050607080C1014182030400000000061
:1019900080B545F69C30C2F2004001F011FE80BDDA
:1019A00040F20F420168C4F20202914210DC6F2241
:1019B000C4F20202914220DC3F22C4F202029142B0
:1019C00036DC1022C4F20202914254D028224EE0AA
:1019D00040F26F42C4F2020291421ADC40F23F42EE
:1019E000C4F2020291422ADC40F21042C4F2020226
:1019F000914240D040F2284239E09F22C4F20202D4
:101A0000914225DC7022C4F20202914233D0882236
:101A10002DE040F29F42C4F2020291421FDC40F2EC
:101A20007042C4F20202914225D040F288421EE088
:101A30004022C4F2020291421DD0582217E040F227
:101A40004042C4F20202914215D040F258420EE0E8
:101A5000A022C4F2020291420DD0B82207E040F267
:101A6000B842C4F20202914205D040F2A042C4F250
:101A7000020291421AD1D0F800C06FF00F024AF66C
:101A8000AB2352FA8CF2CAF6AA23A2FB033109A3B4
:101A90005F2AC1F302115B5C40F2FF312CEA0101C5
:101AA000C36588BF0431816508467047016821F02D
:101AB000FF01F8E7000610160006101600000000EF
:101AC00010B545F257420168C5F6020291420EDC9C
:101AD00045F22F42C5F60202914217DC45F2084258
:101AE000C5F60202914226D045F21C421FE045F2A3
:101AF0007F42C5F60202914211DC45F25842C5F61A
:101B00000202914217D045F26C4210E045F2304299
:101B1000C5F6020291420ED045F2444207E045F27A
:101B20009442C5F60202914205D045F28042C5F6C4
:101B30000202914219D101784CF6CD42CCF6CC424A
:101B400045F600030839C5F60203A1FB021203F1B2
:101B50008001120903EB820302F01F0203660123D6
:101B6000416603FA02F1816610BD02784AF6AB23A2
:101B7000CAF6AA234FF0080E103AA2FB032340F244
:101B80000F42C4F202024FEA131C914202F1AA046E
:101B9000624688BF0EEB131240F60003A142C4F266
:101BA000020303F1800128BF6246D3E70000000072
:101BB00010B50279511E072988BF10BD45F2574C58
:101BC00045F6FC0E0368C5F6020CC5F6020E634529
:101BD0000EF1440C0EDC45F22F44C5F60204A3427C
:101BE00017DC45F20844C5F60204A34226D045F2AC
:101BF0001C441FE045F27F44C5F60204A34211DCF9
:101C000045F25844C5F60204A34217D045F26C448D
:101C100010E045F23044C5F60204A3420ED045F26E
:101C2000444407E045F28044C5F60204A34205D0CF
:101C300045F29444C5F60204A34209D10EEB820298
:101C4000C2660122C0F870C002FA01F1416710BDFE
:101C500040F6FC0EC4F2020E0EF1440CEEE700005A
:101C60008169B1F5005F07D079B9816A022912D084
:101C7000012916D079B112E0816A03290FD8DFE873
:101C800001F0020A021001207047816A03293CBF5B
:101C90000120704703D1C06AC0F300607047002084
:101CA0007047C06AA0F1C070B0FA80F04009704778
:101CB00070B540F26F44D0F800E0C4F20204D0F8EE
:101CC00058C0A64519DC9F25C4F20205AE4531DC9B
:101CD0005725C4F20205AE4556DC1025C4F20205B4
:101CE000AE4500F092802825C4F20205AE4500F012
:101CF0008C804025C4F2020584E045F22F45C5F6EC
:101D00000205AE452BDC40F2B745C4F20205AE45F4
:101D100048DC40F27045C4F20205AE4575D040F291
:101D20008845C4F20205AE456FD040F2A045C4F22A
:101D3000020567E040F22745C4F20205AE4540DCEB
:101D4000A025C4F20205AE455FD0B825C4F2020555
:101D5000AE455AD040F21045C4F2020552E045F2B9
:101D60006B45C5F60205AE453CDC45F23045C5F68F
:101D70000205AE4549D045F24445C5F60205AE45DB
:101D800043D045F258453BE05825C4F20205AE4524
:101D90003BD07025C4F20205AE4536D08825C4F28A
:101DA00002052FE040F2B845C4F20205AE452CD042
:101DB00045F20845C5F60205AE4526D045F21C455C
:101DC0001EE040F22845C4F20205AE451DD040F2A7
:101DD0004045C4F20205AE4517D040F25845C4F262
:101DE00002050FE045F26C45C5F60205AE450CD084
:101DF00045F29445C5F60205AE4506D045F280454C
:101E0000C5F60205AE4540F0C980456EC66E002E8F
:101E1000866E6E601CBFD0E91C566E60A64515DC50
:101E20009F24C4F20204A6452BDC5724C4F202040A
:101E3000A6454EDC1024C4F20204A64576D0282420
:101E4000C4F20204A64571D040246BE045F22F4451
:101E5000C5F60204A64527DC40F2B744C4F20204EA
:101E6000A64542DC40F27044C4F20204A6455DD0AF
:101E700040F28844C4F20204A64557D040F2A04480
:101E800050E040F22744C4F20204A6453CDCA02402
:101E9000C4F20204A64549D0B824C4F20204A645FF
:101EA00044D040F210443DE045F26B44C5F60204D4
:101EB000A6454FDC45F23044C5F60204A6455BD08A
:101EC00045F24444C5F60204A64555D045F25844AF
:101ED0004EE05824C4F20204A64527D07024C4F270
:101EE0000204A64522D088241CE040F2B844C4F283
:101EF0000204A6451AD045F20844C5F60204A645D8
:101F00003AD045F21C4433E040F22844C4F20204C3
:101F1000A6450BD040F24044C4F20204A64505D0C9
:101F200040F25844C4F20204A64537D104683F2564
:101F30008668C06D00F01F00402E05FA00F0CCF856
:101F40000800206820F480202060636021D0A16018
:101F5000E26070BD45F26C44C5F60204A6450BD0A4
:101F600045F28044C5F60204A64505D045F29444E6
:101F7000C5F60204A64511D10468C66D806806F056
:101F80001F060125402805FA06F6CCF804606360B8
:101F900002D1A260E16070BDA160E26070BD00008E
:101FA00081B040F2B010C2F20040017809B101B036
:101FB000704741F2040C0122CEF2000C0270DCF8F2
:101FC0000020009240F29C12009BC2F20042116875
:101FD0008B4206D240F2A011C2F200410B680133DD
:101FE0000B60DCF8001011600021017001B0704737
:101FF00080B52DED028B82B041F20401CEF20001DA
:102000000968019101990268891A00EE101A40F2DC
:102010009011C2F2004191ED001AB8EE400AB8EEFC
:10202000411A0199016080EE018AFFF7B9FFB0EE15
:10203000480A02B0BDEC028B80BD00000000000029
:1020400080B500F025F840F2C41040F2C811C2F289
:102050000040C2F200414FF47A729FED0B2A0068F3
:10206000098800FB021040F2CC11C2F2004100EEE0
:10207000100A098801EE101AB8EE400AB8EE411AAB
:1020800001EE020A80BD00BF6F12833A000000001B
:1020900070B582B041F20400CEF2000000680190F9
:1020A000FFF77EFF40F2A0104FF0FF31C2F2004078
:1020B000002500230068019CE0FB014540F29010E0
:1020C000C2F200402946066820463246FEF7C2F9B1
:1020D000A0FB062301FB06310023A41A40F2941250
:1020E0008D4140F2C411C2F20042C2F200411668B2
:1020F0000860204629463246FEF7ACF981B240F22C
:10210000C812C2F2004271430023108040F29812BC
:10211000C2F20042601A65F100011268FEF79AF9F6
:1021200040F2CC11C2F20041088002B070BD000044
:1021300010B504461020FEF737F9002101608160D8
:102140002188D4E90123C360002908BF64214260CB
:1021500046F2BD426388C2F200420180002B14782F
:1021600018BF19460181611C117041F27461C2F2FD
:10217000004141F8240010BD018801817047000032
:1021800070470000000000002DE9F04F81B02DEDF8
:10219000068B002800F02981044690F8B400062838
:1021A00007D894F8B500002840F01F81082084F873
:1021B000B400D4F8BC5045B9204600F075FD0028A5
:1021C00000F01881054607F0FFFD002D00F00D819D
:1021D00045F29876C2F20046B0680130B060D5F89A
:1021E000C80108B1FFF7C8FF05F5E670FFF700FF6B
:1021F000B5F802B085ED740AA5F800B0B0EE408ADB
:10220000B4F86D009FED7E9A00BA4FEA104AA5F827
:1022100002A000EE10AAB8EE400A20EE09AA85ED51
:1022200001AAB4F86F00B4F8711002BA4FEA12496B
:102230000ABA4FEA1248CFBAC0BAFFF7E9FAB5F9BD
:1022400014009FED702A9FED703AA5F8089001EEFA
:10225000100A85ED030A95F8D611B8EEC11A21EEE1
:10226000021A02EE107AB8EEC22A02EE031ABDEE8E
:10227000C11A11EE100AA88294F87300A87559B11A
:10228000AAEB0B014EF20002B1F5805FCFF6FF72B0
:1022900039DD4FF0FF333DE095ED0C1A40F20112AD
:1022A0003AEE411AA5F8D621A5F800A0002185ED47
:1022B000040AD4F8B020E9629FED572AC5E9061A4E
:1022C000C5F820A028EE022A85ED091A85ED0AAA94
:1022D000F261A6F820A0A6F82290A6F8248086F83D
:1022E000260095F8C40186F8270095F8C50186F800
:1022F0002800F162316386ED0D2A86ED0E0AF16346
:1023000086ED101A71E002F58052914206DA01233F
:102310004FF400521144EA6A1A44EA620A4600295C
:1023200048BF4A4201EE101A95ED042A9FED383A53
:10233000022A22EE032A9FED373AB8EEC11A9FED2A
:10234000334AB5EE408A00EE032A21EE091A81EEE7
:10235000083A38BFB0EE443AB0EE425AF1EE10FA05
:10236000D8BFB0EE443A022AB5EE400A38BFB0EE0C
:10237000445A95ED0A0AEA69F1EE10FA31EE000AC4
:1023800095ED0C4A05FE022A0A4485ED042A2B6AC3
:1023900030EE441AD31AC5E9063285ED091A012236
:1023A00085ED0A0A9FED1C0A85F8D721D4F8B020E4
:1023B000F26128EE000AA6F820A0A6F82290A6F85E
:1023C000248086F8260095F8C40186F8270095F841
:1023D000C50186F82800F162336386ED0D0A86EDAB
:1023E0000E2A86ED0F3A86ED101ABDEC068B01B071
:1023F000BDE8F08F0025002D7FF4EAAEF5E700BFC1
:10240000ACFF333DD0CCCC3D6666663F000000009B
:102410006666263F3333B33E00007A440000000076
:10242000EFF3108072B600BFFEE70000000000006E
:1024300044F60C00C5F60200016841F0020101609B
:1024400050F8081C8904FBD570470000000000000C
:1024500080B545F61440C2F2004002F035FD80BD63
:1024600080B545F61440C2F2004002F02DFD80BD5B
:1024700080B545F6B440C2F2004002F025FD80BDB3
:1024800080B545F6B440C2F2004002F01DFD80BDAB
:1024900070B588B000220792CDE90522CDE903226C
:1024A00004460092CDE9012200280D4618BF22689B
:1024B000104600F071F906460120002C18BF002DCF
:1024C00001D108B070BDD4F8B01029B3D4F800C061
:1024D0006B79DCF8380098424FF00100F1D9002206
:1024E0000491CDE9002302226946CDE9022040F2A1
:1024F000FF700590604602F09BFB80B1002E4FF00C
:102500000100DED031690131316170642168D1F898
:102510009C10B164697912E0002008B070BD687940
:10252000002E00F101014FF000006971C9D0F2687E
:102530000132F26070642268D2F89C20B26471703B
:1025400008B070BD0000000010B5082A28BF08229E
:1025500092B10139C2F1000C4FF0FF3200EB020ED4
:1025600001320CEB020311F8014F01338EF80140E8
:10257000F4D1511CC9B200E00021072988BF10BD69
:102580000844083901380022013100F8012FFBD33B
:1025900010BD00000000000070B582B0044608B114
:1025A000206800E0002000F0F7F82CB10646207902
:1025B00028B1002002B070BD012002B070BD2068BB
:1025C0000221022201230125009502F075FB60B96A
:1025D000206802F0C5FF40B920681121002202F0F6
:1025E000B3FA78B1206802F0D7FF4FF00100AEB126
:1025F000B1680131B16070642168D1F89C10B16498
:1026000002B070BD01214FF00000217136B1317070
:1026100061797170716801317160ECE702B070BD71
:102620002DE9F04F9BB08B46044600F0B5F8054607
:102630002046594602F064FB00285ED005F154089C
:102640000DF144090DF1040A22E000BF0126D5B1C5
:1026500011981499A863E963FFF7F2FCBCEEC00A75
:10266000002085ED100A514668643A46D4F89C0073
:10267000A8644046FFF768FF2020002E18BF2420E2
:102680002958013129502046594602F039FBA0B3A0
:10269000204659464A46534602F03EFB38BB204688
:1026A000494600F02DF81499064600F055F9002E21
:1026B0000746CBD02FB9304600F09EF8002808BF5F
:1026C0000827402F28BF402786F8B4702FB106F1A5
:1026D0006D0051463A46FDF735FFD6F8B81000298F
:1026E000B4D0304688470026002DB1D1CBE725B1C4
:1026F00001206864D4F89C00A8641BB0BDE8F08F8A
:1027000070B5044600284FF0000030D00D4671B37C
:10271000686868B92E680020B0EBD62F08D1204633
:1027200000F052F820B150F82600002818BF70BD04
:1027300046F2BC40C2F200400178C9B1017845F2CE
:102740002472C2F20042012998BF012104E000BFB7
:10275000013902F104020BD010680028F8D0036898
:10276000A342F5D12B68D0F8B060B342F0D170BD70
:10277000002070BD0000000040F210120021C2F2E3
:10278000004200BF5358834204D008311029F9D1C8
:10279000002070475018704745F61441C2F20041BE
:1027A00088420CD045F6B44245F66401C2F20042BC
:1027B000C2F20041904218BF00210846704745F61A
:1027C0000800C2F20040704745F61441C2F20041D1
:1027D00088420CD045F6B44243F22471C2F2004262
:1027E000C2F20041904218BF00210846704741F2F2
:1027F0002470C2F200407047C069A0F50010B0FA22
:1028000080F04009704700002DE9F04F81B0A0B181
:10281000046806469CB12046FFF7AEFF88B18246A9
:102820002046FFF7D1FF46F2BC49C2F2004999F8B1
:1028300000100F2907D900278AE0002788E0002729
:1028400086E0002784E08046B568002D18BFB8F107
:10285000000F50D1B1B145F22470C2F2004003E044
:10286000013900F104000DD0002DF9D00268002AD2
:10287000F6D01368A342F3D1D2F8B020AA42EFD128
:10288000002765E0C020FDF78FFD4FF0000BE0B39F
:10289000C0210746FDF7F7FE317B3C607068786029
:1028A000C7F808B00029C7F80CB04FF0080218BFED
:1028B0000121C7E909B03069C7F8B8007069C7F8E5
:1028C000BC0038460B05C7E9042BBB614B05C7E9C3
:1028D000073BC7F8B05087F8B51087F86C2000F0B8
:1028E000A3F838465146FFF7D3FD80B13846FDF7CF
:1028F0008AFD00272CE00020B0EBD52FAAD158F894
:1029000025000028A6D0002722E0002720E050461E
:10291000FFF742FE20B13846FDF775FD002717E0AE
:10292000D7F8B000002818BFB8F1000F05D000217B
:10293000B1EBD02F08BF48F8207099F80000411C77
:1029400089F8001045F22471C2F2004141F820706C
:10295000384601B0BDE8F08FB0B50C46B1F5803F08
:10296000054605D32046FFF703F808B1C0B2B0BD55
:10297000082C01D8E0B2B0BD1DB12846FFF73CFFDE
:10298000B0B104F00F00FEF7E7FF0028EED1A4F18C
:102990000C004FEAB00100200D29E7D8012202FA0D
:1029A00001F142F22F22114218BF2046C0B2B0BD41
:1029B0000820C0B2B0BD0000B0B588B30446481EC0
:1029C000C0B20D463F2888BFB0BD204600F02CF8AD
:1029D0002046FFF711FF2946002808BF0821082DCF
:1029E00098BF2946D0B1302901D9402116E02029CD
:1029F00001D9302112E0182901D920210EE0142933
:102A000001D918210AE0102901D9142106E00C2966
:102A100001D9102102E0082988BF0C2184F86C102C
:102A2000B0BD000000000000B0B50446FFF7E4FEB2
:102A3000054684F8B50010B90020C4E906002068F6
:102A4000FFF7AAFE002808BFB0BD8570E1690163E9
:102A5000B0BD0000000000002DE9F04F82B0016819
:102A6000C76BD0E90DA2D1F884304FF6FC74A343B4
:102A700043EA8A03C1F88430D1F88430019223F408
:102A80007F0343EA0243C1F8843002EB0A03D1F822
:102A900088406FF38F0444EA8304C1F88840D1F87A
:102AA0008840009724F4FE0444EA0744C1F88840B3
:102AB00003EB4704D1F8A0306FF38F0343EA84039C
:102AC000C1F8A030D1F8A050D0F840B025F4FE05F0
:102AD00045EA0B45C1F8A050D0F84480D1F8B05079
:102AE0006FF38F0508FB0B4408FB0BF845EA8405E0
:102AF000C1F8B050D1F8B060856C26F4FE0646EA05
:102B00000546C1F8B060D0F84C9009FB0547D1F8F4
:102B1000AC406FF38F0409FB05F944EA8704C1F860
:102B2000AC40D0E9144606FB0472D1F8F0706FF3A4
:102B30008F0747EA8207C1F8F070D1F8F030876D4F
:102B400023F47C1343EA0743C1F8F03002EB470259
:102B5000D1F8C0306FF38F0343EA8202C1F8C0207E
:102B6000D1F8C020C36D22F47C1242EA0342C1F8BE
:102B7000C0204AF60042D1F8C0C0D0F860E0C4F2EC
:102B80000002019D02EB8A022CF07C5C06FB04FA39
:102B9000009C4CEA0E6C02EB8505C1F8C0C005EB49
:102BA000C406846E06EB8801056701EB890C63435C
:102BB0000CEB8A05C266C0E91E1C0EFB04F105EB96
:102BC000C70707EB8303C0F884704DF2FC374667F4
:102BD00003EB8101C4F20007B942C0F88050C0F88D
:102BE0008830C0F890100AD9D0F89C1041F020012C
:102BF000C0F89C10032180F8981001210CE0D0F857
:102C000090108A4207D2002142F8041BD0F890307D
:102C10009A42F9D300E00021084602B0BDE8F08FE7
:102C2000F0B5D1F804C0D1F810E0BCF1000FD1F834
:102C300008C006D00C684EEA0C05254345F0804CD0
:102C400004E00D684CEA0E0444EA854C856ED0F829
:102C50008470D1E907466B438D6944EA0660D1F878
:102C600014E0CC68054307EB830045EA0E0647F8FD
:102C700023C046EA04434360CB68002B08BFF0BD85
:102C800040F2A06C083001320023C0F6010C00BFF6
:102C9000D71857F8017CC750CF6804331CF8077069
:102CA000BB42F5D3F0BD000010B54FF0000C48B3A7
:102CB00046F2BE41C2F200410A781AB30A7841F2E4
:102CC000F463C2F20043012A98BF012204E000BF6E
:102CD000013A03F1040317D0D3F800C0BCF1000F90
:102CE000F6D0DCF8C0110029F2D081420AD0D1F828
:102CF00000E00468A645EBD1D1F8B010D0F8B040A0
:102D0000A142E5D1604610BD4FF0000C604610BDF9
:102D1000B0B54EF60001C1F6F17108688A688018F6
:102D200008BFB0BD40F2DC054C68C2F20045082285
:102D3000A91C06F089F905F112010422204606F0CB
:102D400083F9B0BD000000002DE9F041044602F017
:102D50006BFD04B3054694F8350002281ED140F2FD
:102D60000F472068C4F2020740F26F48B842C4F22D
:102D7000020817DC6F21C4F20201884223DC3F21E4
:102D8000C4F20201884239DC1021C4F202018842F7
:102D900058D0282151E00120BDE8F08180206065F5
:102DA0000120ABE240451ADC40F23F41C4F202018F
:102DB00088422ADC40F21041C4F20201884241D02C
:102DC00040F2284139E09F21C4F20201884225DC0B
:102DD0007021C4F20201884234D088212DE040F2F3
:102DE0009F41C4F2020188421FDC40F27041C4F2EC
:102DF0000201884226D040F288411EE04021C4F200
:102E0000020188421ED0582117E040F24041C4F22E
:102E10000201884216D040F258410EE0A021C4F2CF
:102E2000020188420ED0B82107E040F2B841C4F256
:102E30000201884206D040F2A041C4F20201884259
:102E400040F0EA812668316821F01E02314641F8DF
:102E5000142B6FF080020B68404502EA03020A60FF
:102E600019DC9F21C4F20201884231DC5721C4F2EF
:102E70000201884256DC1021C4F20201884200F0AF
:102E800091802821C4F20201884200F08B80402109
:102E9000C4F2020184E045F22F41C5F602018842E6
:102EA0002BDC40F2B741C4F20201884248DC40F218
:102EB0007041C4F20201884274D040F28841C4F2E9
:102EC000020188426ED040F2A041C4F2020167E0E4
:102ED00040F22741C4F20201884240DCA021C4F242
:102EE000020188425ED0B821C4F20201884259D062
:102EF00040F21041C4F2020152E045F26B41C5F6C6
:102F0000020188423CDC45F23041C5F602018842AC
:102F100048D045F24441C5F60201884242D045F20C
:102F200058413BE05821C4F2020188423AD0702156
:102F3000C4F20201884235D08821C4F202012FE098
:102F400040F2B841C4F2020188422BD045F2084158
:102F5000C5F60201884225D045F21C411EE040F230
:102F60002841C4F2020188421CD040F24041C4F220
:102F70000201884216D040F25841C4F202010FE02B
:102F800045F26C41C5F6020188420BD045F29441EE
:102F9000C5F60201884205D045F28041C5F602011E
:102FA000884269D1216EB8420A6822F480720A60B0
:102FB00010DC6F21C4F2020188421CDC3F21C4F204
:102FC0000201884232DC1021C4F20201884252D050
:102FD00028214AE040451ADC40F23F41C4F2020198
:102FE00088422ADC40F21041C4F20201884242D0F9
:102FF00040F2284139E09F21C4F20201884225DCD9
:103000007021C4F20201884235D088212DE040F2BF
:103010009F41C4F2020188421FDC40F27041C4F2B9
:103020000201884227D040F288411EE04021C4F2CC
:10303000020188421FD0582117E040F24041C4F2FB
:103040000201884217D040F258410EE0A021C4F29C
:10305000020188420FD0B82107E040F2B841C4F223
:103060000201884207D040F2A041C4F20201884226
:1030700008BF206800E02068016821F001010160BC
:103080003068C0070BD002F0CFFB401B0628F7D3F7
:1030900020206065032084F8350001202EE120689F
:1030A000B84210DC6F21C4F2020188421CDC3F21CF
:1030B000C4F20201884232DC1021C4F202018842CB
:1030C00050D028214AE040451ADC40F23F41C4F28A
:1030D000020188422ADC40F21041C4F20201884217
:1030E00040D040F2284139E09F21C4F202018842D9
:1030F00025DC7021C4F20201884233D088212DE002
:1031000040F29F41C4F2020188421FDC40F270414C
:10311000C4F20201884225D040F288411EE04021DD
:10312000C4F2020188421DD0582117E040F240410C
:10313000C4F20201884215D040F258410EE0A021AD
:10314000C4F2020188420DD0B82107E040F2B84134
:10315000C4F20201884205D040F2A041C4F202014B
:1031600088425ED1D4E9161202F01F023F2303FA0F
:1031700002F28A6040455EDC9F21C4F2020188426F
:1031800014DC5721C4F20201884226DC1021C4F26B
:103190000201884200F0A2802821C4F20201884284
:1031A00000F09C804021C4F2020195E040F22741EA
:1031B000C4F2020188421EDCA021C4F2020188424E
:1031C00000F08C80B821C4F20201884200F08680B1
:1031D00040F21041C4F202017EE05821C4F2020123
:1031E00088427BD07021C4F20201884276D08821C7
:1031F000C4F2020170E040F22841C4F202018842A8
:103200006CD040F24041C4F20201884266D040F2E4
:103210005841C4F202015FE021686FF00E020E46D1
:1032200019E6D4E9161202F01F02012303FA02F292
:103230004A604045A0DD45F22F41C5F602018842B3
:1032400016DC40F2B741C4F20201884225DC40F2AC
:103250007041C4F20201884240D040F28841C4F279
:10326000020188423AD040F2A041C4F2020133E0A8
:1032700045F26B41C5F6020188421DDC45F2304142
:10328000C5F60201884229D045F24441C5F6020143
:10329000884223D045F258411CE040F2B841C4F2C4
:1032A000020188421AD045F20841C5F6020188425F
:1032B00014D045F21C410DE045F26C41C5F6020107
:1032C00088420BD045F29441C5F60201884205D0F0
:1032D00045F28041C5F6020188420BD1616EA26EB3
:1032E000E06E4A6030B1016821F480710160D4E978
:1032F0001C014160012084F835000020002184F881
:103300003410BDE8F081000080B5D8B190F83510D8
:10331000022919D140F20F420168C4F2020291421F
:1033200016DC6F23C4F20203994226DC3F23C4F269
:10333000020399423CDC1023C4F2020399425AD0A2
:10334000282354E0012080BD80214165012080BDFB
:1033500040F26F43C4F2020399421ADC40F23F4349
:10336000C4F2020399422ADC40F21043C4F2020381
:10337000994240D040F2284339E09F23C4F202032F
:10338000994225DC7023C4F20203994233D088238A
:103390002DE040F29F43C4F2020399421FDC40F249
:1033A0007043C4F20203994225D040F288431EE0E4
:1033B0004023C4F2020399421DD0582317E040F283
:1033C0004043C4F20203994215D040F258430EE044
:1033D000A023C4F2020399420DD0B82307E040F2C3
:1033E000B843C4F20203994205D040F2A043C4F2AC
:1033F0000203994270D191424FF0040280F83520C7
:1034000010DC6F22C4F20202914220DC3F22C4F29F
:103410000202914236DC1022C4F20202914254D0E0
:1034200028224EE040F26F42C4F2020291421ADCBE
:1034300040F23F42C4F2020291422ADC40F21042C2
:10344000C4F20202914240D040F2284239E09F2269
:10345000C4F20202914225DC7022C4F202029142BF
:1034600033D088222DE040F29F42C4F20202914202
:103470001FDC40F27042C4F20202914225D040F2B9
:1034800088421EE04022C4F2020291421DD058221E
:1034900017E040F24042C4F20202914215D040F2DD
:1034A00058420EE0A022C4F2020291420DD0B8228E
:1034B00007E040F2B842C4F20202914205D040F265
:1034C000A042C4F20202914224D10068016821F0B6
:1034D00001010160002080BD0268136823F00E0323
:1034E000136045F25742C5F6020291420A6822F083
:1034F00001020A6014DC45F22F42C5F60202914235
:103500001DDC45F20842C5F6020291422CD045F27C
:103510001C4225E0086820F001000860002080BD02
:1035200045F27F42C5F60202914211DC45F2584253
:10353000C5F60202914217D045F26C4210E045F206
:103540003042C5F6020291420ED045F2444207E0F5
:1035500045F29442C5F60202914205D045F28042FE
:10356000C5F6020291421AD1D0E9181CD0E916E33F
:103570000A6822F480720A6003F01F01012202FA35
:1035800001F1CEF80410816ECCF80410C16E31B197
:103590000A6822F480720A60D0E91C124A60012194
:1035A00080F83510026D002180F834100AB1904780
:1035B0000021084680BD0000406D704700000000FB
:1035C0002DE9F04381B00021009140F22001044632
:1035D000C2F2004140F26F49A56DC4F202090868C9
:1035E00048F2B511C1F64E312668A0FB01084E45E0
:1035F0002F682A6815DC9F20C4F2020086422BDC6B
:103600005720C4F2020086424FDC1020C4F20200B0
:10361000864278D02820C4F20200864273D040202F
:103620006CE045F22F40C5F60200864227DC40F2EE
:10363000B740C4F20200864243DC40F27040C4F25C
:10364000020086425FD040F28840C4F20200864207
:1036500059D040F2A04051E040F22740C4F20200AD
:1036600086423DDCA020C4F2020086424BD0B82046
:10367000C4F20200864246D040F210403EE045F2DD
:103680006B40C5F60200864274DC45F23040C5F658
:103690000200864200F0818045F24440C5F60200F7
:1036A00086427AD045F2584072E05820C4F20200B7
:1036B000864228D07020C4F20200864223D088209F
:1036C0001CE040F2B840C4F2020086421BD045F232
:1036D0000840C5F6020086425FD045F21C4057E024
:1036E00040F22840C4F2020086420CD040F2404032
:1036F000C4F20200864206D040F25840C4F20200F2
:10370000864240F0ED84E06D00F01F01082000FAD1
:1037100001F23A4200F0148140F20F40C4F202007C
:10372000864213DC6F20C4F20200864200F38E80D2
:103730003F20C4F20200864200F3CF801020C4F282
:103740000200864200F0ED802820E5E04E4500F3BF
:10375000898040F23F40C4F20200864200F3C480F8
:1037600040F21040C4F20200864200F0DA8040F2DB
:103770002840D1E045F26C40C5F6020086420CD0EC
:1037800045F28040C5F60200864206D045F29440DC
:10379000C5F60200864240F0A3842068E16D01F086
:1037A0001F010368580727D50420884010EA020744
:1037B00022D01904686000F18780980600F18C849B
:1037C00040F20F40C4F20200864200F3AB836F2048
:1037D000C4F20200864200F3E6833F20C4F20200F6
:1037E000864200F350841020C4F20200864200F0AA
:1037F0006D84282000F066BC980742D502208840DE
:1038000010EA02073DD01904686000F10E839806A3
:1038100000F1988440F20F40C4F20200864200F3A7
:10382000AF836F20C4F20200864200F311843F2070
:10383000C4F20200864200F356841020C4F2020053
:10384000864200F07384282000F06CBC9F20C4F2F4
:103850000200864251DC7020C4F20200864260D031
:10386000882059E040F29F40C4F2020086424BDCBF
:1038700040F27040C4F20200864252D040F28840CA
:103880004AE0180740F12C8408208840104000F0DE
:10389000278440F20F40C4F20200864200F32C83DA
:1038A0006F20C4F20200864200F34F833F20C4F22F
:1038B0000200864200F393831020C4F20200864285
:1038C00000F0B1832820A9E3D80300F1B482A16CF1
:1038D000002940F00C8300F003BC4020C4F2020039
:1038E00086421ED0582017E040F24040C4F2020049
:1038F000864216D040F258400EE0A020C4F20200EA
:1039000086420ED0B82007E040F2B840C4F2020070
:10391000864206D040F2A040C4F20200864240F047
:103920008E82206804230068184209D0206803684A
:1039300023F004030360AA60606D40F0010060653D
:10394000012000FA01F23A4270D040F20F40C4F276
:103950000200864210DC6F20C4F2020086421CDCAA
:103960003F20C4F20200864232DC1020C4F2020082
:10397000864251D028204AE04E451ADC40F23F40B2
:10398000C4F2020086422ADC40F21040C4F2020077
:10399000864241D040F2284039E09F20C4F2020024
:1039A000864225DC7020C4F20200864234D0882092
:1039B0002DE040F29F40C4F2020086421FDC40F23C
:1039C0007040C4F20200864226D040F288401EE0D9
:1039D0004020C4F2020086421ED0582017E040F278
:1039E0004040C4F20200864216D040F258400EE039
:1039F000A020C4F2020086420ED0B82007E040F2B8
:103A0000B840C4F20200864206D040F2A040C4F2A0
:103A10000200864240F016822068406900F0800073
:103A200020B1AA60606D40F002006065042000FAD9
:103A300001F23A4270D040F20F40C4F202008642D6
:103A400010DC6F20C4F2020086421CDC3F20C4F26E
:103A50000200864232DC1020C4F20200864251D0BD
:103A600028204AE04E451ADC40F23F40C4F20200F2
:103A700086422ADC40F21040C4F20200864241D065
:103A800040F2284039E09F20C4F20200864225DC43
:103A90007020C4F20200864234D088202DE040F22B
:103AA0009F40C4F2020086421FDC40F27040C4F224
:103AB0000200864226D040F288401EE04020C4F238
:103AC000020086421ED0582017E040F24040C4F267
:103AD0000200864216D040F258400EE0A020C4F208
:103AE000020086420ED0B82007E040F2B840C4F28F
:103AF0000200864206D040F2A040C4F20200864294
:103B000040F0A6812068006800F0020020B1AA60A1
:103B1000606D40F004006065102000FA01F1394248
:103B20007ED040F20F40C4F20200864210DC6F20CB
:103B3000C4F2020086421CDC3F20C4F2020086422E
:103B400032DC1020C4F20200864251D028204AE024
:103B50004E451ADC40F23F40C4F2020086422ADCA5
:103B600040F21040C4F20200864241D040F22840A8
:103B700039E09F20C4F20200864225DC7020C4F2A6
:103B80000200864234D088202DE040F29F40C4F2EB
:103B9000020086421FDC40F27040C4F202008642FE
:103BA00026D040F288401EE04020C4F20200864247
:103BB0001ED0582017E040F24040C4F20200864276
:103BC00016D040F258400EE0A020C4F20200864217
:103BD0000ED0B82007E040F2B840C4F2020086429E
:103BE00006D040F2A040C4F20200864240F0368186
:103BF000266808223068104212D0A9602068016847
:103C00004903016806D4C90506D4016821F00801FA
:103C1000016001E008034FD4216C09B120468847B8
:103C2000E06D202100F01F008140394200F0AE809D
:103C300040F20F432268C4F202039A4210DC6F2361
:103C4000C4F202039A421CDC3F23C4F202039A42EC
:103C500036DC1023C4F202039A4255D028234EE0EA
:103C60004A451ADC40F23F43C4F202039A422EDC7A
:103C700040F21043C4F202039A4245D040F2284376
:103C80003DE09F23C4F202039A4229DC7023C4F270
:103C900002039A4238D0882331E040F29F43C4F2B5
:103CA00002039A4223DC40F27043C4F202039A42B8
:103CB0002AD040F2884322E0A16C0029AED1AFE7C0
:103CC0004023C4F202039A421ED0582317E040F268
:103CD0004043C4F202039A4216D040F258430EE029
:103CE000A023C4F202039A420ED0B82307E040F2A8
:103CF000B843C4F202039A4206D040F2A043C4F291
:103D000002039A4240F0AC802268102312681A42E3
:103D10003CD0A96094F835202168042A0A681DD196
:103D200022F016020A604A6922F080024A61226C7F
:103D30000AB9A26C1AB10A6822F008020A603F218F
:103D400001FA00F0A860012084F83500216D002000
:103D5000002984F8340040F0CA80C1E150030868AB
:103D60000CD4C0050ED4086820F0100008600120B3
:103D700084F83500002084F8340003E0000301D407
:103D8000616C00E0E16B09B120468847606D002856
:103D900000F0A681606DC00700F0A580042084F8C3
:103DA000350040F20F412068C4F20201884210DC65
:103DB0006F21C4F2020188421CDC3F21C4F20201DF
:103DC00088424FDC1021C4F2020188426FD02821C2
:103DD00067E048451ADC40F23F41C4F202018842E4
:103DE00047DC40F21041C4F2020188425FD040F249
:103DF000284156E09F21C4F20201884242DC702132
:103E0000C4F20201884252D088214AE040F29F4128
:103E1000C4F2020188423CDC40F27041C4F202016B
:103E2000884244D040F288413BE0D80376D4616CAC
:103E300000295CD154E1216C002958D150E10823BC
:103E4000304670E53068002000287FF4EAADEDE5EB
:103E50003068002000287FF45AAE5DE60422C9E6EF
:103E6000022353E74021C4F2020188421FD05821A7
:103E700017E040F24041C4F20201884217D040F2FC
:103E800058410EE0A021C4F2020188420FD0B821AF
:103E900007E040F2B841C4F20201884207D040F284
:103EA000A041C4F20201884208BF206800E02068F7
:103EB0004FEA9821026822F0010202600098013066
:103EC0000090884203D820680068C007F6D12068B7
:103ED0000068C0074FF0030008BF012084F83500D8
:103EE000002084F83400E16C002900F0F9802046BD
:103EF000884701B0BDE8F0834E4532DC40F23F40D8
:103F0000C4F20200864271DC40F21040C4F20200AA
:103F1000864200F0888040F228407FE0E16B002973
:103F2000E5D1DDE04E454BDC40F23F40C4F20200FB
:103F3000864200F3AF8040F21040C4F20200864295
:103F400000F0C48040F22840BCE09F20C4F2020090
:103F5000864254DC7020C4F20200864263D088207E
:103F60005CE040F29F40C4F2020086424EDC40F228
:103F70007040C4F20200864255D040F288404DE0C5
:103F80004E4571DC40F23F40C4F20200864200F32D
:103F9000B18040F21040C4F20200864200F0C680B8
:103FA00040F22840BEE09F20C4F2020086427ADC44
:103FB0007020C4F20200864200F08880882081E0F0
:103FC00040F29F40C4F20200864273DC40F270402F
:103FD000C4F20200864279D040F2884072E040206C
:103FE000C4F2020086421ED0582017E040F2404042
:103FF000C4F20200864216D040F258400EE0A020E3
:10400000C4F2020086420ED0B82007E040F2B84069
:10401000C4F20200864206D040F2A040C4F2020080
:10402000864240F0948026686FF01C023068104091
:104030003060012000FA01F16960606584F83500A4
:104040000020E16C84F8340000297FF450AF47E091
:104050009F20C4F20200864255DC7020C4F20200A8
:10406000864263D088205DE040F29F40C4F20200A7
:1040700086424FDC40F27040C4F20200864255D0C6
:1040800040F288404EE04020C4F2020086421DD03B
:10409000582017E040F24040C4F20200864215D09A
:1040A00040F258400EE0A020C4F2020086420DD03B
:1040B000B82007E040F2B840C4F20200864205D0C2
:1040C00040F2A040C4F20200864243D126686FF05D
:1040D0000801306808403060216C00297FF407AF88
:1040E00001B0BDE8F0834020C4F2020086421DD03A
:1040F000582017E040F24040C4F20200864215D03A
:1041000040F258400EE0A020C4F2020086420DD0DA
:10411000B82007E040F2B840C4F20200864205D061
:1041200040F2A040C4F20200864216D126686FF029
:104130001401306808403060012084F83500002008
:1041400084F83400E16B00297FF4D1AEC8E76FF04A
:104150000E026BE76FF00401BBE76FF00A01E8E7BE
:104160002DE9F04381B0044601F05EFB002C00F025
:10417000738140F26F4805462068C4F2020840454A
:1041800015DC9F21C4F2020188422BDC5721C4F2C6
:104190000201884251DC1021C4F2020188427AD027
:1041A0002821C4F20201884275D040216EE045F218
:1041B0002F41C5F60201884227DC40F2B741C4F224
:1041C0000201884245DC40F27041C4F2020188429B
:1041D00061D040F28841C4F2020188425BD040F2D3
:1041E000A04153E040F22741C4F2020188423FDC83
:1041F000A021C4F2020188424DD0B821C4F20201CC
:10420000884248D040F2104140E045F26B41C5F68B
:104210000201884200F3908045F23041C5F6020168
:10422000884200F09C8045F24441C5F60201884274
:1042300000F0958045F258418CE05821C4F202010B
:10424000884228D07021C4F20201884223D08821FC
:104250001CE040F2B841C4F2020188421BD045F292
:104260000841C5F60201884279D045F21C4171E04F
:1042700040F22841C4F2020188420CD040F2404191
:10428000C4F20201884206D040F25841C4F2020151
:10429000884240F0118240F20F420221C4F2020231
:1042A00084F8351090424FF0000184F8341012DC8D
:1042B0006F21C4F20201884220DC3F21C4F20201D6
:1042C000884200F391801021C4F20201884200F07C
:1042D000B0802821A7E040451EDC40F23F41C4F2F7
:1042E0000201884200F3878040F21041C4F20201CB
:1042F000884200F09E8040F2284194E09F21C4F261
:104300000201884200F380807021C4F202018842D9
:1043100000F08F80882186E040F29F41C4F20201C4
:10432000884278DC40F27041C4F20201884200F019
:10433000808040F2884176E045F26C41C5F602018A
:1043400088420CD045F28041C5F60201884206D071
:1043500045F29441C5F60201884240F0AD8104F176
:10436000080E022084F8350000209EE80640A1F1E6
:10437000800384F83400B3FA83F320685B09402992
:10438000D4E90579D4E9076C05684FEA83336FF304
:10439000101508BF102345EAD2014AF6F832194336
:1043A000CAF2FD7241EADE014CF6CD4341EAD70183
:1043B000024441EAD901CCF6CC4341EAD601A2FB42
:1043C000032341EA1C1101606FF0030000EA93002F
:1043D000E0652046FDF7E4FAE16D012201F01F01DE
:1043E00002FA01F141609BE04021C4F202018842DF
:1043F0001FD0582117E040F24041C4F20201884228
:1044000017D040F258410EE0A021C4F202018842C8
:104410000FD0B82107E040F2B841C4F2020188424F
:1044200007D040F2A041C4F20201884208BF2068D0
:1044300000E02068016821F0010101602768386808
:10444000C0070DD001F0F0F9401B0628F6D320205C
:104450006065032084F83500012001B0BDE8F083D9
:1044600048F23F0104F108053868CFF610610840B2
:104470002ECD0843A1691043E2691843236A05431E
:10448000606A2943042841EA020141EA030103D199
:10449000D4E90B231143194341F20002C5F600424F
:1044A0001268B2F1005F17D36268A2F12903202BD2
:1044B00006D23F25CCF2C03525FA03F3DB0706D13F
:1044C000A2F14F030022042B38BF012200E0012299
:1044D000002A18BF41F4801139600428796921F05D
:1044E000070141EA000510D1D4E90A1045EA0105A7
:1044F00058B12046FDF7B4FB38B14020606501207B
:1045000084F8350001B0BDE8F08320467D61FDF7F9
:1045100047FAE16D3F2201F01F0102FA01F18160CB
:104520002068404519DC9F21C4F20201884231DC39
:104530005721C4F20201884256DC1021C4F2020164
:10454000884200F091802821C4F20201884200F0E4
:104550008B804021C4F2020184E045F22F41C5F670
:10456000020188422BDC40F2B741C4F202018842CA
:1045700048DC40F27041C4F20201884274D040F23B
:104580008841C4F2020188426ED040F2A041C4F2D8
:10459000020167E040F22741C4F20201884240DC98
:1045A000A021C4F2020188425ED0B821C4F2020107
:1045B000884259D040F21041C4F2020152E045F263
:1045C0006B41C5F6020188423CDC45F23041C5F63C
:1045D0000201884248D045F24441C5F602018842B2
:1045E00042D045F258413BE05821C4F202018842D2
:1045F0003AD07021C4F20201884235D08821C4F239
:1046000002012FE040F2B841C4F2020188422BD0EF
:1046100045F20841C5F60201884225D045F21C4109
:104620001EE040F22841C4F2020188421CD040F250
:104630004041C4F20201884216D040F25841C4F20F
:1046400002010FE045F26C41C5F6020188420BD031
:1046500045F29441C5F60201884205D045F28041F9
:10466000C5F6020188421FD12046FDF729FAA0684D
:10467000802801D10020606004F160036068C7B247
:1046800001380ECB07280F60536009D82046FDF78C
:104690008FFA04F16C02002307CA03604A6003E04A
:1046A00000206067C4E91B0000206065012184F8D8
:1046B000351001B0BDE8F0834020C9E600000000DD
:1046C000F0B581B0A8B3044690F83400012802D1B7
:1046D000022001B0F0BD012084F8340094F83500C8
:1046E000012820D1022084F835000020606540F2C6
:1046F0000F462068C4F2020640F26F47B042C4F28F
:10470000020719DC6F25C4F20205A84225DC3F250B
:10471000C4F20205A8423BDC1025C4F20205A842FF
:104720005BD0282553E04FF400606065002084F8DA
:104730003400012001B0F0BDB8421ADC40F23F4520
:10474000C4F20205A8422ADC40F21045C4F2020578
:10475000A84242D040F2284539E09F25C4F2020524
:10476000A84225DC7025C4F20205A84235D0882570
:104770002DE040F29F45C4F20205A8421FDC40F242
:104780007045C4F20205A84227D040F288451EE0D9
:104790004025C4F20205A8421FD0582517E040F278
:1047A0004045C4F20205A84217D040F258450EE039
:1047B000A025C4F20205A8420FD0B82507E040F2B8
:1047C000B845C4F20205A84207D040F2A045C4F2A1
:1047D0000205A84208BF206800E02068056825F0AF
:1047E000010505602046FDF763FA2068B04210DC41
:1047F0006F21C4F2020188421CDC3F21C4F2020195
:10480000884232DC1021C4F20201884251D02821B2
:104810004AE0B8421ADC40F23F41C4F20201884249
:104820002ADC40F21041C4F20201884241D040F239
:10483000284139E09F21C4F20201884225DC702121
:10484000C4F20201884234D088212DE040F29F4119
:10485000C4F2020188421FDC40F27041C4F202013E
:10486000884226D040F288411EE04021C4F2020175
:1048700088421ED0582117E040F24041C4F20201A4
:10488000884216D040F258410EE0A021C4F2020145
:1048900088420ED0B82107E040F2B841C4F20201CC
:1048A000884206D040F2A041C4F20201884240F0A2
:1048B000298121680B25226C0B6865F344030B608A
:1048C0001AB10A6842F008020A60B84219DC9F2156
:1048D000C4F20201884231DC5721C4F2020188424D
:1048E00056DC1021C4F20201884200F09180282198
:1048F000C4F20201884200F08B804021C4F2020120
:1049000084E045F22F41C5F6020188422BDC40F2DB
:10491000B741C4F20201884248DC40F27041C4F25F
:104920000201884274D040F28841C4F202018842F8
:104930006ED040F2A041C4F2020167E040F227418C
:10494000C4F20201884240DCA021C4F20201884284
:104950005ED0B821C4F20201884259D040F2104121
:10496000C4F2020152E045F26B41C5F602018842F1
:104970003CDC45F23041C5F60201884248D045F2A0
:104980004441C5F60201884242D045F258413BE01D
:104990005821C4F2020188423AD07021C4F20201C7
:1049A000884235D08821C4F202012FE040F2B8419C
:1049B000C4F2020188422BD045F20841C5F602013B
:1049C000884225D045F21C411EE040F22841C4F245
:1049D000020188421CD040F24041C4F202018842E8
:1049E00016D040F25841C4F202010FE045F26C418A
:1049F000C5F6020188420BD045F29441C5F602018A
:104A0000884205D045F28041C5F60201884272D144
:104A1000216E0A68D20303D50A6842F480720A60E4
:104A2000E16E19B10A6842F480720A60B04210DC8B
:104A30006F21C4F2020188421CDC3F21C4F2020152
:104A4000884232DC1021C4F20201884252D028216F
:104A50004AE0B8421ADC40F23F41C4F20201884207
:104A60002ADC40F21041C4F20201884242D040F2F6
:104A7000284139E09F21C4F20201884225DC7021DF
:104A8000C4F20201884235D088212DE040F29F41D6
:104A9000C4F2020188421FDC40F27041C4F20201FC
:104AA000884227D040F288411EE04021C4F2020132
:104AB00088421FD0582117E040F24041C4F2020161
:104AC000884217D040F258410EE0A021C4F2020102
:104AD00088420FD0B82107E040F2B841C4F2020189
:104AE000884207D040F2A041C4F20201884208BFC8
:104AF000206800E02068016841F0010101600020A9
:104B000001B0F0BD21680525226C0B68002A65F311
:104B100043030B603FF4D9AE0A6842F00402D3E6C7
:104B2000B0B5044600F080FE40F221110546C2F205
:104B30000041621C097818BF0C4400BF00F074FEED
:104B4000401BA042FAD3B0BD90F89830013B012B36
:104B50000BD80068836D0B420CD0836D0B408B42E9
:104B60000CD1C36D43F0020309E000F19C01012068
:104B7000022221E0C36D43F0010300E00323C3657B
:104B80008B0504D5D0F8E0301343C0F8E0304B0576
:104B900004D5D0F8E4301A43C0F8E4204FF6FF7291
:104BA000436DC3F6CF720A401A4342658A0F4AF634
:104BB00014010020C4F200010B681A430A60704718
:104BC000B0B5044690F8980002281AD12068D0F8B1
:104BD000C03013F07C5F19D0D0F8C4309B021AD4D7
:104BE000D0F8C400C0F3044520462B46FEF718F861
:104BF00020680121A940C0F8D0100020C4F894100A
:104C0000B0BDD4F89C0040F0080008E0D4F89C0047
:104C100040F0200003E0D4F89C0040F40070C4F899
:104C20009C000120B0BD00007047000000000000A3
:104C300080B590F89820013A012A0AD80A68002A1B
:104C4000CA680ED00B69072A43EA427E16D18B69E7
:104C500019E0D0F89C1041F00201C0F89C1001202E
:104C600080BD072A18D10A69D1F81CC012048B69CB
:104C700042EA0C221A4342F0605217E0D1F808C011
:104C80004B6943EA8C73006F496800EBC10240F83E
:104C900031E00020536080BD8B68D1F810C09B07C5
:104CA00043EAC2624B6942EA0C421A434968C06E49
:104CB00040F82120002080BD90F898C0BCF1010F81
:104CC0000DD19200006842EA0111DDF800C041EA0E
:104CD000430141EA0C01C0F8801000207047D0F871
:104CE0009C1041F00401C0F89C10012070470000A6
:104CF0007047000000000000704700000000000046
:104D0000B422402908BFA4220068805800F07F0028
:104D1000704700000000000070B590F89850022D18
:104D200011D1402914D10468D4F8A05015F4FE0F15
:104D30002BD0D4F8A4506D062CD0D4F8A450ED019B
:104D400030D4002531E0D0F89C1041F0080125E076
:104D500041290FD10468D4F8B05015F4FE0F14D0D7
:104D6000D4F8B4506D0615D0D4F8B450ED0126D463
:104D7000002527E0056D8D4207D900F17C04D0F8AD
:104D800054E04FF0000C0D4626E0D0F89C1041F0A6
:104D9000200103E0D0F89C1041F48071C0F89C1011
:104DA000012070BDD4F8A050ED0FD4F8A440C4F396
:104DB000052404EB050E00F17404456C0BE0D4F8F7
:104DC000B050ED0FD4F8B440C4F3052404EB050E45
:104DD00000F17804C56CF44605FB0EF6246854F81F
:104DE000265015F08045556054F826E02EF06045B9
:104DF00008BFCEF38A4504EB860E156054F82650A2
:104E000005F00055956054F8264004F00044146104
:104E1000BEF80440D461BEF8064014F00F04D4601C
:104E2000DEF8044004F480145461DEF8044004F415
:104E3000001494619EF8074004F07F041462DEF8C9
:104E400004404FEAD47454620ED00EF1080540F2CB
:104E5000A06E0024C0F6010E2E5D1E550134D668EA
:104E60001EF80660B442F7D3402904D10068C0F8A8
:104E7000A8C0002070BD412904D10068C0F8B8C0A6
:104E8000002070BD1F2907D80068012202FA01F135
:104E9000C0F89810002070BD006801F01F010122C9
:104EA00002FA01F1C0F89C10002070BD0000000063
:104EB0000068D0F8C40000F03F0070470000000018
:104EC00070470000000000002DE9F04F87B0044655
:104ED0004AF61000C4F2000001684AF61400C4F259
:104EE00000000268206802EA010A056DD0F85490BB
:104EF000076DD0F85480036D0293436D0193036DE9
:104F00000693436D0593036D0493436D0393436DC3
:104F1000066D06EA030B5FEACB530BD54FF48071A5
:104F200001654AF610010020C4F200010860204625
:104F3000FFF7C6FF05EA09064AF610095FEA4B507B
:104F4000C4F200094FEA8A750ED52068D0F8DC104B
:104F5000D0F8E42011404FF4806202650020C9F8C7
:104F60000000204600F070FB08EA070806F47046CF
:104F700055B12068002101650AF00300C9F800005E
:104F800020462946FFF750FEDDE9011000EA01073F
:104F900008F00F0546B12068314606650020C9F8C3
:104FA0000000204600F058FB07F0F00645B12068ED
:104FB000294605650020C9F80000204600F0B8FA2F
:104FC00046B12068314606650020C9F80000204639
:104FD00000F0BAFA5FEA0B5000F1BF805FEA8B5035
:104FE00000F1C9805FEA0B3000F1D8805FEACB3076
:104FF00009D520684FF4803101650020C9F8000010
:10500000204600F01DFB5FEA4B30DDE9031000EAAB
:10501000010509D520684FF4802101650020C9F8F9
:105020000000204600F008FB5FEA8B30DDE9051048
:1050300000EA010005F060710CD522684FF40033DE
:1050400013650022C9F80020D4F89C2042F08002A9
:10505000C4F89C2000F0715539B12068016500202A
:10506000C9F800002046FFF747FE4DB120680565EE
:105070000020C9F80000D4F89C002843C4F89C0024
:105080002068A9F5016188425ED16068816889075E
:105090005AD0016A426A036A476A114003EA07026A
:1050A00002F03005D0F82080D0F82490026A0492F3
:1050B00011F00F01D0F824B0026A0692426A0592FC
:1050C000466AD0F820A003D00162204600F0A8FA7A
:1050D00008EA09072DB1606829460562204600F0FC
:1050E000A7FA06EA0A0007F4C0754006049800EA29
:1050F0000B060AD560684023C16BC26B090C02F035
:105100003F020362204600F08FFADDE9051000EA55
:10511000010706F4FC462DB1606829460562204669
:1051200000F07AFA07F4F02036B161680E62D4F824
:105130009C103143C4F89C1030B161680862D4F807
:105140009C100843C4F89C00D4F89C0010B1204681
:10515000FFF7CEFD07B0BDE8F08F20684FF4006187
:1051600001650020C9F80000204600F079FA5FEAE6
:105170008B507FF537AF2068D0F8D810D0F8E020FA
:1051800011404FF4007202650020C9F8000020466B
:1051900000F05EFA5FEA0B307FF528AF20684FF42D
:1051A000002101650020C9F80000204600F0BCF98C
:1051B0005FEACB303FF51DAF25E70000000000009F
:1051C0002DE9F04130B34AF200080446C4F2000869
:1051D0000068404502D108F58070606094F898003E
:1051E00028B9002084F89900204600F0F5F82068DE
:1051F000816921F01001816100F016FB054600BFB6
:1052000020688169090708D500F00EFB401B0B28B8
:10521000F6D312E00120BDE8F081816941F001017F
:10522000816100F001FB054620688169C90710D142
:1052300000F0FAFA401B0B28F6D3D4F89C0040F09B
:105240000100C4F89C00032084F898000120BDE808
:10525000F081816941F002018161217C826922F043
:105260004002012918BF40328261617C826922F4C8
:105270008042012908BF02F580428261A17C8269D7
:1052800022F48052012918BF02F58052826181699F
:1052900021F44073D4E902120B438361836923F044
:1052A000A4038361036923F010030361AAB1022AF6
:1052B0000FD0012A03D1826942F004020CE0836915
:1052C000032A43F080038361036943F01002026103
:1052D00003D1826942F020028261D4E90552E36978
:1052E000561E6FF0FF02276A02EB0323013F43EAD9
:1052F0004663B1F5407F47EA030740F20003CFF66B
:10530000FF7303EB054647EA0601C16110D1D4E9FA
:105310000B65D4E90917013F02EB06226FF00F0677
:105320003A4306EB05173A4303EB01411143C160D1
:10533000216E29B1626ED0F8C0301A43C0F8C02087
:10534000E26DCA4240F26C41C0F6010109D0D0F8CA
:10535000C820A36E22F0070251F823301A43C0F888
:10536000C820226C4AB1D0F8BC20636C22F007023E
:1053700051F823301A43C0F8BC20A26C52B1D0F8C7
:10538000BC20E36C22F0700251F8233042EA031291
:10539000C0F8BC20226D52B1D0F8BC20636D22F45D
:1053A000E06251F8231042EA0121C0F8BC104045E8
:1053B00004D16068816821F0030181600020C4F895
:1053C0009400C4F89C00012084F898002046FDF762
:1053D00043FBBDE8F0810000B0B5B8B0044602A8B8
:1053E000C0210025CDE93655CDE934553395FBF77D
:1053F0004AF94AF200412068C4F2000188423FD0D5
:105400004AF20001C4F20001884240F08A80002084
:1054100003904FF4004002904FF080501E9002A87D
:1054200001F0AEFA08B1FCF7FBFF40F2B41144F210
:10543000E040C2F20041C5F602000A68002A02F10B
:1054400001020A6008D1C16841F48071C160C1687D
:1054500001F48071019101990168152441F008015E
:105460000160006840F2004100F008000190C5F6BC
:10547000020101980320339001F50060132535E007
:105480004FF4004002904FF080501E9002A8039508
:1054900001F076FA08B1FCF7C3FF40F2B41144F210
:1054A000E040C2F20041C5F602000A68002A02F19B
:1054B00001020A6008D1C16841F48071C160C1680D
:1054C00001F48071019101990168162441F00201F3
:1054D00001600068142500F00200019001984FF46B
:1054E0004050339040F20040C5F602000221349152
:1054F00000213591032136910921379133A900F01C
:10550000B3F805210022284600F09AFA284600F058
:1055100093FA05210022204600F092FA204600F07E
:105520008BFA38B0B0BD00007047000000000000EA
:10553000C90708BF704780B54021FDF771F8BDE885
:105540008040704700000000C90658BF704780B512
:105550004121FDF765F8BDE880407047000000007C
:1055600090F8981001290CD1022180F89810016858
:105570008A6922F001028A610021C0F89C10084665
:105580007047D0F89C1041F00401C0F89C10012035
:10559000704700000000000090F89810022928D100
:1055A00001688A6942F001028A618A69D20706D1DC
:1055B000342200BF013A24D08B69DB07FAD08A6914
:1055C00022F010028A618A69120706D5342200BFD0
:1055D000013A16D08B691B07FAD48A6942F002029D
:1055E0008A610021C0F89410012280F898200846B2
:1055F0007047D0F89C1041F00801C0F89C100120C1
:105600007047D0F89C1041F00101C0F89C100321B4
:1056100080F89810012070477047000000000000DB
:10562000704700000000000070470000000000000C
:1056300070470000000000007047000000000000FC
:1056400070470000000000007047000000000000EC
:1056500070470000000000007047000000000000DC
:1056600070470000000000002DE9F04F83B00C6887
:10567000002C00F0C68000F1264242F2004702F101
:10568000FF72C5F602074FEAB22201920A22B8421F
:1056900008BF0922002500274FF0010A009209E007
:1056A0000C68043734FA0AF20AF1010A05F102051E
:1056B00000F0A780AAF10109012202FA09FE14EA0A
:1056C0000E08EDD0D1F804B00BF00304A4F1010CE6
:1056D000BCF1010F11D803228668AA40CB6826EAE4
:1056E0000202AB401A438260CBF30013426822EA05
:1056F0000E0203FA09F31A434260032C1ED003235F
:10570000C268AB40022C22EA03028B6803FA05F35D
:1057100042EA0302C26011D16FF0030207F01C06D7
:1057200002EA59020F23024403FA06F4D2F820C019
:105730000B692CEA0404B340234313620323026879
:10574000AB404E689A4306F00303AB4016F4403F6B
:1057500042EA03020260A3D044F2F44340F2084E4E
:10576000C5F60203C5F6000E1A6842F002021A607E
:105770001A6807F00C0302F002020292029A29F062
:105780000302019C009E092C38BF26460F2452F8C4
:105790000EC09C402CEA040406FA03F34FF0B04C10
:1057A000234342F80E30DCF800204B6842EA08063A
:1057B000DC0258BF22EA08069C02CCF8006040F2E6
:1057C000040CC5F6000CDCF8002042EA080658BFBD
:1057D00022EA08069C03CCF80060DCF8802042EA4C
:1057E000080658BF22EA0806DB03CCF88060DCF824
:1057F0007C2042EA080658BF22EA0806CCF87C6002
:105800004EE703B0BDE8F08F002A08BF09048161AC
:10581000704700000000000041F20000C5F60040A3
:105820000068000C704700004FF2A030C2F2004048
:10583000006870470000000040F221104FF2A031D4
:10584000C2F20040C2F2004100780A6810440860C9
:10585000704700000000000080B5032000F000F950
:1058600001F03EFF44F2184140F20063C5F6020128
:10587000C0F601030A68096801F00F01C2F30322B0
:10588000595C9A5C01F01F0102F01F02D04040F207
:105890002402C2F2004220FA01F1116040F220011C
:1058A000C2F2004108600F2000F00AF800281CBF77
:1058B000012080BD00F0A8F8002080BD000000009D
:1058C000B0B58AB00F2842D80446372000222146BE
:1058D000002500F0B5F8372000F0AEF840F22410B3
:1058E000C2F20040046044F2E840C5F602000168DC
:1058F00041F020010160006801A900F02000029041
:10590000029802A801F070FE079C002C18BF012429
:1059100001F0BEFE4DF68361A040C4F21B3141F29E
:105920000042A0FB010146F24830C2F200404FF0B5
:10593000FF33C4F20002026003EB9141C0E901159C
:1059400040F2E731C0E9031502F0EEFD10B101208D
:105950000AB0B0BD46F24830C2F2004002F018FE74
:105960000AB0B0BD0000000010B54EF6A05E417850
:10597000CEF2000E90F800C04EF8081CDEF80010C1
:1059800021F00101CEF8001041684EF8041C017BA3
:10599000C37A827A447B1B0643EA0171837B41EA26
:1059A000C241C27B41EA8441447A41EA4341007AE0
:1059B00041EA024141EA042141EA400040EA0C0088
:1059C000CEF8000010BD00004EF62450CEF20000CC
:1059D000BFF35F8F016821F480310160002101670E
:1059E00070470000000000004EF6245140F0010016
:1059F000CEF200010867086840F480300860BFF309
:105A00004F8FBFF36F8F704780B582B044F2F44080
:105A10000022C5F60200016841F002010160006841
:105A20000F2100F00200019001986FF0010000F0DA
:105A300007F802B080BD000080B507F01DFC80BDF6
:105A400070B514460D46064607F026FC2946224648
:105A500003F0A2FE0146304607F02EFC70BD0000A8
:105A600080B507F03DFC80BD01680122C0F8D82454
:105A7000002280F8CC24886940F000608861486D7D
:105A800040F08052002042F003024A657047000057
:105A9000704700000000000002680020516270475B
:105AA00010B5D0F800C0DCF82400D9B1DCF82830FB
:105AB000B1F1010E00EB13430CD00021002000BF18
:105AC0000CEB81010130D1F80441C1B28E4503EBEA
:105AD0001443F5D80CEB8E0043EA0241C0F80411E0
