:020000040800F2
:100000001808002439030008D12B0008092A000829
:10001000C92B000839050008513000080000000015
:10002000000000000000000000000000512E000849
:100030003106000800000000092C0008892E000885
:100040005703000857030008570300085703000828
:100050005703000857030008570300085703000818
:100060005703000857030008570300085703000808
:1000700057030008570300085703000857030008F8
:1000800057030008570300085703000869060008D3
:100090008906000879060008990600085703000839
:1000A00057030008570300085703000857030008C8
:1000B00057030008570300085703000857030008B8
:1000C00057030008570300085703000857030008A8
:1000D0005703000857030008570300085703000898
:1000E00057030008570300080000000057030008EA
:1000F0005703000857030008570300085703000878
:100100005703000857030008570300085703000867
:100110005703000857030008570300085703000857
:100120005703000857030008570300085703000847
:100130005703000857030008570300085703000837
:1001400000000000000000000000000000000000AF
:100150005703000857030008570300085703000817
:100160005703000857030008570300085703000807
:100170005703000857030008570300080000000059
:1001800057030008570300085703000857030008E7
:1001900057030008570300085703000857030008D7
:1001A00057030008570300085703000857030008C7
:1001B00057030008570300085703000857030008B7
:1001C00057030008570300085703000857030008A7
:1001D0005703000857030008570300085703000897
:1001E0005703000857030008570300085703000887
:1001F0005703000857030008570300085703000877
:100200005703000857030008570300085703000866
:100210005703000857030008570300085703000856
:1002200057030008570300085703000800000000A8
:100230005703000857030008000000005703000898
:100240005703000857030008570300085703000826
:100250005703000857030008570300085703000816
:100260005703000857030008570300085703000806
:100270005703000857030008570300080000000058
:100280005703000857030008570300080000000048
:10029000000000005703000800F002F800F03CF8EE
:1002A0000AA090E8000C82448344AAF10107DA45D1
:1002B00001D100F031F8AFF2090EBAE80F0013F0E7
:1002C000010F18BFFB1A43F001031847C02E0000AE
:1002D000E02E0000103A24BF78C878C1FAD852073F
:1002E00024BF30C830C144BF04680C6070470000B0
:1002F0000023002400250026103A28BF78C1FBD82F
:10030000520728BF30C148BF0B6070471FB502F0CD
:10031000FAFE1FBD10B510BD00F0D9F81146FFF769
:10032000F5FF02F0D5FE00F0F7F803B4FFF7F2FF97
:1003300003BC00F0FBF800000A4880470A488047E9
:100340000A480047FEE7FEE7FEE7FEE7FEE7FEE7B6
:10035000FEE7FEE7FEE7FEE705480649064A074BCB
:100360007047000049060008512F00089902000854
:10037000180200241808002418040024180400247B
:10038000032A40F2308010F0030C00F0158011F8C1
:10039000013BBCF1020F624498BF11F801CB00F899
:1003A000013B38BF11F8013BA2F1040298BF00F8ED
:1003B00001CB38BF00F8013B11F0030300F04F8080
:1003C000083AC0F0088051F8043B083A51F804CBD1
:1003D000A0E80810F5E7121D5CBF51F8043B40F897
:1003E000043BAFF30080D20724BF11F8013B11F8A2
:1003F00001CB48BF11F8012B24BF00F8013B00F8E6
:1004000001CB48BF00F8012B70474FF0000200B548
:10041000134694469646203922BFA0E80C50A0E827
:100420000C50B1F12001BFF4F7AF090728BFA0E8D5
:100430000C5048BF0CC05DF804EB890028BF40F8A1
:10044000042B08BF704748BF20F8022B11F0804FE3
:1004500018BF00F8012B704770477047704710B500
:10046000203AC0F00B80B1E81850A0E81850B1E86D
:100470001850A0E81850203ABFF4F5AF5FEA027CAC
:1004800024BFB1E81850A0E8185044BF18C918C0DC
:10049000BDE810405FEA827C24BF51F8043B40F87D
:1004A000043B08BF7047D20728BF31F8023B48BF62
:1004B00011F8012B28BF20F8023B48BF00F8012BA0
:1004C00070470000004870471000002470477546D0
:1004D000FFF7F8FFAE4605006946534620F00700D7
:1004E000854618B020B5FFF737FFBDE820404FF034
:1004F00000064FF000074FF000084FF0000BAC462D
:10050000ACE8C009ACE8C009ACE8C009ACE8C00977
:1005100021F007018D46704710B50446AFF3008007
:100520002046BDE81040FFF700BF00000149182039
:10053000ABBEFEE726000200FEE700000000000060
:10054000C0F3034001A1085C704700BF0001020333
:1005500004050607080C10141820304000000000A5
:1005600081B040F28400C2F20040017809B101B0CC
:10057000704741F2040C0122CEF2000C0270DCF84C
:100580000020009240F27C02009BC2F200421168FF
:100590008B4206D240F28001C2F200410B68013367
:1005A0000B60DCF8001011600021017001B0704791
:1005B00080B54EF6FC51CEF200010A6842F080721E
:1005C0000A6041F200010022CEF200014A600B688D
:1005D00043F001030B6044F24021C0F20F01484395
:1005E00040F27001C2F20041086044F6D351C1F2FA
:1005F0006201A0FB01134DF68361C4F21B31A0FB25
:10060000010140F27400C2F200409B090360880CB3
:1006100040F27801C2F20041086040F28000C2F26C
:1006200000400260FFF79CFF80BD0000000000005A
:100630007047000000000000EFF3108072B600BFAA
:10064000FEE700000000000044F60C00C5F60200C2
:10065000016841F00201016050F8081C8904FBD5D3
:10066000704700000000000080B540F2CC00C2F2EC
:10067000004000F04DFA80BD80B540F2CC00C2F2DF
:10068000004000F045FA80BD80B540F26C10C2F227
:10069000004000F03DFA80BD80B540F26C10C2F21F
:1006A000004000F035FA80BD2DE9F04F9BB00C46BC
:1006B000054600F051F9002844D040F20C2B40F2DE
:1006C0008C0A0DF144080DF10409C2F2004BC2F28C
:1006D000004A04E02846214600F03EF990B328463F
:1006E000214642464B4600F043F958BB1498FFF7A9
:1006F00027FF9BF800100029ECD002469BF8000071
:1007000011995346012898BF012003E0013803F1F5
:100710000403DFD01E683768AF42F7D1D6F8AD705A
:10072000B942F3D1D6F8B3000028D3D006F16D005A
:10073000494686F8B120FFF723FED6F8B3103046BD
:100740008847C7E71BB0BDE8F08F0000000000003D
:100750002DE9F04F82B00168C76BD0E90DA2D1F846
:1007600084304FF6FC74A34343EA8A03C1F8843013
:10077000D1F88430019223F47F0343EA0243C1F8A5
:10078000843002EB0A03D1F888406FF38F0444EA07
:100790008304C1F88840D1F88840009724F4FE040F
:1007A00044EA0744C1F8884003EB4704D1F8A0307D
:1007B0006FF38F0343EA8403C1F8A030D1F8A0504F
:1007C000D0F840B025F4FE0545EA0B45C1F8A0502D
:1007D000D0F84480D1F8B0506FF38F0508FB0B447C
:1007E00008FB0BF845EA8405C1F8B050D1F8B060B9
:1007F000856C26F4FE0646EA0546C1F8B060D0F8DE
:100800004C9009FB0547D1F8AC406FF38F0409FB0E
:1008100005F944EA8704C1F8AC40D0E9144606FB68
:100820000472D1F8F0706FF38F0747EA8207C1F8BE
:10083000F070D1F8F030876D23F47C1343EA07435E
:10084000C1F8F03002EB4702D1F8C0306FF38F03EC
:1008500043EA8202C1F8C020D1F8C020C36D22F45F
:100860007C1242EA0342C1F8C0204AF60042D1F8A5
:10087000C0C0D0F860E0C4F20002019D02EB8A0221
:100880002CF07C5C06FB04FA009C4CEA0E6C02EB3C
:100890008505C1F8C0C005EBC406846E06EB88016F
:1008A000056701EB890C63430CEB8A05C266C0E95E
:1008B0001E1C0EFB04F105EBC70707EB8303C0F812
:1008C00084704DF2FC37466703EB8101C4F20007E8
:1008D000B942C0F88050C0F88830C0F890100AD9EA
:1008E000D0F89C1041F02001C0F89C10032180F842
:1008F000981001210CE0D0F890108A4207D2002114
:1009000042F8041BD0F890309A42F9D300E000215D
:10091000084602B0BDE8F08FB0B5044600F054FDC3
:1009200040F208010546C2F20041621C097818BF76
:100930000C4400BF00F048FD401BA042FAD3B0BDFC
:100940007047000000000000704700000000000039
:100950007047000000000000B422402908BFA42214
:100960000068805800F07F00704700000000000021
:1009700070B590F89850022D11D1402914D1046817
:10098000D4F8A05015F4FE0F2BD0D4F8A4506D0667
:100990002CD0D4F8A450ED0130D4002531E0D0F8AB
:1009A0009C1041F0080125E041290FD10468D4F8DA
:1009B000B05015F4FE0F14D0D4F8B4506D0615D015
:1009C000D4F8B450ED0126D4002527E0056D8D4202
:1009D00007D900F17C04D0F854E04FF0000C0D462C
:1009E00026E0D0F89C1041F0200103E0D0F89C10E4
:1009F00041F48071C0F89C10012070BDD4F8A05063
:100A0000ED0FD4F8A440C4F3052404EB050E00F167
:100A10007404456C0BE0D4F8B050ED0FD4F8B4403A
:100A2000C4F3052404EB050E00F17804C56CF4460C
:100A300005FB0EF6246854F8265015F080455560E5
:100A400054F826E02EF0604508BFCEF38A4504EB4B
:100A5000860E156054F8265005F00055956054F840
:100A6000264004F000441461BEF80440D461BEF88E
:100A7000064014F00F04D460DEF8044004F480143F
:100A80005461DEF8044004F4001494619EF80740B9
:100A900004F07F041462DEF804404FEAD474546218
:100AA0000ED00EF1080543F27C1E0024C0F6000EA5
:100AB0002E5D1E550134D6681EF80660B442F7D389
:100AC000402904D10068C0F8A8C0002070BD4129A9
:100AD00004D10068C0F8B8C0002070BD1F2907D835
:100AE0000068012202FA01F1C0F89810002070BDE0
:100AF000006801F01F01012202FA01F1C0F89C1008
:100B0000002070BD000000007047000000000000E1
:100B10002DE9F04F87B004464AF61000C4F20000F9
:100B200001684AF61400C4F200000268206802EA74
:100B3000010A056DD0F85490076DD0F85480036D0C
:100B40000293436D0193036D0693436D0593036D0B
:100B50000493436D0393436D066D06EA030B5FEA4E
:100B6000CB530BD54FF4807101654AF6100100207C
:100B7000C4F2000108602046FFF7C6FF05EA090637
:100B80004AF610095FEA4B50C4F200094FEA8A7531
:100B90000ED52068D0F8DC10D0F8E42011404FF4D6
:100BA000806202650020C9F80000204600F014FBB6
:100BB00008EA070806F4704655B12068002101656F
:100BC0000AF00300C9F8000020462946FFF7B8FEE6
:100BD000DDE9011000EA010708F00F0546B12068C1
:100BE000314606650020C9F80000204600F0FCFAF6
:100BF00007F0F00645B12068294605650020C9F8D0
:100C00000000204600F0B8FA46B12068314606657B
:100C10000020C9F80000204600F0BAFA5FEA0B5045
:100C200000F1BF805FEA8B5000F1C9805FEA0B30B2
:100C300000F1D8805FEACB3009D520684FF48031CD
:100C400001650020C9F80000204600F0C1FA5FEA03
:100C50004B30DDE9031000EA010509D520684FF4A7
:100C6000802101650020C9F80000204600F0ACFAA0
:100C70005FEA8B30DDE9051000EA010005F06071E4
:100C80000CD522684FF4003313650022C9F8002008
:100C9000D4F89C2042F08002C4F89C2000F07155EA
:100CA00039B1206801650020C9F800002046FFF72F
:100CB0004FFE4DB1206805650020C9F80000D4F84A
:100CC0009C002843C4F89C002068A9F50161884273
:100CD0005ED16068816889075AD0016A426A036AF6
:100CE000476A114003EA070202F03005D0F820807D
:100CF000D0F82490026A049211F00F01D0F824B0C9
:100D0000026A0692426A0592466AD0F820A003D091
:100D10000162204600F04CFA08EA09072DB160682C
:100D200029460562204600F04BFA06EA0A0007F45D
:100D3000C0754006049800EA0B060AD56068402397
:100D4000C16BC26B090C02F03F020362204600F047
:100D500033FADDE9051000EA010706F4FC462DB17F
:100D6000606829460562204600F01EFA07F4F0206C
:100D700036B161680E62D4F89C103143C4F89C10FF
:100D800030B161680862D4F89C100843C4F89C0034
:100D9000D4F89C0010B12046FFF7D6FD07B0BDE89F
:100DA000F08F20684FF4006101650020C9F8000051
:100DB000204600F01DFA5FEA8B507FF537AF2068C0
:100DC000D0F8D810D0F8E02011404FF4007202653E
:100DD0000020C9F80000204600F002FA5FEA0B305C
:100DE0007FF528AF20684FF4002101650020C9F885
:100DF0000000204600F0BCF95FEACB303FF51DAFA4
:100E000025E70000000000002DE9F04130B34AF270
:100E100000080446C4F200080068404502D108F505
:100E20008070606094F8980028B9002084F89900D8
:100E3000204600F0F5F82068816921F010018161F9
:100E400000F0C2FA054600BF20688169090708D58D
:100E500000F0BAFA401B0B28F6D312E00120BDE8DF
:100E6000F081816941F00101816100F0ADFA054630
:100E700020688169C90710D100F0A6FA401B0B2831
:100E8000F6D3D4F89C0040F00100C4F89C00032085
:100E900084F898000120BDE8F081816941F00201E9
:100EA0008161217C826922F04002012918BF403211
:100EB0008261617C826922F48042012908BF02F5C7
:100EC00080428261A17C826922F48052012918BF8C
:100ED00002F580528261816921F44073D4E90212E3
:100EE0000B438361836923F0A4038361036923F0C7
:100EF00010030361AAB1022A0FD0012A03D182692B
:100F000042F004020CE08369032A43F0800383610A
:100F1000036943F01002026103D1826942F02002AA
:100F20008261D4E90552E369561E6FF0FF02276A19
:100F300002EB0323013F43EA4663B1F5407F47EAF2
:100F4000030740F20003CFF6FF7303EB054647EAC1
:100F50000601C16110D1D4E90B65D4E90917013F3D
:100F600002EB06226FF00F063A4306EB05173A43F1
:100F700003EB01411143C160216E29B1626ED0F8CB
:100F8000C0301A43C0F8C020E26DCA4243F22011BB
:100F9000C0F6000109D0D0F8C820A36E22F00702E5
:100FA00051F823301A43C0F8C820226C4AB1D0F857
:100FB000BC20636C22F0070251F823301A43C0F8BA
:100FC000BC20A26C52B1D0F8BC20E36C22F07002BD
:100FD00051F8233042EA0312C0F8BC20226D52B10E
:100FE000D0F8BC20636D22F4E06251F8231042EA8D
:100FF0000121C0F8BC10404504D16068816821F02F
:10100000030181600020C4F89400C4F89C00012012
:1010100084F898002046FFF79BFBBDE8F0810000B4
:10102000B0B5B8B0044602A8C0210025CDE93655B8
:10103000CDE934553395FFF7E8F94AF200412068CD
:10104000C4F2000188423DD04AF20001C4F200011E
:10105000884240F08880002003904FF400400290C6
:101060004FF080501E9002A800F0C2FA08B1FFF7BE
:10107000E3FA40F2880144F2E040C2F20041C5F6D2
:1010800002000A68002A02F101020A6008D1C16860
:1010900041F48071C160C16801F4807101910199CE
:1010A0000168152441F0010101600068132500F07A
:1010B0000100019001984FF4C05033900020C5F614
:1010C000020036E04FF4004002904FF080501E9036
:1010D00002A8039500F08CFA08B1FFF7ADFA40F2D0
:1010E000880144F2E040C2F20041C5F602000A68FD
:1010F000002A02F101020A6008D1C16841F480713E
:10110000C160C16801F480710191019901681624E0
:1011100041F0020101600068002100F0020001902E
:10112000C5F6020101984FF44050339001F58060FC
:101130001425022134910021CDE93511092137917F
:1011400033A900F059F800210022284600F018FACF
:10115000284600F011FA00210022204600F010FA83
:10116000204600F009FA38B0B0BD000000000000D1
:101170007047000000000000C90708BF704780B535
:101180004021FFF791FABDE8804070470000000061
:10119000C90658BF704780B54121FFF785FABDE801
:1011A0008040704700000000704700000000000011
:1011B00070470000000000007047000000000000C1
:1011C00070470000000000007047000000000000B1
:1011D00070470000000000007047000000000000A1
:1011E0007047000000000000704700000000000091
:1011F00070470000000000002DE9F04F83B00C683C
:10120000002C00F0C68000F1264242F2004702F1B5
:10121000FF72C5F602074FEAB22201920A22B842D3
:1012200008BF0922002500274FF0010A009209E0BB
:101230000C68043734FA0AF20AF1010A05F10205D2
:1012400000F0A780AAF10109012202FA09FE14EABE
:101250000E08EDD0D1F804B00BF00304A4F1010C9A
:10126000BCF1010F11D803228668AA40CB6826EA98
:101270000202AB401A438260CBF30013426822EAB9
:101280000E0203FA09F31A434260032C1ED0032313
:10129000C268AB40022C22EA03028B6803FA05F312
:1012A00042EA0302C26011D16FF0030207F01C068C
:1012B00002EA59020F23024403FA06F4D2F820C0CE
:1012C0000B692CEA0404B34023431362032302682E
:1012D000AB404E689A4306F00303AB4016F4403F20
:1012E00042EA03020260A3D044F2F44340F2084E03
:1012F000C5F60203C5F6000E1A6842F002021A6033
:101300001A6807F00C0302F002020292029A29F016
:101310000302019C009E092C38BF26460F2452F878
:101320000EC09C402CEA040406FA03F34FF0B04CC4
:10133000234342F80E30DCF800204B6842EA0806EE
:10134000DC0258BF22EA08069C02CCF8006040F29A
:10135000040CC5F6000CDCF8002042EA080658BF71
:1013600022EA08069C03CCF80060DCF8802042EA00
:10137000080658BF22EA0806DB03CCF88060DCF8D8
:101380007C2042EA080658BF22EA0806CCF87C60B6
:101390004EE703B0BDE8F08F426902EA01039143D2
:1013A00041EA034181617047002A08BF0904816155
:1013B000704700000000000041F20000C5F6004048
:1013C0000068000C7047000040F21020C2F200409C
:1013D000006870470000000040F2080040F2102151
:1013E000C2F20040C2F2004100780A68104408606E
:1013F000704700000000000080B5032000F0D0F826
:1014000000F02AFF44F2184143F26C13C5F60201C2
:10141000C0F600030A68096801F00F01C2F3032255
:10142000595C9A5C01F01F0102F01F02D04040F2AB
:101430000402C2F2004220FA01F1116040F2000100
:10144000C2F2004108600F2000F00AF800281CBF1B
:10145000012080BD00F080F8002080BD0000000069
:10146000B0B540F20801C2F20041097801B3044668
:1014700040F20000C2F200404FF47A72B2FBF1F188
:101480000068B0FBF1F001F0BBFA0F2C4FF0010542
:101490000CD858B94FF0FF3000222146002500F04B
:1014A0006FF840F20C00C2F2004004602846B0BD64
:1014B0000120B0BD0000000010B54EF6A05E4178DE
:1014C000CEF2000E90F800C04EF8081CDEF80010B6
:1014D00021F00101CEF8001041684EF8041C017B98
:1014E000C37A827A447B1B0643EA0171837B41EA1B
:1014F000C241C27B41EA8441447A41EA4341007AD5
:1015000041EA024141EA042141EA400040EA0C007C
:10151000CEF8000010BD00004EF62450CEF20000C0
:10152000BFF35F8F016821F4803101600021016702
:1015300070470000000000004EF6245140F001000A
:10154000CEF200010867086840F480300860BFF3FD
:101550004F8FBFF36F8F704781B044F2F440C5F6F0
:101560000200016841F002010160006800F0020021
:101570000090009801B0704780B501F06DFD80BD0E
:1015800070B514460D46064601F076FD2946224602
:1015900001F022FB0146304601F076FD70BD0000EF
:1015A00080B501F085FD80BDB0B544F60C05C5F6EB
:1015B000020529684907296805D401F00701081ABE
:1015C00018BF0120B0BD21F0070108432860FFF7D4
:1015D000FBFE044655F8080C800407D4FFF7F4FE20
:1015E000001BB0F57A7FF5D90120B0BD0020B0BD59
:1015F0002DE9F04381B00446C07844F22C4900073D
:10160000C5F6020901D400252EE0A06E4FEA305045
:1016100003280DD80025DFE800F0020E1714D9F8D2
:101620000000002540F40030C9F8000055B913E06F
:1016300001253DB910E004F10800022101F0E8FAAB
:1016400005464DB1A84611E004F12800022101F041
:101650006FFB0546002DF5D1D9F82400A16E20F4CA
:1016600040100843C9F824004FF000086078C00714
:1016700030D0A06D042807D8DFE800F00A131C035F
:101680000300FDB1A84625E00125002DFAD119E09F
:10169000D9F8000040F40030C9F80000002DF1D165
:1016A00010E004F10800002101F0B2FA0546002D17
:1016B000E8D107E004F12800002101F039FB0546DC
:1016C000002DDFD1D9F82400A16D20F007000843D8
:1016D000C9F824006078800732D5E06D4FEAB01079
:1016E000042807D8DFE800F00A131C030300FDB14B
:1016F000A84625E00125002DFAD119E0D9F800000F
:1017000040F40030C9F80000002DF1D110E004F1E0
:101710000800002101F07CFA0546002DE8D107E021
:1017200004F12800002101F003FB0546002DDFD164
:10173000D9F82400E16D20F4E0700843C9F82400D2
:101740006078400734D5D4F8A8004FEA70500428D8
:1017500007D8DFE800F00A131C030300FDB1A84618
:1017600026E00125002DFAD119E0D9F8000040F457
:101770000030C9F80000002DF1D110E004F108009C
:10178000002101F045FA0546002DE8D107E004F1FB
:101790002800002101F0CCFA0546002DDFD1D9F850
:1017A0002C00D4F8A81020F460000843C9F82C00DD
:1017B0006078000734D5D4F8AC004FEA30600428D4
:1017C00007D8DFE800F00A131C030300FDB1A846A8
:1017D00026E00125002DFAD119E0D9F8000040F4E7
:1017E0000030C9F80000002DF1D110E004F108002C
:1017F000002101F00DFA0546002DE8D107E004F1C3
:101800002800002101F094FA0546002DDFD1D9F817
:101810002C00D4F8AC1020F0E0600843C9F82C008C
:10182000E078800728D5E06C4FEA3010032806D80E
:10183000DFE800F002091202B5B1A8461CE001255C
:10184000002DFAD110E0D9F8000040F40030C9F8BA
:101850000000002DF1D107E004F10800022101F0A1
:10186000D7F90546002DE8D1D9F82000E16C20F029
:1018700030000843C9F820006078C00632D5206ED9
:101880004FEA3030042807D8DFE800F00A131C03C1
:101890000300FDB1A84625E00125002DFAD119E08D
:1018A000D9F8000040F40030C9F80000002DF1D153
:1018B00010E004F10800002101F0AAF90546002D0E
:1018C000E8D107E004F12800002101F031FA0546D3
:1018D000002DDFD1D9F82400216E20F4E040084328
:1018E000C9F824006078800626D5606E4FEA304043
:1018F000052807D8DFE800F0030A100303039DB1B1
:10190000A84619E00125002DFAD10DE004F10800E8
:10191000012101F07DF904E004F12800012101F02A
:1019200007FA0546002DEBD1D9F82400616E20F4AA
:10193000E0200843C9F824006078400628D5D4F890
:10194000B0004FEA3070052807D8DFE800F0030A3E
:10195000100303039DB1A8461AE00125002DFAD11A
:101960000DE004F10800012101F052F904E004F156
:101970002800012101F0DCF90546002DEBD1D9F852
:101980002C00D4F8B01020F0E0400843C9F82C0037
:101990006078000620D5206FD8B1B0F1005F12D07A
:1019A000B0F1805F25D1D9F8000040F40030C9F8CB
:1019B000000085B9D9F82400216F20F04050084379
:1019C000C9F8240008E004F10800012101F020F921
:1019D0000546002DEED0A846E078C0072AD0A06CBE
:1019E00003280AD8DFE800F0020D1602D5B1A84698
:1019F00020E00125002DEED1DCE70125002DF6D1F8
:101A000010E0D9F8000040F40030C9F80000002DC3
:101A1000EDD107E004F10800022101F0F9F80546D4
:101A2000002DE4D1D9F82000A16C20F00300084378
:101A3000C9F82000A078400642D5D9F8D40340F474
:101A40008070C9F8D403FFF7BFFC0646D9F8D40369
:101A5000C00505D4FFF7B8FC801B6528F6D3032525
:101A60006DBBD9F84410D4F8B400414011F4407F64
:101A700011D0D9F84410D9F8442042F48032C9F882
:101A80004420D9F8442021F4407122F48032C9F86E
:101A90004420C9F84410B0F5807F0FD1FFF794FCC3
:101AA000064641F2893700BFD9F84400800705D4C3
:101AB000FFF78AFC801BB842F6D3032585B1A84600
:101AC0002078C00742D0E06F4FEAF000052823D805
:101AD000DFE800F003262C0303037DB3A84635E0BE
:101AE0004FF6CF73D4F8B40059F81C2CC0F2FF03A2
:101AF00000F4407122F47C5203EA1013B1F5407FE8
:101B000008BF1A436FF31F3049F81C2CD9F8441052
:101B10000843C9F84400D3E70125002DDED10DE0CC
:101B200004F10800012101F073F804E004F1280039
:101B3000012101F0FDF80546002DCFD1D9F828008C
:101B4000E16F20F038000843C9F8280020788007AA
:101B500024D5A06F052807D8DFE800F0030A10039A
:101B600003039DB1A84619E00125002DFAD10DE02F
:101B700004F10800012101F04BF804E004F1280011
:101B8000012101F0D5F80546002DEBD1D9F8280048
:101B9000A16F20F007000843C9F82800207840070B
:101BA00026D5D4F89400052807D8DFE800F0030A0A
:101BB000100303039DB1A8461AE00125002DFAD1B8
:101BC0000DE004F10800012101F022F804E004F125
:101BD0002800012101F0ACF80546002DEBD1D9F821
:101BE0002C00D4F8941020F007000843C9F82C000A
:101BF0002078800628D5D4F890004FEA3070052868
:101C000007D8DFE800F0030A100303039DB1A846DC
:101C10001AE00125002DFAD10DE004F108000021A1
:101C200000F0F6FF04E004F12800022101F080F842
:101C30000546002DEBD1D9F82800D4F8901020F0FB
:101C4000E0400843C9F828002078400628D5D4F899
:101C50009C004FEAB020052807D8DFE800F0030A0F
:101C6000100303039DB1A8461AE00125002DFAD107
:101C70000DE004F10800002100F0CAFF04E004F1C7
:101C80002800022101F054F80546002DEBD1D9F8C7
:101C90002C00D4F89C1020F4E0500843C9F82C0024
:101CA0002078000628D5D4F8A0004FEA7030052827
:101CB00007D8DFE800F0030A100303039DB1A8462C
:101CC0001AE00125002DFAD10DE004F108000021F1
:101CD00000F09EFF04E004F12800022101F028F842
:101CE0000546002DEBD1D9F82C00D4F8A01020F433
:101CF00060400843C9F82C002078000716D5D4F8B6
:101D00008400B0F5805F08D104F12800022101F0C1
:101D10000FF8002818BF4FF00108D9F82800D4F8B0
:101D2000841020F440500843C9F828002078C006E9
:101D300016D5D4F89800B0F5807F08D104F12800BA
:101D4000022100F0F5FF002818BF4FF00108D9F874
:101D50002C00D4F8981020F440700843C9F82C00E7
:101D6000A078000722D5D4F8A400B0F5003F1AD01F
:101D7000B0F5803F11D0C8BB04F10800002100F08D
:101D800047FF05468DB9D9F82C00D4F8A41020F4EB
:101D900040300843C9F82C0008E004F12800022173
:101DA00000F0C6FF0546002DEDD0A846A0784007FC
:101DB00029D5D4F88800B0F5401F21D0B0F5001F18
:101DC00018D0B0F5801F40F0BF80D9F8000040F473
:101DD0000030C9F80000ADB9D9F82800D4F888104F
:101DE00020F440100843C9F828000CE00125002D1C
:101DF000DBD1C8E704F12800012100F099FF054676
:101E0000002DE9D0A846A078C00720D0206DB0F5FD
:101E1000803F10D0B8B9D9F8000040F40030C9F8BC
:101E200000009DB9D9F82000216D20F480300843CE
:101E3000C9F820000BE004F10800022100F0E8FEE0
:101E400005461DB9EEE70125002DEBD0A846E07848
:101E5000800608D504F12800022100F069FF00285F
:101E600018BF4FF00108D4E900108A037BD5D4F8DD
:101E700080206FF0010303EB3223022B0AD34FEAD9
:101E800032233BB1012B64D1D9F8003043F4003345
:101E9000C9F80030002D5FD0CA0267D4CA006FD4E1
:101EA0008A0279D44A0000F18280B1F1FF3F40F309
:101EB0008F80090200F19780C00707D004F1080065
:101EC000002100F0A5FE002818BF054620798007F4
:101ED00007D504F10800012100F09AFE002818BF80
:101EE00005462079400707D504F10800022100F0DB
:101EF0008FFE002818BF05462079000707D504F19A
:101F00002800002100F014FF002818BF05462079A2
:101F1000C00607D504F12800012100F009FF0028C0
:101F200018BF05462079800607D504F12800022154
:101F300000F0FEFE002818BF0125002D18BF012566
:101F4000284601B0BDE8F0830125002D7FF45AAF8B
:101F500042E70125002D9FD1D9F8283023F44073A2
:101F60001A43C9F828204546CA0297D5D9F8242033
:101F7000636F22F000421A43C9F82420CA008FD5AB
:101F800059F81C2CD4F8B83022F480421A4349F88E
:101F90001C2C8A027FF586AFD9F82420E36E22F04C
:101FA00080721A43C9F824204A007FF57EAF59F8A1
:101FB0001C2C22F4004249F81C2CD4F8BC2059F8FF
:101FC0001C3C1A4349F81C2CB1F1FF3F3FF771AF9D
:101FD000D9F82020636D22F040521A43C9F820201E
:101FE00009027FF569AFD9F82810D4F88C2021F4C4
:101FF00040011143C9F82810C0077FF45FAF65E7BF
:102000002DE9F04381B0002800F0F48042F200088E
:102010000446C5F200288946D8F8000000F00F00F9
:1020200088420ED2D8F8000020F00F0040EA0900E4
:10203000C8F80000D8F8000000F00F00484540F054
:10204000D980206844F218474107C5F602070AD52F
:1020500021693A6802F07002914204D93A6822F08C
:1020600070021143396001070AD561697A6802F08C
:102070007002914204D97A6822F0700211437960AB
:10208000C1060AD5A1697A6802F4E062914204D9D6
:102090007A6822F4E0621143796081060AD5E16929
:1020A000BA6802F07002914204D9BA6822F0700254
:1020B0001143B96081070AD5E1683A6802F00F025E
:1020C000914204D93A6822F00F0211433960C007E7
:1020D0007ED1206881070AD5E1683A6802F00F02D4
:1020E000914204D23A6822F00F0211433960D8F8C5
:1020F000001001F00F0149450DD9D8F8001021F06A
:102100000F0141EA0901C8F80010D8F8001001F0E9
:102110000F0149456ED141070AD521693A6802F09D
:102120007002914204D23A6822F070021143396081
:1021300001070AD561697A6802F07002914204D2FF
:102140007A6822F0700211437960C1060AD5A1694C
:102150007A6802F4E062914204D27A6822F4E06282
:102160001143796080060AD5E069B96801F0700111
:10217000884204D2B96821F070010843B86000F0C9
:102180006BF8396843F26C12C0F600023B68C1F389
:10219000032103F00F03515CD25C01F01F01C84022
:1021A00002F01F0140F2040220FA01F1C2F20042E3
:1021B000116040F2000140F20C02C2F20041C2F292
:1021C000004208601068FFF74BF901B0BDE8F083EA
:1021D000386820F47061D4E90102012841EA020163
:1021E00039600BD003282BD002282ED157F8181CA9
:1021F000890307D4012001B0BDE8F08357F8181C0B
:10220000C905F7D557F8081C21F00701084347F81E
:10221000080CFFF7D9F8064641F2883557F8080C44
:10222000616800F03800B0EBC10F3FF452AFFFF728
:10223000CBF8801BA842F1D9032001B0BDE8F083A0
:1022400057F8181C8901D5D5DCE757F8181C490741
:10225000D0D5D7E70000000044F20041C5F60201E6
:102260000869C0F3C20003280FD002282AD070BB2F
:102270000868800649F20000C0F2D03058BF7047AD
:102280000968C1F3C101C84070478A6A886AC0F30F
:10229000051CC86ABCF1000F4B6B1DD0C3F3CC0307
:1022A00000F00100584302F00302022A00EE100A77
:1022B000B8EE400A12D0A2B90868800614D49FED87
:1022C000261A1EE047F64000C0F27D10704740F627
:1022D0000010C0F23D007047002070479FED1D1AAE
:1022E0000FE09FED1B1A0CE0086849F20002C0F2F3
:1022F000D032C0F3C10022FA00F001EE100AB8EEAD
:10230000411A086B9FED153A6FF35F2002EE100A39
:10231000086BC0F34620B8EE422A013000EE032AD3
:1023200000EE10CAB7EE003AB8EE400A81EE000A9D
:1023300032EE031A20EE010A01EE100AB8EE411A3D
:1023400080EE010ABCEEC00A10EE100A704700BF12
:102350000024744A20BCBE4B0024744C0000003999
:102360002DE9F04381B0F8B18046007844F200498D
:10237000C007C5F602095AD0D9F8100000F038019C
:10238000D9F82800102905D018290FD100F0030032
:1023900002280BD1D9F80000800344D5D8F80400F6
:1023A000002840D101272FE0012718E3D8F8044086
:1023B0002CB1B4F5A02F0DD0B4F5803F10D0D9F8D2
:1023C000000020F48030C9F80000D9F8000020F4A3
:1023D000802009E0D9F8000040F48020C9F800000E
:1023E000D9F8000040F48030C9F80000FEF7ECFF97
:1023F0000546A4B1D9F80000800314D4FEF7E4FF29
:10240000401B6428F6D903270020002800F0E7824B
:102410000DE000BFFEF7D8FF401B6428F3D8D9F8C1
:1024200000008003F6D40120002800F0D88298F83C
:102430000000800740F18480D9F8100010F03801C6
:10244000D9F828001CD0182908BF5FEA807017D07F
:10245000D8F80C00D9F80010002847D021F0190155
:102460000843C9F80000FEF7AFFF0546D9F80000A1
:1024700040072AD4FEF7A8FF401B0228F6D91EE029
:10248000D9F80000400704D5D8F80C00002800F067
:102490009681D9F80000D8F80C1020F019000843F4
:1024A000C9F80000FEF790FF054600BFD9F800000C
:1024B00040070AD4FEF788FF401B0228F6D90327FD
:1024C0000024002C00F08B823AE0FEF775FF41F209
:1024D0000301884223D8D8F81000D9F80410402806
:1024E00021F47C3124D141F4003023E021F00100BB
:1024F000C9F80000FEF768FF05460126D9F800007C
:1025000010F0040086EA900417D0FEF75DFF401B30
:102510000328F3D30327002C00F0618210E0D9F8E0
:102520000400D8F8101020F0FE4040EA016001E0FD
:1025300041EA0030C9F804000124002C00F04F8269
:1025400098F80000C00674D5D9F8100000F03801E2
:10255000D9F82800082905D018291CD100F003005B
:10256000012818D1D9F80000C00503D5D8F81C00FF
:10257000802859D1FEF720FF41F20301884222D87A
:10258000D8F82000D9F80410202821F0F84142D1D1
:1025900041F0804041E0D8F81C000028D9F8000044
:1025A00020D040F08000C9F80000FEF70DFF05467E
:1025B000D9F80000C005DDD4FEF706FF401B022855
:1025C000F6D9032731E0D9F80C00D8F8201020F014
:1025D0007C50012440EA0160C9F80C00002C00F096
:1025E000FE8126E020F08000C9F80000FEF7ECFE36
:1025F00005460126D9F8000010F4807086EA102400
:102600000ED0FEF7E1FE401B0328F3D30327002C76
:1026100000F0E5810DE041EA8060C9F80400012482
:10262000002C00F0DC8104E001270024002C00F0E5
:10263000D68198F8000000071CD498F800008006A6
:1026400031D498F80000400745D4D8F82440002C35
:1026500000F09180D9F8100000F03800182840F000
:102660008C80012CD9F82810D9F8300040F0A980CE
:102670000127B4E1D8F814000028D9F874003ED03E
:1026800040F00100C9F87400FEF79EFE054600BF49
:10269000D9F874008007D0D4FEF796FE401B0228BC
:1026A000F6D903279BE1D8F818000028D9F80000D4
:1026B0004DD040F48050C9F80000FEF785FE054675
:1026C000D9F800008004BCD4FEF77EFE401B02282F
:1026D000F6D9032783E1D9F8000440F48070C9F8E3
:1026E0000004FEF771FE0546D9F80004C0051AD4AF
:1026F000FEF76AFE401B6428F6D903276FE120F03D
:102700000100C9F87400FEF75FFE0546032700BF0D
:10271000D9F8740080077FF590AFFEF755FE401B97
:102720000228F5D95BE1D8F808402CB1052C00F05F
:102730008280012C00F08580D9F8700020F0010023
:10274000C9F87000D9F8700020F004007DE020F492
:102750008050C9F80000FEF737FE0546032700BF8A
:10276000D9F8000080047FF56CAFFEF72DFE401B0A
:102770000228F5D933E1002731E1D9F8000020F033
:102780008070C9F80000FEF71FFE022C05464FF0CE
:10279000030709D1D9F80000800178D5FEF714FEAF
:1027A000401B0228F6D91AE1D9F80000800140F157
:1027B000E780FEF709FE401B0228F5D90FE101274B
:1027C0007EE601F00302D8F828309A4240F0DA8021
:1027D000C1F30511D8F82C20914240F0D780014672
:1027E000D8F830206FF35F21013A914240F0D08059
:1027F000C0F34622D8F8341001398A4240F0CA802A
:10280000C0F30642D8F8381001398A4240F0C4803B
:10281000C0F30660D8F83C100139884240F0BE8011
:10282000D9F83400D8F84810C0F3CC00814240F009
:10283000B7800027D3E0D9F8700040F00400C9F851
:102840007000D9F8700040F00100C9F87000FEF780
:10285000BBFD002C054641F288344FF0030711D030
:10286000D9F8700080073FF5F0AEFEF7ADFD401BD4
:10287000A042F5D9B3E000BFFEF7A6FD401BA04281
:1028800000F2AD80D9F870008007F5D4DDE608F1DC
:102890002807D9F8280040F2F33188438ECF084347
:1028A000591E40EA02104FF47E426FF35F21C9F8CF
:1028B000280002EB47204FF4FE0280B2D8F83C30EB
:1028C0000844D8F8381002EB01414FF0FE4201F401
:1028D000FE0102EB0362084402F0FE410844C9F81D
:1028E0003000D9F82C004FF6F87120F00100C9F83B
:1028F0002C00D9F83400D8F84820884340EAC200B8
:10290000C9F83400D9F82C00D8F8401020F00C0099
:102910000843C9F82C00D9F82C00D8F8441020F04E
:1029200002000843C9F82C00D9F82C0040F480308C
:10293000C9F82C00D9F82C0040F40030C9F82C005C
:10294000D9F82C0040F48020C9F82C00D9F82C00CC
:1029500040F00100C9F82C00D9F8000040F0807068
:10296000C9F80000FEF730FD04460327D9F800003F
:10297000800109D4FEF728FD001B0228F6D92EE0BD
:1029800000272CE001272AE0002728E0012726E085
:10299000012724E0012722E0012720E001271EE093
:1029A000D9F82C0020F00100C9F82C00FEF70CFD2E
:1029B0000546FEF709FDA842FBD0D9F834004FF6D2
:1029C000F871D8F848208843002740EAC200C9F8C7
:1029D0003400D9F82C0040F00100C9F82C00F8B2FE
:1029E00001B0BDE8F083000040F20442C5F60002E9
:1029F000136823EA000008431060704700000000DD
:102A000080B500F029FA80BDFEE70000000000005C
:102A100010B584B00024CDE90244CDE90044FEF7AE
:102A20007BFD0120ADF8000048F21F70029040F2DB
:102A30000110039068460194FEF73EFD0420FEF766
:102A40007BFD04B010BD000080B540F2CC004AF21E
:102A50000001C2F20040C4F200010122052301601E
:102A60004FF4407181600021C1604FF00F0C028271
:102A70008174436104238361C0E907C3C0E909226B
:102A8000C0E90BC341630822C0E90E211823036487
:102A90001223C0E91132C0E91331C0E915312022F7
:102AA000C0E91721C0E91913FEF7AEF9002808BFE5
:102AB00080BDFDF7C1FD80BD80B540F26C104AF2CB
:102AC0000041C2F20040C4F200010122052301606E
:102AD0004FF4407181600021C1604FF00F0C028201
:102AE0008174436104238361C0E907C3C0E90922FB
:102AF000C0E90BC34FF4A062426308221823C0E967
:102B00000E2103641223C0E91132C0E91331C0E978
:102B100015312022C0E91721C0E91913FEF774F915
:102B2000002808BF80BDFDF787FD80BD00000000C4
:102B300070B586B044F2E0400025C5F60200059568
:102B4000CDE90355CDE90155016840F6000441F097
:102B5000800101600168C5F6020401F08001009166
:102B60000099016841F0040101600168002201F050
:102B7000040100910099016841F0020101600168BF
:102B8000072601F0020100910099016841F001015E
:102B900001600068072100F00100009000982046C5
:102BA000FEF702FC012001A9CDE9020520460196AD
:102BB0000495FEF721FB4FF080600021FFF714FF22
:102BC00006B070BD00000000FEE70000000000003D
:102BD000FEE700000000000000F007004FF0FF3C9F
:102BE00080F00703042B28BF0423033838BF0020DC
:102BF0000CFA03F399430CFA00F301FA00F022EA0D
:102C00000301084370470000704700000000000007
:102C1000F0B581B044F22C47C5F6020757F8042CF2
:102C200002F00302032A02D1012001B0F0BD0546E3
:102C300057F82C0C0C4620F0806047F82C0CFEF75F
:102C4000C3FB064657F82C0C000105D5FEF7BCFB6C
:102C5000801B0228F6D964E057F8040CEE6895E86A
:102C60000E0020F47C30012C40EA0130A2F1010179
:102C70006FF35F214FF47E4202EB432247F8040CCE
:102C800092B24FF0FE4302EB01004FF4FE012A69BD
:102C900001EB064101F4FE0103EB0262084402F07D
:102CA000FE410844F8603868696920F0C00040EAD5
:102CB000010038603868A96920F0200040EA01006E
:102CC000386038684FF6F87120F0100038603869C5
:102CD000EA6920EA01004FF4001140EAC2003861BD
:102CE000386808BF4FF4801140F01000002C3860A5
:102CF00008BF4FF4002138680843386057F82C0C9F
:102D000040F0806047F82C0CFEF75EFB044600BFE5
:102D100057F82C0C000107D4FEF756FB001B0328C4
:102D2000F6D3032001B0F0BD002001B0F0BD0000DB
:102D3000F0B581B044F22C47C5F6020757F8042CD1
:102D400002F00302032A02D1012001B0F0BD0546C2
:102D500057F82C0C0C4620F0805047F82C0CFEF74E
:102D600033FB064657F82C0C800005D5FEF72CFBEC
:102D7000801B0228F6D964E057F8040CEE6895E849
:102D80000E0020F07C70012C40EA0150A2F10101FC
:102D90006FF35F214FF47E4202EB432247F8040CAD
:102DA00092B24FF0FE4302EB01004FF4FE012A699C
:102DB00001EB064101F4FE0103EB0262084402F05C
:102DC000FE41084478613868696920F4406040EA4F
:102DD000010038603868A96920F4007040EA0100F9
:102DE000386038684FF6F87120F480703860B86940
:102DF000EA6920EA01004FF0807140EAC200B86140
:102E0000386808BF4FF4000140F48070002C38602F
:102E100008BF4FF4800138680843386057F82C0C1D
:102E200040F0805047F82C0CFEF7CEFA044600BF65
:102E300057F82C0C800007D4FEF7C6FA001B0328B5
:102E4000F6D3032001B0F0BD002001B0F0BD0000BA
:102E50007047000000000000B0B501380024B4EB5A
:102E6000106F01D00120B0BD4EF210050F21CEF23F
:102E7000000568604FF0FF3000F006F9AC600720F5
:102E800028602046B0BD000080B5FEF7A5FA80BDE1
:102E900070B59CB044F6180409A84C21C5F602048C
:102EA000FDF7B3FA02200025CDE90755CDE9055518
:102EB000CDE90355CDE90155FEF776FB40F22C40F4
:102EC0000095C5F60000016821F00101016000686D
:102ED00000F001000090206840F44040206020682D
:102EE00000F440400090009820688004FCD5012048
:102EF00009904FF480300A9002201490CDE912001E
:102F000040240825CDE91540CDE917500C20199033
:102F100009A80026CDE91A66FFF722FA98B93F20E2
:102F2000019003200221CDE902064FF4806006944F
:102F3000CDE9070401A8CDE90454FFF761F80028A2
:102F400004BF1CB070BDFDF777FB0000000000005F
:102F50004EF6885042F2000CCEF20000C5F2002C72
:102F6000016841F470010160DCF8000000F00F001E
:102F7000062806D8DCF80000072161F30300CCF82E
:102F8000000044F200404EF67F52C5F60200CEF635
:102F9000F622016841F0010101600021016103682E
:102FA0001A400260DCF80020120706D5DCF8002089
:102FB000072363F30302CCF8002040F20022816172
:102FC000C161C0F20222016282620022C0F2FF12DD
:102FD000C26240F28022C0F2011202634163826346
:102FE000C16302644164026822F48022026041F2FB
:102FF00000020166C5F600421268B1EB527F05D1AE
:1030000048F208110122C5F200110A60D0F8D4106C
:10301000C90448BF7047D0F8D41043F2D20241F43B
:103020008051C0F8D41044F20001C5F200210A60BA
:10303000D0F8D41021F48051C0F8D41070470000AB
:1030400080B54FF4F070FDF7B3FA80BD00000000CA
:10305000FEE7000000000000002848BF704700F0B5
:103060001F01012202FA01F14EF200124009CEF2D4
:10307000000242F8201070474EF60C50CEF20000CD
:103080000068C0F3022070474EF6145300F00F02A0
:10309000CEF20003B0F1FF3F1A4400F16043C8BF15
:1030A00003F5644208011070704700000000000042
:1030B0004EF60C514FF6FF03CEF200010A681A409B
:1030C00060F30A2242F0806040F0FD7008607047B3
:1030D000FFF79EFCFEF790F9FFF7DAFEFFF728FDF9
:1030E000FFF7B2FCFFF7E8FCFFF7AAFF40F6000489
:1030F000C5F6020401212046FEF74EF94FF4FA709E
:10310000FDF70AFCF6E7F1EE100A4FF6FF71C0F288
:10311000C03120EA010040F04070E1EE100A704733
:10312000000000000000000000000000000000009F
:103130000000000001000000020000000300000089
:103140000400000000000000050000000000000076
:103150000000000000000000060000000000000069
:103160000000000000000000070000000000000058
:103170000102030401020304060708090001020317
:1031800004050607080C101418203040B031000860
:103190000000002410000000D4020008C031000824
:1031A0001000002408080000F002000800000000E1
:1031B0000090D0030090D003010000001000000038
:040000050800029954
:00000001FF
