:020000040800F2
:100000005848012441030008795A0008395500086E
:1000100001590008D10800084982000800000000CA
:100020000000000000000000000000002161000846
:10003000C113000800000000115E000859610008AB
:100040005F0300085F0300085F0300085F03000808
:100050005F0300085F0300085F0300085F030008F8
:100060005F0300085F0300085F0300085F030008E8
:100070005F0300085F0300085F0300085F030008D8
:100080005F0300085F0300085F0300089116000883
:10009000B1160008A1160008C11600085F03000889
:1000A0005F0300085F0300085F0300085F030008A8
:1000B0005F0300085F0300085F0300085F03000898
:1000C0005F0300085F0300085F0300085F03000888
:1000D0005F0300085F0300085F0300085F03000878
:1000E0005F0300085F030008000000005F030008D2
:1000F0005F0300085F0300085F0300085F03000858
:100100005F0300085F0300085F0300085F03000847
:100110005F0300085F0300085F030008296300080D
:100120005F0300085F0300085F0300085F03000827
:100130005F0300085F0300085F0300085F03000817
:1001400000000000000000000000000000000000AF
:100150005F0300085F0300085F0300085F030008F7
:100160005F0300085F0300085F0300085F030008E7
:100170005F0300085F0300085F0300080000000041
:100180005F0300085F0300085F0300085F030008C7
:100190005F0300085F0300085F0300085F030008B7
:1001A0005F0300085F0300085F0300085F030008A7
:1001B0005F0300085F0300085F0300085F03000897
:1001C0005F0300085F0300085F0300085F03000887
:1001D0005F030008B15A00085F0300085F030008CE
:1001E0005F0300085F0300085F0300085F03000867
:1001F0005F0300085F0300085F0300085F03000857
:100200005F0300085F0300085F0300085F03000846
:100210005F0300085F0300085F0300085F03000836
:100220005F0300085F0300085F0300080000000090
:100230005F0300085F030008000000005F03000880
:100240005F0300085F0300085F0300085F03000806
:100250005F0300085F0300085F0300085F030008F6
:100260005F0300085F0300085F0300085F030008E6
:100270005F0300085F0300085F0300080000000040
:100280005F0300085F0300085F0300080000000030
:10029000000000005F03000800F002F800F040F8E2
:1002A0000AA090E8000C82448344AAF10107DA45D1
:1002B00001D100F035F8AFF2090EBAE80F0013F0E3
:1002C000010F18BFFB1A43F0010318472CAA0000C6
:1002D0004CAA0000103A24BF78C878C1FAD8520757
:1002E00024BF30C830C144BF04680C6070470000B0
:1002F0000023002400250026103A28BF78C1FBD82F
:10030000520728BF30C148BF0B6070471FB50AF0C5
:10031000F7FA9DE8030000F0EDF91FBD10B510BD20
:1003200000F054FA1146FFF7F1FF08F009F900F068
:1003300072FA03B4FFF7F2FF03BC00F0A3FA000067
:100340000A4880470A4880470A480047FEE7FEE718
:10035000FEE7FEE7FEE7FEE7FEE7FEE7FEE7FEE775
:1003600005480649064A074B704700007116000809
:10037000396200089902000858F8002458480124FE
:10038000583801245838012470B5064600F096F913
:10039000056806F10B0020F00704B4429CBF002062
:1003A00070BD2B466A68BAB11068A04210D304F140
:1003B000080188423CBF5068586007D35168101943
:1003C00041601168091B016058601460101D70BD08
:1003D00013465268002AE7D12146284600F076F9F4
:1003E0000028DED170BD70B50446051F00F066F927
:1003F0000068002C14BF446870BD002C18BFAC42CC
:100400003CBF20466468F8D301680A18AA4218BFA6
:10041000456003D12A6805461144016028684119E6
:10042000A1421CBF6C6070BD6168696021680844AE
:10043000286070BD53EA020C00F069802DE9F04B92
:100440004FF00006002B1FBFB3FA83F503FA05F443
:1004500024FA05F65E4012BF1643B2FA82F502FA9C
:1004600005F4C5F120051EBF22FA05FC44EA0C0480
:10047000203556EA044C4FEA144418BF641C4FF070
:1004800000084FF00009904271EB030C39D30029AA
:1004900019BFB1FA81F701FA07F6B0FA80F700FA4E
:1004A00007F6C7F120071EBF20FA07FC46EA0C0634
:1004B0002037B6FBF4FCA7EB0507103F07F01F0B36
:1004C000CBF120062CFA06F60CFA0BFB44BFB34620
:1004D0000026202FA4BF5E464FF0000B5BEA060CFF
:1004E00008BF4FF0010B19EB0B0948EB0608ABFBFB
:1004F000027C06FB02CC0BFB03CCC01B71EB0C0196
:10050000C1E70B46024641464846BDE8F08B13B5AD
:10051000084318BF4FF0FF300146AFF30080BDE83D
:100520001C407047032A40F2308010F0030C00F0AA
:10053000158011F8013BBCF1020F624498BF11F81D
:1005400001CB00F8013B38BF11F8013BA2F10402D6
:1005500098BF00F801CB38BF00F8013B11F003034E
:1005600000F02580083AC0F0088051F8043B083AB2
:1005700051F804CBA0E80810F5E7121D5CBF51F854
:10058000043B40F8043BAFF30080D20724BF11F8CE
:10059000013B11F801CB48BF11F8012B24BF00F833
:1005A000013B00F801CB48BF00F8012B704710B5A4
:1005B000203AC0F00B80B1E81850A0E81850B1E81C
:1005C0001850A0E81850203ABFF4F5AF5FEA027C5B
:1005D00024BFB1E81850A0E8185044BF18C918C08B
:1005E000BDE810405FEA827C24BF51F8043B40F82C
:1005F000043B08BF7047D20728BF31F8023B48BF11
:1006000011F8012B28BF20F8023B48BF00F8012B4E
:10061000704702F0FF0343EA032242EA024200F07D
:1006200024B84FF000020429C0F0128010F0030C2F
:1006300000F01B80CCF1040CBCF1020F18BF00F8D5
:10064000012BA8BF20F8022BA1EB0C0100F00DB884
:100650005FEAC17C24BF00F8012B00F8012B48BFE2
:1006600000F8012B70474FF0000200B51346944686
:100670009646203922BFA0E80C50A0E80C50B1F1FA
:100680002001BFF4F7AF090728BFA0E80C5048BF0E
:100690000CC05DF804EB890028BF40F8042B08BFAC
:1006A000704748BF20F8022B11F0804F18BF00F8A8
:1006B000012B704770477047704700000048704733
:1006C00020010024704770477047704738B50446D2
:1006D0000A4600206946AFF30080002808BF38BDF5
:1006E00002460099204600F04FF8012038BD012055
:1006F00000F064B8F8B5AFF30080054600200C4662
:10070000102000BF0646A819A0420DD932466946FE
:100710000020AFF30080070008BF00F04FF80098FA
:10072000A04218BF0546C419FFF7C8FF0560074679
:10073000F01D20F007004619284600F00AF8B442E0
:1007400008BFF8BDA21B31463868BDE8F84000F08C
:100750001BB800210160C0E90110704710207047EC
:1007600010B500F00DF8006810BD10B5044600F09B
:1007700007F8046010BD000000487047180100240D
:100780000048704718010024034640688C46002842
:1007900018BF88423CBF03464068F8D31868184425
:1007A000884207D00CF1030020F00700001D411A19
:1007B000521A0146081D0A60FFF715BE10B500F079
:1007C00039F8BDE8104000F02FB870477546FFF7C4
:1007D000D3FFAE4605006946534620F00700854624
:1007E00018B020B5FFF7BCFDBDE820404FF0000673
:1007F0004FF000074FF000084FF0000BAC46ACE89C
:10080000C009ACE8C009ACE8C009ACE8C00921F0F7
:1008100007018D46704710B50446AFF300802046AF
:10082000BDE81040FFF785BD002801D000F02AB8D0
:100830007047000010B5012805D0002103A000F08A
:1008400027F8012010BD09A1F8E7000053494752DD
:10085000544D454D3A204F7574206F662068656190
:1008600070206D656D6F7279000000003A20486558
:100870006170206D656D6F727920636F7272757033
:100880007465640001491820ABBEFEE72600020033
:1008900070B505460C460A2000E06D1C00F011F80A
:1008A00035B128780028F8D102E0641C00F009F87E
:1008B00014B120780028F8D1BDE870400A20AFF3C9
:1008C000008008B569468DF800000320ABBE08BD66
:1008D000FEE700000000000000207047000000005C
:1008E000002070470000000010B545F2E47440F6A7
:1008F000CC51C2F20044C2F200410022204605F071
:1009000093FF40F2CC512046C2F2004105F07CFF3B
:1009100040F600010022C3F20401204605F084FFE6
:1009200040F200012046C3F2040105F06DFF0020F3
:1009300010BD000000000000B0B50968044607F0D3
:100940005FFB45F2E4752146C2F20045284605F0FA
:100950005BFF284605F034FF0020B0BD000000001A
:10096000002070470000000004F092FF00F024F81F
:10097000012007F085FEF9E710B5B0B04AF6102166
:1009800001A8C0F60001BC22FFF711FE46F2BC141C
:10099000C2F20044206808B130B010BD4FF4C870F6
:1009A00000F052FC02202B9001A800F0E9F9206031
:1009B00030B010BD000000007047000000000000D3
:1009C00047F2580147F2400C0020C2F20041C2F247
:1009D000004C002303E000BF0133062B09D0CA5CA2
:1009E000002AF9D05CF82320002A18BFC2E90B00C6
:1009F000F2E770470000000080B52DED068BB0EEE9
:100A0000609AB0EE408A00F0CFFAB0EE40AAB0EEA5
:100A1000490A00F03DF800F0C7FA30EE4A0A9FEDAF
:100A20000E1AB4EE410AF1EE10FA04DD9FED0D1A34
:100A300030EE010A0AE09FED091AB4EE410AF1EE28
:100A400010FA03DA9FED061A30EE010A30EE080ABA
:100A5000BDEC068B80BD00BF00003443000034C3F2
:100A60000000B4430000B4C3002818BF00290CD014
:100A700001394FF0FF3200BF00EB020C013211F8D8
:100A8000013F072A8CF80130F6D1704700000000C2
:100A90009FED021A20EE010A704700BFACFF333D04
:100AA00045F6C021C2F2004188420CD045F66032C2
:100AB00045F28871C2F20042C2F20041904218BF72
:100AC00000210846704745F22C70C2F20040704782
:100AD00000F006F8012007F0D3FDF9E70000000060
:100AE0002DE9F04F81B02DED028BFFF769FF45F244
:100AF000BC6946F2BA1AC2F20049C2F2004A4FF08B
:100B00000008D9F80C000130C9F80C0089F82980D8
:100B10009AF80000002800F0E78041F24C674FF09F
:100B2000000BC2F2004706E09AF800000BF1010B3F
:100B3000834580F0D98057F82B40002CF4D0D4F8AE
:100B4000C0010028F0D0204605F0B6FA04F13406C2
:100B5000304600F0FDF8054610B194F8D701B8B161
:100B600094ED6E0A94F83800B1EE401A0128E08E38
:100B700041FE000A40062CD53088402829D194F83F
:100B80003A00012807D1D4F8A80190ED008A13E0BB
:100B9000B4F8D40171E094F83C0094ED098A01287E
:100BA00004D1B0EE480AFFF727FF03E0B0EE600A79
:100BB000FFF76EFFF0EE400A94F83900B1EE480AF4
:100BC000012804F1400000FE080A05F071F8F0EE7B
:100BD000400AE08E000726D5308810F0480F22D05A
:100BE00094F83D0010F00A0F05D0D4F8B40190ED50
:100BF000000A70EE800A94F83B00012802D1D4F874
:100C0000AC0101E004F1100090ED000A94F8390005
:100C1000B1EE401A012804F1B80001FE000A05F007
:100C200047F8F0EE400A94F83D00C00705D0D4F82C
:100C3000B00190ED000A70EE800AE08EC00712D07D
:100C4000B4F9140000EE100A94F83900012804F5F4
:100C50009870B8EEC00AB1EE401A01FE000A05F025
:100C600027F8F0EE400ABDEEE00A002D10EE100A63
:100C7000A4F8D40118BF84F8D78194F8C421052AB8
:100C80003FF652AF47F24001C2F2004151F8221044
:100C900000293FF449AF94F8C561BC4601F12C032B
:100CA000050A7700013703F81650D855D4F8B85123
:100CB000C9F84450A9F8480089F82720DA1989F8BA
:100CC0002860674694F8C701002803EB460008BF78
:100CD000A0F80080896AC9F84C100078117841EAC0
:100CE0000020A9F850001FE747F2580447F2400AD5
:100CF000C2F2004401250026C2F2004A03E000BF10
:100D00000136062E1DD009EB060787F85280A05D3C
:100D10000028F5D099F8290005FA06F1084389F86A
:100D200029005AF826000028EAD000F06DF90028C2
:100D3000E6D009EB860087F85250816D013181655C
:100D4000DEE7BDEC028B01B0BDE8F08F00000000D3
:100D500068B141884A0602D50288402A05D00A07B0
:100D600007D5008810F0480F03D0012070470020FD
:100D7000704701F001007047012180F8C7117047EA
:100D8000F0B589B0E8B1054647F25E00C2F2004016
:100D9000007820B904F0D4FB002800F0B38046F2BC
:100DA000BA17C2F2004738780C2815D345F2BC6058
:100DB0000025C2F200404168013141600421817682
:100DC000E3E045F2BC600025C2F200404168013119
:100DD000416002218176D8E04FF4EC70FFF7D4FA3D
:100DE000002800F09A804FF4EC710446FFF73BFCBA
:100DF00095F8A000294684F8C601D5F894006063F0
:100E0000D5F89800A063D5F89C00E06304F59870CD
:100E100004F1400604F0DCFF04F1B80005F12C01F8
:100E200004F0D6FF05F15801304604F0D1FFD5F8A3
:100E30008400C4F8A801D5F88800C4F8AC01D5F83E
:100E40008C00C4F8B001D5F89000C4F8B401D5F80E
:100E5000A4000390D5F8A8000490D5F8AC00059044
:100E6000D5F8B0000690D5F8B4000790D5F8B800D2
:100E7000089003A9204604F047FD002858D0002020
:100E80008DF8180041F2C930C0F60000CDE9070422
:100E900003A800F0D9FD0028C4F8C00156D02046B0
:100EA00005F00AF90220009040F69170C0F60000AB
:100EB000CDE90104684600F05BFA0028C4F8C801D7
:100EC00052D02046FFF758FF38782546411C39702C
:100ED00041F24C61C2F2004141F8204045F2BC6051
:100EE000C2F2004001680131016000218176DDE934
:100EF00004120161426194F8C41194F8C52101768D
:100F0000427642E045F2BC600025C2F200404168F2
:100F1000013141600321817637E045F2BC60002554
:100F2000C2F20040416801314160052181762CE028
:100F30002046FFF758FA45F2BC600025C2F2004097
:100F4000416801314160062181761EE02046FFF7AD
:100F50004AFA45F2BC600025C2F200404168013106
:100F600041600721817610E0D4F8C0010025C0E976
:100F70002E552046FFF737FA45F2BC60C2F200401A
:100F800041680131416008218176284609B0F0BDF1
:100F9000002808BF7047D0F8C01100291CBF0021ED
:100FA00080F8C7117047000080B52DED028B9FEDD2
:100FB000098AF0EE480A09F0FCFB30EE081AB5EE9B
:100FC000400AF1EE10FAB8BFB0EE410ABDEC028B58
:100FD00080BD00BF0000B44300EE100AB1EE081A55
:100FE00000EBE03181EAE03080B2B8EEC00A0928B7
:100FF00020EE010A9FED021A38BFB0EE410A704799
:101000000000000000000000F0B589B000283ED0CC
:10101000076804464FF00006D7B3A06A0296CDE9F0
:101020000006082003903846FFF73AFD054638468B
:10103000CDE90466CDE90666089601F06DF950B376
:101040002646694656F82C0B324600F0EDFF002884
:1010500043D0002D5ED0A8690130A86100980399A3
:10106000069AA862E9622A6300F0C6F8BCEEC00ADC
:10107000012085ED0D0A314668642068D0F89C0097
:10108000A86405F14C00FFF7EFFC002600E0002605
:10109000304609B0F0BD002D3ED0E8690130E8616E
:1010A000A8690130A86100980399069AA862E962CC
:1010B0002A6300F0A1F8BCEEC00A032085ED0D0AFA
:1010C000686454F82C0B2146D0F89C00A86405F104
:1010D0004C00FFF7C9FC0026DAE7FDB16869013072
:1010E000686100980399069AA862E9622A6300F091
:1010F00083F8BCEEC00A002085ED0D0A3146686415
:101100002068D0F89C00A86405F14C00FFF7ACFC07
:101110000126BDE70026BBE70026B9E70126B7E7B1
:1011200001A1085C704700BF000102030405060727
:10113000080C101418203040C0F3034001A1085CD3
:10114000704700BF0001020304050607080C1014D5
:10115000182030400000000081B040F29410C2F22C
:101160000040017809B101B0704741F2040C01223E
:10117000CEF2000C0270DCF80020009240F28412E3
:10118000009BC2F2004211688B4206D240F28811E5
:10119000C2F200410B6801330B60DCF800101160F3
:1011A0000021017001B0704780B52DED028B82B037
:1011B00041F20401CEF2000109680191019902682F
:1011C000891A00EE101A40F27811C2F2004191ED36
:1011D000001AB8EE400AB8EE411A0199016080EE9B
:1011E000018AFFF7B9FFB0EE480A02B0BDEC028BEE
:1011F00080BD00000000000080B500F069F840F2FA
:10120000A01040F2A411C2F20040C2F200414FF41B
:101210007A729FED0B2A0068098800FB021040F2E9
:10122000A811C2F2004100EE100A098801EE101A5E
:10123000B8EE400AB8EE411A01EE020A80BD00BFC6
:101240006F12833A0000000080B54EF6FC51CEF2DA
:1012500000010A6842F080720A6041F200014CF617
:101260005562CEF20001CCF2AC52C1F8B02F002290
:101270004A600B6843F001030B6044F24021C0F266
:101280000F01484340F27811C2F20041086044F671
:10129000D351C1F26201A0FB01134DF68361C4F288
:1012A0001B31A0FB010140F27C10C2F200409B09FF
:1012B0000360880C40F28011C2F20041086040F2E5
:1012C0008810C2F200400260FFF746FF80BD0000B8
:1012D00070B582B041F20400CEF2000000680190C7
:1012E000FFF73AFF40F288104FF0FF31C2F20040A2
:1012F000002500230068019CE0FB014540F27810C6
:10130000C2F200402946066820463246FFF792F8AE
:10131000A0FB062301FB06310023A41A40F27C1235
:101320008D4140F2A011C2F20042C2F200411668A3
:101330000860204629463246FFF77CF881B240F229
:10134000A412C2F2004271430023108040F28012C6
:10135000C2F20042601A65F100011268FFF76AF8F4
:1013600040F2A811C2F20041088002B070BD000036
:1013700010B504461020FFF707F8002101608160D6
:101380002188D4E90123C360002908BF6421426099
:1013900046F2B9126388C2F200420180002B147831
:1013A00018BF19460181611C117041F2CC51C2F283
:1013B000004141F8240010BD018801817047000000
:1013C00070470000000000002DE9F04F81B02DEDC6
:1013D000068B002800F02981044690F8B400062806
:1013E00007D894F8B500002840F01F81082084F841
:1013F000B400D4F8BC5045B9204600F075FD002873
:1014000000F01881054604F057FE002D00F00D8114
:1014100045F2BC66C2F20046B0680130B060D5F853
:10142000C80108B1FFF7C8FF05F5E670FFF7BCFE7D
:10143000B5F802B085ED740AA5F800B0B0EE408AA8
:10144000B4F86D009FED7E9A00BA4FEA104AA5F8F5
:1014500002A000EE10AAB8EE400A20EE09AA85ED1F
:1014600001AAB4F86F00B4F8711002BA4FEA124939
:101470000ABA4FEA1248CFBAC0BAFFF7ADFDB5F9C4
:1014800014009FED702A9FED703AA5F8089001EEC8
:10149000100A85ED030A95F8D611B8EEC11A21EEAF
:1014A000021A02EE107AB8EEC22A02EE031ABDEE5C
:1014B000C11A11EE100AA88294F87300A87559B1E8
:1014C000AAEB0B014EF20002B1F5805FCFF6FF727E
:1014D00039DD4FF0FF333DE095ED0C1A40F201127B
:1014E0003AEE411AA5F8D621A5F800A0002185ED15
:1014F000040AD4F8B020E9629FED572AC5E9061A1C
:10150000C5F820A028EE022A85ED091A85ED0AAA61
:10151000F261A6F820A0A6F82290A6F8248086F80A
:10152000260095F8C40186F8270095F8C50186F8CD
:101530002800F162316386ED0D2A86ED0E0AF16313
:1015400086ED101A71E002F58052914206DA01230D
:101550004FF400521144EA6A1A44EA620A4600292A
:1015600048BF4A4201EE101A95ED042A9FED383A21
:10157000022A22EE032A9FED373AB8EEC11A9FEDF8
:10158000334AB5EE408A00EE032A21EE091A81EEB5
:10159000083A38BFB0EE443AB0EE425AF1EE10FAD3
:1015A000D8BFB0EE443A022AB5EE400A38BFB0EEDA
:1015B000445A95ED0A0AEA69F1EE10FA31EE000A92
:1015C00095ED0C4A05FE022A0A4485ED042A2B6A91
:1015D00030EE441AD31AC5E9063285ED091A012204
:1015E00085ED0A0A9FED1C0A85F8D721D4F8B020B2
:1015F000F26128EE000AA6F820A0A6F82290A6F82C
:10160000248086F8260095F8C40186F8270095F80E
:10161000C50186F82800F162336386ED0D0A86ED78
:101620000E2A86ED0F3A86ED101ABDEC068B01B03E
:10163000BDE8F08F0025002D7FF4EAAEF5E700BF8E
:10164000ACFF333DD0CCCC3D6666663F0000000069
:101650006666263F3333B33E00007A440000000044
:10166000EFF3108072B600BFFEE70000000000003C
:1016700044F60C00C5F60200016841F00201016069
:1016800050F8081C8904FBD57047000000000000DA
:1016900080B545F6C020C2F2004000F049FE80BD92
:1016A00080B545F6C020C2F2004000F041FE80BD8A
:1016B00080B545F66030C2F2004000F039FE80BDD2
:1016C00080B545F66030C2F2004000F031FE80BDCA
:1016D00070B588B000220792CDE90522CDE903223A
:1016E00004460092CDE9012200280D4618BF226869
:1016F000104600F071F906460120002C18BF002D9D
:1017000001D108B070BDD4F8B01029B3D4F800C02E
:101710006B79DCF8380098424FF00100F1D90022D3
:101720000491CDE9002302226946CDE9022040F26E
:10173000FF700590604600F0AFFC80B1002E4FF0C6
:101740000100DED031690131316170642168D1F866
:101750009C10B164697912E0002008B070BD68790E
:10176000002E00F101014FF000006971C9D0F2684C
:101770000132F26070642268D2F89C20B264717009
:1017800008B070BD0000000010B5082A28BF08226C
:1017900092B10139C2F1000C4FF0FF3200EB020EA2
:1017A00001320CEB020311F8014F01338EF80140B6
:1017B000F4D1511CC9B200E00021072988BF10BD37
:1017C0000844083901380022013100F8012FFBD309
:1017D00010BD00000000000070B582B0044608B1E2
:1017E000206800E0002000F0F7F82CB106462079D0
:1017F00028B1002002B070BD012002B070BD206889
:101800000221022201230125009500F089FC60B924
:10181000206801F0D9F840B920681121002200F0B9
:10182000C7FB78B1206801F0EBF84FF00100AEB1D2
:10183000B1680131B16070642168D1F89C10B16465
:1018400002B070BD01214FF00000217136B131703E
:1018500061797170716801317160ECE702B070BD3F
:101860002DE9F04F9BB08B46044600F0B5F80546D5
:101870002046594600F078FC00285ED005F1540857
:101880000DF144090DF1040A22E000BF0126D5B193
:1018900011981499A863E963FFF7AEFCBCEEC00A87
:1018A000002085ED100A514668643A46D4F89C0041
:1018B000A8644046FFF768FF2020002E18BF2420B0
:1018C0002958013129502046594600F04DFCA0B35B
:1018D000204659464A46534600F052FC38BB204643
:1018E000494600F02DF81499064600F055F9002EEF
:1018F0000746CBD02FB9304600F09EF8002808BF2D
:101900000827402F28BF402786F8B4702FB106F172
:101910006D0051463A46FEF705FED6F8B81000298C
:10192000B4D0304688470026002DB1D1CBE725B191
:1019300001206864D4F89C00A8641BB0BDE8F08F57
:1019400070B5044600284FF0000030D00D4671B34A
:10195000686868B92E680020B0EBD62F08D1204601
:1019600000F052F820B150F82600002818BF70BDD2
:1019700046F2B810C2F200400178C9B1017845F2D0
:101980007C62C2F20042012998BF012104E000BF3D
:10199000013902F104020BD010680028F8D0036866
:1019A000A342F5D12B68D0F8B060B342F0D170BD3E
:1019B000002070BD0000000040F2F8020021C2F2D9
:1019C000004200BF5358834204D008311029F9D196
:1019D000002070475018704745F6C021C2F2004100
:1019E00088420CD045F6603245F28871C2F200425E
:1019F000C2F20041904218BF00210846704745F2EC
:101A00002C70C2F20040704745F6C021C2F200417E
:101A100088420CD045F6603243F27C61C2F200424B
:101A2000C2F20041904218BF00210846704741F2BF
:101A30007C60C2F200407047C069A0F50010B0FAA7
:101A400080F04009704700002DE9F04F81B0A0B14F
:101A5000046806469CB12046FFF7AEFF88B1824677
:101A60002046FFF7D1FF46F2B819C2F2004999F8B3
:101A700000100F2907D900278AE0002788E00027F7
:101A800086E0002784E08046B568002D18BFB8F1D5
:101A9000000F50D1B1B145F27C60C2F2004003E0CA
:101AA000013900F104000DD0002DF9D00268002AA0
:101AB000F6D01368A342F3D1D2F8B020AA42EFD1F6
:101AC000002765E0C020FEF75FFC4FF0000BE0B39D
:101AD000C0210746FEF7C7FD317B3C607068786027
:101AE000C7F808B00029C7F80CB04FF0080218BFBB
:101AF0000121C7E909B03069C7F8B8007069C7F8B3
:101B0000BC0038460B05C7E9042BBB614B05C7E990
:101B1000073BC7F8B05087F8B51087F86C2000F085
:101B2000A3F838465146FFF7D3FD80B13846FEF79B
:101B30005AFC00272CE00020B0EBD52FAAD158F892
:101B400025000028A6D0002722E0002720E05046EC
:101B5000FFF742FE20B13846FEF745FC002717E0AC
:101B6000D7F8B000002818BFB8F1000F05D0002149
:101B7000B1EBD02F08BF48F8207099F80000411C45
:101B800089F8001045F27C61C2F2004141F82070F2
:101B9000384601B0BDE8F08FB0B50C46B1F5803FD6
:101BA000054605D32046FFF7C7FA08B1C0B2B0BD5D
:101BB000082C01D8E0B2B0BD1DB12846FFF73CFFAC
:101BC000B0B104F00F00FFF7ABFA0028EED1A4F19A
:101BD0000C004FEAB00100200D29E7D8012202FADB
:101BE00001F142F22F22114218BF2046C0B2B0BD0F
:101BF0000820C0B2B0BD0000B0B588B30446481E8E
:101C0000C0B20D463F2888BFB0BD204600F02CF87A
:101C10002046FFF711FF2946002808BF0821082D9C
:101C200098BF2946D0B1302901D9402116E020299A
:101C300001D9302112E0182901D920210EE0142900
:101C400001D918210AE0102901D9142106E00C2934
:101C500001D9102102E0082988BF0C2184F86C10FA
:101C6000B0BD000000000000B0B50446FFF7E4FE80
:101C7000054684F8B50010B90020C4E906002068C4
:101C8000FFF7AAFE002808BFB0BD8570E1690163B7
:101C9000B0BD0000000000002DE9F04F82B00168E7
:101CA000C76BD0E90DA2D1F884304FF6FC74A34382
:101CB00043EA8A03C1F88430D1F88430019223F4D6
:101CC0007F0343EA0243C1F8843002EB0A03D1F8F0
:101CD00088406FF38F0444EA8304C1F88840D1F848
:101CE0008840009724F4FE0444EA0744C1F8884081
:101CF00003EB4704D1F8A0306FF38F0343EA84036A
:101D0000C1F8A030D1F8A050D0F840B025F4FE05BD
:101D100045EA0B45C1F8A050D0F84480D1F8B05046
:101D20006FF38F0508FB0B4408FB0BF845EA8405AD
:101D3000C1F8B050D1F8B060856C26F4FE0646EAD2
:101D40000546C1F8B060D0F84C9009FB0547D1F8C2
:101D5000AC406FF38F0409FB05F944EA8704C1F82E
:101D6000AC40D0E9144606FB0472D1F8F0706FF372
:101D70008F0747EA8207C1F8F070D1F8F030876D1D
:101D800023F47C1343EA0743C1F8F03002EB470227
:101D9000D1F8C0306FF38F0343EA8202C1F8C0204C
:101DA000D1F8C020C36D22F47C1242EA0342C1F88C
:101DB000C0204AF60042D1F8C0C0D0F860E0C4F2BA
:101DC0000002019D02EB8A022CF07C5C06FB04FA07
:101DD000009C4CEA0E6C02EB8505C1F8C0C005EB17
:101DE000C406846E06EB8801056701EB890C63432A
:101DF0000CEB8A05C266C0E91E1C0EFB04F105EB64
:101E0000C70707EB8303C0F884704DF2FC374667C1
:101E100003EB8101C4F20007B942C0F88050C0F85A
:101E20008830C0F890100AD9D0F89C1041F02001F9
:101E3000C0F89C10032180F8981001210CE0D0F824
:101E400090108A4207D2002142F8041BD0F890304B
:101E50009A42F9D300E00021084602B0BDE8F08FB5
:101E6000F0B5D1F804C0D1F810E0BCF1000FD1F802
:101E700008C006D00C684EEA0C05254345F0804C9E
:101E800004E00D684CEA0E0444EA854C856ED0F8F7
:101E90008470D1E907466B438D6944EA0660D1F846
:101EA00014E0CC68054307EB830045EA0E0647F8CB
:101EB00023C046EA04434360CB68002B08BFF0BD53
:101EC0004AF6A04C083001320023C0F6000C00BFD7
:101ED000D71857F8017CC750CF6804331CF8077037
:101EE000BB42F5D3F0BD000010B54FF0000C48B375
:101EF00046F2BA11C2F200410A781AB30A7841F2E6
:101F00004C63C2F20043012A98BF012204E000BFE3
:101F1000013A03F1040317D0D3F800C0BCF1000F5D
:101F2000F6D0DCF8C0110029F2D081420AD0D1F8F5
:101F300000E00468A645EBD1D1F8B010D0F8B0406D
:101F4000A142E5D1604610BD4FF0000C604610BDC7
:101F5000B0B54EF60001C1F6F17108688A688018C4
:101F600008BFB0BD40F2DC054C68C2F20045082253
:101F7000A91C03F011FB05F112010422204603F015
:101F80000BFBB0BD00000000B0B5044600F080FEC1
:101F900040F208110546C2F20041621C097818BFE0
:101FA0000C4400BF00F074FE401BA042FAD3B0BD49
:101FB00090F89830013B012B0BD80068836D0B42E1
:101FC0000CD0836D0B408B420CD1C36D43F00203E8
:101FD00009E000F19C010120022221E0C36D43F0E1
:101FE000010300E00323C3658B0504D5D0F8E0307E
:101FF0001343C0F8E0304B0504D5D0F8E4301A4361
:10200000C0F8E4204FF6FF72436DC3F6CF720A406A
:102010001A4342658A0F4AF614010020C4F20001F7
:102020000B681A430A607047B0B5044690F89800F0
:1020300002281AD12068D0F8C03013F07C5F19D084
:10204000D0F8C4309B021AD4D0F8C400C0F30445C1
:1020500020462B46FFF704FF20680121A940C0F865
:10206000D0100020C4F89410B0BDD4F89C0040F00B
:10207000080008E0D4F89C0040F0200003E0D4F809
:102080009C0040F40070C4F89C000120B0BD00002A
:10209000704700000000000080B590F89820013AD9
:1020A000012A0AD80A68002ACA680ED00B69072AD2
:1020B00043EA427E16D18B6919E0D0F89C1041F0BA
:1020C0000201C0F89C10012080BD072A18D10A69BE
:1020D000D1F81CC012048B6942EA0C221A4342F068
:1020E000605217E0D1F808C04B6943EA8C73006F67
:1020F000496800EBC10240F831E00020536080BD28
:102100008B68D1F810C09B0743EAC2624B6942EA70
:102110000C421A434968C06E40F82120002080BD5F
:1021200090F898C0BCF1010F0DD19200006842EA0E
:102130000111DDF800C041EA430141EA0C01C0F899
:10214000801000207047D0F89C1041F00401C0F8C6
:102150009C10012070470000704700000000000044
:102160007047000000000000B422402908BFA422EC
:102170000068805800F07F007047000000000000F9
:1021800070B590F89850022D11D1402914D10468EF
:10219000D4F8A05015F4FE0F2BD0D4F8A4506D063F
:1021A0002CD0D4F8A450ED0130D4002531E0D0F883
:1021B0009C1041F0080125E041290FD10468D4F8B2
:1021C000B05015F4FE0F14D0D4F8B4506D0615D0ED
:1021D000D4F8B450ED0126D4002527E0056D8D42DA
:1021E00007D900F17C04D0F854E04FF0000C0D4604
:1021F00026E0D0F89C1041F0200103E0D0F89C10BC
:1022000041F48071C0F89C10012070BDD4F8A0503A
:10221000ED0FD4F8A440C4F3052404EB050E00F13F
:102220007404456C0BE0D4F8B050ED0FD4F8B44012
:10223000C4F3052404EB050E00F17804C56CF446E4
:1022400005FB0EF6246854F8265015F080455560BD
:1022500054F826E02EF0604508BFCEF38A4504EB23
:10226000860E156054F8265005F00055956054F818
:10227000264004F000441461BEF80440D461BEF866
:10228000064014F00F04D460DEF8044004F4801417
:102290005461DEF8044004F4001494619EF8074091
:1022A00004F07F041462DEF804404FEAD4745462F0
:1022B0000ED00EF108054AF6A04E0024C0F6000E1E
:1022C0002E5D1E550134D6681EF80660B442F7D361
:1022D000402904D10068C0F8A8C0002070BD412981
:1022E00004D10068C0F8B8C0002070BD1F2907D80D
:1022F0000068012202FA01F1C0F89810002070BDB8
:10230000006801F01F01012202FA01F1C0F89C10DF
:10231000002070BD000000000068D0F8C40000F08C
:102320003F00704700000000704700000000000000
:102330002DE9F04F87B004464AF61000C4F20000C1
:1023400001684AF61400C4F200000268206802EA3C
:10235000010A056DD0F85490076DD0F85480036DD4
:102360000293436D0193036D0693436D0593036DD3
:102370000493436D0393436D066D06EA030B5FEA16
:10238000CB530BD54FF4807101654AF61001002044
:10239000C4F2000108602046FFF7C6FF05EA0906FF
:1023A0004AF610095FEA4B50C4F200094FEA8A75F9
:1023B0000ED52068D0F8DC10D0F8E42011404FF49E
:1023C000806202650020C9F80000204600F070FB22
:1023D00008EA070806F4704655B120680021016537
:1023E0000AF00300C9F8000020462946FFF750FE16
:1023F000DDE9011000EA010708F00F0546B1206889
:10240000314606650020C9F80000204600F058FB60
:1024100007F0F00645B12068294605650020C9F897
:102420000000204600F0B8FA46B120683146066543
:102430000020C9F80000204600F0BAFA5FEA0B500D
:1024400000F1BF805FEA8B5000F1C9805FEA0B307A
:1024500000F1D8805FEACB3009D520684FF4803195
:1024600001650020C9F80000204600F01DFB5FEA6E
:102470004B30DDE9031000EA010509D520684FF46F
:10248000802101650020C9F80000204600F008FB0B
:102490005FEA8B30DDE9051000EA010005F06071AC
:1024A0000CD522684FF4003313650022C9F80020D0
:1024B000D4F89C2042F08002C4F89C2000F07155B2
:1024C00039B1206801650020C9F800002046FFF7F7
:1024D00047FE4DB1206805650020C9F80000D4F81A
:1024E0009C002843C4F89C002068A9F5016188423B
:1024F0005ED16068816889075AD0016A426A036ABE
:10250000476A114003EA070202F03005D0F8208044
:10251000D0F82490026A049211F00F01D0F824B090
:10252000026A0692426A0592466AD0F820A003D059
:102530000162204600F0A8FA08EA09072DB1606898
:1025400029460562204600F0A7FA06EA0A0007F4C9
:10255000C0754006049800EA0B060AD5606840235F
:10256000C16BC26B090C02F03F020362204600F00F
:102570008FFADDE9051000EA010706F4FC462DB1EB
:10258000606829460562204600F07AFA07F4F020D8
:1025900036B161680E62D4F89C103143C4F89C10C7
:1025A00030B161680862D4F89C100843C4F89C00FC
:1025B000D4F89C0010B12046FFF7CEFD07B0BDE86F
:1025C000F08F20684FF4006101650020C9F8000019
:1025D000204600F079FA5FEA8B507FF537AF20682C
:1025E000D0F8D810D0F8E02011404FF40072026506
:1025F0000020C9F80000204600F05EFA5FEA0B30C8
:102600007FF528AF20684FF4002101650020C9F84C
:102610000000204600F0BCF95FEACB303FF51DAF6B
:1026200025E70000000000002DE9F04130B34AF238
:1026300000080446C4F200080068404502D108F5CD
:102640008070606094F8980028B9002084F89900A0
:10265000204600F0F5F82068816921F010018161C1
:1026600000F016FB054600BF20688169090708D500
:1026700000F00EFB401B0B28F6D312E00120BDE852
:10268000F081816941F00101816100F001FB0546A3
:1026900020688169C90710D100F0FAFA401B0B28A5
:1026A000F6D3D4F89C0040F00100C4F89C0003204D
:1026B00084F898000120BDE8F081816941F00201B1
:1026C0008161217C826922F04002012918BF4032D9
:1026D0008261617C826922F48042012908BF02F58F
:1026E00080428261A17C826922F48052012918BF54
:1026F00002F580528261816921F44073D4E90212AB
:102700000B438361836923F0A4038361036923F08E
:1027100010030361AAB1022A0FD0012A03D18269F2
:1027200042F004020CE08369032A43F080038361D2
:10273000036943F01002026103D1826942F0200272
:102740008261D4E90552E369561E6FF0FF02276AE1
:1027500002EB0323013F43EA4663B1F5407F47EABA
:10276000030740F20003CFF6FF7303EB054647EA89
:102770000601C16110D1D4E90B65D4E90917013F05
:1027800002EB06226FF00F063A4306EB05173A43B9
:1027900003EB01411143C160216E29B1626ED0F893
:1027A000C0301A43C0F8C020E26DCA424AF6CC21BC
:1027B000C0F6000109D0D0F8C820A36E22F00702AD
:1027C00051F823301A43C0F8C820226C4AB1D0F81F
:1027D000BC20636C22F0070251F823301A43C0F882
:1027E000BC20A26C52B1D0F8BC20E36C22F0700285
:1027F00051F8233042EA0312C0F8BC20226D52B1D6
:10280000D0F8BC20636D22F4E06251F8231042EA54
:102810000121C0F8BC10404504D16068816821F0F6
:10282000030181600020C4F89400C4F89C000120DA
:1028300084F898002046FFF72FFABDE8F0810000E9
:10284000B0B5B8B0044602A8C0210025CDE9365580
:10285000CDE934553395FDF706FF4AF20041206873
:10286000C4F2000188423FD04AF20001C4F20001E4
:10287000884240F08A80002003904FF4004002908C
:102880004FF080501E9002A801F072F908B1FEF7D7
:10289000E7FE40F2981144F2E040C2F20041C5F672
:1028A00002000A68002A02F101020A6008D1C16828
:1028B00041F48071C160C16801F480710191019996
:1028C0000168152441F008010160006840F20041F0
:1028D00000F008000190C5F6020101980320339032
:1028E00001F50060132535E04FF4004002904FF0F1
:1028F00080501E9002A8039501F03AF908B1FEF746
:10290000AFFE40F2981144F2E040C2F20041C5F639
:1029100002000A68002A02F101020A6008D1C168B7
:1029200041F48071C160C16801F480710191019925
:102930000168162441F0020101600068142500F0CE
:102940000200019001984FF44050339040F2004053
:10295000C5F6020002213491002135910321369100
:102960000921379133A900F0B3F805210022284648
:1029700000F09AFA284600F093FA0521002220463A
:1029800000F092FA204600F08BFA38B0B0BD00009B
:102990007047000000000000C90708BF704780B5FD
:1029A0004021FEF75DFFBDE8804070470000000059
:1029B000C90658BF704780B54121FEF751FFBDE8F9
:1029C000804070470000000090F8981001290CD159
:1029D000022180F8981001688A6922F001028A6158
:1029E0000021C0F89C1008467047D0F89C1041F0B8
:1029F0000401C0F89C100120704700000000000096
:102A000090F89810022928D101688A6942F00102E1
:102A10008A618A69D20706D1342200BF013A24D0E4
:102A20008B69DB07FAD08A6922F010028A618A6911
:102A3000120706D5342200BF013A16D08B691B0756
:102A4000FAD48A6942F002028A610021C0F8941027
:102A5000012280F8982008467047D0F89C1041F079
:102A60000801C0F89C1001207047D0F89C1041F07C
:102A70000101C0F89C10032180F8981001207047D4
:102A800070470000000000007047000000000000D8
:102A900070470000000000007047000000000000C8
:102AA00070470000000000007047000000000000B8
:102AB00070470000000000007047000000000000A8
:102AC0007047000000000000704700000000000098
:102AD0002DE9F04F83B00C68002C00F0C68000F1A7
:102AE000264242F2004702F1FF72C5F602074FEAA2
:102AF000B22201920A22B84208BF0922002500270B
:102B00004FF0010A009209E00C68043734FA0AF227
:102B10000AF1010A05F1020500F0A780AAF10109F6
:102B2000012202FA09FE14EA0E08EDD0D1F804B031
:102B30000BF00304A4F1010CBCF1010F11D8032226
:102B40008668AA40CB6826EA0202AB401A4382603C
:102B5000CBF30013426822EA0E0203FA09F31A4388
:102B60004260032C1ED00323C268AB40022C22EA31
:102B700003028B6803FA05F342EA0302C26011D133
:102B80006FF0030207F01C0602EA59020F23024409
:102B900003FA06F4D2F820C00B692CEA0404B3400F
:102BA0002343136203230268AB404E689A4306F046
:102BB0000303AB4016F4403F42EA03020260A3D095
:102BC00044F2F44340F2084EC5F60203C5F6000E87
:102BD0001A6842F002021A601A6807F00C0302F049
:102BE00002020292029A29F00302019C009E092C23
:102BF00038BF26460F2452F80EC09C402CEA04042D
:102C000006FA03F34FF0B04C234342F80E30DCF8E1
:102C100000204B6842EA0806DC0258BF22EA080698
:102C20009C02CCF8006040F2040CC5F6000CDCF805
:102C3000002042EA080658BF22EA08069C03CCF8A6
:102C40000060DCF8802042EA080658BF22EA080645
:102C5000DB03CCF88060DCF87C2042EA080658BF31
:102C600022EA0806CCF87C604EE703B0BDE8F08F9E
:102C7000002A08BF090481617047000000000000BD
:102C800041F20000C5F600400068000C70470000EB
:102C90004FF27C00C2F20040006870470000000064
:102CA00040F208104FF27C01C2F20040C2F2004133
:102CB00000780A68104408607047000000000000B7
:102CC00080B5032000F000F901F0EEFD44F2184158
:102CD0004AF63C43C5F60201C0F600030A680968DB
:102CE00001F00F01C2F30322595C9A5C01F01F014D
:102CF00002F01F02D04040F22402C2F2004220FA49
:102D000001F1116040F22001C2F2004108600F2081
:102D100000F00AF800281CBF012080BD00F0A8F8D0
:102D2000002080BD00000000B0B58AB00F2842D856
:102D30000446372000222146002500F0B5F8372050
:102D400000F0AEF840F20C10C2F20040046044F211
:102D5000E840C5F60200016841F02001016000680A
:102D600001A900F020000290029802A801F034FDB1
:102D7000079C002C18BF012401F082FD4DF68361F1
:102D8000A040C4F21B3141F20042A0FB010146F217
:102D90006C10C2F200404FF0FF33C4F20002026038
:102DA00003EB9141C0E9011540F2E731C0E9031599
:102DB00002F066FA10B101200AB0B0BD46F26C1004
:102DC000C2F2004002F090FA0AB0B0BD000000006C
:102DD00010B54EF6A05E4178CEF2000E90F800C01D
:102DE0004EF8081CDEF8001021F00101CEF80010AA
:102DF00041684EF8041C017BC37A827A447B1B062F
:102E000043EA0171837B41EAC241C27B41EA8441CA
:102E1000447A41EA4341007A41EA024141EA04210D
:102E200041EA400040EA0C00CEF8000010BD00006E
:102E30004EF62450CEF20000BFF35F8F016821F4FC
:102E40008031016000210167704700000000000030
:102E50004EF6245140F00100CEF2000108670868E8
:102E600040F480300860BFF34F8FBFF36F8F70471F
:102E700080B582B044F2F4400022C5F60200016839
:102E800041F00201016000680F2100F00200019092
:102E900001986FF0010000F007F802B080BD00005B
:102EA00080B505F0DDF980BD70B514460D460646C7
:102EB00005F0E6F92946224602F0E2FD01463046D9
:102EC00005F0E6F970BD000080B505F0FDF980BDA4
:102ED00001680122C0F8D824002280F8CC24886937
:102EE00040F000608861486D40F08052002042F060
:102EF00003024A65704700007047000000000000B0
:102F0000026800205162704710B5D0F800C0DCF8AC
:102F10002400D9B1DCF82830B1F1010E00EB1343E5
:102F20000CD00021002000BF0CEB81010130D1F852
:102F30000441C1B28E4503EB1443F5D80CEB8E006F
:102F400043EA0241C0F80411002010BD40EA0240EB
:102F5000CCF82800002010BD80B5D0F8E00403F0C4
:102F6000E3FF80BD0000000080B501EBC10200EB73
:102F70008202D0F8E004126A03F042FF80BD000034
:102F800080B501EBC10200EB8202D0F8E004D2F878
:102F9000602203F08DFF80BD80B5D0F8E00403F01F
:102FA000C7FF80BD0000000080B501F00F020906D8
:102FB00002EBC20200EB820303F1140258BF03F5D7
:102FC00015720068114604F097FE80BD00000000F5
:102FD00010B5044601F00F000A0600EBC00104EB37
:102FE000810205D402F51571002382F8553203E001
:102FF00002F114010123537594F894240870012AF6
:1030000001D1022010BD012084F89404206804F04E
:10301000DBFB002084F8940410BD000000000000D9
:10302000B0B50279044601F00F00904201D90120A9
:10303000B0BD090609D400EBC001002304EB8102F6
:1030400002F5157182F8553207E000EBC00101234B
:1030500004EB810202F11401537594F894240025C5
:103060008D70012A087001D10220B0BD012084F8C2
:103070009404206804F0FCFC284684F89454B0BD05
:1030800001F00F0101EBC10100EB8100D0F86802F3
:103090007047000000000000B0B5054601F00F00C9
:1030A0000C0600EBC00105EB810C05D40CF5157185
:1030B00000248CF8554204E00CF1140101248CF832
:1030C00015404C7808706FF3DF228A60002C0B717A
:1030D00018BF4883022B01D10020487195F8940451
:1030E000012801D10220B0BD012085F89404286890
:1030F00004F096FA002085F89404B0BD00000000AA
:1031000080B501F00F0E0EEBCE0100EB810C00211B
:10311000CCE998238379CCF868128CF855120CF519
:103120001571012B8CF854E208BFCCF870220068AE
:103130001A4604F0EDFC002080BD000000000000F5
:10314000B0B50446007901F00F05854201D9012090
:10315000B0BD080609D401EBC100002204EB8000D9
:1031600000F5157180F8552207E005EBC500012236
:1031700004EB800000F11401427594F894240120BE
:103180008870012A0D7001D10220B0BD84F894042A
:10319000206804F095FC2DB9A179206804F29C42C6
:1031A00004F036FC002084F89404B0BD0000000058
:1031B00010B501F00F0C01240CEBCC0100EB810EDB
:1031C000714601F814CF4FF0000CC1F814C090F80C
:1031D00006C04C70CA60BCF1010F0B6108BFCEF88D
:1031E00030200068624604F093FC002010BD00000F
:1031F0002DE9F04F83B006688246304604F020FE89
:1032000010B103B0BDE8F08FDAF8000004F0A0FEC2
:103210000028F6D0D6F80808C0F30D20CAF8D40468
:10322000DAF8000004F094FE800705D5DAF8000013
:10323000416901F002014161DAF8000006F500671A
:1032400004F086FEC00640D5DAF80000816921F05E
:1032500010018161346A04F00F05C4F3434006286D
:103260001CD002282BD147F6F070044027D005EB84
:10327000C50022090AEB80053046D5F8601204F03B
:103280006BFED5F86002D5F8681200EB1410C5F893
:10329000600201EB1410C5F8680210E00AF29C41CC
:1032A0000822304604F058FE05EBC500C4F30A11AD
:1032B0000AEB8000D0F868221144C0F86812DAF8EE
:1032C0000000816941F010018161DAF80000CDE968
:1032D000017604F03DFE000370D5DAF8000004F03A
:1032E00013FE00286AD00646029800F530654FF0BC
:1032F000000940F2572400270BE000BFB9EB560F3E
:1033000007F101074FEA560605F1200504F12404F0
:1033100054D0F007F2D05FFA87F8DAF8000041469F
:1033200004F00EFE8346C00710D15FEA0B7016D47E
:103330005FEACB601CD45FEA8B701ED45FEA8B60BF
:1033400033D45FEA8B40D9D534E000BF0120A860B8
:103350005046394602F0DCFB5FEA0B70E8D50820E6
:10336000A8605046394602F0ABFB5FEACB60E2D57D
:103370001020A8605FEA8B70E0D5029840690006D3
:1033800004D50199486840F4806048601AF8040048
:10339000012805D1504641460AF8049000F04CFA45
:1033A0000220A8605FEA8B60CBD52020A8605FEA8E
:1033B0008B40A3D54FF40050A8609FE7DAF80000D7
:1033C00004F0C6FD400340F18780DAF8000004F005
:1033D00093FD002800F0808006460AF29C40009091
:1033E000029800F510680AF1170B4FF0000900274A
:1033F0000BE000BFB9EB560F07F101074FEA560685
:1034000008F120080BF1240B66D0F007F2D0FCB2D3
:10341000DAF80000214604F07FFD0546C0070BD115
:10342000280731D4E80634D4680637D4A8073AD43C
:103430002806DFD54BE000BF019A07F00F000123FB
:1034400003FA00F0516B21EA00005063C8F808301D
:103450009AF80600012811D1DBF80500DBF8091005
:103460000844CBF809004FB9DBF80D0030B9DAF8A1
:1034700000000121009A04F0CBFA00BF504621461B
:10348000FFF772FD2807CDD50820C8F80800E80628
:10349000CAD51020C8F808006806C7D54020C8F86B
:1034A0000800A807C4D50298394604F095FC9BF89B
:1034B0000000012805D1504621468BF8009000F00D
:1034C000B3F90220C8F8080028067FF593AF5046EC
:1034D000394602F089FB8DE7DAF8000004F038FD88
:1034E000B0F1FF3FDDE901981ADCD9F8040020F0C3
:1034F0000100C9F804009AF8CC04012807D1002083
:103500008AF8CC0400215046FFF7F6FC02E0504652
:1035100000F092FADAF80000416901F000414161DF
:10352000DAF8000004F014FD00050CD5D9F8080005
:10353000C00702D0504600F0CFFADAF80000416927
:1035400001F400614161DAF8000004F001FD0001BE
:1035500018D5DAF80000416901F0006141619AF87C
:10356000CC1419B1504600F0B7FA0BE001218AF8EB
:10357000CC14406D0121C0F38300CAF8D00450463A
:10358000FFF7BAFCDAF8000004F0E2FCC00460D5F2
:10359000D9F80400102120F00100C9F80400DAF87D
:1035A000000004F019FC9AF80400F8B19AF804102D
:1035B00008F5106000224FF67F3300BF83600132B0
:1035C00007688A4227F400170760C0F80832D0F86D
:1035D000007227F40017C0F80072D0F8007247F0AC
:1035E0000067C0F8007200F12000E7D3D9F81C0092
:1035F00040F00110C9F81C009AF80F0040B1D9F84A
:10360000840040F00B00C9F8840009F1440008E090
:10361000D9F8140042F22B010843C9F8140009F14B
:10362000100001680AF29C4241F00B010160D9F8D8
:10363000000020F4FE60C9F800009AF80610DAF8DD
:10364000000004F0E5F9DAF80000416901F4805166
:103650004161DAF8000004F07BFC80041CD5DAF844
:10366000000004F029F8DAF8000004F0D9FB8AF829
:103670000700DAF8004001F0DBF89AF8072001466D
:10368000204604F039FD504600F0C2F9DAF8000097
:10369000416901F400514161DAF8000004F058FC7E
:1036A000000708D5504600F0CFF9DAF8000041696C
:1036B00001F008014161DAF8000004F049FC00065D
:1036C0001DD5D8F8180020F08000C8F818009AF826
:1036D0000400022813D3012440F27B2506E000BF3A
:1036E0009AF8040001342435844208D21AF80500FF
:1036F0000128F5D1E1B25046FFF756FCF0E7DAF8C1
:10370000000004F025FCC00227D59AF80400022826
:103710001DD308F512640AF13C050126012706E0D5
:103720009AF8040001372034243587420FD22068EC
:10373000B0F1FF3FF4DC28780128F1D147F0800098
:1037400005F8016CC1B25046FFF72EFCE8E7DAF845
:103750000000416901F480114161DAF8000004F0D1
:10376000F7FB800237D59AF8040002282DD308F51C
:1037700032600AF51F710122012306E09AF80470F5
:10378000013320302431BB421FD20768B7F1FF3F1D
:10379000F4DC0E78012E02BFDAF8D46486EA17470B
:1037A0005FEAC777EAD101F8012CD8F8187047F022
:1037B0008007C8F81870D8F814703F06DED4D9F81E
:1037C000040040F40070C9F80400DAF80000416910
:1037D00001F400114161DAF8000004F0B9FB400087
:1037E00008D55046FFF7B8FBDAF80000416901F050
:1037F00080414161DAF8000004F0AAFB40077FF540
:1038000000ADDAF800004468600702D55046FFF7C3
:10381000C3FBDAF8000041682143416003B0BDE812
:10382000F08F00000000000080B5D0F8E00403F045
:10383000DFFB80BD0000000080B5D0F8E00403F09D
:10384000EBFB80BD00000000B0B582B000286BD05B
:10385000044690F8950428B9002084F89404204682
:1038600000F076F8032084F89504206804F0C8F886
:10387000D4E9000194F810C0D4E90223CDF800C0C7
:1038800003F02AFF00284CD12068002104F0E4FB5B
:10389000002846D194F804C0BCF1000F1CD094F865
:1038A00004C04FF0010E002300216046BCF1010F5F
:1038B00098BF704600EBC00082000020251824301D
:1038C00082422975E98501F1010185F815E02B7621
:1038D000EB612B626B62F1D1BCF1000F18D00CEBE5
:1038E000CC00002180000022002300BFA518243254
:1038F000904285F8543203F1010385F8551285F89A
:103900005812C5F85C12C5F86012C5F86412EDD102
:10391000D4E90001257CD4E90223009503F0BCFF23
:1039200028B1022084F89504012002B0B0BD002027
:103930006074012084F89504207B012802D1204680
:10394000FFF7C6FA206803F097FF002002B0B0BD71
:1039500070B5B8B0044602A8C0210026CDE936668D
:10396000CDE934663396FCF77EFE00212068C4F270
:103970000801884201D038B070BD4FF48020029019
:1039800005200C9060200D904FF4006011904FF4D2
:103990000010249002A8039602250E950A2413967F
:1039A000CDE90F4500F0E4F808B1FDF759FE00F04D
:1039B000D3F844F2D84633A9C5F60206B06840F001
:1039C0000100B060B06800F00100019001984FF470
:1039D000C050CDE9330500203794CDE935000020F3
:1039E000C5F60200FFF774F83068052140F000606A
:1039F00030603068002200F000600190019865207E
:103A0000FFF752FA6520FFF74BFA38B070BD00009F
:103A100010B5C179044631B1022901D1012102E07A
:103A2000FDF71EFE0121D4F8E00403F06DFBD4F88D
:103A3000E00403F019FB10BD80B5D0F8E00403F0FA
:103A400047FB80BD0000000080B5D0F8E00403F023
:103A50004BFB80BD0000000010B5044690F89404B4
:103A6000012801D1022010BD012084F89404617462
:103A7000206804F025FB002084F8940410BD0000A9
:103A800080B5D0F8E02400F29C41104603F048FBDA
:103A900080BD00000000000010B5044690F89404BA
:103AA000012801D1022010BD2068012184F894145E
:103AB000C168490606D5617B012903D1816B41F4B8
:103AC0008031816304F05CF9206803F0C5FE0020BA
:103AD00084F8940410BD000010B50446D0F8E0044A
:103AE00003F05AFB2068D0F8001E41F00101C0F835
:103AF000001EE07A002808BF10BD4EF61050CEF22E
:103B00000000016841F00601016010BD00000000E6
:103B1000B0B544F60C05C5F60205296849072968C1
:103B200005D401F00701081A18BF0120B0BD21F02B
:103B3000070108432860FFF7ABF8044655F8080C66
:103B4000800407D4FFF7A4F8001BB0F57A7FF5D9FD
:103B50000120B0BD0020B0BD44F60C00C5F6020047
:103B6000016841F0807101607047000000000000B2
:103B70002DE9F04381B00446C07844F22C49000797
:103B8000C5F6020901D400252EE0A06E4FEA3050A0
:103B900003280DD80025DFE800F0020E1714D9F82D
:103BA0000000002540F40030C9F8000055B913E0CA
:103BB00001253DB910E004F10800022102F05CF992
:103BC00005464DB1A84611E004F12800022102F09B
:103BD000E3F90546002DF5D1D9F82400A16E20F4B3
:103BE00040100843C9F824004FF000086078C0076F
:103BF00030D0A06D042807D8DFE800F00A131C03BA
:103C00000300FDB1A84625E00125002DFAD119E0F9
:103C1000D9F8000040F40030C9F80000002DF1D1BF
:103C200010E004F10800002102F026F90546002DFD
:103C3000E8D107E004F12800002102F0ADF90546C3
:103C4000002DDFD1D9F82400A16D20F00700084332
:103C5000C9F824006078800732D5E06D4FEAB010D3
:103C6000042807D8DFE800F00A131C030300FDB1A5
:103C7000A84625E00125002DFAD119E0D9F8000069
:103C800040F40030C9F80000002DF1D110E004F13B
:103C90000800002102F0F0F80546002DE8D107E009
:103CA00004F12800002102F077F90546002DDFD14C
:103CB000D9F82400E16D20F4E0700843C9F824002D
:103CC0006078400734D5D4F8A8004FEA7050042833
:103CD00007D8DFE800F00A131C030300FDB1A84673
:103CE00026E00125002DFAD119E0D9F8000040F4B2
:103CF0000030C9F80000002DF1D110E004F10800F7
:103D0000002102F0B9F80546002DE8D107E004F1E2
:103D10002800002102F040F90546002DDFD1D9F836
:103D20002C00D4F8A81020F460000843C9F82C0037
:103D30006078000734D5D4F8AC004FEA306004282E
:103D400007D8DFE800F00A131C030300FDB1A84602
:103D500026E00125002DFAD119E0D9F8000040F441
:103D60000030C9F80000002DF1D110E004F1080086
:103D7000002102F081F80546002DE8D107E004F1AA
:103D80002800002102F008F90546002DDFD1D9F8FE
:103D90002C00D4F8AC1020F0E0600843C9F82C00E7
:103DA000E078800728D5E06C4FEA3010032806D869
:103DB000DFE800F002091202B5B1A8461CE00125B7
:103DC000002DFAD110E0D9F8000040F40030C9F815
:103DD0000000002DF1D107E004F10800022102F0FB
:103DE0004BF80546002DE8D1D9F82000E16C20F011
:103DF00030000843C9F820006078C00632D5206E34
:103E00004FEA3030042807D8DFE800F00A131C031B
:103E10000300FDB1A84625E00125002DFAD119E0E7
:103E2000D9F8000040F40030C9F80000002DF1D1AD
:103E300010E004F10800002102F01EF80546002DF4
:103E4000E8D107E004F12800002102F0A5F80546BA
:103E5000002DDFD1D9F82400216E20F4E040084382
:103E6000C9F824006078800626D5606E4FEA30409D
:103E7000052807D8DFE800F0030A100303039DB10B
:103E8000A84619E00125002DFAD10DE004F1080043
:103E9000012101F0F1FF04E004F12800012102F00A
:103EA0007BF80546002DEBD1D9F82400616E20F493
:103EB000E0200843C9F824006078400628D5D4F8EB
:103EC000B0004FEA3070052807D8DFE800F0030A99
:103ED000100303039DB1A8461AE00125002DFAD175
:103EE0000DE004F10800012101F0C6FF04E004F137
:103EF0002800012102F050F80546002DEBD1D9F839
:103F00002C00D4F8B01020F0E0400843C9F82C0091
:103F10006078000620D5206FD8B1B0F1005F12D0D4
:103F2000B0F1805F25D1D9F8000040F40030C9F825
:103F3000000085B9D9F82400216F20F040500843D3
:103F4000C9F8240008E004F10800012101F094FF01
:103F50000546002DEED0A846E078C0072AD0A06C18
:103F600003280AD8DFE800F0020D1602D5B1A846F2
:103F700020E00125002DEED1DCE70125002DF6D152
:103F800010E0D9F8000040F40030C9F80000002D1E
:103F9000EDD107E004F10800022101F06DFF0546B4
:103FA000002DE4D1D9F82000A16C20F003000843D3
:103FB000C9F82000A078400642D5D9F8D40340F4CF
:103FC0008070C9F8D403FEF763FE0646D9F8D4031F
:103FD000C00505D4FEF75CFE801B6528F6D30325DB
:103FE0006DBBD9F84410D4F8B400414011F4407FBF
:103FF00011D0D9F84410D9F8442042F48032C9F8DD
:104000004420D9F8442021F4407122F48032C9F8C8
:104010004420C9F84410B0F5807F0FD1FEF738FE78
:10402000064641F2893700BFD9F84400800705D41D
:10403000FEF72EFE801BB842F6D3032585B1A846B5
:104040002078C00742D0E06F4FEAF000052823D85F
:10405000DFE800F003262C0303037DB3A84635E018
:104060004FF6CF73D4F8B40059F81C2CC0F2FF03FC
:1040700000F4407122F47C5203EA1013B1F5407F42
:1040800008BF1A436FF31F3049F81C2CD9F84410AD
:104090000843C9F84400D3E70125002DDED10DE027
:1040A00004F10800012101F0E7FE04E004F128001A
:1040B000012101F071FF0546002DCFD1D9F828006C
:1040C000E16F20F038000843C9F828002078800705
:1040D00024D5A06F052807D8DFE800F0030A1003F5
:1040E00003039DB1A84619E00125002DFAD10DE08A
:1040F00004F10800012101F0BFFE04E004F12800F2
:10410000012101F049FF0546002DEBD1D9F8280027
:10411000A16F20F007000843C9F828002078400765
:1041200026D5D4F89400052807D8DFE800F0030A64
:10413000100303039DB1A8461AE00125002DFAD112
:104140000DE004F10800012101F096FE04E004F105
:104150002800012101F020FF0546002DEBD1D9F800
:104160002C00D4F8941020F007000843C9F82C0064
:104170002078800628D5D4F890004FEA30700528C2
:1041800007D8DFE800F0030A100303039DB1A84637
:104190001AE00125002DFAD10DE004F108000021FC
:1041A00001F06AFE04E004F12800022101F0F4FEAF
:1041B0000546002DEBD1D9F82800D4F8901020F056
:1041C000E0400843C9F828002078400628D5D4F8F4
:1041D0009C004FEAB020052807D8DFE800F0030A6A
:1041E000100303039DB1A8461AE00125002DFAD162
:1041F0000DE004F10800002101F03EFE04E004F1AE
:104200002800022101F0C8FE0546002DEBD1D9F8A7
:104210002C00D4F89C1020F4E0500843C9F82C007E
:104220002078000628D5D4F8A0004FEA7030052881
:1042300007D8DFE800F0030A100303039DB1A84686
:104240001AE00125002DFAD10DE004F1080000214B
:1042500001F012FE04E004F12800022101F09CFEAE
:104260000546002DEBD1D9F82C00D4F8A01020F48D
:1042700060400843C9F82C002078000716D5D4F810
:104280008400B0F5805F08D104F12800022101F01C
:1042900083FE002818BF4FF00108D9F82800D4F891
:1042A000841020F440500843C9F828002078C00644
:1042B00016D5D4F89800B0F5807F08D104F1280015
:1042C000022101F069FE002818BF4FF00108D9F85B
:1042D0002C00D4F8981020F440700843C9F82C0042
:1042E000A078000722D5D4F8A400B0F5003F1AD07A
:1042F000B0F5803F11D0C8BB04F10800002101F0E7
:10430000BBFD05468DB9D9F82C00D4F8A41020F4D3
:1043100040300843C9F82C0008E004F128000221CD
:1043200001F03AFE0546002DEDD0A846A0784007E2
:1043300029D5D4F88800B0F5401F21D0B0F5001F72
:1043400018D0B0F5801F40F0BF80D9F8000040F4CD
:104350000030C9F80000ADB9D9F82800D4F88810A9
:1043600020F440100843C9F828000CE00125002D76
:10437000DBD1C8E704F12800012101F00DFE05465C
:10438000002DE9D0A846A078C00720D0206DB0F558
:10439000803F10D0B8B9D9F8000040F40030C9F817
:1043A00000009DB9D9F82000216D20F48030084329
:1043B000C9F820000BE004F10800022101F05CFDC7
:1043C00005461DB9EEE70125002DEBD0A846E078A3
:1043D000800608D504F12800022101F0DDFD002847
:1043E00018BF4FF00108D4E900108A037BD5D4F838
:1043F00080206FF0010303EB3223022B0AD34FEA34
:1044000032233BB1012B64D1D9F8003043F400339F
:10441000C9F80030002D5FD0CA0267D4CA006FD43B
:104420008A0279D44A0000F18280B1F1FF3F40F363
:104430008F80090200F19780C00707D004F10800BF
:10444000002101F019FD002818BF054620798007DA
:1044500007D504F10800012101F00EFD002818BF66
:1044600005462079400707D504F10800022101F034
:1044700003FD002818BF05462079000707D504F181
:104480002800002101F088FD002818BF054620798A
:10449000C00607D504F12800012101F07DFD0028A8
:1044A00018BF05462079800607D504F128000221AF
:1044B00001F072FD002818BF0125002D18BF01254D
:1044C000284601B0BDE8F0830125002D7FF45AAFE6
:1044D00042E70125002D9FD1D9F8283023F44073FD
:1044E0001A43C9F828204546CA0297D5D9F824208E
:1044F000636F22F000421A43C9F82420CA008FD506
:1045000059F81C2CD4F8B83022F480421A4349F8E8
:104510001C2C8A027FF586AFD9F82420E36E22F0A6
:1045200080721A43C9F824204A007FF57EAF59F8FB
:104530001C2C22F4004249F81C2CD4F8BC2059F859
:104540001C3C1A4349F81C2CB1F1FF3F3FF771AFF7
:10455000D9F82020636D22F040521A43C9F8202078
:1045600009027FF569AFD9F82810D4F88C2021F41E
:1045700040011143C9F82810C0077FF45FAF65E719
:104580002DE9F04381B0002800F0F48042F20008E9
:104590000446C5F200288946D8F8000000F00F0054
:1045A00088420ED2D8F8000020F00F0040EA09003F
:1045B000C8F80000D8F8000000F00F00484540F0AF
:1045C000D980206844F218474107C5F602070AD58A
:1045D00021693A6802F07002914204D93A6822F0E7
:1045E00070021143396001070AD561697A6802F0E7
:1045F0007002914204D97A6822F070021143796006
:10460000C1060AD5A1697A6802F4E062914204D930
:104610007A6822F4E0621143796081060AD5E16983
:10462000BA6802F07002914204D9BA6822F07002AE
:104630001143B96081070AD5E1683A6802F00F02B8
:10464000914204D93A6822F00F0211433960C00741
:104650007ED1206881070AD5E1683A6802F00F022E
:10466000914204D23A6822F00F0211433960D8F81F
:10467000001001F00F0149450DD9D8F8001021F0C4
:104680000F0141EA0901C8F80010D8F8001001F044
:104690000F0149456ED141070AD521693A6802F0F8
:1046A0007002914204D23A6822F0700211433960DC
:1046B00001070AD561697A6802F07002914204D25A
:1046C0007A6822F0700211437960C1060AD5A169A7
:1046D0007A6802F4E062914204D27A6822F4E062DD
:1046E0001143796080060AD5E069B96801F070016C
:1046F000884204D2B96821F070010843B86000F024
:10470000D3F839684AF63C42C0F600023B68C1F370
:10471000032103F00F03515CD25C01F01F01C8407C
:1047200002F01F0140F2240220FA01F1C2F200421D
:10473000116040F2200140F20C12C2F20041C2F2BC
:10474000004208601068FEF7EFFA01B0BDE8F083A0
:10475000386820F47061D4E90102012841EA0201BD
:1047600039600BD003282BD002282ED157F8181C03
:10477000890307D4012001B0BDE8F08357F8181C65
:10478000C905F7D557F8081C21F00701084347F879
:10479000080CFEF77DFA064641F2883557F8080CFA
:1047A000616800F03800B0EBC10F3FF452AFFEF784
:1047B0006FFA801BA842F1D9032001B0BDE8F08355
:1047C00057F8181C8901D5D5DCE757F8181C49079C
:1047D000D0D5D7E7000000003F22026044F2184223
:1047E000C5F6020252F8083C03F007034360136861
:1047F00003F470638360136803F00F03C3601368EE
:1048000003F070030361536803F07003436153685E
:1048100003F4E0638361926802F07002C26142F2C5
:104820000000C5F20020006800F00F00086070472B
:1048300080B500F039F844F218414AF63C43C5F619
:104840000201C0F600030A68096801F00F01C2F313
:104850000322595C9A5C02F01F0220FA02F201F076
:104860001F0040F2240122FA00F0C2F20041086069
:1048700040F22001C2F200410A6080BD0000000049
:1048800080B5FFF7D5FF44F21C414AF63C42C5F61D
:104890000201C0F600020968C1F30211515C01F087
:1048A0001F01C84080BD000044F20041C5F602016E
:1048B0000869C0F3C20003280FD002282AD070BBB9
:1048C0000868800649F20000C0F2D03058BF704737
:1048D0000968C1F3C101C84070478A6A886AC0F399
:1048E000051CC86ABCF1000F4B6B1DD0C3F3CC0391
:1048F00000F00100584302F00302022A00EE100A01
:10490000B8EE400A12D0A2B90868800614D49FED10
:10491000261A1EE047F64000C0F27D10704740F6B0
:104920000010C0F23D007047002070479FED1D1A37
:104930000FE09FED1B1A0CE0086849F20002C0F27C
:10494000D032C0F3C10022FA00F001EE100AB8EE36
:10495000411A086B9FED153A6FF35F2002EE100AC3
:10496000086BC0F34620B8EE422A013000EE032A5D
:1049700000EE10CAB7EE003AB8EE400A81EE000A27
:1049800032EE031A20EE010A01EE100AB8EE411AC7
:1049900080EE010ABCEEC00A10EE100A704700BF9C
:1049A0000024744A20BCBE4B0024744C0000003923
:1049B0002DE9F04381B0F8B18046007844F2004917
:1049C000C007C5F602095AD0D9F8100000F0380126
:1049D000D9F82800102905D018290FD100F00300BC
:1049E00002280BD1D9F80000800344D5D8F8040080
:1049F000002840D101272FE0012718E3D8F8044010
:104A00002CB1B4F5A02F0DD0B4F5803F10D0D9F85B
:104A1000000020F48030C9F80000D9F8000020F42C
:104A2000802009E0D9F8000040F48020C9F8000097
:104A3000D9F8000040F48030C9F80000FEF728F9EA
:104A40000546A4B1D9F80000800314D4FEF720F97C
:104A5000401B6428F6D903270020002800F0E782D5
:104A60000DE000BFFEF714F9401B6428F3D8D9F815
:104A700000008003F6D40120002800F0D88298F8C6
:104A80000000800740F18480D9F8100010F0380150
:104A9000D9F828001CD0182908BF5FEA807017D009
:104AA000D8F80C00D9F80010002847D021F01901DF
:104AB0000843C9F80000FEF7EBF80546D9F80000F6
:104AC00040072AD4FEF7E4F8401B0228F6D91EE07E
:104AD000D9F80000400704D5D8F80C00002800F0F1
:104AE0009681D9F80000D8F80C1020F0190008437E
:104AF000C9F80000FEF7CCF8054600BFD9F8000061
:104B000040070AD4FEF7C4F8401B0228F6D9032751
:104B10000024002C00F08B823AE0FEF7B1F841F25D
:104B20000301884223D8D8F81000D9F8041040288F
:104B300021F47C3124D141F4003023E021F0010044
:104B4000C9F80000FEF7A4F805460126D9F80000D0
:104B500010F0040086EA900417D0FEF799F8401B85
:104B60000328F3D30327002C00F0618210E0D9F86A
:104B70000400D8F8101020F0FE4040EA016001E087
:104B800041EA0030C9F804000124002C00F04F82F3
:104B900098F80000C00674D5D9F8100000F038016C
:104BA000D9F82800082905D018291CD100F00300E5
:104BB000012818D1D9F80000C00503D5D8F81C0089
:104BC000802859D1FEF75CF841F20301884222D8CF
:104BD000D8F82000D9F80410202821F0F84142D15B
:104BE00041F0804041E0D8F81C000028D9F80000CE
:104BF00020D040F08000C9F80000FEF749F80546D3
:104C0000D9F80000C005DDD4FEF742F8401B0228A9
:104C1000F6D9032731E0D9F80C00D8F8201020F09D
:104C20007C50012440EA0160C9F80C00002C00F01F
:104C3000FE8126E020F08000C9F80000FEF728F889
:104C400005460126D9F8000010F4807086EA102489
:104C50000ED0FEF71DF8401B0328F3D30327002CCA
:104C600000F0E5810DE041EA8060C9F8040001240C
:104C7000002C00F0DC8104E001270024002C00F06F
:104C8000D68198F8000000071CD498F80000800630
:104C900031D498F80000400745D4D8F82440002CBF
:104CA00000F09180D9F8100000F03800182840F08A
:104CB0008C80012CD9F82810D9F8300040F0A98058
:104CC0000127B4E1D8F814000028D9F874003ED0C8
:104CD00040F00100C9F87400FDF7DAFF054600BF97
:104CE000D9F874008007D0D4FDF7D2FF401B02280A
:104CF000F6D903279BE1D8F818000028D9F800005E
:104D00004DD040F48050C9F80000FDF7C1FF0546C2
:104D1000D9F800008004BCD4FDF7BAFF401B02287C
:104D2000F6D9032783E1D9F8000440F48070C9F86C
:104D30000004FDF7ADFF0546D9F80004C0051AD4FC
:104D4000FDF7A6FF401B6428F6D903276FE120F08A
:104D50000100C9F87400FDF79BFF0546032700BF5B
:104D6000D9F8740080077FF590AFFDF791FF401BE5
:104D70000228F5D95BE1D8F808402CB1052C00F0E9
:104D80008280012C00F08580D9F8700020F00100AD
:104D9000C9F87000D9F8700020F004007DE020F41C
:104DA0008050C9F80000FDF773FF0546032700BFD8
:104DB000D9F8000080047FF56CAFFDF769FF401B58
:104DC0000228F5D933E1002731E1D9F8000020F0BD
:104DD0008070C9F80000FDF75BFF022C05464FF01C
:104DE000030709D1D9F80000800178D5FDF750FFFD
:104DF000401B0228F6D91AE1D9F80000800140F1E1
:104E0000E780FDF745FF401B0228F5D90FE1012798
:104E10007EE601F00302D8F828309A4240F0DA80AA
:104E2000C1F30511D8F82C20914240F0D7800146FB
:104E3000D8F830206FF35F21013A914240F0D080E2
:104E4000C0F34622D8F8341001398A4240F0CA80B3
:104E5000C0F30642D8F8381001398A4240F0C480C5
:104E6000C0F30660D8F83C100139884240F0BE809B
:104E7000D9F83400D8F84810C0F3CC00814240F093
:104E8000B7800027D3E0D9F8700040F00400C9F8DB
:104E90007000D9F8700040F00100C9F87000FDF70B
:104EA000F7FE002C054641F288344FF0030711D07D
:104EB000D9F8700080073FF5F0AEFDF7E9FE401B22
:104EC000A042F5D9B3E000BFFDF7E2FE401BA042CF
:104ED00000F2AD80D9F870008007F5D4DDE608F166
:104EE0002807D9F8280040F2F33188438ECF0843D1
:104EF000591E40EA02104FF47E426FF35F21C9F859
:104F0000280002EB47204FF4FE0280B2D8F83C3074
:104F10000844D8F8381002EB01414FF0FE4201F48A
:104F2000FE0102EB0362084402F0FE410844C9F8A6
:104F30003000D9F82C004FF6F87120F00100C9F8C4
:104F40002C00D9F83400D8F84820884340EAC20041
:104F5000C9F83400D9F82C00D8F8401020F00C0023
:104F60000843C9F82C00D9F82C00D8F8441020F0D8
:104F700002000843C9F82C00D9F82C0040F4803016
:104F8000C9F82C00D9F82C0040F40030C9F82C00E6
:104F9000D9F82C0040F48020C9F82C00D9F82C0056
:104FA00040F00100C9F82C00D9F8000040F08070F2
:104FB000C9F80000FDF76CFE04460327D9F800008D
:104FC000800109D4FDF764FE001B0228F6D92EE00B
:104FD00000272CE001272AE0002728E0012726E00F
:104FE000012724E0012722E0012720E001271EE01D
:104FF000D9F82C0020F00100C9F82C00FDF748FE7C
:105000000546FDF745FEA842FBD0D9F834004FF61F
:10501000F871D8F848208843002740EAC200C9F850
:105020003400D9F82C0040F00100C9F82C00F8B287
:1050300001B0BDE8F08300002DE9F041002800F048
:10504000BC80044643F60006C4F2000643F20007A3
:10505000256843F60048B542C4F20107C4F20008CF
:105060004FF00000A06204D0454518BFBD4240F09B
:10507000A080204601F048F8B54218BFBD4240F07C
:105080008B80102800F2998094F8810028B90020C4
:1050900084F88000204600F093F8022084F8810014
:1050A0002068D4F818E00268BEF1806F22F0010297
:1050B000026087680FD162682AB1B2F5800F0AD109
:1050C000A36B23B13AB9A26BB2F1805F03D102683E
:1050D00042F480520260636807F4F81713F4800CFE
:1050E00008D0E668072E05D30668256D26F480767D
:1050F0002E4302E0066826F480760660E669A56A1B
:1051000047EA0607E66B47EA050747EA0607D4E9D8
:105110000285D4E9042145EA07058560656B43EA09
:105120000E07666A47EA0507A56B47EA060747EADE
:10513000050742EA0702276A41EA0201E26C41EAF6
:105140000701A76C41EA0201A26D41EA080141EAA8
:10515000070141EA0201C1604BB98168012262F393
:10516000CC2181608168022262F34A218160016D55
:10517000BCF1000F21F00101016505D0C168626D2D
:1051800021F000411143C1600020C4F884000121D6
:1051900084F88110BDE8F081454518BF08280CD877
:1051A000B54218BFBD423FF46CAF45453FF469AF0F
:1051B0006AE7E0680F287FF65CAF0120BDE8F08168
:1051C000B0B5B8B0044602A8C0210025CDE93655D7
:1051D000CDE934553395FBF746FA43F200012068D8
:1051E000C4F20101884201D038B0B0BD4FF4805004
:1051F000029002A803951A95FEF7BAFC08B1FCF7D5
:105200002FFA44F2E040C5F60200016941F48051F2
:105210000161016901F4805101910199016841F036
:10522000010101600068002100F001000190019877
:10523000E020339002203490CDE9351005203790DE
:10524000002033A9C5F60200FDF742FC38B0B0BD1E
:1052500040F20442C5F60002136823EA0000084346
:105260001060704700000000704700000000000060
:1052700070470000000000007047000000000000C0
:1052800060B310B5044690F83D0028B9002084F8BA
:105290003C00204600F024F8022084F83D002068FD
:1052A000211D01F049F8012084F8480084F83E00EF
:1052B00084F83F0084F8400084F8410084F84200FC
:1052C00084F8430084F8440084F8450084F84600DC
:1052D00084F8470084F83D00002010BD012070478D
:1052E000704700000000000090F83D1001291BD11C
:1052F000022180F83D10016841F2FF70C4F2000005
:105300008142C86840F00100C8600FDC40F2FF70C5
:10531000C4F20000814217DCB1F1804F2BD040F283
:105320000040C4F2000024E00120704740F2FF304A
:10533000C4F20100814212DC41F60000C4F2000018
:10534000814218D0002012E040F60000C4F20000B4
:10535000814210D040F60040C4F2000009E044F25F
:105360000000C4F20100814205D040F20040C4F2C6
:10537000010081420BD107228868C0F2010202407D
:105380000020062A18BFB2F5803F00D17047086898
:1053900040F001000860002070470000000000009D
:1053A0007047000000000000F0B581B004460068BE
:1053B000C768066906EA0705A90727D4680756D40F
:1053C00028076CD4E80600F18280E80706D0206840
:1053D0006FF001010161204600F09EF817F0800790
:1053E00018BF16F4025006D020686FF40251016114
:1053F0002046FFF73DFF002F18BF16F4807011D133
:10540000680618D4A8061FD401B0F0BD6FF00201E1
:10541000016101212177806980071ED02046FFF7B6
:10542000BFFF20E020686FF4807101612046FFF724
:105430001BFF6806E6D520686FF040010161204639
:1054400000F076F8A806DFD520686FF02001016132
:105450002046FFF711FF01B0F0BD204600F054F8E0
:10546000204600F055F8002020776807A8D520686E
:105470006FF00401016102212177806910F4407FFF
:1054800003D02046FFF78CFF05E0204600F03CF8F3
:10549000204600F03DF800202077280792D52068AC
:1054A0006FF00801016104212177C069800703D0F2
:1054B0002046FFF775FF05E0204600F025F820465E
:1054C00000F026F800202077E8067FF57EAF206800
:1054D0006FF01001016108212177C06910F4407F4D
:1054E00003D02046FFF75CFF05E0204600F00CF8F3
:1054F000204600F00DF800202077E8077FF467AF22
:105500006CE7000000000000704700000000000091
:10551000704700000000000080B541F200410068C3
:10552000C4F20001884218BF80BDFDF7B9FB80BD01
:105530007047000000000000FEE7000000000000CF
:1055400070B547F240054AF670460024C2F20045A5
:10555000C0F6000655F8240040B906EBC40156F821
:105560003400496800F0B8FD45F8240055F82400DF
:1055700048B10134062CEDD147F25E010120C2F2A0
:105580000041087070BD45F2BC600121C2F20040CC
:105590008176002070BD000010B5002A08BF10BD44
:1055A00002394FF0370C4FF0000E00BF030FB0F17F
:1055B000204F0CEB107438BF03F13004013A4FEA6E
:1055C000001001F8024F81F801E0EFD110BD00009A
:1055D00080B584B00020CDE90200CDE90000FDF7E0
:1055E00027FC00210120C3F2040101910E21ADF836
:1055F0000000C0F20131CDE902106846FDF7E8FB7A
:105600000420FDF725FC04B080BD00000000000070
:1056100080B545F6C0204AF20001C2F200400222E5
:1056200000F12407C4F2000101600021C0E9021169
:105630004FF0010CA0F810C08174052343610423CE
:1056400083614FF00F0EC0E907E387E80450C0E91B
:105650000C3108221823C0E90E2103641223C0E98B
:105660001132C0E91331C0E91531C1652022C0E90A
:1056700018218366FCF7D8FF002808BF80BDFBF720
:10568000EFFF80BD0000000080B545F660304AF2B3
:105690000041C2F20040022200F12407C4F20001DE
:1056A00001600021C0E902114FF0010CA0F810C008
:1056B000817405234361042383614FF00F0EC0E919
:1056C00007E387E8045003634FF4A06242630822B3
:1056D000C0E90E21182303641223C165C0E9113209
:1056E000C0E91331C0E9153120228366C0E91821D1
:1056F000FCF79AFF002808BF80BDFBF7B1FF80BD13
:1057000080B540F669104AF61842C0F60000C0F6AF
:105710000002002102F0F8FF40F28C114AF64C42E0
:10572000C2F20041C0F60002086040F6D120C0F687
:105730000000002102F0E8FF40F290114AF6D44246
:10574000C2F20041C0F60002086048F25120C0F6E3
:105750000000002102F0D8FF4FF26401C2F20041C4
:10576000086080BD000000002DE9F04387B044F2DE
:10577000E0400026C5F602000696CDE90466CDE9B4
:1057800002660168002441F0800101600168C5F6ED
:10579000020401F0800101910199016841F00401C6
:1057A0000160016804F5006501F0040101910199AF
:1057B000016841F0010101600168002201F001016E
:1057C00001910199016841F00201016001684FF007
:1057D000070901F0020101910199016841F00801F6
:1057E00001600068072100F0080001900198284638
:1057F000FDF73EFA1021012220464FF01008012744
:10580000FDF736FACDE9046602AE28463146CDE909
:105810000297FDF75DF90220059020463146CDE95B
:1058200002870497FDF754F94FF080600021FFF7DD
:105830000FFD07B0BDE8F08310B546F2E40443F273
:105840000000C2F20044C4F20100072120604FF4BE
:10585000800060600020A060C4E9031060614FF028
:105860008061A1614FF04051C4E90710C4E909000B
:10587000E06204F134002821FAF7F5FE2046FFF734
:10588000DBFB002808BF10BDFBF7EAFE10BD0000DF
:1058900080B545F2E47040F20001C2F20040C2F26D
:1058A0000041002201F084FA08B1FBF7D9FE45F26D
:1058B000E47040F22801C2F20040C2F2004101F05F
:1058C00097FC08B1FBF7CCFE45F2E47040F2C4014E
:1058D000C2F20040C2F2004100F08AFF08B1FBF7BB
:1058E000BFFE45F2E470C2F2004001F049FD08B18C
:1058F000FBF7B6FEFEF730F980BD000000000000A7
:10590000FEE7000000000000F0B50022002818BFEC
:10591000002901D11046F0BD4C680022A4F1010C11
:10592000BCF1070FF6D80B68002BF3D090F8C62116
:10593000561E022E0ED25FFA8CF2032A1BD845F6B1
:10594000C0244FF0040EC2F20044A34208BF4FF03F
:10595000010E1BE0032A40F07F805FFA8CF245F6CF
:10596000C027C2F20047032A41D8B3EB070E18BF85
:105970004FF0030E43E045F6C026A4F1050CC2F239
:105980000046B3EB060E18BF4FF0030E5FFA8EF41D
:1059900047F24005C2F2004502F201228A6055F842
:1059A0002450002D58D046F2BA11C2F200410D78B1
:1059B000002D53D0097841F24C65C2F2004501290F
:1059C00098BF012104E000BF013905F1040545D06D
:1059D0002E68002EF8D0D6F8C061002EF4D03768BB
:1059E0009F42F1D1D6F8B0609642EDD134E04FF04D
:1059F000050EA4F1050CBB4208BF4FF0020E5FFA82
:105A00008EF447F24005C2F2004502F205228A6098
:105A100055F8245005B346F2BA11C2F200410D7890
:105A2000E5B1097841F24C65C2F20045012998BF01
:105A3000012103E0013905F104050FD02E68002E85
:105A4000F8D0D6F8C061002EF4D037689F42F1D16B
:105A5000D6F8B0609642EDD10020F0BD47F2580173
:105A60000122C2F200410A5580F8C5C180F8C4E1A4
:105A70001046F0BD00000000FEE70000000000003E
:105A800000F007004FF0FF3C80F00703042B28BF15
:105A90000423033838BF00200CFA03F399430CFAAF
:105AA00000F301FA00F022EA030108437047000006
:105AB00080B545F60040C2F20040FDF799FB80BD7D
:105AC00070B50446006843F20B06056C00EB41100C
:105AD000C4F65476B542D0F8081B07D311F4004140
