:020000040800F2
:10000000E09400244103000849740008D96D0008F9
:100010005171000881080008017E000800000000FE
:10002000000000000000000000000000217B00082C
:100030001118000800000000D1760008817B00083C
:100040005F0300085F0300085F0300085F03000808
:100050005F0300085F0300085F0300085F030008F8
:100060005F0300085F0300085F0300085F030008E8
:100070005F0300085F0300085F0300085F030008D8
:100080005F0300085F0300085F030008211C0008ED
:10009000411C0008311C0008511C00085F030008C7
:1000A0005F0300085F0300085F0300085F030008A8
:1000B0005F0300085F0300085F0300085F03000898
:1000C0005F0300085F0300085F0300085F03000888
:1000D0005F0300085F0300085F0300085F03000878
:1000E0005F0300085F030008000000005F030008D2
:1000F0005F0300085F0300085F0300085F03000858
:100100005F0300085F0300085F0300085F03000847
:100110005F0300085F0300085F0300085F03000837
:100120005F0300085F0300085F0300085F03000827
:100130005F0300085F0300085F0300085F03000817
:1001400000000000000000000000000000000000AF
:100150005F0300085F0300085F0300085F030008F7
:100160005F0300085F0300085F0300085F030008E7
:100170005F0300085F0300085F0300080000000041
:100180005F0300085F0300085F0300085F030008C7
:100190005F0300085F0300085F0300085F030008B7
:1001A0005F0300085F0300085F0300085F030008A7
:1001B0005F0300085F0300085F0300085F03000897
:1001C0005F0300085F0300085F0300085F03000887
:1001D0005F0300085F0300085F0300085F03000877
:1001E0005F0300085F0300085F0300085F03000867
:1001F0005F0300085F0300085F0300085F03000857
:100200005F0300085F0300085F0300085F03000846
:100210005F0300085F0300085F0300085F03000836
:100220005F0300085F0300085F0300080000000090
:100230005F0300085F030008000000005F03000880
:100240005F0300085F0300085F0300085F03000806
:100250005F0300085F0300085F0300085F030008F6
:100260005F0300085F0300085F0300085F030008E6
:100270005F0300085F0300085F0300080000000040
:100280005F0300085F0300085F0300080000000030
:10029000000000005F03000800F002F800F040F8E2
:1002A0000AA090E8000C82448344AAF10107DA45D1
:1002B00001D100F035F8AFF2090EBAE80F0013F0E3
:1002C000010F18BFFB1A43F0010318478083000099
:1002D000A0830000103A24BF78C878C1FAD852072A
:1002E00024BF30C830C144BF04680C6070470000B0
:1002F0000023002400250026103A28BF78C1FBD82F
:10030000520728BF30C148BF0B6070471FB508F0C7
:1003100059F89DE8030000F0C3F91FBD10B510BDEA
:1003200000F02AFA1146FFF7F1FF07F089FF00F00D
:1003300048FA03B4FFF7F2FF03BC00F079FA0000BB
:100340000A4880470A4880470A480047FEE7FEE718
:10035000FEE7FEE7FEE7FEE7FEE7FEE7FEE7FEE775
:1003600005480649064A074B70470000F91B00087C
:10037000717C000899020008E0440024E094002405
:10038000E0840024E084002470B5064600F06CF997
:10039000056806F10B0020F00704B4429CBF002062
:1003A00070BD2B466A68BAB11068A04210D304F140
:1003B000080188423CBF5068586007D35168101943
:1003C00041601168091B016058601460101D70BD08
:1003D00013465268002AE7D12146284600F04CF91E
:1003E0000028DED170BD70B50446051F00F03CF951
:1003F0000068002C14BF446870BD002C18BFAC42CC
:100400003CBF20466468F8D301680A18AA4218BFA6
:10041000456003D12A6805461144016028684119E6
:10042000A1421CBF6C6070BD6168696021680844AE
:10043000286070BD53EA020C00F069802DE9F04B92
:100440004FF00006002B1FBFB3FA83F503FA05F443
:1004500024FA05F65E4012BF1643B2FA82F502FA9C
:1004600005F4C5F120051EBF22FA05FC44EA0C0480
:10047000203556EA044C4FEA144418BF641C4FF070
:1004800000084FF00009904271EB030C39D30029AA
:1004900019BFB1FA81F701FA07F6B0FA80F700FA4E
:1004A00007F6C7F120071EBF20FA07FC46EA0C0634
:1004B0002037B6FBF4FCA7EB0507103F07F01F0B36
:1004C000CBF120062CFA06F60CFA0BFB44BFB34620
:1004D0000026202FA4BF5E464FF0000B5BEA060CFF
:1004E00008BF4FF0010B19EB0B0948EB0608ABFBFB
:1004F000027C06FB02CC0BFB03CCC01B71EB0C0196
:10050000C1E70B46024641464846BDE8F08B13B5AD
:10051000084318BF4FF0FF300146AFF30080BDE83D
:100520001C407047032A40F2308010F0030C00F0AA
:10053000158011F8013BBCF1020F624498BF11F81D
:1005400001CB00F8013B38BF11F8013BA2F10402D6
:1005500098BF00F801CB38BF00F8013B11F003034E
:1005600000F02580083AC0F0088051F8043B083AB2
:1005700051F804CBA0E80810F5E7121D5CBF51F854
:10058000043B40F8043BAFF30080D20724BF11F8CE
:10059000013B11F801CB48BF11F8012B24BF00F833
:1005A000013B00F801CB48BF00F8012B704710B5A4
:1005B000203AC0F00B80B1E81850A0E81850B1E81C
:1005C0001850A0E81850203ABFF4F5AF5FEA027C5B
:1005D00024BFB1E81850A0E8185044BF18C918C08B
:1005E000BDE810405FEA827C24BF51F8043B40F82C
:1005F000043B08BF7047D20728BF31F8023B48BF11
:1006000011F8012B28BF20F8023B48BF00F8012B4E
:1006100070474FF0000200B51346944696462039C5
:1006200022BFA0E80C50A0E80C50B1F12001BFF4AB
:10063000F7AF090728BFA0E80C5048BF0CC05DF811
:1006400004EB890028BF40F8042B08BF704748BF5F
:1006500020F8022B11F0804F18BF00F8012B7047D3
:10066000704770477047000000487047280000241A
:10067000704770477047704738B504460A460020F7
:100680006946AFF30080002808BF38BD02460099D4
:10069000204600F04FF8012038BD012000F064B87A
:1006A000F8B5AFF30080054600200C46102000BFCF
:1006B0000646A819A0420DD9324669460020AFF37C
:1006C0000080070008BF00F04FF80098A04218BF54
:1006D0000546C419FFF7C8FF05600746F01D20F066
:1006E00007004619284600F00AF8B44208BFF8BDD2
:1006F000A21B31463868BDE8F84000F01BB8002165
:100700000160C0E9011070471020704710B500F07B
:100710000DF8006810BD10B5044600F007F804603D
:1007200010BD0000004870472000002400487047BA
:1007300020000024034640688C46002818BF8842E9
:100740003CBF03464068F8D318681844884207D075
:100750000CF1030020F00700001D411A521A014657
:10076000081D0A60FFF73FBE10B500F039F8BDE87C
:10077000104000F02FB870477546FFF7D3FFAE4624
:1007800005006946534620F00700854618B020B59D
:10079000FFF7E6FDBDE820404FF000064FF00007F0
:1007A0004FF000084FF0000BAC46ACE8C009ACE8D5
:1007B000C009ACE8C009ACE8C00921F007018D46CA
:1007C000704710B50446AFF300802046BDE81040E6
:1007D000FFF7AFBD002801D000F02AB87047000035
:1007E00010B5012805D0002103A000F027F8012052
:1007F00010BD09A1F8E7000053494752544D454D3B
:100800003A204F7574206F662068656170206D65B1
:100810006D6F7279000000003A2048656170206DAC
:10082000656D6F727920636F7272757074656400A4
:1008300001491820ABBEFEE72600020070B5054650
:100840000C460A2000E06D1C00F011F835B1287844
:100850000028F8D102E0641C00F009F814B12078F7
:100860000028F8D1BDE870400A20AFF3008008B539
:1008700069468DF800000320ABBE08BD00000000F3
:10088000FFE7FEE70000000080B5B0B048F2D441B9
:10089000C0F6000101A8BC22FFF789FE44F2B8406F
:1008A000C2F20040006808B1FFE70EE04FF4C870E4
:1008B00000F092FE02202B9001A800F05DFB44F2B4
:1008C000B841C2F200410860FFE730B080BD0000CF
:1008D00080B544F2B840C2F20040006808B9FFE7B2
:1008E00009E044F2B840C2F2004000689FED020AFD
:1008F00000F0AAFCFFE780BD0000004500000000FA
:1009000080B544F2B840C2F20040006808B9FFE781
:1009100004E0FFF7DDFF00F0DBF8FFE780BD00003B
:1009200081B000200090FFE70098052821D8FFE75C
:10093000009944F2D440C2F20040405CA0B1FFE70D
:10094000009944F2BC40C2F2004050F8210058B176
:10095000FFE7009944F2BC40C2F2004050F8211079
:1009600000200863C862FFE7FFE7009801300090AD
:10097000DAE701B07047000080B586B08DED050A5A
:10098000CDED040A9DED050A00F06AFC8DED030A29
:100990009DED040A00F068F800F062FC8DED020A9B
:1009A0009DED020A9DED031A30EE410A8DED010A1C
:1009B0009DED010A9FED161AB4EE410AF1EE10FA10
:1009C00009DDFFE79DED010A9FED141A30EE010AE3
:1009D0008DED010A13E09DED010A9FED0E1AB4EEB4
:1009E000410AF1EE10FA09DAFFE79DED010A9FEDE9
:1009F0000A1A30EE010A8DED010AFFE7FFE79DEDCF
:100A0000050A9DED011A30EE010A06B080BD00BF57
:100A100000003443000034C30000B4430000B4C3FA
:100A200083B002900191029818B1FFE7019808B9CC
:100A3000FFE715E000208DF80300FFE79DF80300B5
:100A400007280DD8FFE701989DF80320805C0299E4
:100A50008854FFE79DF8030001308DF80300EDE7AF
:100A600003B070470000000081B08DED000A9DEDDD
:100A7000000A9FED031A20EE010A01B0704700BF83
:100A8000ACFF333D0000000082B00090009844F2BB
:100A9000EC21C2F20041884206D1FFE744F2342043
:100AA000C2F20040019010E0009844F28C31C2F292
:100AB0000041884206D1FFE744F29020C2F2004094
:100AC000019002E000200190FFE7019802B070471A
:100AD00080B58AB0FFF724FF44F2C411C2F200418E
:100AE000C8680130C860002081F829000790FFE73E
:100AF000079844F2B641C2F200410978884280F07A
:100B00009A81FFE7079940F24C10C2F2004050F87A
:100B100021000690069828B1FFE70698D0F8C0019A
:100B200008B9FFE783E1069806F0A6FF069834307F
:100B30000590069840300490069803900698B0F807
:100B4000D401ADF82200059800F0D2F98DF8250007
:100B50009DF8250038B1FFE7069890F8D7010028E6
:100B600000F0E880FFE70498D0F87801019005983C
:100B70000079012807D1FFE79DED010AB1EE400A97
:100B80008DED010AFFE7059840884006002840D512
:100B9000FFE70598008840283BD1FFE7059880795A
:100BA000012806D1FFE70498D0F868010068029098
:100BB00019E00398406A02900598007A01280AD14A
:100BC000FFE7039890ED090ADDED010AFFF7D4FE77
:100BD0008DED010A06E09DED010AFFF745FF8DED61
:100BE000010AFFE7FFE705984079012807D1FFE7F1
:100BF0009DED020AB1EE400A8DED020AFFE704986E
:100C00009DED020ADDED010A06F05AFC8DED010AA8
:100C1000FFE705984088000700283ED5FFE70598C4
:100C2000008810F0480F38D0FFE70598407A10F0A0
:100C30000A0F0CD0FFE70498D0F8740190ED001A69
:100C40009DED010A30EE010A8DED010AFFE70598DE
:100C5000C079012806D1FFE70498D0F86C0100683C
:100C6000029003E0039800690290FFE7059840793D
:100C7000012807D1FFE79DED020AB1EE400A8DED94
:100C8000020AFFE7049878309DED020ADDED010AC3
:100C900006F016FC8DED010AFFE70598407AC007C3
:100CA00060B1FFE70498D0F8700190ED001A9DED57
:100CB000010A30EE010A8DED010AFFE70598408830
:100CC000C00700B3FFE70398B0F9140000EE100A64
:100CD000B8EEC00A8DED020A05984079012807D1C7
:100CE000FFE79DED020AB1EE400A8DED020AFFE733
:100CF0000498F0309DED020ADDED010A06F0E0FBFC
:100D00008DED010AFFE79DED010ABDEEC00A10EE70
:100D1000100AADF82200BDF822000699A1F8D4010E
:100D20009DF8250028B1FFE70699002081F8D7013A
:100D3000FFE7FFE7069890F8C4018DF827000698B2
:100D400090F8C5018DF826009DF8270005280ADCDB
:100D5000FFE79DF8271044F2BC40C2F2004050F873
:100D6000210008B9FFE762E09DF823009DF82720E5
:100D700044F2BC41C2F2004151F822209DF82630D5
:100D800002EB430282F82C00BDF822009DF82720D8
:100D900051F822109DF8262001EB420181F82D0028
:100DA0000498D0F8780144F2C411C2F200414864BA
:100DB000BDF82200A1F848009DF8270081F827001F
:100DC0009DF8260081F82800069890F8C70178B9A8
:100DD000FFE79DF8271044F2BC40C2F2004050F8F3
:100DE00021009DF8261000EB410100208885FFE7D7
:100DF0009DF8271044F2BC40C2F2004050F8211088
:100E00008A6A44F2C411C2F20041CA649DF82720E4
:100E100050F822009DF8262000EB420090F82C208C
:100E200090F82D0040EA0220A1F85000FFE7079853
:100E3000013007905CE600200790FFE7079805283F
:100E400051D8FFE7079944F2C410C2F200400144B0
:100E5000002081F85200079944F2D440C2F20040C9
:100E6000405C70B1FFE70799012000FA01F244F2FB
:100E7000C411C2F2004191F82900104381F8290001
:100E8000FFE7079944F2D440C2F20040405C28B327
:100E9000FFE7079944F2BC40C2F2004050F821003D
:100EA000E0B1FFE7079944F2BC40C2F2004050F8BD
:100EB000210000F029FA80B1FFE7079944F2C4103D
:100EC000C2F200404218012182F85210079900EB4B
:100ED0008101886D01308865FFE7FFE7FFE707982C
:100EE00001300790AAE70AB080BD000000000000B2
:100EF00082B00090009820B9FFE700208DF807002D
:100F00002BE0009840884006002809D5FFE70098AC
:100F10000088402804D1FFE701208DF807001CE07D
:100F200000984088000700280AD5FFE7009800884D
:100F300010F0480F04D0FFE701208DF807000CE007
:100F400000984088C00720B1FFE701208DF8070016
:100F500003E000208DF80700FFE79DF8070002B0CE
:100F6000704700000000000081B00090009901204F
:100F700081F8C70101B0704780B58EB00C900C9815
:100F800060B9FFE744F2C411C2F200414868013081
:100F900048600220887600200D902CE144F2DA406F
:100FA000C2F20040007880B9FFE705F019FF60B990
:100FB000FFE744F2C411C2F20041486801304860C2
:100FC0000320887600200D9015E144F2B640C2F26D
:100FD000004000780C280CDBFFE744F2C411C2F299
:100FE00000414868013048600420887600200D9058
:100FF00001E14FF4EC70FFF7C7F90590059860B96F
:10100000FFE744F2C411C2F2004148680130486071
:101010000520887600200D90EDE005984FF4EC71E6
:10102000FFF7F7FA0C9890F8A000059981F8C6012F
:1010300005990C9BD3F89400D3F89820D3F89C30F2
:10104000CB638A634863059800F598700C9906F0A5
:1010500007FB0598B8300C992C3106F001FB059878
:1010600040300C99583106F0FBFA0C98D0F8840007
:101070000599C1F8A8010C98D0F888000599C1F825
:10108000AC010C98D0F88C000599C1F8B0010C980F
:10109000D0F890000599C1F8B401DDF830E0DEF831
:1010A000A400DEF8A810DEF8AC20DEF8B030DEF8E0
:1010B000B4C0DEF8B8E0CDF82CE0CDF828C0099334
:1010C000089207910690059806A906F045F878B9A8
:1010D000FFE70598FFF787F944F2C411C2F2004117
:1010E0004868013048600620887600200D9082E034
:1010F00000208DF8240041F61900C0F600000A9087
:1011000005980B9006A801F0A7F80599C1F8C00151
:101110000598D0F8C00178B9FFE70598FFF763F9A3
:1011200044F2C411C2F2004148680130486007200F
:10113000887600200D905EE0059806F09DFC022068
:10114000ADF808000020ADF80A0041F20120C0F619
:10115000000003900598049002A800F00DFB05998B
:10116000C1F8C8010598D0F8C801D8B9FFE70598BB
:10117000D0F8C01100200190C1F8B8000599D1F84D
:10118000C011C1F8BC000598FFF72DF9019844F291
:10119000C412C2F2004251680131516008219176B7
:1011A0000D9028E00598FFF7DFFE059844F2B6435E
:1011B000C2F200431A78511C197040F24C11C2F26D
:1011C000004141F8220044F2C411C2F20041086813
:1011D0000130086000208876079808610898486107
:1011E000059890F8C4010876059890F8C5014876EE
:1011F00005980D90FFE70D980EB080BD000000002F
:1012000083B0029002980190019828B1FFE70198FD
:10121000D0F8C00108B9FFE712E00199002081F879
:10122000C7010198D0F8C001016844F2EC22C2F273
:1012300000420220914208BF0120ADF80200FFE702
:1012400003B070470000000082B001908DED000AED
:1012500000980199C1F8B80102B070470000000081
:1012600080B582B08DED010A9DED010ADFED0D0A1A
:1012700007F001F88DED010A9DED010AB5EE400A77
:10128000F1EE10FA09DAFFE79DED010A9FED051A6C
:1012900030EE010A8DED010AFFE79DED010A02B073
:1012A00080BD00BF0000B44384B003A90191ADF834
:1012B0000A00BDF90A00012804DBFFE7BDF90A00B6
:1012C000009004E0BDF90A0040420090FFE700985A
:1012D000082803DCFFE7002003900DE00198BDF92A
:1012E0000A1000EE101AB8EEC00AB1EE081A20EE8D
:1012F000010A80ED000AFFE7019890ED000A04B0B2
:10130000704700000000000080B58CB00A900A9879
:1013100020B1FFE70A98006820B9FFE700208DF8A8
:101320002F00A4E00A98806A0190002002900390A8
:1013300008210491059006900790089009900A985A
:101340000068FFF7A1FB00900A98006801F03CFFDD
:1013500078BBFFE7009840B3FFE70099C869013008
:10136000C861009988690130886101980099886294
:1013700004980099C86207980099086300F008F97A
:101380000098BCEEC00A80ED0D0A00990320486465
:101390000A980068D0F89C000099886400984C3046
:1013A0000A992C31FFF73CFBFFE700208DF82F0056
:1013B0005DE00A9A52F82C0B01A901F035FC58B3F4
:1013C000FFE7009820B3FFE7009988690130886142
:1013D00001980099886204980099C862079800995A
:1013E000086300F0D5F80098BCEEC00A80ED0D0A45
:1013F0000099012048640A980068D0F89C00009980
:10140000886400984C300A992C31FFF709FBFFE7FC
:1014100000208DF82F002AE0009820B3FFE7009904
:1014200048690130486101980099886204980099E0
:10143000C86207980099086300F0AAF80098BCEE0B
:10144000C00A80ED0D0A0099002048640A980068DF
:10145000D0F89C000099886400984C300A992C318F
:10146000FFF7DEFAFFE701208DF82F00FFE79DF878
:101470002F000CB080BD000082B0009000981028B2
:1014800004D3FFE700208DF8070008E0009948F238
:10149000EC50C0F60000405C8DF80700FFE79DF8B7
:1014A000070002B07047000082B00190BDF806004E
:1014B00000F00F008DF803009DF8031048F2FC5077
:1014C000C0F60000405C02B0704700000000000061
:1014D00081B040F2A000C2F20040007870BBFFE78C
:1014E00040F2A001C2F200410120087041F2040064
:1014F000CEF2000000680090009840F29801C2F21D
:1015000000410968884208D2FFE740F29C01C2F21C
:101510000041086801300860FFE741F20400CEF2A4
:101520000000006840F29801C2F20041086040F2F9
:10153000A001C2F2004100200870FFE701B070472F
:1015400080B584B0039041F20400CEF20000006840
:101550000290029803990968401A00EE100AB8EE4A
:10156000400A40F28000C2F2004090ED001AB8EE4E
:10157000411A80EE010A8DED010A02980399086074
:10158000FFF7A6FF9DED010A04B080BD000000003A
:1015900080B582B000F070F840F2C400C2F20040A2
:1015A000016883884FF47A7201FB023100EE101A51
:1015B000B8EE400AC08801EE100AB8EEC11A9FEDDD
:1015C000052A01EE020A8DED010A9DED010A02B025
:1015D00080BD00BF6F12833A80B582B001904EF695
:1015E000FC51CEF20001086840F08070086041F6BE
:1015F000B071CEF200014CF65560CCF2AC500860F0
:1016000041F20401CEF200010020086041F2000224
:10161000CEF20002116841F001011160019944F21B
:101620004022C0F20F024A4340F28001C2F2004160
:101630000A600A6844F6D353C1F26203A2FB033284
:10164000920940F28403C2F200431A6009684DF621
:101650008362C4F21B32A1FB0221890C40F2880292
:10166000C2F20042116040F29C01C2F200410860E7
:10167000FFF72EFF02B080BDB0B586B041F2040086
:10168000CEF2000000680590FFF722FF40F29C00B8
:10169000C2F2004001680598002302934FF0FF3C1E
:1016A0001A46E1FB0C0240F29001C2F200410091A7
:1016B0004A6008600868496840F28004C2F2004449
:1016C0002268FEF7B7FE029B02468C46009940F264
:1016D000A800C2F20040C0F804C00260D1F800C007
:1016E0004968D0F800E042682468AEFB04E502FBDC
:1016F0000452BCEB0E0C61EB020240F2B001C2F2EC
:1017000000410391C1F800C04A60006840F2C40281
:10171000C2F20042049210600868496840F28402F4
:10172000C2F2004201921268FEF784FEDDF804C0A6
:10173000029B049A01460398918001684068928850
:10174000DCF800C002FB0CF28A1A60F1000040F2E3
:10175000B801C2F200410A6048600868496840F276
:101760008802C2F200421268FEF764FE0499C88043
:1017700006B0B0BD0000000080B584B0039010201A
:10178000FEF702FE029002990020C860886048605F
:101790000860039880680299C8600398008818B9A7
:1017A000FFE76420019003E0039800880190FFE7C1
:1017B000019802990880039840680299486003984C
:1017C000408820B9FFE702980088009003E0039862
:1017D00040880090FFE7009802990881029844F23F
:1017E000B543C2F200431A78511C197040F2CC0183
:1017F000C2F2004141F82200029804B080BD00000E
:1018000081B0009000990888088101B070470000FD
:10181000704700000000000080B58EB00D900D985C
:1018200008B9FFE7D1E10D9890F8B40006280CD86C
:10183000FFE70D9890F8B50028B9FFE70D9908204B
:1018400081F8B40000E0C0E1FFE70D986D300C9026
:101850000D98D0F8BC000B900B9860B9FFE70D987D
:1018600001F0EAF80B900B9820B1FFE70B9806F017
:1018700003F9FFE7FFE70B9808B9FFE7A5E144F29A
:10188000C411C2F200418868013088600B980A9048
:101890000B98D0F8C80130B1FFE70B98D0F8C80119
:1018A000FFF7AEFFFFE70B9800F5E670FFF748FE85
:1018B0000B9880ED740A0A99488808800C98017882
:1018C000407840EA01200A9948800A98418800EE51
:1018D000101AB8EE400A9FEDBE1A20EE010A80ED04
:1018E000010A0C988178C07840EA0120ADF8220006
:1018F0000C980179407940EA0120ADF82000BDF94B
:101900002200FFF7D1FC8DED070ABDF822000A99ED
:10191000088107980A99C8600A99B1F9140000EE85
:10192000100AB8EEC01ABDF9200000EE100AB8EE99
:10193000C00A9FEDA82A20EE020A9FEDA72A01EE19
:10194000020ABDEEC00A10EE100A88820C98807957
:101950000A9988750B9890F8D601002859D1FFE7AD
:101960000A994888088007980A9908610A9900200E
:10197000C8620A9A5188D1610A9AD16911620A999A
:1019800088610A9A516891620A9991ED0A0A91ED6B
:101990000C1A30EE410A81ED090A0B9A012182F8F6
:1019A000D6110B9A82F8D7110D99D1F8B02044F2D4
:1019B000C411C2F200410491CA610A9A52880A8491
:1019C000BDF822204A84BDF820208A840A9A927D9C
:1019D00081F826200B9A92F8C42181F827200B9ACF
:1019E00092F8C52181F82820C8620A9A92690A6390
:1019F0000B9A92ED740A9FED7B1A20EE010A81ED9D
:101A00000D0A0A9A12698A63C8630A98406A0864D0
:101A1000DBE00A9948880988401A09900998B0F5CE
:101A2000805F09DDFFE70998A0F5005009900A9949
:101A3000C86A0138C8620EE0099810F5805F09DABB
:101A4000FFE7099800F5005009900A99C86A01302B
:101A5000C862FFE7FFE70B9890ED740AB5EE400A05
:101A6000F1EE10FA23DDFFE70998012803DBFFE719
:101A70000998039003E0099840420390FFE7039818
:101A8000012803DCFFE7002006900FE09DED090A26
:101A9000B8EEC00A9FED4E1A20EE010A0B9890EDA9
:101AA000741A80EE010A8DED060AFFE702E00020BD
:101AB0000690FFE70A9890ED041A9DED070A9FED46
:101AC000472A20EE020A9FED462A01EE020A80ED27
:101AD000040A9DED070AB5EE400AF1EE10FA13D1A3
:101AE000FFE70998012803DBFFE70998029003E06C
:101AF000099840420290FFE70298012804DCFFE7C2
:101B00000A9900200861FFE79DED090AB8EEC00AB6
:101B10009FED2F1A20EE010A8DED050A099A0A9908
:101B2000C8691044C8610A99C8690A6A801A88613C
:101B30009DED051A0A9890ED0A0A30EE010A80ED33
:101B40000A0A0A9890ED0A0A90ED0C1A30EE410A42
:101B500080ED090A0B99012081F8D7010D98D0F882
:101B6000B00044F2C411C2F200410191C8610A9868
:101B700040880884BDF822004884BDF8200088848D
:101B80000A98807D81F826000B9890F8C40181F8AE
:101B900027000B9890F8C50181F828000998C862C1
:101BA0000A98806908630B9890ED740A9FED0D1AEE
:101BB00020EE010A81ED0D0A0A98006988630698F3
:101BC000C8630A98406A0864FFE70EB080BD00BF92
:101BD000ACFF333D6666663FD0CCCC3D3333B33E7D
:101BE0006666263F00007A4481B0EFF3108072B63B
:101BF0000090FFE7FEE7000044F60C01C5F6020185
:101C0000086840F002000860FFE744F60400C5F6EB
:101C1000020000688004002801D4FFE7F5E7704760
:101C200080B544F2EC20C2F2004001F0DDFA80BD44
:101C300080B544F2EC20C2F2004001F0D5FA80BD3C
:101C400080B544F28C30C2F2004001F0CDFA80BD84
:101C500080B544F28C30C2F2004001F0C5FA80BD7C
:101C600080B58EB00C900B91002001900A900990E5
:101C70000890079006900590049003900C9818B96E
:101C8000FFE70020009003E00C9800680090FFE759
:101C9000009800F08DFA02900C9818B1FFE70B98AD
:101CA00020B9FFE701208DF8370061E00C98D0F8EB
:101CB000B00020B9FFE700208DF8370058E00B98FE
:101CC00040790C990968896B884204D3FFE70120A9
:101CD0008DF837004CE0002003900B984079049079
:101CE00002200590012006900C98D0F8B0000790D3
:101CF00040F2FF7008900C98006803A901F004F806
:101D0000C8B1FFE7029890B1FFE702990869013076
:101D100008610299012048640C980068D0F89C0082
:101D2000029988640B98407902994870FFE7012076
:101D30008DF837001CE00B99487901304871029802
:101D400090B1FFE70299C8680130C860029900208D
:101D500048640C980068D0F89C00029988640B983D
:101D6000407902994870FFE700208DF83700FFE7BF
:101D70009DF837000EB080BD84B0039002918DF8BD
:101D800007209DF80700092803D3FFE708200090EB
:101D900003E09DF807000090FFE700988DF805002C
:101DA00000208DF80600FFE79DF806009DF805105D
:101DB00088420DDAFFE702989DF80620805C0399BF
:101DC0008854FFE79DF8060001308DF80600EBE728
:101DD000FFE79DF8060007280CD8FFE703999DF858
:101DE000062000208854FFE79DF8060001308DF89A
:101DF0000600EEE704B0704780B586B00490049802
:101E000018B9FFE70020029003E0049800680290F0
:101E1000FFE7029800F0CCF90390049820B9FFE79F
:101E200001208DF8170082E00498007920B1FFE7C7
:101E300000208DF817007AE00498006869460123B5
:101E40000B600222114600F0EBFFA8B1FFE70398F8
:101E500070B1FFE703998868013088600399012019
:101E6000486404980068D0F89C0003998864FFE7F0
:101E700001208DF817005AE00498006801F0A0FFD7
:101E8000A8B1FFE7039870B1FFE7039988680130B4
:101E9000886003990120486404980068D0F89C0089
:101EA00003998864FFE701208DF817003FE004984C
:101EB00000681121002200F037FEC8B1FFE7049846
:101EC000006801F0A5FF039870B1FFE703998868E7
:101ED0000130886003990120486404980068D0F8B4
:101EE0009C0003998864FFE701208DF817001EE02D
:101EF0000499012008710398A8B1FFE70399012014
:101F00000870049840790399487003994868013033
:101F1000486003990020486404980068D0F89C0049
:101F200003998864FFE700208DF81700FFE79DF80C
:101F3000170006B080BD000080B5A0B01F901E91B4
:101F40001F9800F035F90190FFE71F981E9900F0E7
:101F5000A3FF002800F08B80FFE71F981E9914AAAA
:101F600004AB00F0B5FF68B1FFE7019848B1FFE7A7
:101F70000199012048641F98D0F89C000199886459
:101F8000FFE774E01F9814A900F076F80390039817
:101F9000179900F07DFA8DF80B0000208DF80A00EB
:101FA0000398A8B3FFE79DF80B0048B9FFE7039833
:101FB00000F046F920B9FFE708208DF80B00FFE795
:101FC0009DF80B00412804DBFFE740208DF80B0053
:101FD000FFE79DF80B00039981F8B4009DF80B0012
:101FE00040B1FFE703986D309DF80B2004A9FEF780
:101FF00099FAFFE70398D0F8B80040B1FFE70398DB
:10200000D0F8B810884701208DF80A00FFE7FFE7F5
:10201000019858B3FFE714980199886317980199BC
:10202000C863FFF7B5FA0198BCEEC00A80ED100A4C
:102030000199002048641F98D0F89C000199886499
:10204000019854309DF80B2004A9FFF795FE9DF8E8
:102050000A0028B1FFE70199086A0130086204E02C
:102060000199486A01304862FFE7FFE76DE720B059
:1020700080BD00000000000080B586B00490039190
:10208000049818B1FFE7039818B9FFE700200590FE
:1020900061E003984068E8B9FFE703980168002011
:1020A000B0EBD12F16D1FFE7049800F0A5F802900D
:1020B000029870B1FFE702980399096850F821006F
:1020C00038B1FFE702980399096850F8210005909C
:1020D00041E0FFE700200190FFE7019844F2B4419E
:1020E000C2F200410978884232D2FFE7019944F2F6
:1020F0008410C2F2004050F8210008B9FFE723E045
:102100000498019A44F28411C2F2004151F822105D
:102110000968884217D1FFE703980068019A44F2E2
:102120008411C2F2004151F82210D1F8B010884257
:1021300009D1FFE7019944F28410C2F2004050F83F
:102140002100059007E0FFE7019801300190C4E706
:1021500000200590FFE7059806B080BD0000000054
:1021600083B0019000200090FFE70098012819D863
:10217000FFE7009940F20800C2F2004050F8310039
:102180000199884209D1FFE7009940F20800C2F2A4
:10219000004000EBC100029007E0FFE7009801302B
:1021A0000090E2E700200290FFE7029803B070473A
:1021B00082B00090009844F2EC21C2F200418842C3
:1021C00006D1FFE744F23420C2F20040019010E053
:1021D000009844F28C31C2F20041884206D1FFE7F8
:1021E00044F29020C2F20040019002E000200190F1
:1021F000FFE7019802B0704782B00090009844F267
:10220000EC21C2F20041884206D1FFE740F284107F
:10221000C2F20040019010E0009844F28C31C2F20A
:102220000041884206D1FFE742F28410C2F200402A
:10223000019002E000200190FFE7019802B0704792
:1022400081B000900098C069A0F50010B0FA80F04D
:10225000400901B07047000080B586B00490049832
:1022600020B1FFE70498006818B9FFE70020059047
:1022700009E104980068FFF773FF0390039818B909
:10228000FFE700200590FEE004980068FFF7B4FF28
:10229000019044F2B440C2F200400078102803DB01
:1022A000FFE700200590EEE004988068A0B1FFE70A
:1022B000049881680020B0EBD12F0DD1FFE7019881
:1022C00050B1FFE701980499896850F8210018B1CE
:1022D000FFE700200590D6E000208DF80300FFE71F
:1022E0009DF8030044F2B441C2F2004109788842EB
:1022F00035DAFFE70498806850B3FFE79DF80310D4
:1023000044F28410C2F2004050F8210000B3FFE70D
:102310009DF8031044F28410C2F2004050F82100EE
:10232000006804990968884212D1FFE79DF80310FC
:1023300044F28410C2F2004050F82100D0F8B000FE
:1023400004998968884203D1FFE7002005909AE04C
:10235000FFE79DF8030001308DF80300C0E7C020BF
:10236000FEF712F80290029818B9FFE700200590D6
:1023700089E00298C021FEF74CF904984068029960
:1023800048600298002181600298C160029A08208A
:102390001061029A5161049A127B002A18BF01222F
:1023A0001205029B9A61049A127B002A18BF01222F
:1023B0005205029BDA61029A1162029A51620499F3
:1023C0000968029A116004994968029A9162049915
:1023D0008968029AC2F8B0100499097B002918BFD5
:1023E0000121029A82F8B51004990969029AC2F88B
:1023F000B81004994969029AC2F8BC10029981F890
:102400006C00029800F030F902980399FFF728FC5D
:1024100030B1FFE70298FDF7E6FF0020059032E0BB
:102420000398FFF7E9FC30B1FFE70298FDF7DBFF07
:102430000020059027E00298D0F8B00090B1FFE7A7
:102440000298D0F8B0100020B0EBD12F0AD1FFE7EE
:10245000019838B1FFE702980199D0F8B02041F80F
:102460002200FFE7029844F2B443C2F200431A7814
:10247000511C197044F28411C2F2004141F822004B
:1024800002980590FFE7059806B080BD00000000A7
:1024900080B586B004900391BDF80E0090B1FFE7BF
:1024A0000398FFF701F88DF807009DF8070018B9A9
:1024B000FFE7039828B9FFE79DF807008DF817009C
:1024C00052E0FFE70398082804D8FFE703988DF847
:1024D000170049E0049848B1FFE70498FFF7B0FE01
:1024E00020B9FFE708208DF817003DE0039800F0C1
:1024F0000F0002900298FEF7BFFF8DF807009DF8CD
:10250000070028B1FFE79DF807008DF817002BE0C2
:1025100003980C3801460091342821D80099DFE84F
:1025200001F01B1F1F1F1B1F1F1F1B1F1F1F1B1F18
:102530001F1F1F1F1F1F1B1F1F1F1F1F1F1F1F1FAF
:102540001F1F1F1F1F1F1B1F1F1F1F1F1F1F1F1F9F
:102550001F1F1F1F1F1F1B0003988DF8170003E08C
:1025600000208DF81700FFE79DF8170006B080BD2A
:1025700080B582B001908DF80310019808B9FFE78B
:102580006FE09DF8030028B1FFE79DF803004128A4
:1025900001DBFFE765E0019800F066F80198FFF7BE
:1025A0004FFE8DF802009DF8020048B9FFE79DF844
:1025B0000300092804D3FFE708208DF80300FFE794
:1025C0009DF80200002846D0FFE79DF8030031285F
:1025D00004D3FFE740208DF803003BE09DF80300A3
:1025E000212804D3FFE730208DF8030031E09DF867
:1025F0000300192804D3FFE720208DF8030027E00B
:102600009DF80300152804D3FFE718208DF8030078
:102610001DE09DF80300112804D3FFE714208DF876
:10262000030013E09DF803000D2804D3FFE71020FA
:102630008DF8030009E09DF80300092804D3FFE7A3
:102640000C208DF80300FFE7FFE7FFE7FFE7FFE758
:10265000FFE7FFE7FFE79DF80300019981F86C00B1
:10266000FFE702B080BD000080B582B00190019804
:10267000FFF7E6FD019981F8B500019890F8B500E3
:1026800030B9FFE70199002088610199C861FFE72F
:1026900001980068FFF78CFD0090009850B1FFE7AB
:1026A000019890F8B500009988700198C069009968
:1026B0000863FFE702B080BD84B002900298406BCF
:1026C000009002980068D0F884004FF6FC718843AF
:1026D000009940EA810002990968C1F884000298D3
:1026E0000068D0F8840020F47F00029A1168926B91
:1026F00040EA0240C1F884000298816B00980844C7
:10270000009002980068D0F888006FF38F0000995D
:1027100040EA810002990968C1F8880002980068BF
:10272000D0F8880020F4FE00029A1168D26B40EACB
:102730000240C1F888000298C16B009800EB41008C
:10274000009002980068D0F8A0006FF38F00009905
:1027500040EA810002990968C1F8A0000298006867
:10276000D0F8A00020F4FE00029A1168126C40EA32
:102770000240C1F8A0000299086C496C009A00FB65
:102780000120009002980068D0F8B0006FF38F002D
:10279000009940EA810002990968C1F8B0000298E6
:1027A0000068D0F8B00020F4FE00029A1168926C24
:1027B00040EA0240C1F8B0000299886CC96C009AE6
:1027C00000FB0120009002980068D0F8AC006FF385
:1027D0008F00009940EA810002990968C1F8AC00B5
:1027E0000299086D496D009A00FB01200090029843
:1027F0000068D0F8F0006FF38F00009940EA810084
:1028000002990968C1F8F00002980068D0F8F00059
:1028100020F47C10029A1168926D40EA0240C1F8DF
:10282000F0000298816D009800EB41000090029842
:102830000068D0F8C0006FF38F00009940EA810073
:1028400002990968C1F8C00002980068D0F8C00079
:1028500020F47C10029A1168D26D40EA0240C1F85F
:10286000C00002980068D0F8C00020F07C50029AA6
:102870001168126E40EA0260C1F8C00002994A6B0A
:102880004AF60040C4F2000000EB8200C8660299DC
:102890008A6BC86E00EB820008670299CA6B086FEA
:1028A00000EBC200486702990A6C4B6C486F5A43B0
:1028B00000EB8200886702998A6CCB6C886F5A4360
:1028C00000EB8200C86702990A6D4B6DC86F5A43CE
:1028D00000EB8200C1F8800002998A6DD1F8800077
:1028E00000EBC200C1F884000299CA6D8B6ED1F86A
:1028F00084005A4300EB8200C1F8880002990A6EF6
:102900008B6ED1F888005A4300EB8200C1F890002A
:102910000298D0F890004DF2FD31C4F200018842D7
:102920000FD3FFE70299D1F89C0040F02000C1F8D6
:102930009C000299032081F8980001208DF80F0077
:1029400017E00298C06E0190FFE701980299D1F854
:102950009010884208D2FFE7019900200860FFE745
:10296000019804300190F0E7FFE700208DF80F0098
:10297000FFE79DF80F0004B0704700000000000062
:1029800088B007900691059204930698406848B96C
:10299000FFE70698016882680069104340EA8140B9
:1029A000039009E0069801688268006910430843B3
:1029B00040F080400390FFE70698D0F820C0C1683F
:1029C00042698369C06940EA0C601843104340EAD9
:1029D000014002900798826ED0F884000499514318
:1029E00000EB810001900398019908600198043080
:1029F000019002980199086001980430019000202C
:102A00000090FFE700980699CA6848F20C61C0F68A
:102A10000001895C88420DD2FFE705980099405873
:102A200001990860019804300190FFE70098043094
:102A30000090E7E708B0704784B00290029818B998
:102A4000FFE70020039045E000200190FFE7019898
:102A500044F2B641C2F200410978884237D2FFE71A
:102A6000019940F24C10C2F2004050F82100009051
:102A7000009828B1FFE70098D0F8C00108B9FFE737
:102A800021E00098D0F8C0010299884203D1FFE705
:102A9000009803901EE00098D0F8C00100680299E9
:102AA000096888420ED1FFE70098D0F8C001D0F83D
:102AB000B0000299D1F8B010884203D1FFE7009826
:102AC000039007E0FFE7019801300190BFE7002085
:102AD0000390FFE7039804B0704700000000000077
:102AE00080B584B0039001F053FC029003980190EC
:102AF0000198013048B1FFE740F21800C2F20040EF
:102B00000178019808440190FFE7FFE701F040FCDD
:102B10000299401A0199884201D2FFE7F6E704B012
:102B200080BD00000000000085B00390029101927A
:102B3000039890F898008DF803009DF80300012891
:102B400005D0FFE79DF8030002285DD1FFE702985A
:102B500003990968896D084207D1FFE70398016866
:102B6000C86D40F00100C86515E002980399096836
:102B7000896D08400299884207D1FFE703980168F0
:102B8000C86D40F00200C86504E0039801680320A6
:102B9000C865FFE7FFE79DF809008007002809D511
:102BA000FFE7019A03980168D1F8E0001043C1F8EB
:102BB000E000FFE79DF809004007002809D5FFE77E
:102BC000019A03980168D1F8E4001043C1F8E400C9
:102BD000FFE7FFE702984FF6FF71C3F6CF7100EAF7
:102BE000010203980168486D10434865029A4AF64D
:102BF0001401C4F20001086840EA92700860FFE71F
:102C000000208DF813000AE00399D1F89C0040F0F1
:102C10000200C1F89C0001208DF81300FFE79DF829
:102C2000130005B07047000080B586B00490039192
:102C300002920398406808B9FFE700E0FFE70498B4
:102C400090F89800022845D1FFE704980068D0F872
:102C5000C00010F07C5F0BD1FFE70499D1F89C0015
:102C600040F02000C1F89C0001208DF817003CE0E6
:102C700004980068D0F8C400800200280BD5FFE754
:102C80000499D1F89C0040F40070C1F89C00012028
:102C90008DF8170029E004980068D0F8C400C0F34C
:102CA0000440019004980399029A019BFFF768FE83
:102CB0000199012000FA01F1049A1268C2F8D010BB
:102CC000019988400499C1F89400FFE700208DF82D
:102CD00017000AE00499D1F89C0040F00800C1F800
:102CE0009C0001208DF81700FFE79DF8170006B043
:102CF00080BD00000000000082B00190009102B091
:102D0000704700000000000087B00590049105980E
:102D100090F898008DF803009DF80300012805D075
:102D2000FFE79DF8030002286AD1FFE70498C06816
:102D3000072801D1FFE7FFE70498006878BBFFE7A9
:102D40000498C068072801D0FFE7FFE70498C0682F
:102D500007280CD1FFE7049A10699169D269000431
:102D600040EA0220084340F0605003900CE00499D0
:102D70008868CB680A694969800740EAC36040EA0D
:102D8000024008430390FFE70598C06E0499496824
:102D900000EB810001900398019908602CE00498F1
:102DA000C068072801D0FFE7FFE70498C168006901
:102DB00040EA417003900498C068072804D1FFE7F7
:102DC00004988069029006E004988168406940EAAE
:102DD00081700290FFE70598006F0499496800EB45
:102DE000C100019003980199086001980430019096
:102DF000029801990860FFE700208DF81B000AE0A7
:102E00000599D1F89C0040F00200C1F89C00012017
:102E10008DF81B00FFE79DF81B0007B0704700000E
:102E200085B0DDF814C003900291019200930398DD
:102E300090F89800012812D1FFE70298000101994B
:102E400040EA8100009940EA41000599084303994E
:102E50000968C1F8800000208DF813000AE003998A
:102E6000D1F89C0040F00400C1F89C0001208DF8CE
:102E70001300FFE79DF8130005B070470000000045
:102E800081B0009001B0704782B00190009102B013
:102E9000704700000000000083B00290019101988B
:102EA000402808D1FFE702980068D0F8A40000F09D
:102EB0007F00009007E002980068D0F8B40000F0AE
:102EC0007F000090FFE7009803B07047000000000B
:102ED0008AB0089007910692059300200190089807
:102EE00090F898008DF803009DF80300022840F048
:102EF0005C81FFE70798402851D1FFE708980068F8
:102F0000D0F8A00010F4FE0F0BD1FFE70899D1F81C
:102F10009C0040F02000C1F89C0001208DF82700A3
:102F20004EE108980068D0F8A400400658B9FFE7C1
:102F30000899D1F89C0040F48070C1F89C000120F1
:102F40008DF827003CE108980068D0F8A40000F054
:102F500080710120B0EB116F0DD1FFE70898006878
:102F6000D0F8A0100120B0EBD17F03D1FFE7012002
:102F70000190FFE7FFE708980068D0F8A40000F48C
:102F80007C51019800EB112001900898426C406F31
:102F90000199514300EB81000490FFE770E007982E
:102FA000412851D1FFE708980068D0F8B00010F42C
:102FB000FE0F0BD1FFE70899D1F89C0040F02000EC
:102FC000C1F89C0001208DF82700F9E008980068FE
:102FD000D0F8B400400658B9FFE70899D1F89C0032
:102FE00040F48070C1F89C0001208DF82700E7E0D4
:102FF00008980068D0F8B40000F080710120B0EBB0
:10300000116F0DD1FFE708980068D0F8B0100120CB
:10301000B0EBD17F03D1FFE701200190FFE7FFE78D
:1030200008980068D0F8B40000F47C51019800EBD7
:10303000112001900898C26C806F0199514300EBF8
:1030400081000490FFE71AE007980899096D88420B
:103050000BD3FFE70899D1F89C0040F02000C1F89D
:103060009C0001208DF82700AAE00898426DC06FEF
:103070000799514300EB81000490FFE7FFE7FFE76A
:103080000498006800F080400699486006984068FF
:1030900038B9FFE704980068C0F38A4006990860D1
:1030A00006E00498006820F0604006990860FFE799
:1030B0000498006800F00050069988600498006841
:1030C00000F00040069908610498043004900498C8
:1030D00000880699C86104980068C0F30340069907
:1030E000C8600498006800F480100699486104984C
:1030F000006800F400100699886104980068C0F325
:1031000006600699086204980068C00F0699486234
:103110000498043004900498039000200290FFE784
:1031200002980699CA6848F20C61C0F60001895CF1
:1031300088420AD2FFE70398029A805C0599885476
:10314000FFE7029801300290EAE70798402806D18D
:10315000FFE7019808990968C1F8A80021E00798DD
:10316000412806D1FFE7019808990968C1F8B8001D
:1031700016E007981F2808D8FFE707990120884024
:1031800008990968C1F8980009E0079800F01F0144
:103190000120884008990968C1F89C00FFE7FFE713
:1031A000FFE700208DF827000AE00899D1F89C007D
:1031B00040F00800C1F89C0001208DF82700FFE7CF
:1031C0009DF827000AB0704782B00190019800680E
:1031D000D0F8C40000F03F000090009802B07047A3
:1031E00081B0009001B0704780B594B013904AF65A
:1031F0001000C4F200000068800712904AF6140024
:10320000C4F200000168129800EA817012901398CD
:103210000068006D00F47040119013980068416DD3
:1032200011980840119013980068006D00F00F008D
:10323000109013980068416D1098084010901398F2
:103240000068006D00F0F0000F9013980068416D69
:103250000F9808400F9013980068006D00F07150AF
:103260000E9013980068416D0E9808400E901398C8
:103270000068006D00F060700D9013980068416D5B
:103280000D9808400D9013980068406D03901398B6
:103290000068006D01909DF80D00C007B8B1FFE710
:1032A0009DF80500C00788B1FFE7FFE713980168A4
:1032B0004FF4807008654AF61001C4F20001002046
:1032C0000860FFE71398FFF78BFFFFE7FFE79DF824
:1032D0000D0000F004010020B0EB910F28D0FFE7B3
:1032E0009DF8050000F004010020B0EB910F1ED006
:1032F000FFE713980068D0F8DC000B901398006883
:10330000D0F8E4100B9808400B90FFE71398016881
:103310004FF4806008654AF61001C4F200010020F5
:103320000860FFE713980B9900F012FEFFE7FFE734
:103330001298B8B1FFE7FFE712984FF6FF71C3F696
:10334000CF7108401399096808651298800F4AF6F2
:103350001001C4F200010860FFE713981299FFF70B
:10336000CBFCFFE71198B8B1FFE7FFE711984FF6E4
:10337000FF71C3F6CF710840139909680865119869
:10338000800F4AF61001C4F200010860FFE71398AD
:10339000119900F0EDFDFFE71098B8B1FFE7FFE7E6
:1033A00010984FF6FF71C3F6CF7108401399096862
:1033B00008651098800F4AF61001C4F200010860F9
:1033C000FFE71398109900F0D7FCFFE70F98B8B10A
:1033D000FFE7FFE70F984FF6FF71C3F6CF71084084
:1033E0001399096808650F98800F4AF61001C4F216
:1033F00000010860FFE713980F9900F0CDFCFFE78C
:103400009DF80D0000F008010020B0EBD10F1BD09B
:10341000FFE79DF8050000F008010020B0EBD10F98
:1034200011D0FFE7FFE7139801684FF400600865CB
:103430004AF61001C4F2000100200860FFE713986B
:1034400000F09EFDFFE7FFE79DF80D0000F0020190
:103450000020B0EB510F28D0FFE79DF8050000F0E9
:1034600002010020B0EB510F1ED0FFE71398006857
:10347000D0F8D8000C9013980068D0F8E0100C98A1
:1034800008400C90FFE7139801684FF4007008653E
:103490004AF61001C4F2000100200860FFE713980B
:1034A0000C9900F05DFDFFE7FFE79DF80E0000F0CE
:1034B00008010020B0EBD10F1BD0FFE79DF80600FC
:1034C00000F008010020B0EBD10F11D0FFE7FFE7BB
:1034D000139801684FF4002008654AF61001C4F201
:1034E000000100200860FFE7139800F041FCFFE7AF
:1034F000FFE79DF80E00C007B8B1FFE79DF8060092
:10350000C00788B1FFE7FFE7139801684FF48030E8
:1035100008654AF61001C4F2000100200860FFE7C8
:10352000139800F011FDFFE7FFE79DF80E0000F093
:1035300004010020B0EB910F1BD0FFE79DF80600BF
:1035400000F004010020B0EB910F11D0FFE7FFE77E
:10355000139801684FF4802008654AF61001C4F200
:10356000000100200860FFE7139800F0E9FCFFE786
:10357000FFE79DF80E0000F002010020B0EB510FB4
:103580001FD0FFE79DF8060000F002010020B0EB1D
:10359000510F15D0FFE7FFE7139801684FF4003093
:1035A00008654AF61001C4F2000100200860FFE738
:1035B0001399D1F89C0040F08000C1F89C00FFE70F
:1035C000FFE70D98B8B1FFE7FFE70D984FF6FF71E1
:1035D000C3F6CF7108401399096808650D98800FEC
:1035E0004AF61001C4F200010860FFE713980D9934
:1035F000FFF74AFCFFE70E98D0B1FFE7FFE70E9810
:103600004FF6FF71C3F6CF7108401399096808653A
:103610000E98800F4AF61001C4F200010860FFE71F
:103620000E9A1399D1F89C001043C1F89C00FFE753
:10363000139800684AF20001C4F20001884240F089
:10364000B980FFE71398406880688007002800F081
:10365000B080FFE713984068006A00F00F000A90FE
:1036600013984068416A0A9808400A901398406885
:10367000006A00F03000099013984068416A099888
:103680000840099013984068006A00F4C0700890E0
:1036900013984068416A0898084008901398406859
:1036A000006A00F4FC40079013984068416A07984C
:1036B0000840079013984068006A00F4F0200690D4
:1036C00013984068416A069808400690139840682D
:1036D000406A029013984068006A00900A9848B1C6
:1036E000FFE70A9813994968086213980A9900F04D
:1036F0000FFCFFE7099848B1FFE70998139949685B
:1037000008621398099900F013FCFFE79DF8080080
:1037100000F040010020B0EB911F1FD0FFE79DF8A3
:10372000000000F040010020B0EB911F15D0FFE732
:1037300013984068C06B000C059013984068C06BEC
:1037400000F03F00049013984168402008621398ED
:103750000599049A00F0E4FBFFE7FFE7089848B1F9
:10376000FFE708981399496808621398089900F0D0
:10377000C7FBFFE7079860B1FFE70798139949680F
:103780000862079A1399D1F89C001043C1F89C0075
:10379000FFE7069860B1FFE7069813994968086249
:1037A000069A1399D1F89C001043C1F89C00FFE7DA
:1037B000FFE7FFE71398D0F89C0020B1FFE71398CC
:1037C000FFF75EFBFFE714B080BD000000000000C3
:1037D00080B598B0169048F29051C0F6000101A84B
:1037E0004C22FCF7E4FE169820B9FFE701208DF883
:1037F0005F00D9E1169800684AF20001C4F20001A6
:10380000884206D1FFE71699086800F58070486085
:10381000FFE716988068B0F5407F01D1FFE7FFE72A
:103820001698006C08B1FFE7FFE71698806C08B1A6
:10383000FFE7FFE71698006D08B1FFE7FFE716986E
:10384000006E08B1FFE7FFE71699C86D096E0844DE
:1038500008B1FFE7FFE7169890F8980040B9FFE736
:103860001699002081F89900169800F0A1F9FFE759
:1038700016980168886920F01000886100F088FDC2
:103880001590FFE71698006880690007002817D593
:10389000FFE700F07DFD1599401A0B280FD3FFE7D5
:1038A0001699D1F89C0040F00100C1F89C001699CF
:1038B000032081F8980001208DF85F0074E1E1E7B2
:1038C00016980168886940F00100886100F060FD89
:1038D0001590FFE7169800688069C007B8B9FFE740
:1038E00000F056FD1599401A0B280FD3FFE71699E3
:1038F000D1F89C0040F00100C1F89C00169903200B
:1039000081F8980001208DF85F004DE1E2E71698FC
:103910000168886940F0020088611698007C0128DF
:1039200007D1FFE716980168886920F04000886198
:1039300006E016980168886940F040008861FFE75A
:103940001698407C012807D1FFE71698016888691E
:1039500040F48040886106E016980168886920F488
:1039600080408861FFE71698807C012807D1FFE737
:1039700016980168886920F48050886106E01698DE
:103980000168886940F480508861FFE716980068F4
:10399000806920F44070169A11689268104388611B
:1039A00016980168886920F0A4008861169801685B
:1039B000086920F0100008611698C068012807D136
:1039C000FFE716980168886940F0040088612BE0E1
:1039D0001698C06830B3FFE71698C068022819D05F
:1039E000FFE716980168886940F0800088611698A2
:1039F0000168086940F0100008611698C068032843
:103A000007D1FFE716980168886940F020008861B7
:103A1000FFE706E016980168886940F02000886199
:103A2000FFE700E0FFE7FFE7169A11685369906926
:103A3000D2F81CE0A0F1010C6FF0FF0000EB0E20AB
:103A400040EA4C60126A013A10430022CFF6FF723E
:103A500002EB03421043C86116988068B0F5407FBE
:103A60001CD1FFE7169A1168536A906AD2F82CE0CD
:103A700001386FF0FF0C0CEB0E2C40EA0C00D2F872
:103A800030C06FF00F0202EB0C1210430022CFF691
:103A9000FF7202EB03421043C860FFE71698006E06
:103AA00048B1FFE716980168426ED1F8C000104394
:103AB000C1F8C000FFE71699C86D096E084480B1CF
:103AC000FFE716980068D0F8C80020F00700169AA3
:103AD0001168936E01AA52F823201043C1F8C80060
:103AE000FFE71698006C80B1FFE716980068D0F8E1
:103AF000BC0020F00700169A1168536C01AA52F816
:103B000023201043C1F8BC00FFE71698806C88B1F1
:103B1000FFE716980068D0F8BC0020F07000169AF5
:103B20001168D36C01AA52F8232040EA0210C1F8B0
:103B3000BC00FFE71698006D88B1FFE71698006893
:103B4000D0F8BC0020F4E060169A1168536D01AA09
:103B500052F8232040EA0220C1F8BC00FFE7169883
:103B600000684AF20001C4F20001884207D1FFE771
:103B700016984168886820F003008860FFE716996E
:103B80000020C1F894001699C1F89C0016990120F4
:103B900081F898001698FEF78FFD8DF853009DF878
:103BA00053008DF85F00FFE79DF85F0018B080BDFF
:103BB00080B5C0B03F9000203E903D903C903B903F
:103BC0003A900AA8C021FCF724FD3F9800684AF209
:103BD0000001C4F2000188425ED1FFE700200B9093
:103BE0004FF400400A904FF0805026900AA800F051
:103BF0006BFD18B1FFE7FDF7F7FFFFE740F2C000EC
:103C0000C2F200400168013101600068012810D152
:103C1000FFE7FFE744F2EC40C5F60200016841F41B
:103C200080710160006800F4807009900998FFE7D6
:103C3000FFE7FFE744F2E040C5F60200016841F00B
:103C400008010160006800F0080008900898FFE78C
:103C500003203A9002213B91002104913C913D9038
:103C600009203E9040F60040C5F602003AA900F057
:103C70008BF9049A13200390114600F0B1FC0398CD
:103C800000F0A2FC049A15200590114600F0A8FC53
:103C9000059800F099FC69E03F9800684AF20041FD
:103CA000C4F20001884260D1FFE700200B904FF47E
:103CB00000400A904FF0805026900AA800F004FDC2
:103CC00018B1FFE7FDF790FFFFE740F2C000C2F236
:103CD00000400168013101600068012810D1FFE750
:103CE000FFE744F2EC40C5F60200016841F4807140
:103CF0000160006800F4807007900798FFE7FFE715
:103D0000FFE744F2E040C5F60200016841F002011D
:103D10000160006800F0020006900698FFE74FF48B
:103D200040503A9002203B90002001903C900320AC
:103D30003D9009203E9040F20040C5F602003AA9AD
:103D400000F022F9019A14200090114600F048FC7E
:103D5000009800F039FC019A16200290114600F0FC
:103D60003FFC029800F030FCFFE7FFE740B080BD69
:103D700081B0009001B0704780B582B00190009191
:103D80009DF80000C00728B1FFE701984021FEF729
:103D9000D3F8FFE702B080BD80B582B001900091FA
:103DA0009DF80000C006002805D5FFE701984121D5
:103DB000FEF7C2F8FFE702B080BD0000000000007F
:103DC00082B00090009890F89800012811D1FFE788
:103DD0000099022081F8980000980168886920F015
:103DE0000100886100990020C1F89C008DF807004F
:103DF0000AE00099D1F89C0040F00400C1F89C0052
:103E000001208DF80700FFE79DF8070002B070471A
:103E100083B0019000200090019890F8980002284B
:103E20005CD1FFE701980168886940F00100886172
:103E3000FFE7019800688069C007B8B9FFE70098FC
:103E400033280FD3FFE70199D1F89C0040F001001F
:103E5000C1F89C000199032081F8980001208DF899
:103E60000B0046E0009801300090E2E7002000904F
:103E700001980168886920F010008861FFE70198C7
:103E8000006880690007002817D5FFE700983328ED
:103E90000FD3FFE70199D1F89C0040F00100C1F871
:103EA0009C000199032081F8980001208DF80B00F7
:103EB0001FE0009801300090E1E7019801688869EF
:103EC00040F00200886101990020C1F89400019A35
:103ED000012182F898108DF80B000AE00199D1F8C1
:103EE0009C0040F00800C1F89C0001208DF80B00F8
:103EF000FFE79DF80B0003B07047000000000000D2
:103F000082B00190009102B07047000000000000F4
:103F100082B00190009102B07047000000000000E4
:103F200083B002900191009203B07047000000003E
:103F300082B00190009102B07047000000000000C4
:103F400081B0009001B0704781B0009001B070471F
:103F500082B00190009102B07047000000000000A4
:103F600082B00190009102B0704700000000000094
:103F700082B00190009102B0704700000000000084
:103F800081B0009001B0704790B00F900E9100206A
:103F90000D908020C5F600000A90FFE70E9800689B
:103FA0000D99C840002800F0CF81FFE70E98006807
:103FB0000D9A0121914008400C900C98002800F0C7
:103FC000BF81FFE70E98406800F00300012807D08A
:103FD000FFE70E98406800F0030002282FD1FFE7AA
:103FE0000F9880680B900D984100032000FA01F1B2
:103FF0000B9888430B900E98C0680D99490000FA01
:1040000001F10B9808430B900B980F9988600F985B
:1040100040680B900D99012000FA01F10B9888433C
:104020000B900E984068C0F300100D9900FA01F152
:104030000B9808430B900B980F994860FFE70E9878
:10404000406800F00300032818D0FFE70F98C0680D
:104050000B900D984100032000FA01F10B98884362
:104060000B900E9880680D99490000FA01F10B98A9
:1040700008430B900B980F99C860FFE70E984068B3
:1040800000F00300022826D1FFE70F980D996FF08A
:10409000030202EA51010844006A0B900D9800F0F7
:1040A000070081000F2000FA01F10B9888430B9064
:1040B0000E9800690D9901F00701890000FA01F1DD
:1040C0000B9808430B900B980F990D9B02EA530233
:1040D00011440862FFE70F9800680B900D984100AB
:1040E000032000FA01F10B9888430B900E9840686A
:1040F00000F003000D99490000FA01F10B98084304
:104100000B900B980F9908600E9880798007002813
:1041100000F01581FFE7FFE744F2F440C5F6020026
:10412000016841F002010160006800F0020009909E
:104130000998FFE70D9820F0030040F20841C5F60A
:10414000000140580B900D9800F0030081000F20F3
:1041500000FA01F10B9888430B900F980021C5F6E7
:104160000201884203D1FFE7002008907AE00F980F
:1041700040F20041C5F60201884203D1FFE7012069
:1041800007906CE00F9840F60001C5F602018842E6
:1041900003D1FFE7022006905EE00F9840F6004151
:1041A000C5F60201884203D1FFE70320059050E0E5
:1041B0000F9841F20001C5F60201884203D1FFE7E2
:1041C0000420049042E00F9841F20041C5F602013C
:1041D000884203D1FFE70520039034E00F9841F6B1
:1041E0000001C5F60201884203D1FFE706200290D4
:1041F00026E00F9841F60041C5F60201884203D13E
:10420000FFE70720019018E00F9842F20001C5F681
:104210000201884203D1FFE7082000900AE00F99CD
:1042200042F20042C5F602020A20914208BF09206C
:104230000090FFE700980190FFE701980290FFE7E8
:1042400002980390FFE703980490FFE70498059015
:10425000FFE705980690FFE706980790FFE70798A5
:104260000890FFE708980D9901F00301890000FA12
:1042700001F10B9808430B900B980D9921F0030165
:1042800040F20842C5F6000288504FF0B040006886
:104290000B900C990B9888430B900E988079C00670
:1042A000002805D5FFE70C990B9808430B90FFE712
:1042B0000B984FF0B04108600420C5F6000000687C
:1042C0000B900C990B9888430B900E988079800680
:1042D000002805D5FFE70C990B9808430B90FFE7E2
:1042E0000B980421C5F6000108600A9840680B90FD
:1042F0000C990B9888430B900E98807980070028C2
:1043000005D5FFE70C990B9808430B90FFE70B9836
:104310000A9948600A9800680B900C990B9888439A
:104320000B900E988079C00728B1FFE70C990B9885
:1043300008430B90FFE70B980A990860FFE7FFE737
:104340000D9801300D9029E610B070470000000074
:1043500082B00190ADF802108DF801209DF80100A7
:1043600028B1FFE7BDF802000199886105E0BDF8BA
:104370000200000401998861FFE702B07047000065
:1043800041F20000C5F600400068000C70470000D4
:1043900044F2DC40C2F200400068704700000000B8
:1043A00040F21800C2F20040027844F2DC41C2F24E
:1043B00000410868104408607047000000000000D9
:1043C00080B582B0032000F023F901F019FC44F21B
:1043D0001842C5F602021168C1F3032348F2DC510A
:1043E000C0F60001CB5C03F01F03D840009000989A
:1043F000126802F00F02895C01F01F01C84040F210
:104400000401C2F200410860009840F20001C2F2CB
:10441000004108600F2000F013F820B1FFE70120F1
:104420008DF8070005E000F0BBF800208DF80700CC
:10443000FFE79DF8070002B080BD0000000000000B
:1044400080B582B0009040F21800C2F200400078BF
:1044500020B9FFE701208DF8070030E040F20000AE
:10446000C2F20040006840F21801C2F200410A782E
:104470004FF47A71B1FBF2F1B0FBF1F002F0A4FC61
:1044800020B1FFE701208DF8070018E000980F2801
:104490000DD8FFE700994FF0FF30002200F0A0F8A0
:1044A000009840F21C01C2F20041086003E00120C4
:1044B0008DF8070003E000208DF80700FFE79DF866
:1044C000070002B080BD000010B581B000900098D8
:1044D00040784EF69851CEF2000108604EF6A05199
:1044E000CEF20001086820F00100086000984068E2
:1044F0004EF69C52CEF200021060DDF800E09EF80D
:104500000C0000079EF80B2040EA02609EF8002095
:104510009EF808309EF809C09EF80A4040EAC44060
:104520009EF80D4040EA84409EF80E4040EA444028
:104530009EF80FE040EA0E4040EA0C2040EA4300BB
:104540001043086001B010BDBFF35F8F4EF62451D9
:10455000CEF20001086820F4803008604EF69451D5
:10456000CEF200010020086070470000000000004B
:1045700081B00090009840F001004EF69451CEF2C8
:10458000000108604EF62451CEF20001086840F4A4
:1045900080300860BFF34F8FBFF36F8F01B070475B
:1045A00081B0FFE744F2F440C5F60200016841F033
:1045B00002010160006800F0020000900098FFE72F
:1045C00001B070470000000080B582B0ADF8060071
:1045D000BDF9060003F018FC02B080BD0000000029
:1045E00080B586B0ADF816000491039203F024FC68
:1045F0000290BDF91600019002980499039A02F006
:1046000027FF0146019803F01FFC06B080BD0000A3
:1046100080B582B00190019803F03AFC02B080BDF1
:1046200080B584B0029044F60C00C5F60200006824
:1046300000F004010020B0EB910F13D1FFE744F626
:104640000C00C5F60200006800F0070002998842DD
:1046500004D0FFE701208DF80F002EE000208DF838
:104660000F002AE044F60C01C5F60201086820F0AC
:104670000700029A10430860FFF78AFE0190FFE7E7
:1046800044F60400C5F60200006800F40051002062
:10469000B0EB513F0DD1FFE7FFF77AFE0199401AC9
:1046A000B0F57A7F04D9FFE701208DF80F0004E010
:1046B000E6E700208DF80F00FFE79DF80F0004B03B
:1046C00080BD00000000000080B59AB01890002066
:1046D0008DF857008DF856001898C078000700280C
:1046E00048D5FFE71898806E149078B1FFE71498CA
:1046F000B0F5801F13D0FFE71498B0F5001F16D057
:10470000FFE71498B0F5401F19D019E044F22C418E
:10471000C5F60201086840F40030086014E01898FB
:104720000830022102F0D8FF8DF857000CE01898ED
:104730002830022103F0B8F88DF8570004E003E0B8
:1047400001208DF85700FFE79DF8570060B9FFE79B
:1047500044F25041C5F60201086820F44010189A4E
:10476000926E1043086004E09DF857008DF85600E3
:10477000FFE7FFE718984078C007002840D0FFE720
:104780001898806D1390042820D81399DFE801F061
:10479000030C141C1D0044F22C41C5F602010868EC
:1047A00040F40030086015E018980830002102F04D
:1047B00093FF8DF857000DE018982830002103F082
:1047C00073F88DF8570005E004E003E001208DF850
:1047D0005700FFE79DF8570060B9FFE744F25041EA
:1047E000C5F60201086820F00700189A926D104380
:1047F000086004E09DF857008DF85600FFE7FFE7DA
:1048000018984078800700284BD5FFE71898C06DAE
:10481000129088B1FFE71298402816D0FFE712984F
:1048200080281AD0FFE71298C0281ED0FFE7129800
:10483000B0F5807F1AD01AE044F22C41C5F602018F
:10484000086840F40030086015E01898083000212E
:1048500002F042FF8DF857000DE018982830002133
:1048600003F022F88DF8570005E004E003E0012092
:104870008DF85700FFE79DF8570060B9FFE744F255
:104880005041C5F60201086820F4E070189AD26D14
:104890001043086004E09DF857008DF85600FFE7CC
:1048A000FFE7189840784007002850D5FFE7189890
:1048B000D0F8A8001190A0B1FFE71198B0F5001F43
:1048C00018D0FFE71198B0F5800F1BD0FFE71198C3
:1048D000B0F5C00F1ED0FFE71198B0F5000F1AD049
:1048E0001AE044F22C41C5F60201086840F4003099
:1048F000086015E018980830002102F0EDFE8DF8F0
:1049000057000DE018982830002102F0CDFF8DF8F7
:10491000570005E004E003E001208DF85700FFE7B1
:104920009DF8570068B9FFE744F25841C5F6020107
:10493000086820F46000189AD2F8A8201043086094
:1049400004E09DF857008DF85600FFE7FFE7189840
:1049500040780007002850D5FFE71898D0F8AC0041
:104960001090A0B1FFE71098B0F1807F18D0FFE75A
:104970001098B0F1007F1BD0FFE71098B0F1407F96
:104980001ED0FFE71098B0F1806F1AD01AE044F201
:104990002C41C5F60201086840F40030086015E0BB
:1049A00018980830002102F097FE8DF857000DE0AE
:1049B00018982830002102F077FF8DF8570005E0A5
:1049C00004E003E001208DF85700FFE79DF8570051
:1049D00068B9FFE744F25841C5F60201086820F0C3
:1049E000E060189AD2F8AC201043086004E09DF80B
:1049F00057008DF85600FFE7FFE71898C07880074A
:104A000000283ED5FFE71898C06C0F90F0B1FFE783
:104A10000F98102808D0FFE70F9820280DD0FFE747
:104A20000F98302811D012E044F22C41C5F6020153
:104A3000086840F4003008600DE018980830022142
:104A400002F04AFE8DF8570005E004E003E0012083
:104A50008DF85700FFE79DF8570060B9FFE744F273
:104A60004C41C5F60201086820F03000189AD26C5B
:104A70001043086004E09DF857008DF85600FFE7EA
:104A8000FFE718984078C00600284ED5FFE7189831
:104A9000006E0E90A0B1FFE70E98B0F5805F18D0C1
:104AA000FFE70E98B0F5005F1BD0FFE70E98B0F55A
:104AB000405F1ED0FFE70E98B0F5804F1AD01AE085
:104AC00044F22C41C5F60201086840F40030086049
:104AD00015E018980830002102F0FEFD8DF857000F
:104AE0000DE018982830002102F0DEFE8DF8570006
:104AF00005E004E003E001208DF85700FFE79DF892
:104B0000570060B9FFE744F25041C5F6020108685A
:104B100020F4E040189A126E1043086004E09DF8FB
:104B200057008DF85600FFE7FFE718984078800699
:104B300000284CD5FFE71898406E0D90C8B1FFE7EC
:104B40000D98B0F5803F15D0FFE70D98B0F5003F08
:104B500018D0FFE70D98B0F5403F1BD0FFE70D9848
:104B6000B0F5802F17D0FFE70D98B0F5A02F13D028
:104B700013E016E018980830012102F0ADFD8DF821
:104B800057000EE018982830012102F08DFE8DF8B4
:104B9000570006E005E004E003E001208DF857002F
:104BA000FFE79DF8570060B9FFE744F25041C5F6B2
:104BB0000201086820F4E020189A526E1043086041
:104BC00004E09DF857008DF85600FFE7FFE71898BE
:104BD0004078400600284ED5FFE71898D0F8B0007E
:104BE0000C90C8B1FFE70C98B0F1805F15D0FFE7DB
:104BF0000C98B0F1005F18D0FFE70C98B0F1405F5F
:104C00001BD0FFE70C98B0F1804F17D0FFE70C984E
:104C1000B0F1A04F13D013E016E01898083001212E
:104C200002F05AFD8DF857000EE018982830012147
:104C300002F03AFE8DF8570006E005E004E003E0DC
:104C400001208DF85700FFE79DF8570068B9FFE78E
:104C500044F25841C5F60201086820F0E040189A75
:104C6000D2F8B0201043086004E09DF857008DF89A
:104C70005600FFE7FFE718984078000600283BD56C
:104C8000FFE71898006F0B90D8B1FFE70B98B0F1D1
:104C9000805F05D0FFE70B98B0F1005F09D011E00D
:104CA00044F22C41C5F60201086840F40030086067
:104CB0000CE018980830012102F00EFD8DF8570025
:104CC00004E003E001208DF85700FFE79DF857004E
:104CD00060B9FFE744F25041C5F60201086820F0D0
:104CE0004050189A126F1043086004E09DF8570076
:104CF0008DF85600FFE7FFE71898C078C007002836
:104D000037D0FFE71898806C0A90032817D80A99C3
:104D1000DFE801F014020B1344F22C41C5F6020146
:104D2000086840F4003008600DE01898083002214F
:104D300002F0D2FC8DF8570005E004E003E001200A
:104D40008DF85700FFE79DF8570060B9FFE744F280
:104D50004C41C5F60201086820F00300189A926CD5
:104D60001043086004E09DF857008DF85600FFE7F7
:104D7000FFE7189880784006002840F1B480FFE7EC
:104D800044F60001C5F60201086840F4807008602E
:104D9000FFF7FEFA1690FFE744F60000C5F60200A2
:104DA0000068C00500280CD4FFE7FFF7F1FA169958
:104DB000401A652804D3FFE703208DF8570000E070
:104DC000EAE79DF85700002840F08780FFE744F2AB
:104DD0007040C5F60200006800F440701899D1F8E0
:104DE000B41001F44071884213D0FFE744F27041DF
:104DF000C5F60201086820F440701790086840F476
:104E000080300860086820F48030086017980860D7
:104E1000FFE71898D0F8B400B0F5807F1FD1FFE706
:104E2000FFF7B6FA1690FFE744F27040C5F60200AD
:104E3000006800F002010020B0EB510F0ED1FFE737
:104E4000FFF7A6FA1699401A41F28931884204D335
:104E5000FFE703208DF8570000E0E5E7FFE79DF846
:104E60005700A0BBFFE7FFE71898D0F8B40000F4A4
:104E70004070B0F5407F13D1FFE744F21041C5F612
:104E80000201086820F47C50189AD2F8B4204FF63A
:104E9000F043C0F6FF731A4040EA1210086008E0C1
:104EA00044F21041C5F60201086820F47C50086005
:104EB000FFE71898D0F8B4206FF31F3244F2704126
:104EC000C5F60201086810430860FFE704E09DF89A
:104ED00057008DF85600FFE704E09DF857008DF865
:104EE0005600FFE7FFE718980068C007002800F0A9
:104EF0004C80FFE71898C06F099028282BD8099993
:104F0000DFE801F015292929292929291629292924
:104F1000292929291E29292929292929262929290F
:104F2000292929292729292929292929280016E079
:104F300018980830012102F0CFFB8DF857000EE0E1
:104F400018982830012102F0AFFC8DF8570006E0D8
:104F500005E004E003E001208DF85700FFE79DF82D
:104F6000570060B9FFE744F25441C5F602010868F2
:104F700020F03800189AD26F1043086004E09DF8C2
:104F800057008DF85600FFE7FFE718980078800774
:104F9000002839D5FFE71898806F0890052819D8A0
:104FA0000899DFE801F003040C14151616E01898B0
:104FB0000830012102F090FB8DF857000EE01898A0
:104FC0002830012102F070FC8DF8570006E005E062
:104FD00004E003E001208DF85700FFE79DF857003B
:104FE00060B9FFE744F25441C5F60201086820F0B9
:104FF0000700189A926F1043086004E09DF857006C
:105000008DF85600FFE7FFE7189800784007002862
:105010003BD5FFE71898D0F894000790052819D8D9
:105020000799DFE801F003040C14151616E0189830
:105030000830012102F050FB8DF857000EE018985F
:105040002830012102F030FC8DF8570006E005E021
:1050500004E003E001208DF85700FFE79DF85700BA
:1050600068B9FFE744F25841C5F60201086820F02C
:105070000700189AD2F894201043086004E09DF8C5
:1050800057008DF85600FFE7FFE718980078800674
:1050900000284ED5FFE71898D0F890000690C8B1C8
:1050A000FFE70698B0F1805F15D0FFE70698B0F1F2
:1050B000005F18D0FFE70698B0F1405F1BD0FFE714
:1050C0000698B0F1804F17D0FFE70698B0F1A04FD7
:1050D00013D013E016E018980830002102F0FCFA13
:1050E0008DF857000EE018982830022102F0DCFB02
:1050F0008DF8570006E005E004E003E001208DF89C
:105100005700FFE79DF8570068B9FFE744F25441A4
:10511000C5F60201086820F0E040189AD2F8902005
:105120001043086004E09DF857008DF85600FFE733
:10513000FFE718980078400600284ED5FFE718983A
:10514000D0F89C000590C8B1FFE70598B0F5806FD6
:1051500015D0FFE70598B0F5006F18D0FFE7059868
:10516000B0F5406F1BD0FFE70598B0F5805F17D012
:10517000FFE70598B0F5A05F13D013E016E018988C
:105180000830002102F0A8FA8DF857000EE01898B8
:105190002830022102F088FB8DF8570006E005E078
:1051A00004E003E001208DF85700FFE79DF8570069
:1051B00068B9FFE744F25841C5F60201086820F4D7
:1051C000E050189AD2F89C201043086004E09DF843
:1051D00057008DF85600FFE7FFE7189800780006A3
:1051E00000284ED5FFE71898D0F8A0000490C8B169
:1051F000FFE70498B0F5005F15D0FFE70498B0F51D
:10520000804F18D0FFE70498B0F5C04F1BD0FFE7E0
:105210000498B0F5004F17D0FFE70498B0F5204F81
:1052200013D013E016E018980830002102F054FA69
:105230008DF857000EE018982830022102F034FB58
:105240008DF8570006E005E004E003E001208DF84A
:105250005700FFE79DF8570068B9FFE744F258414F
:10526000C5F60201086820F46040189AD2F8A02020
:105270001043086004E09DF857008DF85600FFE7E2
:10528000FFE7189800780007002820D5FFE7189856
:10529000D0F88400B0F5805F0CD1FFE71898283073
:1052A000022102F001FB20B1FFE701208DF856003A
:1052B000FFE7FFE744F25441C5F60201086820F415
:1052C0004050189AD2F8842010430860FFE71898DD
:1052D0000078C006002820D5FFE71898D0F898007D
:1052E000B0F5807F0CD1FFE718982830022102F03A
:1052F000DBFA20B1FFE701208DF85600FFE7FFE75A
:1053000044F25841C5F60201086820F44070189A2A
:10531000D2F8982010430860FFE7189880780007BB
:1053200000283CD5FFE71898D0F8A400039050B1AE
:10533000FFE70398B0F5803F0DD0FFE70398B0F585
:10534000003F10D010E018980830002102F0C4F996
:105350008DF857000CE018982830022102F0A4FACA
:105360008DF8570004E003E001208DF85700FFE7B7
:105370009DF8570068B9FFE744F25841C5F60201AD
:10538000086820F44030189AD2F8A420104308602E
:1053900004E09DF857008DF85600FFE7FFE71898E6
:1053A0008078400700283FD5FFE71898D0F888009C
:1053B0000290B0F5801F0AD0FFE70298B0F5001FF9
:1053C0000ED0FFE70298B0F5401F11D011E044F273
:1053D0002C41C5F60201086840F4003008600CE07A
:1053E00018982830012102F05FFA8DF8570004E088
:1053F00003E001208DF85700FFE79DF8570068B9DA
:10540000FFE744F25441C5F60201086820F4401059
:10541000189AD2F888201043086004E09DF85700DD
:105420008DF85600FFE7FFE718988078C007A8B30B
:10543000FFE71898006D019028B1FFE70198B0F5DB
:10544000803F09D010E044F22C41C5F60201086803
:1054500040F4003008600BE018980830022102F098
:105460003BF98DF8570003E001208DF85700FFE766
:105470009DF8570060B9FFE744F24C41C5F60201C0
:10548000086820F48030189A126D1043086004E018
:105490009DF857008DF85600FFE7FFE71898C07891
:1054A000800600280CD5FFE718982830022102F06A
:1054B000FBF920B1FFE701208DF85600FFE7FFE779
:1054C00018988078800700283CD5FFE71898D0F816
:1054D00080000090D0B1FFE70098B0F5807F0AD03F
:1054E000FFE70098B0F5007F0ED0FFE70098B0F519
:1054F000407F0AD00BE044F22C41C5F60201086857
:1055000040F40030086006E005E004E003E001201C
:105510008DF85700FFE79DF8570068B9FFE744F2A0
:105520005441C5F60201086820F44070189AD2F878
:1055300080201043086004E09DF857008DF8560065
:10554000FFE7FFE718988078C00600280CD5FFE732
:1055500044F25041C5F60201086820F00040189A54
:10556000526F10430860FFE71898C078C006002803
:105570000DD5FFE744F21041C5F60201086820F49A
:105580008040189AD2F8B82010430860FFE71898B6
:105590008078800600280CD5FFE744F25041C5F61C
:1055A0000201086820F08070189AD26E10430860DB
:1055B000FFE71898C0784006002811D5FFE7FFE7FD
:1055C00044F21041C5F60201086820F4004008606A
:1055D0001898D0F8BC20086810430860FFE7FFE780
:1055E0001898C078000600280CD5FFE744F24C411B
:1055F000C5F60201086820F04050189A526D104319
:105600000860FFE718988078000600280DD5FFE7AE
:1056100044F25441C5F60201086820F44000189A8B
:10562000D2F88C2010430860FFE718980079C00773
:1056300090B1FFE718980830002102F04DF88DF87E
:1056400057009DF8570008B9FFE704E09DF85700A0
:105650008DF85600FFE7FFE71898007980070028CB
:1056600012D5FFE718980830012102F035F88DF8BF
:1056700057009DF8570008B9FFE704E09DF8570070
:105680008DF85600FFE7FFE71898007940070028DB
:1056900012D5FFE718980830022102F01DF88DF8A6
:1056A00057009DF8570008B9FFE704E09DF8570040
:1056B0008DF85600FFE7FFE71898007900070028EB
:1056C00012D5FFE718982830002102F0EDF88DF888
:1056D00057009DF8570008B9FFE704E09DF8570010
:1056E0008DF85600FFE7FFE718980079C0060028FC
:1056F00012D5FFE718982830012102F0D5F88DF86F
:1057000057009DF8570008B9FFE704E09DF85700DF
:105710008DF85600FFE7FFE718980079800600280B
:1057200012D5FFE718982830022102F0BDF88DF855
:1057300057009DF8570008B9FFE704E09DF85700AF
:105740008DF85600FFE7FFE79DF8560020B9FFE708
:1057500000208DF8670003E001208DF86700FFE767
:105760009DF867001AB080BD80B586B004900391A3
:10577000049820B9FFE701208DF817003CE2039858
:1057800042F20001C5F20021096801F00F018842D0
:1057900016D9FFE742F20000C5F20020016821F0AF
:1057A0000F01039A11430160006800F00F00039994
:1057B000884204D0FFE701208DF817001CE2FFE7C4
:1057C000049800784007002819D5FFE7049800697D
:1057D00044F21841C5F60201096801F070018842DF
:1057E0000CD9FFE744F21841C5F60201086820F021
:1057F0007000049A126910430860FFE7FFE70498FD
:1058000000780007002819D5FFE70498406944F2A2
:105810001C41C5F60201096801F0700188420CD9EB
:10582000FFE744F21C41C5F60201086820F0700051
:10583000049A526910430860FFE7FFE70498007874
:10584000C006002819D5FFE70498806944F21C417E
:10585000C5F60201096801F4E06188420CD9FFE74E
:1058600044F21C41C5F60201086820F4E060049A85
:10587000926910430860FFE7FFE70498007880060C
:10588000002819D5FFE70498C06944F22041C5F605
:105890000201096801F0700188420CD9FFE744F267
:1058A0002041C5F60201086820F07000049AD26910
:1058B00010430860FFE7FFE704980078800700289E
:1058C00019D5FFE70498C06844F21841C5F60201F3
:1058D000096801F00F0188420CD9FFE744F2184132
:1058E000C5F60201086820F00F00049AD268104340
:1058F0000860FFE7FFE704980078C007002800F081
:105900008C80FFE744F21841C5F60201086820F4D4
:105910007060049A926810430860049840680228F6
:1059200011D1FFE744F20040C5F60200006800F420
:1059300000310020B0EB514F04D1FFE701208DF87A
:10594000170059E13EE004984068032811D1FFE7B1
:1059500044F20040C5F60200006800F0007100202B
:10596000B0EB516F04D1FFE701208DF8170043E140
:1059700027E004984068012811D1FFE744F2004075
:10598000C5F60200006800F480710020B0EB112F12
:1059900004D1FFE701208DF817002DE110E044F25B
:1059A0000040C5F60200006800F004010020B0EBE2
:1059B000910F04D1FFE701208DF817001CE1FFE7EC
:1059C000FFE7FFE744F21041C5F60201086820F046
:1059D0000700049A526810430860FEF7D9FC019052
:1059E000FFE744F21040C5F60200006800F03800FE
:1059F00004994968B0EBC10F0ED0FFE7FEF7C8FC71
:105A00000199401A41F28931884204D3FFE703200B
:105A10008DF81700F0E0E4E7FFE7049800788007CE
:105A2000002819D5FFE70498C06844F21841C5F66C
:105A30000201096801F00F0188420CD2FFE744F22D
:105A40001841C5F60201086820F00F00049AD268D8
:105A500010430860FFE7FFE7039842F20001C5F238
:105A60000021096801F00F01884216D2FFE742F2D7
:105A70000000C5F20020016821F00F01039A1143D4
:105A80000160006800F00F000399884204D0FFE72E
:105A900001208DF81700AFE0FFE704980078400779
:105AA000002819D5FFE70498006944F21841C5F6AB
:105AB0000201096801F0700188420CD2FFE744F24C
:105AC0001841C5F60201086820F07000049A1269B6
:105AD00010430860FFE7FFE70498007800070028FC
